:020000040800F2
:10000000A8FC00202D020008D34900084D1000086C
:10001000D1490008B1090008F56E00080000000091
:100020000000000000000000000000001769000848
:10003000930C000800000000F94F00082B6B00082B
:10004000470200084702000847020008470200086C
:10005000470200084702000847020008470200085C
:10006000470200084702000847020008470200084C
:10007000470200084702000847020008470200083C
:10008000470200084702000847020008470200082C
:10009000470200084702000847020008470200081C
:1000A000470200084702000847020008470200080C
:1000B00047020008470200087D6B0008470200085D
:1000C00047020008470200084702000847020008EC
:1000D00047020008596D000847020008470200085F
:1000E00047020008470200084702000847020008CC
:1000F00047020008470200084702000847020008BC
:1001000047020008BD5400084702000847020008E3
:100110004702000847020008B96B000847020008C0
:10012000470200084702000847020008470200088B
:1001300000F002F800F06BF80AA090E8000C82448E
:100140008344AAF10107DA4501D100F060F8AFF26B
:10015000090EBAE80F0013F0010F18BFFB1A43F0A5
:100160000103184738C4000058C400000A444FF087
:10017000000C10F8013B13F0070408BF10F8014B06
:100180001D1108BF10F8015B641E05D010F8016B4B
:10019000641E01F8016BF9D113F0080F1EBF10F8AF
:1001A000014BAD1C0C1B09D16D1E58BF01F801CBD2
:1001B000FAD505E014F8016B01F8016B6D1EF9D555
:1001C0009142D6D37047000000230024002500266A
:1001D000103A28BF78C1FBD8520728BF30C148BFAA
:1001E0000B607047642900F0D580752900F0D2803B
:1001F000782900F00B81632900F03983732900F01E
:100200003E83002070471FB51FBD10B510BD00F024
:1002100083FB1146FFF7F7FF08F026FB00F0A1FB78
:1002200003B4FFF7F2FF03BC06F0D9FF094880478B
:1002300009480047FEE7FEE7FEE7FEE7FEE7FEE7C8
:10024000FEE7FEE7FEE7FEE704480549034A054BE3
:10025000704700002D6B000831010008A8F800204D
:10026000A8FC0020A8F80020704710B54C1084EAC4
:10027000530404D54042C1F1000138BF491E1B425E
:1002800004D55242C3F1000338BF5B1E00F0F7F9FA
:1002900014F0804F04D04042C1F1000138BF491E24
:1002A00014F0004F04D05242C3F1000338BF5B1E6C
:1002B00010BD00000FB4044910B503AA029800F065
:1002C000E3FA10BC5DF814FB380000200FB41CB535
:1002D000074B06AA7B4469460090059800F0A5FAF2
:1002E0000020694600F0B4FA1CBC5DF814FB000065
:1002F0007905000070B5044685690068C10601D51E
:10030000302600E02026C00707D070BDD4E90121C7
:1003100030469047206A401C20626D1EF6D570BDA5
:1003200070B5044685690078C00707D170BDD4E96F
:10033000012120209047206A401C20626D1EF6D5C6
:1003400070BD70B50C460546012A05D02878800698
:1003500000D5EA69002302E0012305E05B1C93421B
:1003600002D2E05C0028F9D1A869E618C01AA86199
:10037000286A184428622846FFF7BCFF04E0D5E944
:10038000012114F8010B9047B442F8D32846FFF737
:10039000C7FF70BD2DE9F04106460024106875299D
:1003A000314616A510D0AFF30080002802DA404293
:1003B00013A507E031688A0701D512A502E04907B5
:1003C00004D511A5012401E0AFF3008000210A2229
:1003D00006F1240709E0B0FBF2FCB0FBF2F302FBEC
:1003E0001C00303078541846491C0028F3D12346AD
:1003F0002A463046BDE8F04100F0B8B900000000E0
:100400002D0000002B0000002000000070B5044605
:100410000D4621461068AFF300802188090502D5FA
:100420000F4A7A4402E00E4A7A440E32002104F167
:10043000240305E000F00F060009965D5E54491C98
:100440000028F7D120780023000704D5702D02D0B2
:1004500009B1022311322046BDE8704000F086B990
:1004600098BE00002DE9F05F894604464FF0000A6F
:10047000DFF874B1FB44C0F820A02046E16888474B
:10048000002874D0252806D0D4E901219047206A9D
:10049000401C2062F1E700265F462046E16888475D
:1004A0002028054607DB312D05D2781910F8200CDD
:1004B00008B10643F1E7B00701D526F00406C4F8F9
:1004C0001CA00027C4F818A02A2D09D0284606F041
:1004D0007FFE38B304EB8708303DC8F8185019E0A8
:1004E00059F8041B204604EB87029161E1688847B4
:1004F000012F054618D1E069002820DA26F02006F1
:100500001DE0D8F8180000EB800005EB4000303803
:10051000C8F818002046E1688847054606F058FEEE
:100520000028EED1012F0AD02E2D08D12046E168F7
:1005300088477F1C0546022F46F02006C4DBA069D1
:10054000002803DA404246F00106A061F00701D01E
:1005500026F010066C2D0BD0682D09D04C2D39D00B
:100560006A2D35D0742D35D07A2D33D016E038E091
:10057000E1682F4620468847B842054609D16C2FCE
:1005800026D04FF48060E168064320468847054640
:1005900004E06C2F1AD04FF4807006430DB3A5F120
:1005A0004100192802D8203546F400664A462946FB
:1005B000204626604E46FFF715FE80B101280BD07D
:1005C000F61D26F0070000F1080956E74020E4E791
:1005D0008020D8E70020D6E706F104094DE7284639
:1005E00052E7206ABDE8F09F6EBE0000032A40F289
:1005F000308010F0030C00F0158011F8013BBCF1C5
:10060000020F624498BF11F801CB00F8013B38BFDC
:1006100011F8013BA2F1040298BF00F801CB38BFEA
:1006200000F8013B11F0030300F04081083AC0F0EC
:10063000088051F8043B083A51F804CBA0E80810B0
:10064000F5E7121D5CBF51F8043B40F8043BAFF3E3
:100650000080D20724BF11F8013B11F801CB48BF3D
:1006600011F8012B24BF00F8013B00F801CB48BF73
:1006700000F8012B7047704770477047704753EA86
:10068000020C00F069802DE9F04B4FF00006002BC2
:100690001FBFB3FA83F503FA05F424FA05F65E40AA
:1006A00012BF1643B2FA82F502FA05F4C5F120052D
:1006B0001EBF22FA05FC44EA0C04203556EA044C1D
:1006C0004FEA144418BF641C4FF000084FF00009B3
:1006D000904271EB030C39D3002919BFB1FA81F7AD
:1006E00001FA07F6B0FA80F700FA07F6C7F120071B
:1006F0001EBF20FA07FC46EA0C062037B6FBF4FCC6
:10070000A7EB0507103F07F01F0BCBF120060CFAF3
:100710000BFB2CFA06F644BFB3460026202FA4BFDD
:100720005E464FF0000B5BEA060C08BF4FF0010B72
:1007300019EB0B09ABFB027C48EB0608C01B06FB60
:1007400002CC0BFB03CC71EB0C01C1E70B4602465C
:1007500041464846BDE8F08B13B54FF000004FF01E
:100760000001AFF30080BDE81C4070472DE9F04761
:100770000D4699469246044600F124080168880611
:1007800004D5E06921F01001216000E00120A842B9
:1007900001DD471B00E00027A1697A1902EB09007F
:1007A000081AA0612078C00602D42046FFF7A2FDF7
:1007B000002608E0D4E901211AF806009047206AD3
:1007C000401C761C20624E45F4DB2078C0060AD51A
:1007D0002046FFF78FFD06E0D4E901213020904745
:1007E000206A401C2062381EA7F10107F4DC07E0F4
:1007F000D4E9012118F805009047206A401C2062C6
:10080000281EA5F10105F3DC2046FFF789FD2078BD
:10081000000602D50220BDE8F0870120FBE70000BA
:1008200001694A1C02610878704700B58FB0CDE9B4
:1008300001310021059105497944CDE903101146A4
:100840006846FFF70FFE0FB000BD0000E5FFFFFF99
:100850000A6802F8010B0A60704710B5436913B1CA
:10086000AFF3008001E0FFF76CFD012010BD1278AE
:1008700000F124010A7000224A700122EDE711689C
:100880004FF0FF32E9E70000074B70B50D467B449F
:10089000FFF7CBFF0446284600F03AF810B14FF0BE
:1008A000FF3070BD204670BD237E000010B5203A99
:1008B000C0F00B80B1E81850203AA0E81850B1E819
:1008C0001850A0E81850BFF4F5AF5FEA027C24BFCF
:1008D000B1E81850A0E8185044BF18C918C0BDE8C6
:1008E00010405FEA827C24BF51F8043B40F8043B8F
:1008F00008BF7047D20728BF31F8023B48BF11F844
:10090000012B28BF20F8023B48BF00F8012B70479D
:10091000007B00F080007047754600F029F8AE4675
:1009200005006946534620F00700854618B020B5FB
:10093000FFF78AFCBDE820404FF000064FF00007AB
:100940004FF000084FF0000B21F00701AC46ACE877
:10095000C009ACE8C009ACE8C009ACE8C0098D46E4
:1009600070470446AFF300802046FFF759FC0000B3
:100970000048704744F8002038B50121082004F0F1
:1009800055FB4FF48074ADF8004010208DF8030043
:100990000320064D8DF802006946284600F08AFAC9
:1009A0002146284600F007FB38BD0000000C01403E
:1009B000FEE770B500254FF4803405E0802004F098
:1009C0006BFD08B144B101E0641EF7D240F2FF5064
:1009D00004F01EFD284670BD032070BD70B5124C9A
:1009E0000546616B11F0450FFBD0042004F054FD67
:1009F00020B1042004F00CFD032070BD012004F0A0
:100A00004BFD20B1012004F003FD012070BD2069E1
:100A1000A84201D0102070BD40F2FF50A063606971
:100A200000F0080070BD00000080014010B50024F7
:100A30004FF480310E4809E0426B12F0450F05D0AB
:100A400009B1500705D5032404200CE0491EF3D258
:100A5000F7E7012004F020FD18B10124204604F03E
:100A6000D7FC40F2FF5004F0D3FC204610BD00003C
:100A70000080014010B50A49486B10F0450FFBD0CB
:100A8000042004F009FD20B1042004F0C1FC03207F
:100A900010BD40F2FF5004F0BBFC002010BD000070
:100AA000008001402DE9F0411B4C0E460746002511
:100AB000606B10F0450FFBD0042004F0EDFC28B172
:100AC000042004F0A5FC0320BDE8F081012004F01F
:100AD000E3FC20B1012004F09BFC0120F4E7206935
:100AE000B84210D140F2FF5004F092FC626912F457
:100AF000604F03D0900404D51320E5E7100C30803C
:100B000007E0500401D51020DEE7100401D50F20C6
:100B1000DAE72846D8E700000080014010B500243D
:100B20004FF480320B4809E0416B11F0450F05D0BE
:100B30000AB1480705D50324042006E0521EF3D26B
:100B4000F7E7480603D50024402004F061FC204666
:100B500010BD0000008001400029016802D041F072
:100B6000010102E04FF6FE72114001607047000083
:100B700001684FF6FE721140016000210160416082
:100B80008160C1603149314A0839904203D14868D7
:100B900040F00F0006E02D4A1432904204D148681C
:100BA00040F0F00048607047284A2832904203D154
:100BB000486840F47060F5E7244A3C32904203D123
:100BC000486840F47040EDE7204A5032904203D12B
:100BD000486840F47020E5E71C4A6432904203D133
:100BE000486840F47000DDE7184A7832904203D13B
:100BF000486840F07060D5E7154A111F904203D154
:100C0000086840F00F0006E0114A1432904204D107
:100C1000086840F0F000086070470D4A28329042A2
:100C200003D1086840F47060F5E7094A3C3290420D
:100C300003D1086840F47040EDE7054A5032904215
:100C4000EAD1086840F47020E5E70000080002409F
:100C50000804024030B5026847F6F0739A430C6A04
:100C60008B682343D1E904452C4323438C692343F8
:100C7000CC6923434C6A23438C6A234313430360A8
:100C8000CA6842600A6882604968C16030BD4160DC
:100C9000704770478000A0F1C0400029016802D071
:100CA00041F0010101E0024A11400160704700007B
:100CB000FEFF0F0010B5D0E901121143D0E9032364
:100CC0001A4311434269114382691143C2691143B6
:100CD000026A1143426A1143826A1143C26A114394
:100CE000026B114302689200A2F1C0421160816858
:100CF000082907D101688900A1F1C0410A6842F0C2
:100D000040020A60416BD1E9002342EA03128B687A
:100D10008C891B0243EA04431A430B8A42EA0352BA
:100D20000B7D896942EA03620A4301688900A1F1E7
:100D3000C0414A60C16AB1F5804F08D000686FF0C9
:100D400070418000A0F1C040C0F8041110BD816B5B
:100D5000D1E9002342EA03128B680C8A1B0243EAA2
:100D600004531A430B7D896942EA036200680A430F
:100D70008000A0F1C040C0F8042110BD2DE9FC475F
:100D80000024494F00944FF0080A019410204FF0BE
:100D90004009C7F800A0C7E901094FF48068C7E916
:100DA00003480E462546384604F0A6FB1020FFF700
:100DB00015FE00284DD13D480089000438603720D9
:100DC000C7E90109C7E90358384604F095FB372005
:100DD000FFF704FE00283CD1411E07F11400C0E9D2
:100DE000001A302181600221C0E90315012141610F
:100DF00004F02AFB3320C7F80890C7E90050C7E980
:100E00000358384604F078FB3320FFF7E7FD050070
:100E10001FD1DFF89C804FF4001A6F4640F22A6918
:100E2000D8F8340010EA090F0BD1504604F034FB17
:100E30000028F5D004F05AFB47F82400641C022C6B
:100E4000EED3082004F028FB28B1082004F0E0FAD3
:100E50000420BDE8FC87022004F01EFB20B1022024
:100E600004F0D6FA0220F4E7202004F015FB20B1AC
:100E7000202004F0CDFA0620EBE74FF40074204662
:100E800004F00AFB20B1204604F0C2FA0720E0E794
:100E900040F2FF5004F0BCFA009800BA706001986C
:100EA00000BA30602846D4E7580200202000002015
:100EB00000800140F0B5CC78002204F00F03E40676
:100EC00001D58C7823430C784FF00F0C14F0FF0FF2
:100ED0004FF0010E1BD005680E880EFA02F4264072
:100EE000A64210D196000CFA06F725EA070703FA86
:100EF00006F5CE783D43282E02D0482E02D002E0DF
:100F0000446100E00461521C082AE5D305600A88A8
:100F1000FF2A1CD94468002202F108060EFA06F5E1
:100F20000E882E40AE420ED196000CFA06F7BC4356
:100F300003FA06F7CE783C43282E00D14561CE78DF
:100F4000482E00D10561521C082AE5D34460F0BD4B
:100F5000F0B5144C002801DAE36900E06368450D40
:100F60002E0185B2C0F30157B540C0F30342032FF1
:100F700005D0C6020AD503269640B34307E023F006
:100F80007062636823F07063636002E0AB4343F018
:100F9000706201B12A43002801DAE261F0BD6260AB
:100FA000F0BD0000000001400246002092680A42A5
:100FB00000D0012070474161704701617047000017
:100FC00030B40C4601461546500700D0012000EB16
:100FD000D5006843C2B208784B78812809D3402BEA
:100FE00007D3FF2B05D0FF2803D07F2B0CD2403B2B
:100FF0000BE00023184603E05B1C04F8010BDBB296
:101000009342F9D330BC7047413B8138D9B2C0B26A
:10101000C0EB401303EB801001EB400050430A4942
:101020000C2D0AD0102D0BD0182DEBD1D1F81910A2
:101030000144204630BC05F0B7BFD1F80910F7E7EE
:10104000D1F81110F4E7000020F80020FEE772B696
:10105000704762B6704700007CB5054600211E4807
:1010600000910191008902041C4802600D22426037
:101070004022C0E902211101016104F03DFA184C3F
:10108000606B0190014601E0616B019111F0450F29
:10109000FAD0012004F000FA20B1012004F0B8F9E0
:1010A00001207CBD042004F0F7F920B1042004F0F5
:1010B000AFF903207CBD20690D2801D010207CBD34
:1010C00040F2FF5004F0A4F960690090C0F343209F
:1010D000287000207CBD0000200000205802002065
:1010E0000080014008B50121442003F09FFF1C202F
:1010F000ADF8000048208DF8030069460648FFF768
:10110000D9FE0120ADF8000028208DF803006946C3
:101110000248FFF7CFFE08BD00180140000801405B
:101120002DE9F0412E4C2F4F2F4D012608B126708E
:1011300001E02078A0B110212846FFF735FFB0B1BB
:1011400008212846FFF730FF88B104212846FFF721
:101150002BFF60B101213846FFF726FF012806D09A
:1011600010212846FFF720FF012824D035E00A206F
:1011700006F014FB0020207010212846FFF714FF12
:1011800080B108212846FFF70FFF70B104212846DF
:10119000FFF70AFF58B101213846FFF705FF012884
:1011A00007D01AE00120BDE8F0810220FBE7032010
:1011B000F9E70420F7E708212846FFF7F5FE0128A4
:1011C0000BD104212846FFF7EFFE012805D10121AC
:1011D0003846FFF7E9FE00B926700020E3E700007B
:1011E000180000200008014000180140C0F345111C
:1011F000C20AC00200EB4110104480B270470000E8
:101200002DE9F043174F0646002438887D88454372
:10121000B888A0F5D041043902D1B879012807D0A7
:101220000021084603F028FA03F05AFB0E4815E0A7
:101230000020B8714FF02A09A7F80A904FF02B0848
:10124000A7F80C80014603F017FA0120B871A7F83F
:101250000A80A7F80C90E7E70680641CAC42FBD339
:10126000BDE8F0832C0200200008006C2DE9F04F4F
:101270004A492A232B24898845F2105A4FF4305BBF
:101280004FF4285E4FF448754FF0F00C49F24139A5
:101290004FF4A07745F210364FF4F07280B13F481A
:1012A0004FF00108494580F806800780A0F802C089
:1012B00001D0B1423ED12C2505814381848157E084
:1012C00036484FF00008494580F80680A0F800C075
:1012D000478006D0A1F5D04CBCF1040C01D0B1423E
:1012E0000CD12C2505814381A1F5D0438481043B99
:1012F00001D0B14244D10780428041E0514507D13D
:10130000A0F808B0A0F80AE04FF42C5181810EE05B
:10131000A1F5C856633E06D02221018120214181DA
:10132000212181812CE02C21018144818381028053
:10133000458025E0A1F5D04CBCF1040C09D0514505
:101340000BD1A0F808B0A0F80AE04FF42C53838129
:1013500021E02C250581448109E0A1F5C85CBCF1A0
:10136000630C12D022230381212343812023838114
:10137000A1F5D043043B01D0B14201D102804780A6
:10138000BDE8F04F002003F0A3B84FF02C0CA0F8FC
:1013900008C04381848105804280E9E72C02002057
:1013A0002DE9F04FDFF80C81934642460B46B8F822
:1013B00004500C0ADFF800A19189060A5289A5F5AC
:1013C00013470AF10209413F18D0A5F5A647103F7F
:1013D00014D0B7F500771CD04746A5F5C85CBE7998
:1013E0003F883F1A7F1EBCF1630C27D0A5F5D04C77
:1013F000BCF1040C3AD0012E4AD04AE0AAF80020F1
:101400004A46A9F80060C0B2A9F80000AAF8001086
:101410003AE0AAF80020A9F80060521CAAF80020BF
:10142000C0B2A9F80000AAF80010A9F80040491CB1
:10143000AAF80010D8B2A9F8000033E006B9B8B293
:10144000AAF80020050A4A46A9F80050C7B2A9F830
:101450000070A9F80050C0B2A9F80000AAF8001066
:10146000A9F80040D8B2A9F800000DE0012E00D183
:10147000B8B2AAF80020050A4A46A9F80050C0B23E
:10148000A9F80000AAF800101480D8B2108009E072
:10149000B8B20146104603F02DFAB8F80C00194610
:1014A00003F028FAB8F80810AAF80010A9F800B05C
:1014B000BDE8F08F2C020020FE07006C2DE9F843F8
:1014C0001F4D1F468046AB88089EA3F5D0400438C8
:1014D00002D1A879012807D0A2EB0800401C85B2F0
:1014E0000C46DFF8609028E02B880846991A002403
:1014F000AC713A462A24A3EB08036C812B27491EC2
:101500005B1EAF8189B29BB20096FFF7D7FF012027
:10151000A8716F81AC81BDE8F8832146404603F095
:10152000ABF803F0DDF90020494602E00E80401CD4
:1015300080B2A842FAD3641CA4B2BC42EDD9EAE757
:101540002C0200200008006C2DE9F04F01210E0252
:101550009FB0304603F052FD01214FF4B47003F008
:1015600065FD0127ADF83C704FF010088DF83F8005
:1015700003248DF83E400FA9FE48FFF79BFC4CF278
:101580003370ADF83C0018258DF83F508DF83E4083
:101590000FA9F948FFF78EFC4FF68070ADF83C00BC
:1015A0008DF83F508DF83E400FA9F448FFF782FCBC
:1015B00041F20100ADF83C008DF83F508DF83E40FF
:1015C0000FA9EF48FFF776FC00200F21CDE91801A5
:1015D0001A901B901C901D901090CDE91104CDE93C
:1015E0001607149006211590CDE90010CDE90208E8
:1015F000139004903101CDE9080106900590079001
:101600008900CDE90A010C9017A80D9010A80E9042
:101610006846FFF74FFB01210620FFF73BFB322016
:1016200006F0BCF8002002F029FFD64DD64C49F256
:101630004139A88046F6040A45F2103B45F210579E
:101640004FF6FF78FF2804D3404502D0B0F5134F82
:1016500070D1D320208002F083FEA88002F080FEAB
:10166000A88002F07DFE08EA00204146A88002F032
:1016700077FEAA881043A88048455BD0BF20208011
:1016800002F06EFEA88002F06BFEA88002F068FEF9
:10169000A88002F065FE01EA0020A88002F060FE4A
:1016A000AA881043A880504544D0D420208002F05E
:1016B00057FEA88002F054FEA88002F051FE01EA15
:1016C0000020A88002F04CFEAA881043A88058454C
:1016D00030D04FF45A40208002F042FEA8804FF4F0
:1016E0005B40208002F03CFE01EA0020A8804FF41D
:1016F0005C40208002F034FEAA881043A880B0F538
:10170000004F7DD0B84215D0A120208002F028FEE5
:10171000A88002F025FE01EA0020A88002F020FE49
:10172000A9880843A0F5AE41A880613902D141F6ED
:101730006310A880A98895A0FEF7BCFDA888924DEB
:10174000AD1C48457ED1CF20208000202880C120BC
:10175000288030202880ED202080642028800320ED
:1017600028801220288081202880E8202080852061
:101770002880102028807A202880CB2020803920C3
:1017800028802C20288000202880342028800220D7
:101790002880F720208020202880EA202080002038
:1017A00028802880C02020801B202880C120208005
:1017B00001202880C5202080302028802880C72054
:1017C0002080B720288036202080482028803A209A
:1017D000208055202880B1202080002028801A20D9
:1017E0002880B62020800A202880A2202880F2208D
:1017F000208000202880262020800120288000E0F2
:1018000051E0E02020800F2028802A2028802820F6
:101810002880082028800E20288008202880542036
:101820002880A9202880432028800A2028800F2093
:10183000288000202880288028802880E12020809F
:10184000002000E031E02880152028801720288023
:101850000720288011202880062028802B2028801F
:10186000562028803C2028800520288010202880B1
:101870000F2028803F20288028800F2028802B20C0
:101880002080002028802880012028803F20288078
:101890002A2020800020288028802880EF2028808F
:1018A0001120208084E0AF8044E7504576D111209C
:1018B0002080142005F072FFD0202080072028808F
:1018C000422028801D202880D120208000202880D0
:1018D0001A20288009202880D220208001202880FA
:1018E00022202880C0202080102028803B202880B3
:1018F000002028800220288011202880C5202080F8
:1019000003202880C82020800020288025202880CF
:101910002120288005202880002028800A20288077
:101920006520288025202880772028805020288046
:101930000F20288000202880F82020800120288087
:10194000FE20208000202880022028802020208067
:1019500036202080082028803A20208055202880AA
:101960002B202080002028802880012028803F20F4
:10197000288014E0000C01400014014000180140D0
:10198000002001402C020020FE07006C204C434444
:101990002049443A25780D0A000000000EE02A2074
:1019A000208000202880288001202880DF202880B7
:1019B000782005F0F3FE292001F02DBC58457DD19B
:1019C000ED20208001202880FE202880EE2020802D
:1019D000DE20288021202880F120208001202880FE
:1019E000DF20208010202880C42020808F202880A5
:1019F000C620208000202880E2202880288028809F
:101A0000BF202080AA202880B02020800D202880A0
:101A1000002028800D202880002028801120288088
:101A2000002028801920288000202880212028805C
:101A3000002028802D202880002028803D2028801C
:101A4000002028805D202880002028805D202880BC
:101A500000202880B120208080202880002028803D
:101A60008B20288000202880962028800020288035
:101A7000B22020800020288028800220288000209A
:101A800028800320288000202880B3202080002088
:101A90002880288028802880288028802880288006
:101AA00028802880288028802880288028802880F6
:101AB0002880288028802880288000E0FEE3288075
:101AC00028802880B42020808B2028800020288037
:101AD0009620288000202880A120288000202880AF
:101AE000B520208002202880002028800320288024
:101AF000002028800420288000202880B620208014
:101B0000002028802880B72020800020288028807E
:101B10003F202880002028805E2028800020288008
:101B200064202880002028808C20288000202880A5
:101B3000AC20288000202880DC20288000202880FD
:101B40007020288000202880902028800020288075
:101B5000EB20288000202880DC202880002028809E
:101B6000B820208000202880288028802880288095
:101B7000288028802880BA202080242028800020E7
:101B8000288028802880C1202080202028800020D4
:101B900028805420288000202880FF2028800020D2
:101BA0002880C22020800A2028800020288004204D
:101BB000288000202880C32020803C20288000200E
:101BC00028803A2028800020288039202880002082
:101BD000288037202880002028803C202880002072
:101BE000288036202880002028803220288000206D
:101BF00028802F202880002028802C20288000206A
:101C00002880292028800020288026202880002065
:101C1000288024202880002028802420288000205C
:101C2000288023202880002028803C202880002035
:101C3000288036202880002028803220288000201C
:101C400028802F202880002028802C202880002019
:101C50002880292028800020288026202880002015
:101C6000288024202880002028802420288000200C
:101C700028802320288000202880C4202080622003
:101C800028800020288005202880002028808420AB
:101C9000288000202880F02028800020288018201C
:101CA000288000202880A420288000202880182058
:101CB00028800020288050202880002028800C20A8
:101CC0002880002028801720288000202880952048
:101CD000288000202880F320288000202880E6200B
:101CE000288000202880C5202080322028800020E5
:101CF000288044202880002028806520288000201B
:101D000028807620288000202880882028800020B5
:101D10002880C620208020202880002028801720AE
:101D20002880002028800120288000202880C720CB
:101D3000208000202880288028802880C8202080BB
:101D400000202880288028802880C920208000202A
:101D50002880288028802880288028802880288043
:101D60002880288028802880288028802880288033
:101D7000E020208016202880002028801C20288039
:101D800000202880212028800020288036202880DC
:101D9000002028804620288000202880522028808B
:101DA0000020288064202880002028807A20288035
:101DB000002028808B2028800020288099202880DF
:101DC00000202880A820288000202880B920288092
:101DD00000202880C420288000202880CA20288055
:101DE00000202880D220288000202880D920288028
:101DF00000202880E020288000202880F3202880F0
:101E000000202880E12020801620288000202880C3
:101E10001C20288000202880222028800020288064
:101E20003620288000202880452028800020288017
:101E300052202880002028806420288000202880CC
:101E40007A202880002028808B202880002028806D
:101E50009920288000202880A82028800020288021
:101E6000B920288000202880C420288000202880D5
:101E7000CA20288000202880D220288000202880A6
:101E8000D820288000202880E0202880002028807A
:101E9000F320288000202880E22020800520288050
:101EA000002028800B202880002028801B202880EC
:101EB000002028803420288000202880442028808A
:101EC000002028804F202880002028806120288042
:101ED00000202880792028800020288088202880E1
:101EE000002028809720288000202880A620288095
:101EF00000202880B720288000202880C220288049
:101F000000202880C720288000202880D120288019
:101F100000202880D620288000202880DD202880EE
:101F200000202880F320288000202880E3202080C3
:101F300005202880002028800A2028800020288072
:101F40001C20288000202880332028800020288022
:101F500044202880002028805020288000202880CD
:101F60006220288000202880782028800020288077
:101F70008820288000202880972028800020288022
:101F8000A620288000202880B720288000202880D4
:101F9000C220288000202880C72028800020288098
:101FA000D120288000202880D5202880002028806B
:101FB000DD20288000202880F32028800020288031
:101FC000E420208001202880002028800120288013
:101FD0000020288002202880002028802A202880B5
:101FE000002028803C202880002028804B2028804A
:101FF000002028805D2028800020288074202880F0
:102000000020288084202880002028809320288099
:1020100000202880A220288000202880B32028804B
:1020200000202880BE20288000202880C42028800E
:1020300000202880CD20288000202880D3202880E0
:1020400000202880DD20288000202880F3202880A0
:1020500000202880E52020800020288028802880FB
:102060002880022028800020288029202880002025
:1020700028803C202880002028804B2028800020B9
:1020800028805D202880002028807420288000205F
:102090002880842028800020288093202880002009
:1020A0002880A220288000202880B32028800020BB
:1020B0002880BE20288000202880C420288000207E
:1020C0002880CD20288000202880D3202880002050
:1020D0002880DC20288000202880F3202880002011
:1020E0002880E620208011202880002028803420AD
:1020F00028800020288056202880002028807620F4
:1021000028800020288077202880002028806620D2
:10211000288000202880882028800020288099207E
:10212000288000202880BB2028800020288099203B
:1021300028800020288066202880002028805520C4
:1021400028800020288055202880002028804520D5
:1021500028800020288043202880002028804420D8
:10216000288000202880E72020803220288000203E
:102170002880552028800020288076202880002074
:102180002880662028800020288067202880002062
:102190002880672028800020288087202880002031
:1021A00028809920288000202880BB2028800020BB
:1021B00028809920288000202880772028800020EF
:1021C0002880442028800020288056202880002055
:1021D0002880232028800020288033202880002089
:1021E00028804520288000202880E82020800020AA
:1021F0002880288099202880002028808720288017
:1022000000202880882028800020288077202880AF
:1022100000202880662028800020288088202880B0
:1022200000202880AA20288000202880BB20288029
:10223000002028809920288000202880662028807F
:1022400000202880552028800020288055202880C4
:1022500000202880442028800020288044202880D6
:10226000002028805520288000202880E920208018
:10227000AA20288000202880288028802080AA206A
:102280002880CF2020800020288028802880288057
:1022900028802880288028802880288028802880FE
:1022A00028802880288028802880F0202080002016
:1022B0002880502028800020288000E02CE0288002
:1022C0002880F320208000202880F920208006200C
:1022D00028801020288029202880002028803A206B
:1022E00020805520288011202080642005F056FA97
:1022F0002920208035202080002028805120208027
:10230000FF202880532020802C20288055202080EA
:10231000822028802C20FCE3B8427DD14FF470430A
:102320005521184602F0E6FA4FF20105AA21284687
:1023300002F0E0FA6E1C5221304602F0DBFAAF1CCC
:102340000821384602F0D6FA4FF204090121484626
:1023500002F0D0FA0D214FF4304002F0CBFA0D21FB
:102360004BF2010002F0C6FA0D214BF2020002F01E
:10237000C1FA4FF4364A3421504602F0BBFA3421F8
:102380004BF2016002F0B6FA34214BF2026002F027
:10239000B1FA4FF4314B0D21584602F0ABFA0D2142
:1023A0004BF2011002F0A6FA0D214BF2021002F0DE
:1023B000A1FA34214FF4374002F09CFA34214BF259
:1023C000017002F097FA34214BF2027002F092FA97
:1023D00000214FF4324002F08DFA00214BF201202F
:1023E00002F088FA00214BF2022002F083FA242145
:1023F0004FF4384002F07EFA24214BF6010002F03F
:1024000079FA24214BF6020002F074FA01214FF40C
:102410003F4002F06FFA00E0FEE30F214FF433403B
:1024200002F068FA0F214BF2013002F063FA0F213B
:102430004BF2023002F05EFA34214FF4394002F0E0
:1024400059FA34214BF6011002F054FA34214BF6BC
:10245000021002F04FFA08214FF4354002F04AFA18
:1024600008214BF2015002F045FA08214BF20250CC
:1024700002F040FA03214FF4424002F03BFA2421DB
:102480004FF43A4002F036FA24214BF6012002F0D4
:1024900031FA24214BF6022002F02CFA00214FF4ED
:1024A0003C4002F027FA78214BF6014002F022FA74
:1024B00000214BF6024002F01DFA00214FF43D408E
:1024C00002F018FA78214BF6015002F013FA0021BD
:1024D0004BF6025002F00EFA00214FF43E4002F09B
:1024E00009FA64214BF6016002F004FA00214FF46E
:1024F000514002F0FFF933214DF2011002F0FAF9D8
:1025000000214DF2021002F0F5F934214DF20310D2
:1025100002F0F0F900214DF2041002F0EBF93A213B
:102520004DF2051002F0E6F900214DF2061002F01E
:10253000E1F94A214DF2071002F0DCF900214DF2D9
:10254000081002F0D7F95C214DF2091002F0D2F91F
:1025500000214DF20A1002F0CDF981214DF20B104D
:1025600002F0C8F900214DF20C1002F0C3F9A621C7
:102570004DF20D1002F0BEF900214DF20E1002F0E6
:10258000B9F9E5214DF20F1002F0B4F901214DF235
:10259000101002F0AFF913214DF2111002F0AAF958
:1025A00001214DF2121002F0A5F954214DF2131041
:1025B00002F0A0F901214DF2141002F09BF98221E2
:1025C0004DF2151002F096F901214DF2161002F0AD
:1025D00091F9CA214DF2171002F08CF902214DF247
:1025E000181002F087F900214DF2191002F082F95B
:1025F00002214DF21A1002F07DF901214DF21B105B
:1026000002F078F902214DF21C1002F073F9342126
:102610004DF21D1002F06EF902214DF21E1002F073
:1026200069F967214DF21F1002F064F902214DF2A1
:10263000201002F05FF984214DF2211002F05AF9C6
:1026400002214DF2221002F055F9A4214DF223107F
:1026500002F050F902214DF2241002F04BF9B7219B
:102660004DF2251002F046F902214DF2261002F03B
:1026700041F9CF214DF2271002F03CF902214DF231
:10268000281002F037F9DE214DF2291002F032F95C
:1026900002214DF22A1002F02DF9F2214DF22B10F9
:1026A00002F028F902214DF22C1002F023F9FE214C
:1026B0004DF22D1002F01EF903214DF22E1002F002
:1026C00019F910214DF22F1002F014F903214DF2E7
:1026D000301002F00FF933214DF2311002F00AF9F7
:1026E00003214DF2321002F005F96D214DF2331045
:1026F00002F000F900214FF4524002F0FBF83321C0
:102700004DF2012002F0F6F800214DF2022002F015
:10271000F1F834214DF2032002F0ECF800214DF2E3
:10272000042002F0E7F83A214DF2052002F0E2F829
:1027300000214DF2062002F0DDF84A214DF207207B
:1027400002F0D8F800214DF2082002F0D3F85C2105
:102750004DF2092002F0CEF800214DF20A2002F0DD
:10276000C9F881214DF20B2002F0C4F800214DF28E
:102770000C2002F0BFF8A6214DF20D2002F0BAF8AD
:1027800000214DF20E2002F0B5F8E5214DF20F20A8
:1027900002F0B0F801214DF2102002F0ABF8132145
:1027A0004DF2112002F0A6F801214DF2122002F0A4
:1027B000A1F854214DF2132002F09CF801214DF2B2
:1027C000142002F097F882214DF2152002F092F8C1
:1027D00001214DF2162002F08DF8CA214DF217208A
:1027E00002F088F802214DF2182002F083F800214F
:1027F0004DF2192002F07EF802214DF21A2002F06B
:1028000079F801214DF21B2002F074F802214DF2FB
:102810001C2002F06FF834214DF21D2002F06AF8FE
:1028200002214DF21E2002F065F867214DF21F20B3
:1028300002F060F802214DF2202002F05BF88421C2
:102840004DF2212002F056F802214DF2222002F032
:1028500051F8A4214DF2232002F04CF802214DF250
:10286000242002F047F8B7214DF2252002F042F86B
:1028700002214DF2262002F03DF8CF214DF2272013
:1028800002F038F802214DF2282002F033F8DE2160
:102890004DF2292002F02EF802214DF22A2002F0FA
:1028A00029F8F2214DF22B2002F024F802214DF2FA
:1028B0002C2002F01FF8FE214DF22D2002F01AF814
:1028C00003214DF22E2002F015F810214DF22F2099
:1028D00002F010F803214DF2302002F00BF8332102
:1028E0004DF2312002F006F803214DF2322002F0C1
:1028F00001F86D214DF2332001F0FCFF00214FF46F
:10290000534001F0F7FF33214DF2013001F0F2FFA7
:1029100000214DF2023001F0EDFF34214DF2033081
:1029200001F0E8FF00214DF2043001F0E3FF3A210D
:102930004DF2053001F0DEFF00214DF2063001F0CE
:10294000D9FF4A214DF2073001F0D4FF00214DF2AA
:10295000083001F0CFFF5C214DF2093001F0CAFFD1
:1029600000214DF20A3001F0C5FF81214DF20B30FC
:1029700001F0C0FF00214DF20C3001F0BBFFA62199
:102980004DF20D3001F0B6FF00214DF20E3001F096
:10299000B1FFE5214DF20F3001F0ACFF01214DF206
:1029A000103001F0A7FF13214DF2113001F0A2FF0A
:1029B00001214DF2123001F09DFF54214DF21330F0
:1029C00001F098FF01214DF2143001F093FF8221B4
:1029D0004DF2153001F08EFF01214DF2163001F05D
:1029E00089FFCA214DF2173001F084FF02214DF218
:1029F000183001F07FFF00214DF2193001F07AFF0D
:102A000002214DF21A3001F075FF01214DF21B3009
:102A100001F070FF02214DF21C3001F06BFF3421F8
:102A20004DF21D3001F066FF02214DF21E3001F023
:102A300061FF67214DF21F3001F05CFF02214DF272
:102A4000203001F057FF84214DF2213001F052FF78
:102A500002214DF2223001F04DFFA4214DF223302E
:102A600001F048FF02214DF2243001F043FFB7216D
:102A70004DF2253001F03EFF02214DF2263001F0EB
:102A800039FFCF214DF2273001F034FF02214DF202
:102A9000283001F02FFFDE214DF2293001F02AFF0E
:102AA00002214DF22A3001F025FFF2214DF22B30A8
:102AB00001F020FF02214DF22C3001F01BFFFE211E
:102AC0004DF22D3001F016FF03214DF22E3001F0B2
:102AD00011FF10214DF22F3001F00CFF03214DF2B8
:102AE000303001F007FF33214DF2313001F002FFA9
:102AF00003214DF2323001F0FDFE6D214DF23330F5
:102B000001F0F8FE00214FF4544001F0F3FE3321B0
:102B100000E080E34DF2014001F0ECFE00214DF2B7
:102B2000024001F0E7FE34214DF2034001F0E2FEE5
:102B300000214DF2044001F0DDFE3A214DF2054046
:102B400001F0D8FE00214DF2064001F0D3FE4A21EB
:102B50004DF2074001F0CEFE00214DF2084001F099
:102B6000C9FE5C214DF2094001F0C4FE00214DF286
:102B70000A4001F0BFFE81214DF20B4001F0BAFE88
:102B800000214DF20C4001F0B5FEA6214DF20D40A2
:102B900001F0B0FE00214DF20E4001F0ABFEE52148
:102BA0004DF20F4001F0A6FE01214DF2104001F060
:102BB000A1FE13214DF2114001F09CFE01214DF2C6
:102BC000124001F097FE54214DF2134001F092FEA5
:102BD00001214DF2144001F08DFE82214DF215408D
:102BE00001F088FE01214DF2164001F083FECA215A
:102BF0004DF2174001F07EFE02214DF2184001F027
:102C000079FE00214DF2194001F074FE02214DF2CF
:102C10001A4001F06FFE00E0FFE201214DF21B407F
:102C200001F068FE02214DF21C4001F063FE3421E8
:102C30004DF21D4001F05EFE02214DF21E4001F0FA
:102C400059FE67214DF21F4001F054FE02214DF262
:102C5000204001F04FFE84214DF2214001F04AFE58
:102C600002214DF2224001F045FEA4214DF2234005
:102C700001F040FE02214DF2244001F03BFEB7215D
:102C80004DF2254001F036FE02214DF2264001F0C2
:102C900031FECF214DF2274001F02CFE02214DF2F2
:102CA000284001F027FEDE214DF2294001F022FEEE
:102CB00002214DF22A4001F01DFEF2214DF22B407F
:102CC00001F018FE02214DF22C4001F013FEFE210E
:102CD0004DF22D4001F00EFE03214DF22E4001F089
:102CE00009FE10214DF22F4001F004FE03214DF2A8
:102CF000304001F0FFFD33214DF2314001F0FAFD8B
:102D000003214DF2324001F0F5FD6D214DF23340CB
:102D100001F0F0FD00214FF4554001F0EBFD3321AF
:102D20004DF2015001F0E6FD00214DF2025001F09C
:102D3000E1FD34214DF2035001F0DCFD00214DF2A4
:102D4000045001F0D7FD3A214DF2055001F0D2FDBB
:102D500000214DF2065001F0CDFD4A214DF2075001
:102D600001F0C8FD00214DF2085001F0C3FD5C21C7
:102D70004DF2095001F0BEFD00214DF20A5001F064
:102D8000B9FD81214DF20B5001F0B4FD00214DF24F
:102D90000C5001F0AFFDA6214DF20D5001F0AAFD3F
:102DA00000214DF20E5001F0A5FDE5214DF20F502E
:102DB00001F0A0FD01214DF2105001F09BFD132107
:102DC0004DF2115001F096FD01214DF2125001F02B
:102DD00091FD54214DF2135001F08CFD01214DF273
:102DE000145001F087FD82214DF2155001F082FD53
:102DF00001214DF2165001F07DFDCA214DF2175010
:102E000001F078FD02214DF2185001F073FD002110
:102E10004DF2195001F06EFD02214DF21A5001F0F1
:102E200069FD01214DF21B5001F064FD02214DF2BC
:102E30001C5001F05FFD34214DF21D5001F05AFD90
:102E400002214DF21E5001F055FD67214DF21F5039
:102E500001F050FD02214DF2205001F04BFD842184
:102E60004DF2215001F046FD02214DF2225001F0B9
:102E700041FDA4214DF2235001F03CFD02214DF211
:102E8000245001F037FDB7214DF2255001F032FDFD
:102E900002214DF2265001F02DFDCF214DF2275099
:102EA00001F028FD02214DF2285001F023FDDE2122
:102EB0004DF2295001F01EFD02214DF22A5001F081
:102EC00019FDF2214DF22B5001F014FD02214DF2BB
:102ED0002C5001F00FFDFE214DF22D5001F00AFDA6
:102EE00003214DF22E5001F005FD10214DF22F501F
:102EF00001F000FD03214DF2305001F0FBFC3321C5
:102F00004DF2315001F0F6FC03214DF2325001F048
:102F1000F1FC6D214DF2335001F0ECFC00214FF437
:102F2000564001F0E7FC33214DF2016001F0E2FC74
:102F300000214DF2026001F0DDFC34214DF203600E
:102F400001F0D8FC00214DF2046001F0D3FC3A21DD
:102F50004DF2056001F0CEFC00214DF2066001F05B
:102F6000C9FC4A214DF2076001F0C4FC00214DF27A
:102F7000086001F0BFFC5C214DF2096001F0BAFC71
:102F800000214DF20A6001F0B5FC81214DF20B6089
:102F900001F0B0FC00214DF20C6001F0ABFCA62169
:102FA0004DF20D6001F0A6FC00214DF20E6001F023
:102FB000A1FCE5214DF20F6001F09CFC01214DF2D6
:102FC000106001F097FC13214DF2116001F092FCAA
:102FD00001214DF2126001F08DFC54214DF213607D
:102FE00001F088FC01214DF2146001F083FC822184
:102FF0004DF2156001F07EFC01214DF2166001F0EA
:1030000079FCCA214DF2176001F074FC02214DF2E7
:10301000186001F06FFC00214DF2196001F06AFCAC
:1030200002214DF21A6001F065FC01214DF21B6096
:1030300001F060FC02214DF21C6001F05BFC3421C8
:103040004DF21D6001F056FC02214DF21E6001F0B0
:1030500051FC67214DF21F6001F04CFC02214DF242
:10306000206001F047FC84214DF2216001F042FC18
:1030700002214DF2226001F03DFCA4214DF22360BB
:1030800001F038FC02214DF2246001F033FCB7213D
:103090004DF2256001F02EFC02214DF2266001F078
:1030A00029FCCF214DF2276001F024FC02214DF2D2
:1030B000286001F01FFCDE214DF2296001F01AFCAE
:1030C00002214DF22A6001F015FCF2214DF22B6035
:1030D00001F010FC02214DF22C6001F00BFCFE21EE
:1030E0004DF22D6001F006FC03214DF22E6001F03F
:1030F00001FC10214DF22F6001F0FCFB03214DF289
:10310000306001F0F7FB33214DF2316001F0F2FB4A
:1031100003214DF2326001F0EDFB6D214DF2336081
:1031200001F0E8FB5521184601F0E4FBAA212846EE
:1031300001F0E0FB5221304601F0DCFB082138466B
:1031400001F0D8FB0021484601F0D4FBCC215846C1
:1031500001F0D0FB00214BF2011001F0CBFB052167
:10316000504601F0C7FB70214FF4374001F0C2FB1D
:1031700070214BF2017001F0BDFB01214FF438408A
:1031800001F0B8FB03214BF6010001F0B3FB032172
:103190004BF6020001F0AEFB03214BF6030001F0F9
:1031A000A9FB02214FF43C4001F0A4FB00214BF6A7
:1031B000014001F09FFB00214BF6024001F09AFB19
:1031C000D0214FF4494001F095FB02214CF601104B
:1031D00001F090FB50214CF6021001F08BFB5021C6
:1031E0004CF6031001F086FB50214CF6041001F060
:1031F00081FB00214FF4545001F07CFB55214FF42A
:10320000685001F077FB4FF488502080782004F05C
:10321000DFFA4FF424502080FEE3A0F513414FF471
:10322000E06940F2022A4FF4274B253924D040F2BE
:103230000777C91E7ED04FF4887B08317BD01139C7
:103240007AD0A0F5A841083977D0A0F5A8514FF45D
:10325000407B053972D0B1F5204170D0B1F5805175
:103260006ED0A0F58A4131396BD0091F6AD0A0F524
:10327000C851633967D0CFE747F6F001E52001F088
:1032800039FB3146012001F035FB4946022001F0AF
:1032900031FB41F23001032001F02CFB002104201E
:1032A00001F028FB5146082001F024FB00210920F1
:1032B00001F020FB00210A2001F01CFB00210C2062
:1032C00001F018FB00210D2001F014FB00210F205C
:1032D00001F010FB0021102001F00CFB0721112050
:1032E00001F008FB0021122001F004FB0021132053
:1032F00001F000FB0021072001F0FCFA41F290618F
:10330000102001F0F7FA40F22721112001F0F2FA23
:103310009D21122001F0EEFA4FF4C851132001F064
:10332000E9FA2521292001F0E5FA0D212B2001F0F1
:10333000E1FA09E077E033E1D8E1AEE24AE3FDE308
:10334000FDE3FDE3FDE3FDE30721302001F0D2FAC8
:1033500040F20331312001F0CDFA0321322001F097
:10336000C9FA40F20621352001F0C4FA08213620BE
:1033700001F0C0FA40F20641372001F0BBFA4FF4E9
:103380004171382001F0B6FA0721392001F0B2FA74
:1033900040F202613C2001F0ADFA08213D2001F02D
:1033A000A9FA0021502001F0A5FAEF21512001F0E7
:1033B000A1FA0021522001F09DFA40F23F11532062
:1033C00001F098FA5946602001F094FA0121612039
:1033D00001F090FA00216A2001F08CFA002180208F
:1033E00001F088FA0021812001F084FA0021822076
:1033F00001F080FA0021832001F07CFA0021842072
:1034000001F078FA0021852001F074FA1021902053
:1034100001F070FA4FF4C061922001F06BFA40F2B3
:1034200033110720FDE341F28F01EC2001F062FA35
:1034300041F23421EF2001F05DFA3146012001F024
:1034400059FA4946022001F055FA41F230010320B1
:1034500001F050FA0021042001F04CFA51460820F6
:1034600001F048FA0021092001F044FA00210A2065
:1034700001F040FA01210C2001F03CFA00210D205E
:1034800001F038FA00210F2001F034FA0021102059
:1034900001F030FA0721112001F02CFA002112204E
:1034A00001F028FA0021132001F024FA012107205D
:1034B00001F020FA322004F071F941F2904110201D
:1034C00001F018FA40F22721112001F013FA3220FE
:1034D00004F064F98A21122001F00CFA322004F081
:1034E0005DF94FF4D051132001F004FA0621292090
:1034F00001F000FA0D212B2001F0FCF9322004F03C
:103500004DF90021202001F0F5F90021212001F0E2
:10351000F1F9322004F042F90021302001F0EAF9FB
:1035200040F20461312001F0E5F940F2053132202A
:1035300001F0E0F90021352001F0DCF940F6094105
:10354000362001F0D7F94FF40171372001F0D2F99C
:1035500040F20131382001F0CDF93946392001F02F
:10356000C9F900213C2001F0C5F940F60A213D20AF
:1035700001F0C0F9322004F011F90021502001F0CF
:10358000B9F9EF21512001F0B5F90021522001F0E5
:10359000B1F940F23F11532001F0ACF9594651E125
:1035A0000021084601F0A6F93146012001F0A2F9F8
:1035B0004946022001F09EF941F23001032001F05A
:1035C00099F90021042001F095F95146082001F0F5
:1035D00091F90021092001F08DF900210A2001F064
:1035E00089F901210C2001F085F900210D2001F05D
:1035F00081F900210F2001F07DF9322004F0CEF88E
:1036000040F20111072001F075F9322004F0C6F8EC
:103610004FF48651102001F06DF90721112001F0BF
:1036200069F95B465946122001F064F94FF43061A4
:10363000132001F05FF90021292001F05BF944F229
:1036400010012B2001F056F90021502001F052F911
:10365000EF21512001F04EF90021522001F04AF9EA
:1036600040F23F11532001F045F94FF41C51602006
:1036700001F040F90121612001F03CF900216A20AC
:1036800001F038F90021802001F034F90021812077
:1036900001F030F90021822001F02CF90021832073
:1036A00001F028F90021842001F024F9002185206F
:1036B00001F020F91021902001F01CF90021922046
:1036C00001F018F90121932001F014F91946952011
:1036D00001F010F90021972001F00CF90021982049
:1036E00001F008F940F27311072085E341F214015B
:1036F000E72001F0FFF83146012001F0FBF84FF41C
:103700000071022001F0F6F841F23801032001F0C7
:10371000F1F85146082001F0EDF80021092001F0F0
:10372000E9F800210A2001F0E5F800210C2001F061
:10373000E1F800210D2001F0DDF800210F2001F05B
:10374000D9F80021102001F0D5F80721112001F04F
:10375000D1F80021122001F0CDF80021132001F052
:10376000C9F8C82004F01AF841F29061102001F065
:10377000C1F840F22721112001F0BCF8322004F0FA
:103780000DF80C21122001F0B5F8322004F006F8F3
:103790004FF40061132001F0ADF81121292001F050
:1037A000A9F80B212B2001F0A5F8322003F0F6FF39
:1037B0000021202001F09EF840F23F1319462120FD
:1037C00001F098F80021302001F094F84FF4837450
:1037D0002146312001F08EF80021322001F08AF8D4
:1037E0004FF40171352001F085F841F20A6136206D
:1037F00001F080F83946372001F07CF82146382066
:1038000001F078F83946392001F074F840F20241AD
:103810003C2001F06FF840F60F413D2001F06AF8BE
:103820000021502001F066F8EF21512001F062F8EC
:103830000021522001F05EF81946532001F05AF899
:103840004FF41C51602001F055F80121612001F076
:1038500051F800216A2001F04DF80021802001F08C
:1038600049F80021812001F045F80021822001F073
:1038700041F80021832001F03DF80021842001F06F
:1038800039F80021852001F035F81021902001F051
:1038900031F84FF4C0619220FDE33146012001F080
:1038A00029F84946022001F025F841F230010320B1
:1038B00001F020F80021042001F01CF840F207215B
:1038C000082001F017F80021092001F013F8002169
:1038D0000A2001F00FF800210C2001F00BF8002164
:1038E0000D2001F007F800210F2001F003F814204B
:1038F00003F054FF41F2B061102000F0FBFF012102
:10390000112000F0F7FF0121172000F0F3FF4FF422
:103910009C71122000F0EEFF4FF40061132000F0C4
:10392000E9FF0921292000F0E5FF09212A2000F004
:10393000E1FF0021A42000F0DDFF0021502000F075
:10394000D9FFEF21512000F0D5FF0021522000F0D7
:10395000D1FF40F23F11532000F0CCFF4FF41C5137
:10396000602000F0C7FF0121612000F0C3FF0021AB
:103970006A2000F0BFFF0021802000F0BBFF002183
:10398000812000F0B7FF0021822000F0B3FF00216A
:10399000832000F0AFFF0021842000F0ABFF002166
:1039A000852000F0A7FF1321902000F0A3FF002145
:1039B000922000F09FFF0321932000F09BFF5946C7
:1039C000952000F097FF40F27311072000F092FF5E
:1039D000322010E10021072000F08CFF322003F09C
:1039E000DDFE4FF48E71122000F084FF0121A4202F
:1039F00000F080FF0F21082000F07CFF08210A2042
:103A000000F078FF08210D2000F074FF39463020C7
:103A100000F070FF072100E06FE3312000F06AFF43
:103A200040F20361322000F065FF4C4649463320E6
:103A300000F060FF5146342000F05CFF0221352089
:103A400000F058FF41F60F71362000F053FF394661
:103A5000372000F04FFF0021382000F04BFF0021FD
:103A6000392000F047FF39463A2000F043FF00219B
:103A70003B2000F03FFF07213C2000F03BFF0021EE
:103A80003D2000F037FF322003F088FE012107209F
:103A900000F030FF0121172000F02CFF322003F04E
:103AA0007DFE4FF4BD51102000F024FF40F217219D
:103AB000112000F01FFF4FF48F71122000F01AFF49
:103AC0004FF47061132000F015FF00212A2000F050
:103AD00011FF0A21292000F00DFF4FF49F711220E1
:103AE00000F008FF0021502000F004FFEF215120DA
:103AF00000F000FF0021522000F0FCFE40F23F11D8
:103B0000532000F0F7FE4FF41C51602000F0F2FE4D
:103B10000121612000F0EEFE00216A2000F0EAFEA3
:103B20000021802000F0E6FE0021812000F0E2FE6E
:103B30000021822000F0DEFE002104E05EE05CE176
:103B400025E2DBE282E3832000F0D4FE0021842022
:103B500000F0D0FE0021852000F0CCFE1321902043
:103B600000F0C8FE5946922000F0C4FE05219320C3
:103B700000F0C0FE0021952000F0BCFE002197203F
:103B800000F0B8FE0021982000F0B4FE314601207C
:103B900000F0B0FE2146022000F0ACFE41F23801F8
:103BA000032000F0A7FE0021042000F0A3FE002166
:103BB0000C2000F09FFE00210F2000F09BFE002152
:103BC000202000F097FE0021212000F093FE21210B
:103BD000072000F08FFE142003F0E0FD6121072094
:103BE00000F088FE142003F0D9FD40F27311072085
:103BF00000F080FE142003F0D1FDA1E3002108466F
:103C000000F078FE0021084600F074FE002108460E
:103C100000F070FE0021084600F06CFE0121A42097
:103C200000E0E5E000F066FE142003F0B7FD4FF47D
:103C30001C542146602000F05DFE55465146082088
:103C400000F058FE4FF40571302000F053FE43F2AF
:103C50001571312000F04EFE40F20461322000F078
:103C600049FE40F61661332000F044FE42F2112175
:103C7000342000F03FFE4FF4A851352000F03AFE0A
:103C800048F20751362000F035FE41F20741372057
:103C900000F030FE41F20341382000F02BFE2021DD
:103CA000392000F027FE1A21902000F023FE002189
:103CB000102000F01FFE0721112000F01BFE002144
:103CC000122000F017FE0021132000F013FE142034
:103CD00003F064FD4FF4E661102000F00BFE40F2AB
:103CE0003711112000F006FE142003F057FD4FF4A9
:103CF000DC71122000F0FEFD142003F04FFD4FF4A4
:103D00007061132000F0F6FD80212A2000F0F2FD02
:103D10004821292000F0EEFD142003F03FFD31463C
:103D2000012000F0E7FD4946022000F0E3FD41F2EA
:103D30003801032000F0DEFD2946082000F0DAFDFE
:103D400000210A2000F0D6FD00210C2000F0D2FD59
:103D500000210D2000F0CEFD30210E2000F0CAFD24
:103D60000021502000F0C6FDEF21512000F0C2FDDF
:103D70000021522000F0BEFD40F23F11532000F020
:103D8000B9FD2146602000F0B5FD0121612000F061
:103D9000B1FD00216A2000F0ADFD1121902000F05E
:103DA000A9FD4FF4C061922000F0A4FD40F2024151
:103DB000932000F09FFD0221942000F09BFD142031
:103DC00003F0ECFC0121072000F094FD142003F027
:103DD000E5FC6121072000F08DFD40F27311072002
:103DE00000F088FD0021202000F084FD002121202A
:103DF00000F080FD222100207DE10021084600F036
:103E000079FD0021084600F075FD142003F0C6FC82
:103E10000021084600F06EFD0021084600F06AFD12
:103E20000021084600F066FD0021084600F062FD12
:103E30000121A42000F05EFD142003F0AFFC4FF43C
:103E40001C51602000F056FD40F60601082000F0ED
:103E500051FD40F203731946302000F04BFD012163
:103E6000312000F047FD0421322000F043FD4FF4E3
:103E70008171332000F03EFD5C465946342000F04D
:103E800039FD40F20311352000F034FD1F213620AA
:103E900000F030FD1946372000F02CFD01213820BC
:103EA00000F028FD0421392000F024FD1521902088
:103EB00000F020FD4FF48261102000F01BFD40F265
:103EC0004721112000F016FD4FF4DE71122000F0A2
:103ED00011FD4FF46061132000F00CFD782003F019
:103EE0005DFC3146012000F005FD4FF40071022019
:103EF00000F000FD41F23001032000F0FBFC08213E
:103F00000A2000F0F7FC00210C2000F0F3FC202137
:103F10000E2000F0EFFC00210F2000F0EBFC002150
:103F2000202000F0E7FC0021212000F0E3FC3D21EF
:103F30002A2000F0DFFC142003F030FC2D21292082
:103F400000F0D8FC0021502000F0D4FC4DF2EF012D
:103F5000512000F0CFFC0021522000F0CBFC40F2B9
:103F60003F11532000F0C6FC0021612000F0C2FC8C
:103F700000216A2000F0BEFC2146922000F0BAFC2D
:103F80000521932000F0B6FC3146FFF7ADBB0121BF
:103F9000002000F0AFFC0A2003F000FC41F2286191
:103FA000102000F0A7FC0E21122000F0A3FC40F628
:103FB0003921132000F09EFC0A2003F0EFFB402182
:103FC000112000F097FC5021152000F093FC0A20EE
:103FD00003F0E4FB1E21122000F08CFC0A2003F009
:103FE000DDFB4FF4B151102000F084FC42F6392182
:103FF000132000F07FFC0A2003F0D0FB31460120A3
:1040000000F078FC5946022000F074FC41F23801BF
:10401000032000F06FFC5146082000F06BFC0821E3
:104020000A2000F067FC0021302000F063FC40F221
:104030000241312000F05EFC4FF48371322000F029
:1040400059FC40F20351332000F054FC4FF48271CC
:10405000342000F04FFC40F20131352000F04AFCE2
:104060003946362000F046FC40F20531372000F09A
:1040700041FC4FF40271382000F03CFC40F60B711B
:10408000392000F037FC0221412000F033FC4FF4CE
:104090001C51602000E0D4E000F02CFC01216120E4
:1040A00000F028FC4FF40471902000F023FC4FF442
:1040B0008571922000F01EFC0421932000F01AFC70
:1040C0003146A02000F016FC0121072000F012FC70
:1040D0002121072000F00EFC2321072000F00AFC1C
:1040E0003321072000F006FC40F23311072000F0D6
:1040F00001FC0021A02000F0FDFB21E13021152072
:1041000000F0F8FB10219A2000F0F4FB2021112090
:1041100000F0F0FB43F22841102000F0EBFB0221FD
:10412000122000F0E7FB41F23801132000F0E2FB1F
:10413000282003F033FB1221084600F0DBFB282087
:1041400003F02CFB43F22041102000F0D3FB43F29C
:104150003801132000F0CEFB462003F01FFB0021A6
:10416000302000F0C7FB40F20241312000F0C2FBDA
:1041700040F20731322000F0BDFB4FF44171332093
:1041800000F0B8FB0421342000F0B4FB40F2014100
:10419000352000F0AFFB3946362000F0ABFB40F293
:1041A0000531372000F0A6FB4FF4C26319463820D2
:1041B00000F0A0FB1946392000F09CFB314601209D
:1041C00000F098FB5946022000F094FB41F23001C8
:1041D000032000F08FFB40F60801082000F08AFB66
:1041E00008210A2000F086FB4FF41C51602000F0EB
:1041F00081FB0121612000F07DFB4FF49F71902035
:1042000000F078FB3146922000F074FB3146932099
:1042100000F070FB4FF44051A02000F06BFB102128
:10422000A32000F067FB0121072000F063FB2121A0
:10423000072000F05FFB2321072000F05BFB332108
:10424000072000F057FB40F233119EE6E220208069
:104250001D2028800220288004202880642003F06C
:10426000B7FAE0202080012028800A2003F096FA87
:10427000E0202080032028800C2003F08FFA01200A
:1042800020800A2003F08AFAE62020802F20288050
:10429000FF2028802880B020208020202880002037
:1042A00028800320288040F21F30288001202880A9
:1042B00040F2DF10288000202880B42020800420D5
:1042C000288040F21F402880002028802E2028804F
:1042D00000202880288028802880B6202080022086
:1042E00028804FF403702880002028801720288021
:1042F00015202880002028802880F020208003209E
:10430000288029202080D020208000202880BE20E6
:10431000208005202880FE20288001202880002081
:10432000288028802880B820208003202880012031
:104330002880BA20208001202880642000F0AAF87C
:104340000020FCF793FF05490120C1F88001404699
:10435000FCF756FF1FB0BDE8F08F0000008021423F
:10436000034808B50088ADF80000BDF8000008BD9E
:104370000008006C2DE9F0413E4E002425463288AD
:10438000824202D972888A4202D80020BDE8F081B8
:1043900000F072F9B08849F24138374B41F66317A3
:1043A00045F2103145F21052404508D0A0F5D04CEE
:1043B000BCF1040C03D0884201D0B84202D14FF0C6
:1043C0002E0C06E0904202D14FF4385C01E04FF031
:1043D000220CA3F800C0A0F51343203B03D1022018
:1043E000401EC0B2FCD2FFF7BBFFB388BB42CDD0AA
:1043F0000220401EC0B2FCD2FFF7B2FF0746B088D1
:10440000404503D0884201D090420BD10220401E8B
:10441000C0B2FCD2FFF7A4FF0546F8B24FF6FF7317
:1044200003EA0024B088A0F51343253B1AD0A0F579
:104430008A43353B16D01B1D14D0A0F53543053BF0
:1044400010D0B3F580530DD0404503D0884201D041
:10445000904209D1F80AC002A10A40EA411040EA9C
:10446000D52093E7384691E73846BDE8F041FCF7A0
:10447000BDBE00002C020020FE07006C044910B5F0
:104480000880052003F0A4F9BDE81040FFF768BFDD
:10449000FE07006C0C4A10B5BE211180941C05214A
:1044A000218005F02EFF4FF06632084B05F03CFFEF
:1044B00005F0FAFE208001202080FF2020800020CF
:1044C0002080208010BD0000FE07006C666604405E
:1044D000F0B5674E00233146B279898846F6040765
:1044E00041F66314012A01D02AB11DE0B9421BD064
:1044F000A14202D118E0A14216D1082814D2DFE867
:1045000000F00406080A0C0E101206200CE007202A
:104510000AE0042008E0052006E0012004E0002075
:1045200002E0032000E00220A1F5134C45F2103216
:1045300045F21055BCF1410C07D0B94205D091426B
:1045400003D0A94201D0A14275D1082812D2DFE8D8
:1045500000F0110406080A0C0E1080230AE0402324
:1045600008E0C02306E0202304E0602302E0A0234B
:1045700000E0E023A94202D14FF4585000E0362079
:10458000914205D0A94203D0A14201D043F00803D3
:10459000B94201D143F00203194600F0ABF9B288E9
:1045A000A2420AD098063088718802D5884202D388
:1045B00003E0884201D9318070802E48811CAA42D4
:1045C0007289028021D100230B80531C03800023B9
:1045D0000B80931C038033885B1E1C0A0C80D21C4A
:1045E0000280DAB20A80B289028000230B80531C59
:1045F000038000230B80931C038073885B1E1C0ABE
:104600000C80D21C0280D8B212E000220A800A80FC
:104610003288521E130A0B80D2B20A80B2890280FD
:104620000020088008807088401E020A0A80C0B2FC
:104630000880F0BDFFE7082812D2DFE800F004068A
:1046400008110A0C0E1030230AE0102308E0202382
:1046500006E0382304E0282302E0182300E00823C2
:10466000BDE8F040032043F4805100F043B900005E
:104670002C020020FE07006C2DE9F04F4E4F0B4638
:104680003A46BD880C0ADFF834B191895289A5F504
:1046900013464FEA102C0BF1020A413E1DD0A5F53E
:1046A000A646103E19D03E46BE4696F8069036887D
:1046B000A5F5D047A6EB0008A8F10108043F17D0E4
:1046C000A5F5C857633F28D0A5F5AA477646103F01
:1046D00051D0B9F1010F63D064E0ABF8002052462D
:1046E000AAF800C0C0B2AAF80000ABF800100FE0B2
:1046F000B9F1010F01D11FFA88F0ABF80020050ACB
:104700005246AAF80050C0B2AAF80000ABF8001058
:104710001480D8B21080BDE8F08FB9F1000F1BD023
:10472000ABF800205246AAF800C0C0B2AAF80000B8
:10473000761E300AAAF80000F0B21080ABF8001024
:1047400011461480D8B21080BEF80200401E020A42
:104750000A80C0B20880DEE71FFA88F0ABF80020BC
:1047600000265246AAF80060AAF80060060AAAF8D5
:104770000060C0B2E1E7ABF80020AAF800C0521C0C
:10478000ABF80020C0B2AAF80000ABF80010AAF8FD
:104790000040491CABF80010D8B2AAF80000BAE7F4
:1047A0001FFA88F00146104600F0A4F8B089BDE871
:1047B000F04F194600F09EB82C020020FE07006C56
:1047C0002DE9F84F82461F460C468B46580700D00D
:1047D000012000EBD70079084843203AC0B202F02C
:1047E000FF090026009041E00C2F10D0102F12D0AE
:1047F000182F3ED1204909EBC90001EB80004FF092
:104800000008855D28060AD51C4802880BE009EBE4
:1048100049001B49F1E71B4901EB0910EFE70A9832
:1048200028B91648428821465046FCF7B9FD68066B
:10483000050E1548641CA4B24088A04219D9A4EB07
:104840000B00B84209D10AF101001FFA80FA0E48A4
:104850005C46018851450CD906E008F1010000F0E2
:10486000FF08B8F1080FCDD3761CF6B20098864247
:10487000BAD3BDE8F88F000088AF00081A00002006
:1048800024A5000898A900082C0200202DE9F84F63
:10489000044600F0FF0810190D46DDE90A761FFAFC
:1048A00080FA58191FFA80F94FF0000B11E05445B7
:1048B00002D3E819444685B24D450FD23B462946FE
:1048C0002046CDF800B0FFF77BFF04EB570084B221
:1048D000761C3278A2F120005E28E8D9BDE8F88F76
:1048E0000248034900890880704700002C0200201C
:1048F000FE07006C024A1080901C01807047000087
:10490000FE07006C38B50121482000F08FFB202401
:10491000ADF8004010208DF8030003200B4D8DF8FA
:10492000020069462846FCF7C5FA20212846FCF714
:1049300044FBADF80040064C69462046FCF7BAFA45
:1049400020212046FCF739FB38BD0000000C014057
:104950000018014010B5084C00212046FCF7FCF877
:10496000064920460988FCF792F92046BDE8104028
:104970000121FCF7F1B80000580402402C0200208D
:1049800030B504468BB00121022000F037FB0E4DFC
:104990002846FCF7EDF80D484021CDE90040002005
:1049A0000290CDE903018900CDE905018900CDE937
:1049B00007108800099080000A9069462846FCF795
:1049C00049F90BB030BD0000580402400008006CEB
:1049D000FEE7704730B50F23C27801780125F2B1A8
:1049E000144A126801F1E02102F4E062C2F5E062CB
:1049F000120AC2F10404D3404278A24084781C40D9
:104A00001443220181F80024007800F01F018D403A
:104A10004009800000F1E020C0F8005130BD01F0F5
:104A20001F0085404809800000F1E020C0F8805157
:104A300030BD00000CED00E0024908430249086067
:104A4000704700000000FA050CED00E070B5084961
:104A5000002401EBC00505EB4400417815F8140073
:104A600000F070FC641CE4B2042CF4D370BD0000B0
:104A700082BE000810B504460021FF2000F062FC51
:104A800000217C2000F05EFC04217D2000F05AFC17
:104A900009217C2000F056FC2007010E7D2000F04B
:104AA00051FC0021BDE810407D2000F04BBC10B54A
:104AB00004460121FF2000F045FC122000F09EFB7F
:104AC00020F002010CB141F00201BDE810401220BB
:104AD00000F038BC000110B52030C0B240F008042E
:104AE0000021FF2000F02EFC00217C2000F02AFC99
:104AF00002217D2000F026FC03217C2000F022FC16
:104B000021467D2000F01EFC2146BDE810407D209E
:104B100000F018BC70B520252C4630B1012807D014
:104B2000032808D004280BD108E01825342407E016
:104B30001C252A2404E02425162401E028250C2421
:104B40000021FF2000F0FEFB00217C2000F0FAFB9A
:104B500004217D2000F0F6FB07217C2000F0F2FB11
:104B600020217D2000F0EEFB29467D2000F0EAFBAD
:104B700021467D2000F0E6FBBDE8704006217D2047
:104B800000F0E0BB70B50D4604460021FF2000F0A8
:104B9000D9FB0421E02000F0D5FBC4F3C701C020FD
:104BA00000F0D0FBC5F3C701C12000F0CBFB6007CC
:104BB00005F0070242EA9062802000EA14111143D6
:104BC0008C2000F0BFFB0021E02000F0BBFB0020A8
:104BD00070BD2DE9F04107460E46900702D0012036
:104BE000BDE8F081980701D00220F9E794089D08FC
:104BF0000021FF2000F0A6FB0421E02000F0A2FB32
:104C0000E1B2512000F09EFBE9B2522000F09AFB85
:104C1000F9B2532000F096FBF1B2542000F092FB61
:104C20002846802505EA5001702000EA1610084346
:104C3000082101EA54110143C7F302200143552022
:104C400000F080FB05EA9401572000F07BFB002177
:104C5000E02000F077FB0020C2E70000F8B5002458
:104C6000012140F2391000F0E1F91026ADF80060A2
:104C700048258DF8035003204F4F8DF802006946F8
:104C80003846FCF717F910213846FCF796F908204A
:104C9000ADF800008DF8036069463846FCF70AF964
:104CA00008213846FCF789F9FF20ADF800008DF89F
:104CB000035069464148FCF7FDF84020ADF800007C
:104CC0003F4F8DF8035069463846FCF7F3F8402112
:104CD0003846FCF772F9F702ADF800708DF8036002
:104CE000384E69463046FCF7E5F839463046FCF761
:104CF00064F97F10ADF800708DF8035069463046B6
:104D0000FCF7D8F839463046FCF757F901212E4810
:104D1000FCF71EF92D480025C0F88C510A2002F03E
:104D20003DFD2B4EC6F8BC510A2006F5DE7602F09A
:104D300035FD0120306000F0CFF90121FF2000F0A7
:104D400001FB8021122000F0FDFA322002F026FD46
:104D50001C2000F053FA4FF6FF7505EA00261D20CF
:104D600000F04CFA40EA0601A1F5FE40A23804D05A
:104D700018A0FBF79FFA0120F8BD0A2000F03EFAC8
:104D800005EA00250B2000F039FA40EA0501A1F5FB
:104D90001850423802D012A0FBF78CFA134D05EBE5
:104DA0004400417815F8140000F0CCFA641CA4B259
:104DB000B22CF4D30020F8BD000C014000100140DB
:104DC0000014014000200140000230000080214218
:104DD000000024424D49443A25640D0A00000000B9
:104DE0004849443A25640D0A00000000E4BC00086C
:104DF00070B50E4D002405EB4400417815F8140001
:104E000000F0A0FA641CA4B2082CF4D3074D0024CF
:104E1000103505EB4400417815F8140000F092FAC3
:104E2000641CA4B2072CF4D370BD000048BE000877
:104E300070B55E254126542430B102280BD00328DA
:104E40000CD0042810D10CE00021FF2000F07AFAE9
:104E50000021C7201AE065254F2405E0522566246D
:104E600002E042253F2671240021FF2000F06AFA6B
:104E70004021C72000F066FA2946CC2000F062FAF3
:104E80003146CD2000F05EFA2146CE20BDE87040CC
:104E900000F058BA70B5820701D0012070BD8A07B2
:104EA00001D0022070BD84088D080021FF2000F091
:104EB00049FA0421E02000F045FAE1B25A2000F05E
:104EC00041FAE9B25B2000F03DFA0421C4F301206D
:104ED00001EA951101435C2000F034FA0021E02042
:104EE00000F030FA002070BD70B5074D002405EBCE
:104EF0004400417815F8140000F024FA641CA4B2B0
:104F00000E2CF4D370BD000066BE000870B580267C
:104F100000243546072817D2DFE800F016040608FB
:104F20000C0F130040240FE018240DE01824402635
:104F3000C02509E01824402601E01824A0264025B9
:104F400002E018244026A6250021FF2000F0FAF9EF
:104F500000217C2000F0F6F921467D2000F0F2F9D6
:104F600005217C2000F0EEF931467D2000F0EAF9C1
:104F70002946BDE870407D2000F0E4B92DE9F041FC
:104F80000D46044600EB520701EB53060121FF20BA
:104F900000F0D8F9032000F031F906F003022946A9
:104FA00000F0F00062F39F010143032000F0CAF912
:104FB000C5F38701192000F0C5F9C6F387011A204F
:104FC00000F0C0F9322000F019F907F0070221467D
:104FD00000F0C00062F3DF010143322000F0B2F9BB
:104FE000C4F3C701172000F0ADF9C7F3C701BDE84E
:104FF000F041182000F0A6B970470000044A0029CB
:10500000516901D0014300E08143516170470000C4
:1050100000100240044A0029D16901D0014300E098
:105020008143D1617047000000100240044A00290A
:10503000916901D0014300E0814391617047000014
:105040000010024030B5204A5168204B11F00C018D
:1050500003D0042901D0082901D0036012E051686F
:10506000536801F470114FF0020413F4803F04EB15
:10507000914102D053689B0301D5154B00E0134BBF
:105080005943016051680F2303EA1111114B5C5C15
:105090000168E14041605468072505EA14241C5D5D
:1050A00021FA04F48460546805EAD4241B5DD940D5
:1050B000C1605268032303EA9232064B1B1F9A5CBD
:1050C000B1FBF2F1016130BD0010024000127A0024
:1050D00000093D004000002038B501214FF49070D8
:1050E000FFF7A4FF4FF40055ADF8005048208DF8AD
:1050F00003000320114C8DF8020069462046FBF79F
:10510000D9FE29462046FBF758FF0820ADF80000DD
:1051100010200B4D8DF8030069462846FBF7CAFEA8
:1051200008212846FBF749FF606820F470006060A2
:10513000606840F44010606038BD0000002001400D
:105140000014014070B5322002F042FB0C4D0120EA
:10515000C5F8B4010B4EC6F88C01322005F5DA759E
:1051600006F5C67602F034FB00243460322002F0EB
:105170002FFB2C60BDE87040322002F029BB0000FC
:1051800000002442008022422DE9F047184F0024FD
:10519000786820F470007860786840F400007860E7
:1051A000DFF85090144E08254FF00108A246322037
:1051B00002F00EFBC6F88C816006040ED9F83401AB
:1051C00008B1641CE4B2322002F002FBC6F88CA1E4
:1051D0006D1E15F0FF05EAD1786820F47000786044
:1051E000786840F4401078602046BDE8F087000001
:1051F00000200140000024420080224210B50446F5
:1052000000F022F8602000F055F8642002F0E0FA87
:10521000204600F04FF8642002F0DAFA00F02EF891
:10522000642002F0D5FA00F00FF8612000F042F897
:10523000642002F0CDFAFFF7A7FF0446FFF782FFD4
:1052400000F01CF8204610BD70B50A4E0120C6F8CB
:10525000B401094DC5F88C01322005F5C67506F577
:10526000DA7602F0B5FA00243460322002F0B0FAA7
:105270002C6070BD000024420080224270B50B4CAF
:105280000020C4F8B401322004F5DA7402F0A0FA68
:1052900007480125C0F88C51322002F099FA2560A8
:1052A000BDE87040322002F093BA000000002442B2
:1052B000008022422DE9F04700241F4E1F4F054673
:1052C000A0464FF00109280601D5484600E04046B7
:1052D000C6F8B4016806050E322002F079FAC7F864
:1052E0008C91322002F074FAC7F88C81641CE4B20D
:1052F000082CE8D3124C606820F47000606060688D
:1053000040F400006060322002F062FAC7F88C912D
:10531000322002F05DFAD6F8340100B10120C7F85E
:105320008C81616821F470016160616841F4401111
:105330006160BDE8F0870000000024420080224246
:105340000020014070B50D4606460024FFF77CFFA3
:105350006020FFF7AFFF00B10124642002F038FAAB
:105360003046FFF7A7FF00B10124642002F030FAB5
:105370002846FFF79FFF00B10124FFF77FFF20467B
:1053800070BD00002DE9FC410026009635460196CF
:1053900000B102251B484069800102D50E20BDE8FE
:1053A000FC81194C6946208980B2FBF7E7FC002894
:1053B000F5D10198400322D52089144C00044FF008
:1053C000400820603720C4E901084FF48067204678
:1053D000C4E9036700F090F83720FBF7FFFA0028D4
:1053E000DDD10620C4F80880C4E90050C4E9036791
:1053F000204600F081F80620FBF7F0FACFE72520E1
:10540000CDE700000080014020000020580200206D
:105410000149886370470000008001400149C1F8DC
:10542000A000704700003042034A516821F0FF019C
:10543000014351607047000000800140014908604D
:10544000704700008C05304210B5094902684A6275
:1054500042688A62CA6AD0E902342343D0E9044030
:10546000044322F0F70223431343CB6210BD000034
:105470000080014006480021016041608160C160F8
:1054800041628162C162034A8263C1637047000066
:1054900000800140FF07C000034A01460020526B14
:1054A0000A4200D001207047008001400248006895
:1054B00000F00300704700000080014000F06CBB6A
:1054C00030B5094B5A6847F6FF618A43017D84680D
:1054D000C568214344682C43214304680069214383
:1054E00001431143596030BD008001400148D0F8AC
:1054F000800070470080014010B5084902688A604A
:10550000CA68D0E901342343D0E9034004436FF370
:105510000A0223431343CB6010BD0000008001400A
:1055200004490A6822F003020A600A6802430A601A
:1055300070470000008001400149C1F880007047B9
:1055400000800140F0B50F4604468BB0154601219E
:105550000220FFF753FD114E3046FBF709FB0021F7
:105560003046FBF7F9FA0E4880218DE83100B80883
:1055700003900020CDE90401890006918900CDE95E
:1055800007108900CDE9091069463046FBF762FB38
:1055900000213046FBF7E0FA0BB0F0BD44040240B6
:1055A0008080014010B51049044600200978032985
:1055B00006D019B1012901D0022902D1022C01D350
:1055C000272010BDE0B2FFF7DDFE0028F9D1074922
:1055D0004A6822F4C0524A604A68A3B242EAC3222F
:1055E0004A604A684A6010BD2000002000800140E7
:1055F0002DE9F0478249DFF80CA24FF0000C0B7840
:1056000080F856300989A0F85410DAF800104FF0ED
:1056100001090A0E95090570C2F38305457002F071
:10562000030282700A0CC2700A0A02714171DAF830
:105630000420110E0C01C2F3074144EA111401F0D9
:105640000F08C480C2F3072180F80880CC09447297
:10565000C1F380148472C1F34014C472C1F3001406
:105660000473544680F80DC0A468260EC4F30745A1
:10567000C4F3072733B1012B04D0032B02D0022B34
:1056800030D03EE08907090DD2B241EA820141EAF9
:105690009612C6F3C2010261017506F00701417559
:1056A00069098175C5F38201C175A9074B0F394698
:1056B00043EAD1150576AD1C09FA05F3DE17521C35
:1056C000A2FB03570CFB037302FB063309FA08F233
:1056D000A5FB0267026503FB027205FB0C22C0E911
:1056E00012620EE09106890A41EA06222A4302610B
:1056F000521C530BD204C0E912234FF400723946F6
:105700000265C1F38012427689064A0EE1B242EA8E
:10571000D11200F81A2F01F07F014170DAF80C2045
:10572000110ECB098370C1F34113C370C1F382031F
:10573000037189070B0FC2F3074143EA91134371C9
:10574000C1F34013837180F807C001F001010172B9
:10575000C2F30721CB094372C1F380138372C1F3F3
:105760004013C372C1F300130373C1F38103437386
:1057700001F003018173C2F34601224AC173103262
:1057800080F8109011684B460C0E84740C0CC1F319
:10579000072545EA042484820C0651680D0E44EA6C
:1057A0000544C1F3074544EA0524C1F307252C430A
:1057B000C0F8164000F81A1F91680C0E44700C0CCB
:1057C000C1F30725240644EA0544C9B244EA01248A
:1057D000D16844EA1164C1F307424460047A44EAA0
:1057E00012140472C1F30724120744EA12524281D0
:1057F000C1F34601017343736046BDE8F0870000C2
:1058000020000020840200207CB501213020FFF719
:105810000DFC012140F20240FFF7F0FB4FF4F8507D
:10582000ADF8000018258DF8035003248DF80240D0
:1058300069462948FBF73EFB0420ADF800008DF8CF
:105840000350264D8DF8024069462846FBF732FB8F
:105850008021ADF8001048208DF803008DF802403B
:1058600069462846FBF726FBFFF704FE31208DF83A
:10587000040000208DF805008DF8060001208DF849
:10588000070001A8FFF7A6F800F0B8F8144C80B99B
:1058900000F02AF868B92046FFF7AAFE48B9B4F824
:1058A0005400000400F054FC18B90120FFF77AFE00
:1058B00018B10C49097803290AD194F8560040B16F
:1058C000012806D00420FFF7AFFD002000F056FCB1
:1058D0007CBD0A20F7E700000010014000140140E1
:1058E000A8020020200000202DE9F84F0120ADF88B
:1058F0000000FFF7DBFD88B3DFF8F49099F80000B3
:10590000042872D03B4C02204FF0C00B0025C4F895
:1059100008B0C4E900504602C4E903562046FFF728
:10592000EBFDFBF783F800281AD1334F796904F1B6
:105930003C000160B9694160F9698160396AC16000
:1059400099F800004FF0030A4FF0400850B10128C9
:1059500008D0062806D0022804D012E0FFE7252050
:10596000BDE8F88FC4F80880C4E9005AC4E90356BA
:105970002048FFF7C1FD69460320FBF793F8002894
:10598000EED199F8000003280FD1BDF80000C4F84B
:1059900008800004C4E9000AC4E903561548FFF76B
:1059A000ABFDFBF743F80028DAD199F80000042892
:1059B0001BD0BDF80000C9F80800000420600920D1
:1059C000C4E9010BC4E903560A48FFF795FDFBF74C
:1059D0002DF80028C4D1796906482C300160B969D6
:1059E0004160F9698160396AC1600020B8E7000050
:1059F0002000002058020020008001402DE9F05FC7
:105A000000276048B2213E46017507604760876005
:105A1000C7603C463D46B946B8460761FFF750FDB2
:105A20000320FFF77DFD0120FFF7F8FCDFF854A10C
:105A30004FF4806B0AF1180A5248CAF80080CAF87D
:105A40000480CAF80880CAE9038B1830FFF754FDB8
:105A5000FAF7AFFF28B17F1CFFB24A2FECD3BDE8A5
:105A6000F09F4FF4D570CAF8000008205746CAF8D6
:105A700004004020C7E902080001CAF810004148AC
:105A80001830FFF739FDFBF749F820B93E490120EE
:105A90004FF080490870BA463846414637224027C1
:105AA00080E88600C0F80C8036483901C3461830BB
:105AB000CAF81010FFF720FD3720FAF78FFF4FF6D6
:105AC000FF7888B3B9465646304F4FF0010B4FF47C
:105AD000806ABDB34DE055463720C5E900B04FF4AC
