:020000040800F2
:10000000E8AE0020197D000801050008030500087E
:1000100005050008070500080905000800000000A4
:100020000000000000000000000000000B050008B8
:100030000D05000800000000533C0108F57A000897
:10004000337D0008337D0008337D0008337D0008D0
:10005000337D0008337D0008337D0008337D0008C0
:10006000337D0008337D0008337D0008337D0008B0
:10007000337D0008337D0008337D0008337D0008A0
:10008000337D0008337D0008337D0008337D000890
:10009000337D0008337D0008337D0008337D000880
:1000A000337D0008337D0008337D0008337D000870
:1000B000337D000837600008337D0008337D000879
:1000C000337D0008337D0008337D0008337D000850
:1000D000337D0008A97C0008337D0008337D0008CB
:1000E000337D0008337D0008337D0008337D000830
:1000F000337D0008337D0008337D0008337D000820
:10010000337D0008F5750008337D0008337D000855
:10011000337D0008337D0008A9600008337D0008A6
:10012000337D0008337D0008337D0008337D0008EF
:1001300000F002F800F065F80AA090E8000C824494
:100140008344AAF10107DA4501D100F05AF8AFF271
:10015000090EBAE80F0013F0010F18BFFB1A43F0A5
:100160000103184758580300785803000A444FF019
:10017000000C10F8013B13F0070408BF10F8014B06
:100180001D1108BF10F8015B641E05D010F8016B4B
:10019000641E01F8016BF9D113F0080F1EBF10F8AF
:1001A000014BAD1C0C1B09D16D1E58BF01F801CBD2
:1001B000FAD505E014F8016B01F8016B6D1EF9D555
:1001C0009142D6D37047000000230024002500266A
:1001D000103A28BF78C1FBD8520728BF30C148BFAA
:1001E0000B607047642913F0D981782913F01282CB
:1001F000732913F06E84002070471FB51FBD10B522
:1002000010BD13F0DFFC1146FFF7F7FF00F0CFF849
:1002100013F0FDFC03B4FFF7F2FF03BC07F0ECFCA6
:100220000EB5944C02AD08264FF4FA77D4F8940139
:1002300058B10020C4F894010022CDE900653B4686
:10024000114610460EF0AFFEF0E70120F2E70EB5C2
:1002500002AD082418F0B0FA00220523114610461A
:10026000CDE900450EF09FFEF4E7834813F010FF40
:10027000824813F0E3FF824814F05CF8814814F0E0
:10028000EDFE814819F056FF80481BF093FE804830
:100290001CF04EFA7F481CF06FFB7F481CF040FCBE
:1002A0007E481CF0ABFE7E481CF09AFF7D481CF097
:1002B000D9FF13F02BF8642016F002FCFBE72DE9C0
:1002C000F0438BB010F0B1F809A80DF02AFB012122
:1002D00009AA08460AF0E9FE0121402008F0E6FAE2
:1002E00004201EF069FC17F0CDF910F073F96E4D83
:1002F0002978491C297010F071F900240327CDE9F1
:10030000064709AE4FF40060CC210896CDE90210F3
:10031000664A05940620CDE9000204942346AFF214
:10032000B502624862A1C4380DF091FDCDE90647DF
:1003300004204FF00C09624A089605948DE80502E6
:100340004FF080080023AFF2F9025D48CDE9038445
:100350005CA1C4380DF07BFDCDE9064705205C4A61
:10036000089605948DE805020023AFF24B12584819
:10037000CDE9038457A1C4380DF069FD09A9584897
:100380000EF05FFB10F026F92978491E11F0FF01ED
:10039000297009D15349098831B110F01FF90BF0C8
:1003A000FDF90BB0BDE8F08310F018F9F9E78AB059
:1003B00007F0AEFB4FF4A06007F0ACFD4FF4E13066
:1003C00007F024FC00F050F900F096FE00F074F9FC
:1003D00007F064FB03F0D8FF002007F0CBFC0120FE
:1003E00007F0C8FC12F022FE3F4C01223FA120681A
:1003F00011F0ECF801223EA1606811F0E7F805F079
:1004000054FD09A80AF0E3FC10F0E4F8264C21782A
:10041000491C217010F0E2F8002006AB09AA032164
:10042000059083E8070066234FF48062CDE902322D
:100430002B4D0490C4350346AFF27D12CDE9001573
:100440002CA127480DF003FD10F0C4F82178491EB7
:1004500011F0FF01217007D12249098821B110F064
:10046000BDF80BF09BF901E010F0B8F809A80AF00C
:10047000DAFEFEE700802142593E010841410108B1
:1004800089420108DD4B01082DA001084DBB010880
:100490002DC20108F5C8010869CA010861CE01082A
:1004A000B5D00108FDD1010818010020C0230020AB
:1004B000456D77696E64656D6F207461736B0000C4
:1004C000381E0020546F756368207461736B0000E0
:1004D000FC2000204C656430207461736B000000C8
:1004E000B00C0020DC000020B8010020303A0000F1
:1004F000313A00007374617274207461736B000090
:100500007047FEE7FEE7FEE7FEE770477047000032
:100510000CB500224C4800920192016841F48031F0
:1005200001604FF4A063016801F40031019100996A
:10053000491C0091019911B900999942F3D10168C0
:10054000890333D50121019140490A6842F0100224
:100550000A600A6822F003020A600A6842F0020296
:100560000A604168416041684160416841F48061CE
:100570004160416821F47C114160416841F4E81117
:100580004160016841F08071016001688901FCD51A
:10059000416821F003014160416841F0020141607E
:1005A0004168C1F381010229FAD10CBD01920CBD51
:1005B000254810B5016841F0010101604168244AF5
:1005C000114041600168234A11400160016821F433
:1005D00080210160416821F4FE0141604FF41F0158
:1005E0008160FFF795FF1C494FF00060086010BD67
:1005F000154A10B55068194B10F00C01184803D07B
:10060000042901D0082901D0036012E05168536821
:1006100001F470114FF0020413F4803F04EB914198
:1006200002D053689B0301D50E4B00E00B4B59439E
:10063000016051680A4AC1F30311121D515C02683E
:10064000CA40026010BD00000010024000200240BD
:100650000000FFF8FFFFF6FE08ED00E000127A0050
:100660000000002000093D0038B50121482008F0B5
:1006700026F92024ADF8004010208DF80300032057
:100680000B4D8DF802006946284607F030FF202107
:10069000284607F096FFADF80040064C6946204614
:1006A00007F025FF2021204607F08BFF38BD000012
:1006B000000C01400018014008B50121442008F059
:1006C000FEF81C20ADF8000048208DF803006946B4
:1006D000364807F00CFF0120ADF8000028208DF807
:1006E00003006946324807F002FF08BD2DE9F041DA
:1006F000304C2F4F2D4D012608B1267001E0207897
:10070000A0B11021284607F048FFB0B108212846C3
:1007100007F043FF88B10421284607F03EFF60B18F
:100720000121384607F039FF012806D0102128465C
:1007300007F033FF012824D035E00A2007F02DFA16
:10074000002020701021284607F027FF80B10821E3
:10075000284607F022FF70B10421284607F01DFF4C
:1007600058B10121384607F018FF012807D01AE0D8
:100770000120BDE8F0810220FBE70320F9E7042017
:10078000F7E70821284607F008FF01280BD10421CC
:10079000284607F002FF012805D10121384607F05D
:1007A000FCFE00B926700020E3E7000000180140BD
:1007B0000008014014000020FE4908807047FD49F0
:1007C000891C08807047FB4808B5801C0088ADF87C
:1007D0000000BDF8000008BDF64A1080901C0180A2
:1007E0007047F44910B50880052007F0B7F9BDE857
:1007F0001040E8E7F048EF49008908807047ED496C
:10080000891C08807047C0F34511C20AC00200EB82
:100810004110104480B27047401EC0B2FCD27047F5
:100820002DE9F04FE44F0B463A46BD880C0ADFF83D
:1008300084B391895289A5F513464FEA102C0BF128
:10084000020A413E1DD0A5F5A646103E19D03E46EF
:10085000BE4696F806903688A5F5D047A6EB000868
:10086000A8F10108043F17D0A5F5C857633F28D069
:10087000A5F5AA477646103F51D0B9F1010F63D0D4
:1008800064E0ABF800205246AAF800C0C0B2AAF853
:100890000000ABF800100FE0B9F1010F01D11FFA11
:1008A00088F0ABF80020050A5246AAF80050C0B202
:1008B000AAF80000ABF800101480D8B21080BDE890
:1008C000F08FB9F1000F1BD0ABF800205246AAF808
:1008D00000C0C0B2AAF80000761E300AAAF80000D4
:1008E000F0B21080ABF8001011461480D8B210801E
:1008F000BEF80200401E020A0A80C0B20880DEE78D
:100900001FFA88F0ABF8002000265246AAF80060D3
:10091000AAF80060060AAAF80060C0B2E1E7ABF8E6
:100920000020AAF800C0521CABF80020C0B2AAF800
:100930000000ABF80010AAF80040491CABF800100A
:10094000D8B2AAF80000BAE71FFA88F001461046AC
:10095000FFF742FFB089BDE8F04F19463CE7F0B51C
:10096000954E002425463288824202D972888A42F6
:1009700001D80020F0BDFFF753FFB08849F241379E
:100980008C4B41F6631C45F2103145F21052B842CF
:1009900008D0A0F5D04EBEF1040E03D0884201D09D
:1009A000604502D14FF02E0E06E0904202D14FF486
:1009B000385E01E04FF0220EA3F800E0A0F51343EB
:1009C000203B03D10220401EC0B2FCD2FFF7FBFE49
:1009D000B3886345CED00220401EC0B2FCD2FFF7E0
:1009E000F2FE8446B088B84203D0884201D09042DB
:1009F0000CD10220401EC0B2FCD2FFF7E4FE054637
:100A00000CF0FF004FF6FF7303EA0024B088A0F556
:100A10001343253B1CD0A0F58A43353B18D01B1D42
:100A200016D0A0F53543053B12D0B3F580530FD057
:100A3000B84203D0884201D090420BD14FEADC206B
:100A40004FEAC020A10A40EA411040EAD520F0BD9B
:100A50006046F0BDBDE8F0406046D4E656485549D2
:100A60008088A0F51342413A13D0A0F5D042043A51
:100A70000FD0A0F5A642103A0BD0A0F5C852633AA9
:100A800007D0A0F5AA42103A05D040F27311072012
:100A9000A2E6292001E04FF4245008807047464820
:100AA00044498088A0F51342413A12D0A0F5D042C3
:100AB000043A0ED0A0F5A642103A0AD0A0F5C852CA
:100AC000633A06D0A0F5AA42103A04D000210720CC
:100AD00082E6282001E04FF4205008807047F0B5EE
:100AE000354D00232946AA79898846F6040741F640
:100AF0006316012A01D02AB11DE0B9421BD0B142D0
:100B000002D118E0B14216D1082814D2DFE800F073
:100B10000406080A0C0E101206200CE007200AE05A
:100B2000042008E0052006E0012004E0002002E0A7
:100B3000032000E00220A1F5134C45F2103245F2EB
:100B40001054BCF1410C07D0B94205D0914203D0FA
:100B5000A14201D0B1427AD1082812D2DFE800F0D8
:100B6000110406080A0C0E1080230AE0402308E056
:100B7000C02306E0202304E0602302E0A02300E07D
:100B8000E023A14202D14FF4585000E036209142B8
:100B900005D0A14203D0B14201D043F00803B942CD
:100BA00001D143F002031946FFF716FEAA88B242AC
:100BB0000FD003E0FE07006CC04300209806288891
:100BC000698802D5884202D303E0884201D929808E
:100BD0006880FE48811CA2426A89028021D10023DC
:100BE0000B80531C038000230B80931C03802B88F5
:100BF0005B1E1C0A0C80D21C0280DAB20A80AA8911
:100C0000028000230B80531C038000230B80931C65
:100C100003806B885B1E1C0A0C80D21C0280D8B239
:100C200012E000220A800A802A88521E130A0B80D2
:100C3000D2B20A80AA8902800020088008806888D1
:100C4000401E020A0A80C0B20880F0BDFFE70828F3
:100C500012D2DFE800F0040608110A0C0E1030234F
:100C60000AE0102308E0202306E0382304E02823CC
:100C700002E0182300E00823BDE8F040032043F41D
:100C80008051A9E500B5FFF7CBFDFFF7B3FDD048D4
:100C9000CE49891C0088088000BD2DE9F04FDFF89F
:100CA0003483934642460B46B8F804500C0ADFF8EA
:100CB0001CA39189060A5289A5F513470AF1020976
:100CC000413F18D0A5F5A647103F14D0B7F50077DF
:100CD0001CD04746A5F5C85CBE793F883F1A7F1EE9
:100CE000BCF1630C27D0A5F5D04CBCF1040C3AD074
:100CF000012E4AD04AE0AAF800204A46A9F800602E
:100D0000C0B2A9F80000AAF800103AE0AAF8002042
:100D1000A9F80060521CAAF80020C0B2A9F800008F
:100D2000AAF80010A9F80040491CAAF80010D8B28F
:100D3000A9F8000033E006B9B8B2AAF80020050A05
:100D40004A46A9F80050C7B2A9F80070A9F80050A7
:100D5000C0B2A9F80000AAF80010A9F80040D8B263
:100D6000A9F800000DE0012E00D1B8B2AAF80020C9
:100D7000050A4A46A9F80050C0B2A9F80000AAF82E
:100D800000101480D8B2108009E0B8B201461046B5
:100D9000FFF722FDB8F80C001946FFF71DFDB8F863
:100DA0000810AAF80010A9F800B088E5874A10B525
:100DB000BE211180941C0521218029F064FB4FF095
:100DC0006632854B29F0AEFB29F030FB20800120F4
:100DD0002080FF20208000202080208010BD2DE971
:100DE000F04F7C492A232B24898845F2105A4FF46E
:100DF000305B4FF4285E4FF448754FF0F00C49F229
:100E000041394FF4A07745F210364FF4F07280B1BB
:100E100070484FF00108494580F806800780A0F827
:100E200002C001D0B1423ED12C250581438184818D
:100E300057E068484FF00008494580F80680A0F860
:100E400000C0478006D0A1F5D04CBCF1040C01D005
:100E5000B1420CD12C2505814381A1F5D043848179
:100E6000043B01D0B14244D10780428041E051456A
:100E700007D1A0F808B0A0F80AE04FF42C51818106
:100E80000EE0A1F5C856633E06D022210181202143
:100E90004181212181812CE02C21018144818381A8
:100EA0000280458025E0A1F5D04CBCF1040C09D0AE
:100EB00051450BD1A0F808B0A0F80AE04FF42C532C
:100EC000838120E02C250581448109E0A1F5C85CDF
:100ED000BCF1630C11D02223038121234381202301
:100EE0008381A1F5D043043B01D0B14201D10280FE
:100EF0004780BDE8F04F0020F1E54FF02C0CA0F842
:100F000008C04381848105804280EAE72DE9FC4FD7
:100F1000044691464844401E86B2C818401E83B21B
:100F2000009004EB0900401EC0F3072EDFF8A4C0B8
:100F300000980D46C0F3072B6046BCF804204FEA2A
:100F4000112881894089A2F513474FEA142A413FAD
:100F500010D0A2F5A647103F0CD0A2F5D047043F11
:100F600008D09CF8067041F6631C0197012F13D13D
:100F7000624511D1154F3880B81CA0F800A0E2B22C
:100F80000280A0F800E0F2B202803980A0F8008070
:100F9000E9B20180594626E00E4F62453F8827D1CD
:100FA000A7EB0902121B094C009B92B29BB2208056
:100FB000160AA01C0680D6B206804A44521E160AA3
:100FC0000680D2B20280218008E00000FE07006C9B
:100FD00016000020C043002066660440A0F8008090
:100FE000E9B20180190A0180D9B20180BDE8FC8F05
:100FF000A2F5A04CBCF5A26C1FD0019801283FD0EF
:10100000B44621462E4650204FF051094FF0520869
:101010005327FFF7E1FB61464846FFF7DDFB31460A
:101020004046FFF7D9FB19463846FFF7D5FB29465E
:101030002046BDE8FC4FFFF7F3BBFE4A1080971C2B
:10104000A7F800A000F1010CA2F800C0E4B23C80B7
:10105000841C1480A7F800E0C01C1080F0B2388017
:101060001180A7F80080481C1080E8B23880881CE6
:101070001080A7F800B0C91C1180D8B23880B5E73D
:10108000B81B401E86B2381B9C46401E294683B2C0
:10109000B9E72DE9F043E84F0646002438887D88FB
:1010A0004543B888A0F5D041043902D1B879012868
:1010B00008D000210846FFF7B3FBFFF79BFBDD4894
:1010C000801C15E00020B8714FF02A09A7F80A909B
:1010D0004FF02B08A7F80C800146FFF7A1FB012079
:1010E000B871A7F80A80A7F80C90E6E70680641CA0
:1010F000AC42FBD3BDE8F0832DE9F04F01210E0295
:101100009FB0304607F0D2FB01214FF4B47007F0D6
:10111000D6FB0127ADF83C704FF010088DF83F80EA
:1011200003248DF83E400FA9C44807F0E0F94CF2C3
:101130003370ADF83C0018258DF83F508DF83E40D7
:101140000FA9BF4807F0D3F94FF68070ADF83C0007
:101150008DF83F508DF83E400FA9BA4807F0C7F907
:1011600041F20100ADF83C008DF83F508DF83E4053
:101170000FA9B54807F0BBF900200F21CDE91801F0
:101180001A901B901C901D901090CDE91104CDE990
:101190001607149006211590CDE90010CDE902083C
:1011A000139004903101CDE9080106900590079055
:1011B0008900CDE90A010C9017A80D9010A80E9097
:1011C000684606F033FF0121062007F064F832205C
:1011D00006F0E3FC0020FFF704FB974D954C49F225
:1011E0004139A88046F6040A45F2103B45F21057F3
:1011F0004FF6FF78FF2804D3404502D0B0F5134FD7
:1012000070D1D3202080FFF7DEFAA880FFF7DBFA49
:10121000A880FFF7D8FA08EA00204146A880FFF727
:10122000D2FAAA881043A88048455BD0BF2020800E
:10123000FFF7C9FAA880FFF7C6FAA880FFF7C3FA3C
:10124000A880FFF7C0FA01EA0020A880FFF7BBFAE8
:10125000AA881043A880504544D0D4202080FFF7AE
:10126000B2FAA880FFF7AFFAA880FFF7ACFA01EA5C
:101270000020A880FFF7A7FAAA881043A880584545
:1012800030D04FF45A402080FFF79DFAA8804FF4E9
:101290005B402080FFF797FA01EA0020A8804FF416
:1012A0005C402080FFF78FFAAA881043A880B0F531
:1012B000004F7DD0B84215D0A1202080FFF783FADF
:1012C000A880FFF780FA01EA0020A880FFF77BFAE8
:1012D000A9880843A0F5AE41A880613902D141F642
:1012E0006310A880A98859A012F0EEF8A888514D83
:1012F000AD1C48457ED1CF20208000202880C12011
:10130000288030202880ED20208064202880032041
:1013100028801220288081202880E82020808520B5
:101320002880102028807A202880CB202080392017
:1013300028802C202880002028803420288002202B
:101340002880F720208020202880EA20208000208C
:1013500028802880C02020801B202880C120208059
:1013600001202880C5202080302028802880C720A8
:101370002080B720288036202080482028803A20EE
:10138000208055202880B1202080002028801A202D
:101390002880B62020800A202880A2202880F220E1
:1013A000208000202880262020800120288000E046
:1013B00066E0E02020800F2028802A202880282036
:1013C0002880082028800E2028800820288054208B
:1013D0002880A9202880432028800A2028800F20E8
:1013E000288000202880288028802880E1202080F4
:1013F000002000E046E02880152028801720288063
:101400000720288011202880062028802B20288073
:10141000562028803C202880052028801020288005
:101420000F2028803F20288028800F2028802B2014
:10143000208013E0FE07006CC0430020000C014038
:10144000001401400018014000200140204C43449A
:101450002049443A25780D0A000000000020288029
:101460002880012028803F2028802A2020800020FA
:10147000288028802880EF202880112020806EE09E
:10148000AF802FE7504571D111202080142006F045
:1014900084FBD020208007202880422028801D2027
:1014A0002880D1202080002028801A202880092030
:1014B0002880D22020800120288022202880C0205F
:1014C0002080102028803B202880002028800220B7
:1014D000288011202880C520208003202880C82053
:1014E0002080002028802520288021202880052099
:1014F0002880002028800A20288065202880252038
:10150000288077202880502028800F2028800020E5
:101510002880F820208001202880FE2020800020C4
:10152000288002202880202020803620208008204B
:1015300028803A202080552028802B2020800020E1
:1015400028802880012028803F2028802A20208091
:1015500000202880288001202880DF202880782013
:1015600006F01BFB292001F02EBCFFE758457DD17A
:10157000ED20208001202880FE202880EE20208081
:10158000DE20288021202880F12020800120288052
:10159000DF20208010202880C42020808F202880F9
:1015A000C620208000202880E220288028802880F3
:1015B000BF202080AA202880B02020800D202880F5
:1015C000002028800D2028800020288011202880DD
:1015D00000202880192028800020288021202880B1
:1015E000002028802D202880002028803D20288071
:1015F000002028805D202880002028805D20288011
:1016000000202880B1202080802028800020288091
:101610008B20288000202880962028800020288089
:10162000B2202080002028802880022028800020EE
:1016300028800320288000202880B32020800020DC
:10164000288028802880288028802880288028805A
:10165000288028802880288028802880288028804A
:101660002880288028802880288000E0FEE32880C9
:1016700028802880B42020808B202880002028808B
:101680009620288000202880A12028800020288003
:10169000B520208002202880002028800320288078
:1016A000002028800420288000202880B620208068
:1016B000002028802880B7202080002028802880D3
:1016C0003F202880002028805E202880002028805D
:1016D00064202880002028808C20288000202880FA
:1016E000AC20288000202880DC2028800020288052
:1016F00070202880002028809020288000202880CA
:10170000EB20288000202880DC20288000202880F2
:10171000B8202080002028802880288028802880E9
:10172000288028802880BA2020802420288000203B
:10173000288028802880C120208020202880002028
:1017400028805420288000202880FF202880002026
:101750002880C22020800A202880002028800420A1
:10176000288000202880C32020803C202880002062
:1017700028803A20288000202880392028800020D6
:10178000288037202880002028803C2028800020C6
:1017900028803620288000202880322028800020C1
:1017A00028802F202880002028802C2028800020BE
:1017B00028802920288000202880262028800020BA
:1017C00028802420288000202880242028800020B1
:1017D000288023202880002028803C20288000208A
:1017E0002880362028800020288032202880002071
:1017F00028802F202880002028802C20288000206E
:101800002880292028800020288026202880002069
:101810002880242028800020288024202880002060
:1018200028802320288000202880C4202080622057
:1018300028800020288005202880002028808420FF
:10184000288000202880F020288000202880182070
:10185000288000202880A4202880002028801820AC
:1018600028800020288050202880002028800C20FC
:10187000288000202880172028800020288095209C
:10188000288000202880F320288000202880E6205F
:10189000288000202880C520208032202880002039
:1018A000288044202880002028806520288000206F
:1018B000288076202880002028808820288000200A
:1018C0002880C62020802020288000202880172003
:1018D0002880002028800120288000202880C72020
:1018E000208000202880288028802880C820208010
:1018F00000202880288028802880C920208000207F
:101900002880288028802880288028802880288097
:101910002880288028802880288028802880288087
:10192000E020208016202880002028801C2028808D
:101930000020288021202880002028803620288030
:1019400000202880462028800020288052202880DF
:101950000020288064202880002028807A20288089
:10196000002028808B202880002028809920288033
:1019700000202880A820288000202880B9202880E6
:1019800000202880C420288000202880CA202880A9
:1019900000202880D220288000202880D92028807C
:1019A00000202880E020288000202880F320288044
:1019B00000202880E1202080162028800020288018
:1019C0001C202880002028802220288000202880B9
:1019D000362028800020288045202880002028806C
:1019E0005220288000202880642028800020288021
:1019F0007A202880002028808B20288000202880C2
:101A00009920288000202880A82028800020288075
:101A1000B920288000202880C42028800020288029
:101A2000CA20288000202880D220288000202880FA
:101A3000D820288000202880E020288000202880CE
:101A4000F320288000202880E220208005202880A4
:101A5000002028800B202880002028801B20288040
:101A600000202880342028800020288044202880DE
:101A7000002028804F202880002028806120288096
:101A80000020288079202880002028808820288035
:101A9000002028809720288000202880A6202880E9
:101AA00000202880B720288000202880C22028809D
:101AB00000202880C720288000202880D12028806E
:101AC00000202880D620288000202880DD20288043
:101AD00000202880F320288000202880E320208018
:101AE00005202880002028800A20288000202880C7
:101AF0001C20288000202880332028800020288077
:101B00004420288000202880502028800020288021
:101B100062202880002028807820288000202880CB
:101B20008820288000202880972028800020288076
:101B3000A620288000202880B72028800020288028
:101B4000C220288000202880C720288000202880EC
:101B5000D120288000202880D520288000202880BF
:101B6000DD20288000202880F32028800020288085
:101B7000E420208001202880002028800120288067
:101B80000020288002202880002028802A20288009
:101B9000002028803C202880002028804B2028809E
:101BA000002028805D202880002028807420288044
:101BB00000202880842028800020288093202880EE
:101BC00000202880A220288000202880B3202880A0
:101BD00000202880BE20288000202880C420288063
:101BE00000202880CD20288000202880D320288035
:101BF00000202880DD20288000202880F3202880F5
:101C000000202880E520208000202880288028804F
:101C10002880022028800020288029202880002079
:101C200028803C202880002028804B20288000200D
:101C300028805D20288000202880742028800020B3
:101C4000288084202880002028809320288000205D
:101C50002880A220288000202880B320288000200F
:101C60002880BE20288000202880C42028800020D2
:101C70002880CD20288000202880D32028800020A4
:101C80002880DC20288000202880F3202880002065
:101C90002880E62020801120288000202880342001
:101CA0002880002028805620288000202880762048
:101CB0002880002028807720288000202880662027
:101CC00028800020288088202880002028809920D3
:101CD000288000202880BB20288000202880992090
:101CE0002880002028806620288000202880552019
:101CF000288000202880552028800020288045202A
:101D0000288000202880432028800020288044202C
:101D1000288000202880E720208032202880002092
:101D200028805520288000202880762028800020C8
:101D300028806620288000202880672028800020B6
:101D40002880672028800020288087202880002085
:101D500028809920288000202880BB20288000200F
:101D60002880992028800020288077202880002043
:101D700028804420288000202880562028800020A9
:101D800028802320288000202880332028800020DD
:101D900028804520288000202880E82020800020FE
:101DA000288028809920288000202880872028806B
:101DB0000020288088202880002028807720288004
:101DC0000020288066202880002028808820288005
:101DD00000202880AA20288000202880BB2028807E
:101DE00000202880992028800020288066202880D4
:101DF0000020288055202880002028805520288019
:101E0000002028804420288000202880442028802A
:101E1000002028805520288000202880E92020806C
:101E2000AA20288000202880288028802080AA20BE
:101E30002880CF20208000202880288028802880AB
:101E40002880288028802880288028802880288052
:101E500028802880288028802880F020208000206A
:101E60002880502028800020288000E02CE0288056
:101E70002880F320208000202880F9202080062060
:101E800028801020288029202880002028803A20BF
:101E900020805520288011202080642005F07DFEC0
:101EA000292020803520208000202880512020807B
:101EB000FF202880532020802C202880552020803F
:101EC000822028802C20FDE3B8427CD14FF470435F
:101ED00055211846FEF780FC4FF20105AA2128463D
:101EE000FEF77AFC6E1C52213046FEF775FCAF1CE3
:101EF00008213846FEF770FC4FF2040C01216046C1
:101F0000FEF76AFC0D214FF43040FEF765FC0D2111
:101F10004BF20100FEF760FC0D214BF20200FEF7D0
:101F20005BFC4FF4364934214846FEF755FC34211A
:101F30004BF20160FEF750FC34214BF20260FEF7D9
:101F40004BFC4FF4314A0D215046FEF745FC4BF255
:101F5000011B0D215846FEF73FFC0D214BF20210EC
:101F6000FEF73AFC34214FF43740FEF735FC3421BC
:101F70004BF20170FEF730FC34214BF20270FEF799
:101F80002BFC00214FF43240FEF726FC00214BF2DF
:101F90000120FEF721FC00214BF20220FEF71CFC81
:101FA00024214FF43840FEF717FC24214BF60100A2
:101FB000FEF712FC24214BF60200FEF70DFC012176
:101FC0004FF43F4000E0FCE3FEF706FC0F214FF426
:101FD0003340FEF701FC0F214BF20130FEF7FCFB12
:101FE0000F214BF20230FEF7F7FB34214FF439405A
:101FF000FEF7F2FB34214BF60110FEF7EDFB342126
:102000004BF60210FEF7E8FB08214FF43540FEF7CF
:10201000E3FB08214BF20150FEF7DEFB08214BF2F7
:102020000250FEF7D9FB03214FF44240FEF7D4FBE8
:1020300024214FF43A40FEF7CFFB24214BF6012038
:10204000FEF7CAFB24214BF60220FEF7C5FB002158
:102050004FF43C40FEF7C0FB78214BF60140FEF701
:10206000BBFB00214BF60240FEF7B6FB00214FF40C
:102070003D40FEF7B1FB78214BF60150FEF7ACFB7B
:1020800000214BF60250FEF7A7FB00214FF43E4023
:10209000FEF7A2FB64214BF60160FEF79DFB0021D9
:1020A0004FF45140FEF798FB33214DF20110FEF73B
:1020B00093FB00214DF20210FEF78EFB34214DF20E
:1020C0000310FEF789FB00214DF20410FEF784FB9C
:1020D0003A214DF20510FEF77FFB00214DF206106C
:1020E000FEF77AFB4A214DF20710FEF775FB00213F
:1020F0004DF20810FEF770FB5C214DF20910FEF75F
:102100006BFB00214DF20A10FEF766FB81214DF2B8
:102110000B10FEF761FB00214DF20C10FEF75CFB8B
:10212000A6214DF20D10FEF757FB00214DF20E10C7
:10213000FEF752FBE5214DF20F10FEF74DFB01219A
:102140004DF21010FEF748FB13214DF21110FEF76F
:1021500043FB01214DF21210FEF73EFB54214DF2DC
:102160001310FEF739FB01214DF21410FEF734FB7A
:1021700082214DF21510FEF72FFB01214DF21610B2
:10218000FEF72AFBCA214DF21710FEF725FB0221AC
:102190004DF21810FEF720FB00214DF21910FEF74A
:1021A0001BFB02214DF21A10FEF716FB01214DF226
:1021B0001B10FEF711FB02214DF21C10FEF70CFB69
:1021C00034214DF21D10FEF707FB02214DF21E10C7
:1021D000FEF702FB67214DF21F10FEF7FDFA022108
:1021E0004DF22010FEF7F8FA84214DF22110FEF78F
:1021F000F3FA02214DF22210FEF7EEFAA4214DF27D
:102200002310FEF7E9FA02214DF22410FEF7E4FA5A
:10221000B7214DF22510FEF7DFFA02214DF226100C
:10222000FEF7DAFACF214DF22710FEF7D5FA022198
:102230004DF22810FEF7D0FADE214DF22910FEF7FC
:10224000CBFA02214DF22A10FEF7C6FAF2214DF226
:102250002B10FEF7C1FA02214DF22C10FEF7BCFA4A
:10226000FE214DF22D10FEF7B7FA03214DF22E108C
:10227000FEF7B2FA10214DF22F10FEF7ADFA03214E
:102280004DF23010FEF7A8FA33214DF23110FEF76F
:10229000A3FA03214DF23210FEF79EFA6D214DF2A2
:1022A0003310FEF799FA00214FF45240FEF794FAEA
:1022B00033214DF20120FEF78FFA00214DF202206A
:1022C000FEF78AFA34214DF20320FEF785FA002149
:1022D0004DF20420FEF780FA3A214DF20520FEF778
:1022E0007BFA00214DF20620FEF776FA4A214DF2E4
:1022F0000720FEF771FA00214DF20820FEF76CFA74
:102300005C214DF20920FEF767FA00214DF20A2008
:10231000FEF762FA81214DF20B20FEF75DFA0021F3
:102320004DF20C20FEF758FAA6214DF20D20FEF7D3
:1023300053FA00214DF20E20FEF74EFAE5214DF240
:102340000F20FEF749FA01214DF21020FEF744FA62
:1023500013214DF21120FEF73FFA01214DF2122018
:10236000FEF73AFA54214DF21320FEF735FA012117
:102370004DF21420FEF730FA82214DF21520FEF7BF
:102380002BFA01214DF21620FEF726FACA214DF252
:102390001720FEF721FA02214DF21820FEF71CFA51
:1023A00000214DF21920FEF717FA02214DF21A20F2
:1023B000FEF712FA01214DF21B20FEF70DFA022161
:1023C0004DF21C20FEF708FA34214DF21D20FEF7D5
:1023D00003FA02214DF21E20FEF7FEF967214DF2AD
:1023E0001F20FEF7F9F902214DF22020FEF7F4F943
:1023F00084214DF22120FEF7EFF902214DF2222037
:10240000FEF7EAF9A4214DF22320FEF7E5F90221B7
:102410004DF22420FEF7E0F9B7214DF22520FEF71A
:10242000DBF902214DF22620FEF7D6F9CF214DF23D
:102430002720FEF7D1F902214DF22820FEF7CCF932
:10244000DE214DF22920FEF7C7F902214DF22A20A4
:10245000FEF7C2F9F2214DF22B20FEF7BDF9022161
:102460004DF22C20FEF7B8F9FE214DF22D20FEF79B
:10247000B3F903214DF22E20FEF7AEF910214DF2F3
:102480002F20FEF7A9F903214DF23020FEF7A4F921
:1024900033214DF23120FEF79FF903214DF2322016
:1024A000FEF79AF96D214DF23320FEF795F90021E0
:1024B0004FF45340FEF790F933214DF20130FEF70F
:1024C0008BF900214DF20230FEF786F934214DF2EE
:1024D0000330FEF781F900214DF20430FEF77CF95C
:1024E0003A214DF20530FEF777F900214DF2063022
:1024F000FEF772F94A214DF20730FEF76DF900211F
:102500004DF20830FEF768F95C214DF20930FEF714
:1025100063F900214DF20A30FEF75EF981214DF298
:102520000B30FEF759F900214DF20C30FEF754F94B
:10253000A6214DF20D30FEF74FF900214DF20E307D
:10254000FEF74AF9E5214DF20F30FEF745F901217A
:102550004DF21030FEF740F913214DF21130FEF725
:102560003BF901214DF21230FEF736F954214DF2BC
:102570001330FEF731F901214DF21430FEF72CF93A
:1025800082214DF21530FEF727F901214DF2163068
:10259000FEF722F9CA214DF21730FEF71DF902218C
:1025A0004DF21830FEF718F900214DF21930FEF700
:1025B00013F902214DF21A30FEF70EF901214DF206
:1025C0001B30FEF709F902214DF21C30FEF704F929
:1025D00034214DF21D30FEF7FFF802214DF21E307E
:1025E000FEF7FAF867214DF21F30FEF7F5F80221E9
:1025F0004DF22030FEF7F0F884214DF22130FEF745
:10260000EBF802214DF22230FEF7E6F8A4214DF25C
:102610002330FEF7E1F802214DF22430FEF7DCF81A
:10262000B7214DF22530FEF7D7F802214DF22630C2
:10263000FEF7D2F8CF214DF22730FEF7CDF8022178
:102640004DF22830FEF7C8F8DE214DF22930FEF7B2
:10265000C3F802214DF22A30FEF7BEF8F2214DF206
:102660002B30FEF7B9F802214DF22C30FEF7B4F80A
:10267000FE214DF22D30FEF7AFF803214DF22E3042
:10268000FEF7AAF810214DF22F30FEF7A5F803212E
:102690004DF23030FEF7A0F833214DF23130FEF725
:1026A0009BF803214DF23230FEF796F86D214DF282
:1026B0003330FEF791F800214FF45440FEF78CF8C8
:1026C000332100E07FE34DF20140FEF785F8002161
:1026D0004DF20240FEF780F834214DF20340FEF740
:1026E0007BF800214DF20440FEF776F83A214DF2D6
:1026F0000540FEF771F800214DF20640FEF76CF838
:102700004A214DF20740FEF767F800214DF20840DC
:10271000FEF762F85C214DF20940FEF75DF80021FA
:102720004DF20A40FEF758F881214DF20B40FEF7BA
:1027300053F800214DF20C40FEF74EF8A6214DF261
:102740000D40FEF749F800214DF20E40FEF744F827
:10275000E5214DF20F40FEF73FF801214DF2104008
:10276000FEF73AF813214DF21140FEF735F801213A
:102770004DF21240FEF730F854214DF21340FEF7AF
:102780002BF801214DF21440FEF726F882214DF27C
:102790001540FEF721F801214DF21640FEF71CF816
:1027A000CA214DF21740FEF717F802214DF21840EA
:1027B000FEF712F800214DF21940FEF70DF8022144
:1027C00000E002E34DF21A40FEF706F801214DF257
:1027D0001B40FEF701F802214DF21C40FDF7FCFF03
:1027E00034214DF21D40FDF7F7FF02214DF21E404E
:1027F000FDF7F2FF67214DF21F40FDF7EDFF0221CB
:102800004DF22040FDF7E8FF84214DF22140FDF715
:10281000E3FF02214DF22240FDF7DEFFA4214DF23D
:102820002340FDF7D9FF02214DF22440FDF7D4FFEC
:10283000B7214DF22540FDF7CFFF02214DF2264092
:10284000FDF7CAFFCF214DF22740FDF7C5FF02215A
:102850004DF22840FDF7C0FFDE214DF22940FDF783
:10286000BBFF02214DF22A40FDF7B6FFF2214DF2E7
:102870002B40FDF7B1FF02214DF22C40FDF7ACFFDC
:10288000FE214DF22D40FDF7A7FF03214DF22E4012
:10289000FDF7A2FF10214DF22F40FDF79DFF032110
:1028A0004DF23040FDF798FF33214DF23140FDF7F6
:1028B00093FF03214DF23240FDF78EFF6D214DF263
:1028C0003340FDF789FF00214FF45540FDF784FFA9
:1028D00033214DF20150FDF77FFF00214DF20250F0
:1028E000FDF77AFF34214DF20350FDF775FF00210B
:1028F0004DF20450FDF770FF3A214DF20550FDF7FF
:102900006BFF00214DF20650FDF766FF4A214DF2A4
:102910000750FDF761FF00214DF20850FDF75CFF05
:102920005C214DF20950FDF757FF00214DF20A508E
:10293000FDF752FF81214DF20B50FDF74DFF0021B5
:102940004DF20C50FDF748FFA6214DF20D50FDF75A
:1029500043FF00214DF20E50FDF73EFFE5214DF201
:102960000F50FDF739FF01214DF21050FDF734FFF4
:1029700013214DF21150FDF72FFF01214DF212509E
:10298000FDF72AFF54214DF21350FDF725FF0121D9
:102990004DF21450FDF720FF82214DF21550FDF746
:1029A0001BFF01214DF21650FDF716FFCA214DF213
:1029B0001750FDF711FF02214DF21850FDF70CFFE3
:1029C00000214DF21950FDF707FF02214DF21A5078
:1029D000FDF702FF01214DF21B50FDF7FDFE022124
:1029E0004DF21C50FDF7F8FE34214DF21D50FDF75D
:1029F000F3FE02214DF21E50FDF7EEFE67214DF26F
:102A00001F50FDF7E9FE02214DF22050FDF7E4FED4
:102A100084214DF22150FDF7DFFE02214DF22250BC
:102A2000FDF7DAFEA4214DF22350FDF7D5FE022179
:102A30004DF22450FDF7D0FEB7214DF22550FDF7A1
:102A4000CBFE02214DF22650FDF7C6FECF214DF2FE
:102A50002750FDF7C1FE02214DF22850FDF7BCFEC4
:102A6000DE214DF22950FDF7B7FE02214DF22A502A
:102A7000FDF7B2FEF2214DF22B50FDF7ADFE022123
:102A80004DF22C50FDF7A8FEFE214DF22D50FDF722
:102A9000A3FE03214DF22E50FDF79EFE10214DF2B4
:102AA0002F50FDF799FE03214DF23050FDF794FEB3
:102AB00033214DF23150FDF78FFE03214DF232509C
:102AC000FDF78AFE6D214DF23350FDF785FE0021A2
:102AD0004FF45640FDF780FE33214DF20160FDF7C3
:102AE0007BFE00214DF20260FDF776FE34214DF2AF
:102AF0000360FDF771FE00214DF20460FDF76CFEEE
:102B00003A214DF20560FDF767FE00214DF20660A7
:102B1000FDF762FE4A214DF20760FDF75DFE0021E0
:102B20004DF20860FDF758FE5C214DF20960FDF79B
:102B300053FE00214DF20A60FDF74EFE81214DF259
:102B40000B60FDF749FE00214DF20C60FDF744FEDD
:102B5000A6214DF20D60FDF73FFE00214DF20E6003
:102B6000FDF73AFEE5214DF20F60FDF735FE01213C
:102B70004DF21060FDF730FE13214DF21160FDF7AC
:102B80002BFE01214DF21260FDF726FE54214DF27D
:102B90001360FDF721FE01214DF21460FDF71CFECC
:102BA00082214DF21560FDF717FE01214DF21660EE
:102BB000FDF712FECA214DF21760FDF70DFE02214E
:102BC0004DF21860FDF708FE00214DF21960FDF787
:102BD00003FE02214DF21A60FDF7FEFD01214DF2C8
:102BE0001B60FDF7F9FD02214DF21C60FDF7F4FDBD
:102BF00034214DF21D60FDF7EFFD02214DF21E6004
:102C0000FDF7EAFD67214DF21F60FDF7E5FD0221AA
:102C10004DF22060FDF7E0FD84214DF22160FDF7CB
:102C2000DBFD02214DF22260FDF7D6FDA4214DF21D
:102C30002360FDF7D1FD02214DF22460FDF7CCFDAC
:102C4000B7214DF22560FDF7C7FD02214DF2266048
:102C5000FDF7C2FDCF214DF22760FDF7BDFD02213A
:102C60004DF22860FDF7B8FDDE214DF22960FDF739
:102C7000B3FD02214DF22A60FDF7AEFDF2214DF2C7
:102C80002B60FDF7A9FD02214DF22C60FDF7A4FD9C
:102C9000FE214DF22D60FDF79FFD03214DF22E60C8
:102CA000FDF79AFD10214DF22F60FDF795FD0321F0
:102CB0004DF23060FDF790FD33214DF23160FDF7AC
:102CC0008BFD03214DF23260FDF786FD6D214DF243
:102CD0003360FDF781FD55211846FDF77DFDAA21E2
:102CE0002846FDF779FD52213046FDF775FD082194
:102CF0003846FDF771FD00216046FDF76DFDCC21E2
:102D00005046FDF769FD00215846FDF765FD052198
:102D10004846FDF761FD70214FF43740FDF75CFD3B
:102D200070214BF20170FDF757FD01214FF438403F
:102D3000FDF752FD03214BF60100FDF74DFD032188
:102D40004BF60200FDF748FD03214BF60300FDF7AB
:102D500043FD02214FF43C40FDF73EFD00214BF6C0
:102D60000140FDF739FD00214BF60240FDF734FD2F
:102D7000D0214FF44940FDF72FFD02214CF6011000
:102D8000FDF72AFD50214CF60210FDF725FD5021DC
:102D90004CF60310FDF720FD50214CF60410FDF712
:102DA0001BFD00214FF45450FDF716FD55214FF443
:102DB0006850FDF711FD4FF488502080782004F012
:102DC000CDFE4FF424502080FEE3A0F513414FF4D4
:102DD000E06940F2022A4FF4274B253924D040F213
:102DE0000777C91E7ED04FF4887B08317BD011391C
:102DF0007AD0A0F5A841083977D0A0F5A8514FF4B2
:102E0000407B053972D0B1F5204170D0B1F58051C9
:102E10006ED0A0F58A4131396BD0091F6AD0A0F578
:102E2000C851633967D0CFE747F6F001E520FDF7D9
:102E3000D3FC31460120FDF7CFFC49460220FDF7C7
:102E4000CBFC41F230010320FDF7C6FC0021042039
:102E5000FDF7C2FC51460820FDF7BEFC0021092009
:102E6000FDF7BAFC00210A20FDF7B6FC00210C207A
:102E7000FDF7B2FC00210D20FDF7AEFC00210F2074
:102E8000FDF7AAFC00211020FDF7A6FC0721112068
:102E9000FDF7A2FC00211220FDF79EFC002113206B
:102EA000FDF79AFC00210720FDF796FC41F29061A6
:102EB0001020FDF791FC40F227211120FDF78CFC3A
:102EC0009D211220FDF788FC4FF4C8511320FDF717
:102ED00083FC25212920FDF77FFC0D212B20FDF708
:102EE0007BFC09E077E033E1D8E1AEE24AE3FDE3C1
:102EF000FDE3FDE3FDE3FDE307213020FDF76CFC7E
:102F000040F203313120FDF767FC03213220FDF749
:102F100063FC40F206213520FDF75EFC08213620D7
:102F2000FDF75AFC40F206413720FDF755FC4FF4FF
:102F300041713820FDF750FC07213920FDF74CFC8A
:102F400040F202613C20FDF747FC08213D20FDF7DF
:102F500043FC00215020FDF73FFCEF215120FDF7FD
:102F60003BFC00215220FDF737FC40F23F1153207B
:102F7000FDF732FC59466020FDF72EFC012161204F
:102F8000FDF72AFC00216A20FDF726FC00218020A5
:102F9000FDF722FC00218120FDF71EFC002182208C
:102FA000FDF71AFC00218320FDF716FC0021842088
:102FB000FDF712FC00218520FDF70EFC102190206A
:102FC000FDF70AFC4FF4C0619220FDF705FC40F2CA
:102FD00033110720FDE341F28F01EC20FDF7FCFBEC
:102FE00041F23421EF20FDF7F7FB31460120FDF7D8
:102FF000F3FB49460220FDF7EFFB41F230010320CD
:10300000FDF7EAFB00210420FDF7E6FB514608200E
:10301000FDF7E2FB00210920FDF7DEFB00210A207D
:10302000FDF7DAFB01210C20FDF7D6FB00210D2076
:10303000FDF7D2FB00210F20FDF7CEFB0021102071
:10304000FDF7CAFB07211120FDF7C6FB0021122066
:10305000FDF7C2FB00211320FDF7BEFB0121072075
:10306000FDF7BAFB322004F098FD41F290411020A8
:10307000FDF7B2FB40F227211120FDF7ADFB322016
:1030800004F08BFD8A211220FDF7A6FB322004F00C
:1030900084FD4FF4D0511320FDF79EFB062129201B
:1030A000FDF79AFB0D212B20FDF796FB322004F053
:1030B00074FD00212020FDF78FFB00212120FDF76A
:1030C0008BFB322004F069FD00213020FDF784FBEA
:1030D00040F204613120FDF77FFB40F205313220E0
:1030E000FDF77AFB00213520FDF776FB40F609411C
:1030F0003620FDF771FB4FF401713720FDF76CFBB3
:1031000040F201313820FDF767FB39463920FDF7E1
:1031100063FB00213C20FDF75FFB40F60A213D20C8
:10312000FDF75AFB322004F038FD00215020FDF756
:1031300053FBEF215120FDF74FFB00215220FDF7FB
:103140004BFB40F23F115320FDF746FB594651E13E
:1031500000210846FDF740FB31460120FDF73CFB0E
:1031600049460220FDF738FB41F230010320FDF70C
:1031700033FB00210420FDF72FFB51460820FDF70B
:103180002BFB00210920FDF727FB00210A20FDF77A
:1031900023FB01210C20FDF71FFB00210D20FDF773
:1031A0001BFB00210F20FDF717FB322004F0F5FC7C
:1031B00040F201110720FDF70FFB322004F0EDFC77
:1031C0004FF486511020FDF707FB07211120FDF772
:1031D00003FB5B4659461220FDF7FEFA4FF43061BF
:1031E0001320FDF7F9FA00212920FDF7F5FA44F242
:1031F00010012B20FDF7F0FA00215020FDF7ECFA2A
:10320000EF215120FDF7E8FA00215220FDF7E4FA02
:1032100040F23F115320FDF7DFFA4FF41C516020BC
:10322000FDF7DAFA01216120FDF7D6FA00216A20C4
:10323000FDF7D2FA00218020FDF7CEFA002181208F
:10324000FDF7CAFA00218220FDF7C6FA002183208B
:10325000FDF7C2FA00218420FDF7BEFA0021852087
:10326000FDF7BAFA10219020FDF7B6FA002192205E
:10327000FDF7B2FA01219320FDF7AEFA1946952029
:10328000FDF7AAFA00219720FDF7A6FA0021982061
:10329000FDF7A2FA40F27311072085E341F2140111
:1032A000E720FDF799FA31460120FDF795FA4FF432
:1032B00000710220FDF790FA41F238010320FDF77A
:1032C0008BFA51460820FDF787FA00210920FDF707
:1032D00083FA00210A20FDF77FFA00210C20FDF778
:1032E0007BFA00210D20FDF777FA00210F20FDF772
:1032F00073FA00211020FDF76FFA07211120FDF766
:103300006BFA00211220FDF767FA00211320FDF768
:1033100063FAC82004F041FC41F290611020FDF7EF
:103320005BFA40F227211120FDF756FA322004F013
:1033300034FC0C211220FDF74FFA322004F02DFC52
:103340004FF400611320FDF747FA11212920FDF702
:1033500043FA0B212B20FDF73FFA322004F01DFC2D
:1033600000212020FDF738FA40F23F1319462120B2
:10337000FDF732FA00213020FDF72EFA4FF4837466
:1033800021463120FDF728FA00213220FDF724FAEA
:103390004FF401713520FDF71FFA41F20A61362022
:1033A000FDF71AFA39463720FDF716FA214638207C
:1033B000FDF712FA39463920FDF70EFA40F20241C4
:1033C0003C20FDF709FA40F60F413D20FDF704FAD5
:1033D00000215020FDF700FAEF215120FDF7FCF904
:1033E00000215220FDF7F8F919465320FDF7F4F9B2
:1033F0004FF41C516020FDF7EFF901216120FDF72A
:10340000EBF900216A20FDF7E7F900218020FDF7A4
:10341000E3F900218120FDF7DFF900218220FDF78B
:10342000DBF900218320FDF7D7F900218420FDF787
:10343000D3F900218520FDF7CFF910219020FDF769
:10344000CBF94FF4C0619220FDE331460120FDF736
:10345000C3F949460220FDF7BFF941F230010320CC
:10346000FDF7BAF900210420FDF7B6F940F2072173
:103470000820FDF7B1F900210920FDF7ADF9002181
:103480000A20FDF7A9F900210C20FDF7A5F900217C
:103490000D20FDF7A1F900210F20FDF79DF9142063
:1034A00004F07BFB41F2B0611020FDF795F901219A
:1034B0001120FDF791F901211720FDF78DF94FF447
:1034C0009C711220FDF788F94FF400611320FDF77D
:1034D00083F909212920FDF77FF909212A20FDF729
:1034E0007BF90021A420FDF777F900215020FDF79A
:1034F00073F9EF215120FDF76FF900215220FDF7FC
:103500006BF940F23F115320FDF766F94FF41C515F
:103510006020FDF761F901216120FDF75DF90021CF
:103520006A20FDF759F900218020FDF755F90021A7
:103530008120FDF751F900218220FDF74DF900218E
:103540008320FDF749F900218420FDF745F900218A
:103550008520FDF741F913219020FDF73DF9002169
:103560009220FDF739F903219320FDF735F95946EB
:103570009520FDF731F940F273110720FDF72CF982
:10358000322010E100210720FDF726F9322004F057
:1035900004FB4FF48E711220FDF71EF90121A420C7
:1035A000FDF71AF90F210820FDF716F908210A2066
:1035B000FDF712F908210D20FDF70EF939463020EC
:1035C000FDF70AF9072100E06FE33120FDF704F968
:1035D00040F203613220FDF7FFF84C4649463320A4
:1035E000FDF7FAF851463420FDF7F6F802213520B0
:1035F000FDF7F2F841F60F713620FDF7EDF8394688
:103600003720FDF7E9F800213820FDF7E5F8002123
:103610003920FDF7E1F839463A20FDF7DDF80021C1
:103620003B20FDF7D9F807213C20FDF7D5F8002114
:103630003D20FDF7D1F8322004F0AFFA0121072038
:10364000FDF7CAF801211720FDF7C6F8322004F073
:10365000A4FA4FF4BD511020FDF7BEF840F2172137
:103660001120FDF7B9F84FF48F711220FDF7B4F86F
:103670004FF470611320FDF7AFF800212A20FDF709
:10368000ABF80A212920FDF7A7F84FF49F7112200B
:10369000FDF7A2F800215020FDF79EF8EF21512000
:1036A000FDF79AF800215220FDF796F840F23F11FD
:1036B0005320FDF791F84FF41C516020FDF78CF872
:1036C00001216120FDF788F800216A20FDF784F8C8
:1036D00000218020FDF780F800218120FDF77CF893
:1036E00000218220FDF778F8002104E05EE05CE133
:1036F00025E2DBE282E38320FDF76EF800218420DF
:10370000FDF76AF800218520FDF766F81321902067
:10371000FDF762F859469220FDF75EF805219320E7
:10372000FDF75AF800219520FDF756F80021972063
:10373000FDF752F800219820FDF74EF831460120A0
:10374000FDF74AF821460220FDF746F841F238011C
:103750000320FDF741F800210420FDF73DF800218A
:103760000C20FDF739F800210F20FDF735F8002176
:103770002020FDF731F800212120FDF72DF821212F
:103780000720FDF729F8142004F007FA612107202B
:10379000FDF722F8142004F000FA40F2731107201C
:1037A000FDF71AF8142004F0F8F9A1E30021084607
:1037B000FDF712F800210846FDF70EF80021084633
:1037C000FDF70AF800210846FDF706F80121A420BC
:1037D00000E0E5E0FDF700F8142004F0DEF94FF416
:1037E0001C5421466020FCF7F7FF5546514608203F
:1037F000FCF7F2FF4FF405713020FCF7EDFF43F2C8
:1038000015713120FCF7E8FF40F204613220FCF72B
:10381000E3FF40F616613320FCF7DEFF42F2112190
:103820003420FCF7D9FF4FF4A8513520FCF7D4FF22
:1038300048F207513620FCF7CFFF41F2074137200D
:10384000FCF7CAFF41F203413820FCF7C5FF2021F5
:103850003920FCF7C1FF1A219020FCF7BDFF0021A1
:103860001020FCF7B9FF07211120FCF7B5FF00215C
:103870001220FCF7B1FF00211320FCF7ADFF14204C
:1038800004F08BF94FF4E6611020FCF7A5FF40F23D
:1038900037111120FCF7A0FF142004F07EF94FF43B
:1038A000DC711220FCF798FF142004F076F94FF435
:1038B00070611320FCF790FF80212A20FCF78CFF19
:1038C00048212920FCF788FF142004F066F93146CE
:1038D0000120FCF781FF49460220FCF77DFF41F201
:1038E00038010320FCF778FF29460820FCF774FF15
:1038F00000210A20FCF770FF00210C20FCF76CFF70
:1039000000210D20FCF768FF30210E20FCF764FF3A
:1039100000215020FCF760FFEF215120FCF75CFFF5
:1039200000215220FCF758FF40F23F115320FCF7D2
:1039300053FF21466020FCF74FFF01216120FCF777
:103940004BFF00216A20FCF747FF11219020FCF774
:1039500043FF4FF4C0619220FCF73EFF40F202416A
:103960009320FCF739FF02219420FCF735FF142047
:1039700004F013F901210720FCF72EFF142004F0B6
:103980000CF961210720FCF727FF40F27311072093
:10399000FCF722FF00212020FCF71EFF0021212040
:1039A000FCF71AFF222100207DE100210846FCF7E8
:1039B00013FF00210846FCF70FFF142004F0EDF878
:1039C00000210846FCF708FF00210846FCF704FF29
:1039D00000210846FCF700FF00210846FCF7FCFE2A
:1039E0000121A420FCF7F8FE142004F0D6F84FF4CF
:1039F0001C516020FCF7F0FE40F606010820FCF7A1
:103A0000EBFE40F2037319463020FCF7E5FE01217E
:103A10003120FCF7E1FE04213220FCF7DDFE4FF4FB
:103A200081713320FCF7D8FE5C4659463420FCF700
:103A3000D3FE40F203113520FCF7CEFE1F213620C5
:103A4000FCF7CAFE19463720FCF7C6FE01213820D4
:103A5000FCF7C2FE04213920FCF7BEFE15219020A0
:103A6000FCF7BAFE4FF482611020FCF7B5FE40F27D
:103A700047211120FCF7B0FE4FF4DE711220FCF755
:103A8000ABFE4FF460611320FCF7A6FE782004F033
:103A900084F831460120FCF79FFE4FF400710220AC
:103AA000FCF79AFE41F230010320FCF795FE082155
:103AB0000A20FCF791FE00210C20FCF78DFE20214E
:103AC0000E20FCF789FE00210F20FCF785FE002167
:103AD0002020FCF781FE00212120FCF77DFE3D2106
:103AE0002A20FCF779FE142004F057F82D21292014
:103AF000FCF772FE00215020FCF76EFE4DF2EF0144
:103B00005120FCF769FE00215220FCF765FE40F2CF
:103B10003F115320FCF760FE00216120FCF75CFEA2
:103B200000216A20FCF758FE21469220FCF754FE43
:103B300005219320FCF750FE3146FFF7ADBB012174
:103B40000020FCF749FE0A2004F027F841F2286122
:103B50001020FCF741FE0E211220FCF73DFE40F63E
:103B600039211320FCF738FE0A2004F016F8402112
:103B70001120FCF731FE50211520FCF72DFE0A2004
:103B800004F00BF81E211220FCF726FE0A2004F098
:103B900004F84FF4B1511020FCF71EFE42F6392113
:103BA0001320FCF719FE0A2003F0F7FF314601202D
:103BB000FCF712FE59460220FCF70EFE41F23801D6
:103BC0000320FCF709FE51460820FCF705FE0821FA
:103BD0000A20FCF701FE00213020FCF7FDFD40F239
:103BE00002413120FCF7F8FD4FF483713220FCF7DD
:103BF000F3FD40F203513320FCF7EEFD4FF48271E8
:103C00003420FCF7E9FD40F201313520FCF7E4FDFA
:103C100039463620FCF7E0FD40F205313720FCF74D
:103C2000DBFD4FF402713820FCF7D6FD40F60B7136
:103C30003920FCF7D1FD02214120FCF7CDFD4FF4E6
:103C40001C51602000E0D4E0FCF7C6FD012161209A
:103C5000FCF7C2FD4FF404719020FCF7BDFD4FF45A
:103C600085719220FCF7B8FD04219320FCF7B4FD88
:103C70003146A020FCF7B0FD01210720FCF7ACFD88
:103C800021210720FCF7A8FD23210720FCF7A4FD34
:103C900033210720FCF7A0FD40F233110720FCF789
:103CA0009BFD0021A020FCF797FD21E1302115208C
:103CB000FCF792FD10219A20FCF78EFD20211120A7
:103CC000FCF78AFD43F228411020FCF785FD022114
:103CD0001220FCF781FD41F238011320FCF77CFD36
:103CE000282003F05AFF12210846FCF775FD282012
:103CF00003F053FF43F220411020FCF76DFD43F227
:103D000038011320FCF768FD462003F046FF002130
:103D10003020FCF761FD40F202413120FCF75CFDF0
:103D200040F207313220FCF757FD4FF44171332048
:103D3000FCF752FD04213420FCF74EFD40F2014116
:103D40003520FCF749FD39463620FCF745FD40F2A9
:103D500005313720FCF740FD4FF4C2631946382087
:103D6000FCF73AFD19463920FCF736FD31460120B3
:103D7000FCF732FD59460220FCF72EFD41F23001DE
:103D80000320FCF729FD40F608010820FCF724FD7C
:103D900008210A20FCF720FD4FF41C516020FCF79D
:103DA0001BFD01216120FCF717FD4FF49F7190204E
:103DB000FCF712FD31469220FCF70EFD31469320B0
:103DC000FCF70AFD4FF44051A020FCF705FD10213F
:103DD000A320FCF701FD01210720FCF7FDFC2121B8
:103DE0000720FCF7F9FC23210720FCF7F5FC332121
:103DF0000720FCF7F1FC40F233119EE6E220208020
:103E0000232028800220288004202880642003F0BA
:103E1000A5FEE0202080012028800A2003F0BDFEBE
:103E2000E0202080032028800C2003F0B6FE012033
:103E300020800A2003F0B1FEE620208003202880A5
:103E4000FF2028802880B02020802020288000208B
:103E500028800320288040F21F30288001202880FD
:103E600040F2DF10288000202880B4202080042029
:103E7000288040F21F40288000202880D2202880FF
:103E800000202880288028802880B62020800220DA
:103E900028804FF40370288000202880222028806A
:103EA00009202880002028802880F02020800320FE
:103EB000288029202080D020208000202880BE203B
:103EC000208005202880FE20288001202880FF20D7
:103ED000288000202880B82020800F202880012002
:103EE0002880BA202080012028806420FCF75EFF13
:103EF0000120FCF774FFFF490120C1F88001404612
:103F0000FDF7C7F81FB0BDE8F08F2DE9F843FA4D73
:103F10001F468046AB88089EA3F5D040043802D1E6
:103F2000A879012807D0A2EB0800401C85B20C46F6
:103F3000DFF8C89328E02B880846991A0024AC7152
:103F40003A462A24A3EB08036C812B27491E5B1EEB
:103F5000AF8189B29BB20096FFF7D7FF0120A8710D
:103F60006F81AC81BDE8F88321464046FCF758FCE0
:103F7000FCF740FC0020494602E00E80401C80B265
:103F8000A842FAD3641CA4B2BC42EDD9EAE72DE9F9
:103F9000F0478246A2EB0A00401C0E4685B2981BF1
:103FA000401C87B20024DFF85493DDF8208014E031
:103FB000301981B25046FCF733FCFCF71BFC0020A3
:103FC000494606E004FB050338F813200A80401C2C
:103FD00080B2A842F6D3641CA4B2BC42E8D3BDE8C8
:103FE000F0872DE9FE4F0026A2EB000882465F1AFB
:103FF000701E35468946B8F1000F02DD4FF0010111
:1040000002E003D14FF00001019102E0C8F1000885
:104010000190002F02DD4FF0010002E003D14FF0CC
:104020000000009002E0C7F1000700904046B8454C
:1040300001DD044600E03C46601C4FF0000B02909E
:1040400015E01FFA89F11FFA8AF0FCF71BFE4644BF
:104050003D44A64202DD0199361B8A44A54202DD99
:1040600000992D1B89440BF101001FFA80FB029976
:104070008B45E6DDBDE8FE8FF0B51C4615460E46C5
:1040800007460B46FFF7ADFF3A462346314610463A
:10409000FFF7A7FF23462A4619463846FFF7A1FF38
:1040A0002A4623463146BDE8F040104699E72DE9FF
:1040B000FC4F80460024154603200F46A0EB450622
:1040C00049E0781B81B208EB040A01901FFA8AF0DC
:1040D000FCF7D8FD381B81B208EB050900901FFAE8
:1040E00089F0FCF7CFFD07EB040B1FFA8BF11FFAE9
:1040F00089F0FCF7C7FD07EB05091FFA89F11FFAE4
:104100008AF0FCF7BFFDA8EB040A1FFA89F11FFA39
:104110008AF0FCF7B7FDA8EB05091FFA8BF11FFA2F
:1041200089F0FCF7AFFD019881B21FFA8AF0FCF725
:10413000A9FD009881B21FFA89F0FCF7A3FD641C69
:10414000002E03DA06EB8406B61D04E0601B06EBC6
:1041500080066D1E0A36AC42B3DDBDE8FC8F2DE94A
:10416000F84F82461F460C468B46580700D0012068
:1041700000EBD70079084843203AC0B202F0FF09AB
:104180000026009041E00C2F10D0102F12D0182FD5
:104190003ED15B4909EBC90001EB80004FF00008FC
:1041A000855D28060AD5574802880BE009EB4900CF
:1041B0005549F1E7554901EB0910EFE70A9828B98D
:1041C0005048428821465046FCF767FD6806050EB8
:1041D0004948641CA4B24088A04219D9A4EB0B0042
:1041E000B84209D10AF101001FFA80FA42485C4640
:1041F000018851450CD906E008F1010000F0FF08E4
:10420000B8F1080FCDD3761CF6B200988642BAD327
:10421000BDE8F88F0346012000E05843491EC9B2AB
:10422000FBD270472DE9FF4F81B00027DDF838B091
:104230001D46924680463C46B9464FEA5B0627E05B
:10424000281B401EC1B20A20FFF7E4FFBAFBF0F0C2
:104250000A21B0FBF1F201FB120027B9691E8C4262
:1042600001DA48B101273030C2B206FB048080B2C7
:104270005B46CDF8009006E006FB048080B25B460A
:104280002022CDF800900299FFF769FF641CE4B288
:10429000AC42D5D305B036E62DE9FF4F81B080465C
:1042A000DDF83CA00E984FF000091F4693464C469F
:1042B0000AF00105460839E0381B401EC1B20A2049
:1042C000FFF7A8FFBBFBF0F00A21B0FBF1F201FB06
:1042D0001200B9F1000F05D1791E8C4202DAB8B193
:1042E0004FF001093030C2B206FB048080B2009565
:1042F0000E9B16E000802142C04300200008006CA5
:1043000086BC02081600002022B2020896B60208F7
:104310005FEA0A6006FB04800E9B80B2009508D518
:1043200030220299FFF71BFF641CE4B2BC42C3D3E6
:10433000B0E72022F5E72DE9F84F044600F0FF082A
:1043400010190D46DDE90A761FFA80FA58191FFA8E
:1043500080F94FF0000B11E0544502D3E8194446B0
:1043600085B24D450FD23B4629462046CDF800B0D8
:10437000FFF7F5FE04EB570084B2761C3278A2F109
:1043800020005E28E8D943E74E48416941F4807136
:104390004161816941F020018161816941F0400101
:1043A0008161816941F080018161816941F480719D
:1043B00081614548016800210160026842F0BB321A
:1043C0000260001F026802F0FF220260026842F0F1
:1043D000BB1202603D4802680160026842F0BB32D5
:1043E0000260001F02683A4B1A4002600268394BB3
:1043F0001A4302603848026892B202600268374B82
:104400001A430260001F026802F07F4202600368E4
:10441000334A134303603348436823F470634360B3
:10442000436843F430634360036803F07F430360F1
:104430000368134303604FF0204001614161C0F8FD
:104440001411016941F480510161016941F01001C9
:104450000161416941F440714161416941614169D2
:1044600041616FF07041C0F81411016941F0010120
:104470000161704710B5002A07D04FF0D04310F803
:10448000014B5C54491C521EF7D110BD002A07D0C5
:104490004FF0D0435B5C491C00F8013B521EF7D142
:1044A000704703B50146012201A8FFF7E3FF0CBDE9
:1044B00008B5014601226846FFF7E8FF9DF80000B5
:1044C00008BD00000010024004140140041801401F
:1044D00000FFFF0FBB0000B0041C01400000BBBB8D
:1044E000BBBBBB000020014038B50121082004F00F
:1044F000E6F9C020ADF8000010208DF8030003207D
:10450000824C8DF802006946204603F0F0FFC0217E
:10451000204604F056F838BD70B57C48016821F09B
:1045200070410160016841F040510160784C012008
:10453000C4F89C01C4F89801042004F5CC7403F07D
:104540000DFB00256560042003F008FB256070BDAD
:104550006E4810B5016821F070410160016841F0BA
:10456000405101606A4C0020C4F89801C4F89C01D5
:10457000042004F5CC7403F0F1FA0120206060609F
:10458000BDE81040042003F0E9BA70B55F4800248C
:10459000016821F070410160016841F00041016053
:1045A0005B4D0126C5F89C61304603F0D7FAC5F88B
:1045B0009861012003F0D2FA07E0641CE4B2FA2CFF
:1045C00003D9FFF7C5FF012070BDD5F81C010028F5
:1045D000F3D1C5F8980170BD70B54D4C0025C4F8F5
:1045E00098514A48016821F070410160016841F02A
:1045F00040510160C4F89C51022004F5CC7403F0D2
:10460000ADFA01202060022003F0A8FA256070BDF9
:1046100070B53F4C0026C4F898613C48016821F011
:1046200070410160016841F0405101600125C4F80A
:104630009C51022004F5CC7403F090FA256002200E
:1046400003F08CFA266070BD2DE9F04105462F4835
:10465000016821F070410160016841F04051016042
:104660002B4E0027C6F898713C464FF001082806EB
:1046700002D5C6F89C8101E0C6F89C716806050E5B
:10468000022003F06BFAC6F89881022003F066FA64
:10469000C6F89871022003F061FA641CE4B2082C99
:1046A000E5D3BDE8F0812DE9F047814617480024A5
:1046B000016821F070410160016841F00041016032
:1046C000134E254627464FF00108C6F89871022080
:1046D00003F044FAC6F898816006040ED6F81C016F
:1046E00008B1641CE4B2012003F038FA6D1CEDB28D
:1046F000082DEAD3B9F1000F04D0FFF76DFF204673
:10470000BDE8F087FFF784FFF9E70000000C0140E7
:1047100000802142FFF7E8BE10B50446FFF7FCFE1B
:10472000200AA02101EB4000C0B2FFF78DFFFFF788
:104730002CFFE0B2FFF788FFFFF727FFFFF7ECFE43
:10474000A120FFF781FFFFF720FF0020FFF7ABFF5D
:104750000446FFF7FDFE204610BD70B50D46044629
:10476000FFF7DAFE200AA02101EB4000C0B2FFF7FC
:104770006BFFFFF70AFFE0B2FFF766FFFFF705FFE9
:104780002846FFF761FFFFF700FFFFF7E1FEBDE8F6
:1047900070400A2003F001BA2DE9F04116460D469B
:1047A0000746002409E0E00025FA00F0C1B23819FC
:1047B00080B2FFF7D2FF641CE4B2B442F3D3BDE889
:1047C000F0812DE9F0410D460146002004464E19C6
:1047D00008E00702301B401E80B2FFF79DFF641CFB
:1047E0003844E4B2AC42F4D3E9E710B5FF20FFF758
:1047F00093FF55280AD05521FF20FFF7AEFFFF2079
:10480000FFF78AFF552801D0012010BD002010BD00
:1048100070B515460E46044608E02046641CA4B256
:10482000FFF77AFF6D1E06F8010BADB2002DF4D133
:1048300070BD70B514460D46064606E02978304630
:10484000FFF78BFF761CB6B26D1C641EA4B2F5D2C6
:1048500070BD000070B506460024394D03E0641CAD
:10486000E4B2C82C0FD80221284604F083F90028AE
:10487000F5D03146284604F039F9002405E0641CDF
:10488000E4B2C82C01D9002070BD0121284604F0F3
:1048900071F90028F3D0284604F02AF9C0B270BD9F
:1048A00070B586B00121082004F009F801218803C1
:1048B00004F00EF84FF46045ADF8145018248DF84C
:1048C000174003201F4E8DF8160005A9304603F04F
:1048D0000EFE2946304603F074FE0020ADF80000BD
:1048E000ADF804004FF48271ADF802100221ADF86A
:1048F0000610ADF80C400121ADF80810ADF80E001F
:10490000490207200E4CADF80A10ADF810006946B8
:10491000204604F047F80121204604F0BFF8FF20AC
:10492000FFF798FF06B070BD01460548028822F0E7
:104930003802028002880A430280012104F0AEB8E6
:1049400000380040000C0140052003F007B99448EE
:10495000816941F008018161816941F080018161D3
:104960009048016821F0F0010160016841F03001D8
:1049700001608D48016821F0F0010160016841F09B
:104980003001016087480C30016841F0020101608C
:1049900085480830016841F400710160704770B5C6
:1049A0008148016821F0F0010160016841F03001A7
:1049B00001607E4E0120C6F8A4017D4DC5F884013A
:1049C0001E2005F5C27506F5D27603F0C7F800245F
:1049D0003460052003F0C2F82C6070BD70B57248D9
:1049E000016821F0F0010160016841F030010160CF
:1049F0006F480125C0F884511E2003F0AFF86B4CBE
:104A00000020C4F8A401052004F5D27403F0A6F830
:104A1000256070BD70B564480024016821F0F00184
:104A20000160016841F080010160604D0120C5F81E
:104A3000A4015F4EC6F8840107E0641CE4B2FA2CBE
:104A400003D9FFF7CBFF012070BD052003F086F8E6
:104A5000D5F824010028F0D1C6F8840170BD70B5E6
:104A6000534C0025C4F884514F48016821F0F001EF
:104A70000160016841F030010160052004F5C27455
:104A800003F06CF84948C0F8A451052003F066F81B
:104A900001202060052003F061F8256070BD70B52D
:104AA000434C0026C4F884613F48016821F0F001BE
:104AB0000160016841F030010160052004F5C27415
:104AC00003F04CF839480125C0F8A451052003F043
:104AD00045F82560052003F041F8266070BD2DE9FA
:104AE000F04705463048016821F0F0010160016897
:104AF00041F0300101602E4E0027C6F88471052078
:104B000003F02CF8DFF8A48000244FF00109E90934
:104B1000C8F8A4116806050EC6F88491052003F0B4
:104B20001DF8C6F88471052003F018F8641CE4B27F
:104B3000082CECD3BDE8F0872DE9F04782461A48EF
:104B40000024016821F0F0010160016841F080015A
:104B500001601E2003F002F80025154EDFF84C908E
:104B60002F464FF00108C6F88471052002F0F6FFC9
:104B7000C6F884816006040ED9F8240108B1641CCB
:104B8000E4B26D1CEDB2082DEDD3BAF1000F03D0E5
:104B9000FFF765FF2046CDE7FFF781FFFAE700004A
:104BA00000100240000C0140041C01400080234220
:104BB000008021422DE9F04115460E4604460027AB
:104BC000FFF7EDFE7020FFF78AFFFFF723FFE0B24B
:104BD000FFF785FFFFF71EFF002408E0305DFFF7B9
:104BE0007EFFFFF717FF070003D1641CE4B2AC425D
:104BF000F4D3FFF7F3FE3846BDE8F0812DE9F0412C
:104C000015460F460446FFF7CAFE7020FFF767FF00
:104C1000FFF700FFE0B2FFF762FFFFF7FBFEFFF7D1
:104C2000BEFE7120FFF75BFFFFF7F4FE00246E1E4F
:104C300009E0B44201D0012000E00020FFF77CFF32
:104C40003855641CE4B2AC42F3D3BDE8F041FFF741
:104C5000C5BE38B57448816941F0800181617348EF
:104C6000016821F47F410160016841F460510160F5
:104C70006E480830016841F440610160FFF767FE4B
:104C80006B4D0024C5F8AC41142005F5D67502F033
:104C900084FF01202860322002F07FFF8DF8004061
:104CA000012269460020FFF785FF01226946A42002
:104CB000FFF780FF16208DF8000001226946802052
:104CC000FFF778FF0C208DF800000122694688204C
:104CD000FFF770FF02226946A120FFF78FFF9DF8C2
:104CE0000000302803D19DF80100032801D00120E5
:104CF00038BD43F203014FA00EF0E6FB002038BDA3
:104D00002DE9F1434E4F00244FF00A09387882B064
:104D1000401CC0B2B0FBF9F209FB1201494DA0469C
:104D2000387009B10A2863D2012202A90220FFF7D4
:104D300065FF9DF8080001075AD000F00F00062813
:104D400056D2FF218140C84340F0C00085F82000C2
:104D50004FF00108002695F8201008FA04F00142EF
:104D600039D039480422694630F81400FFF746FF6D
:104D700095F830009DF80010C0079DF8010001F083
:104D80000F010ED000EB012105EB4400C1829DF81C
:104D900002209DF8031002F00F0201EB0221818135
:104DA0000FE000EB0120C0F5F07105EB44008181BC
:104DB0009DF802209DF8031002F00F0201EB022182
:104DC000C1829DF800000821B1EB101F03D005EB54
:104DD0004400C6828681641CE4B2052CBBD3A98939
:104DE0004FF0010819B9E88A08B98DF808603E70DB
:104DF0009DF80800C0060ED195F82000010602D5E6
:104E000020F0800005E04FF6FF71A981E98200F0F3
:104E1000E00085F820003878F02801D987F8009064
:104E20004046BDE8FE83000000100240041C014023
:104E3000008023424354502049443A25780D0A000B
:104E40001A00002024000020E2C902082DE9F041E8
:104E500015460E4604460027FFF7A1FD2820FFF760
:104E60003EFEFFF7D7FD200AFFF739FEFFF7D2FD20
:104E7000E0B2FFF734FEFFF7CDFD002408E0305D1F
:104E8000FFF72DFEFFF7C6FD070003D1641CE4B257
:104E9000AC42F4D3FFF7A2FD3846BDE8F08108B577
:104EA00000218DF800108DF80100B9489DF8002010
:104EB000435C491C1A44C9B28DF80020B829F5D3C7
:104EC000D0B2C043401C8DF80000B822B04948F26F
:104ED0004700FFF7BBFF0222694648F2FF00FFF7D9
:104EE000B5FF002008BD2DE9F04115460F460446E8
:104EF000FFF755FD2820FFF7F2FDFFF78BFD200A95
:104F0000FFF7EDFDFFF786FDE0B2FFF7E8FDFFF7E5
:104F100081FDFFF744FD2920FFF7E1FDFFF77AFD52
:104F200000246E1E09E0B44201D0012000E0002000
:104F3000FFF702FE3855641CE4B2AC42F3D3BDE87F
:104F4000F041FFF74BBD2DE9FC419248816941F0EA
:104F500080018161904C206820F47F4020602068AF
:104F600040F4605020608C4D0835286840F4406063
:104F70002860FFF7ECFC894F0026C7F8AC610A20D7
:104F800007F5D67702F009FE012038600A2002F00A
:104F900004FE206820F470602060206840F4006007
:104FA0002060286820F480602860642002F0F5FD0D
:104FB0000422694648F24010FFF795FF8DF804601F
:104FC000694677A00EF080FA78A168460EF0C8FC1A
:104FD00010B10120BDE8FC8102208DF8000048F2EC
:104FE0004004012269462046FFF730FF012269464E
:104FF000E01DFFF778FF9DF80010602905D26DA035
:105000000EF062FA0120FFF74AFF0A2002F0C5FD08
:105010008DF80060012269462046FFF717FF002047
:10502000D8E72DE9F147684D00244FF00A0A2878A7
:1050300083B0401CC0B2B0FBFAF20AFB1201634E0F
:10504000A046287009B10A2878D248F24E190122E8
:1050500003A94846FFF747FF9DF80C004FF00007F3
:1050600001060AD500F00F00062806D28DF804705C
:10507000012201A94846FFF7E9FE9DF80C0001074F
:105080005CD000F00F01062958D2FF2088408DF82F
:105090000400C04396F8209040F0C00086F820003D
:1050A000B089B082F08AF0834FF0010896F82010A2
:1050B00008FA04F0014226D035480422B830694687
:1050C00030F81400FFF70FFF96F830009DF801103C
:1050D000C0079DF8000000EB012106EB44000AD058
:1050E000C1829DF802109DF8032001EB0221C1F559
:1050F0004871818107E081819DF802109DF80320AD
:1051000001EB0221C182641CE4B2052CCED33049EC
:10511000B2894FF001080B8830469A4203D8C28A00
:1051200049888A4209D99DF80C1001F00F01012924
:105130000BD9C1898181018BF1822F709DF80C0000
:1051400000F08F0080280AD018E0818A8181C18B0D
:10515000C18280218DF80C1086F82090EEE796F839
:105160002000010602D520F0800005E04FF6FF7117
:10517000B181F18200F0E00086F820002878F02864
:1051800001D985F800A004B04046BDE8F0870000D2
:10519000ECC9020800100240041C014000802342B8
:1051A0004354502049443A25730D0A0039313437AD
:1051B0000000000044656661756C74205665723AA3
:1051C00025640D0A000000001B00002024000020C0
:1051D000C04300202DE9F04115460E460446002745
:1051E000FFF7DDFBB220FFF77AFCFFF713FC200A84
:1051F000FFF775FCFFF70EFCE0B2FFF770FCFFF75E
:1052000009FC002408E0305DFFF769FCFFF702FCB1
:10521000070003D1641CE4B2AC42F4D3FFF7DEFB19
:105220003846BDE8F0812DE9F04115460F460446A9
:10523000FFF7B5FBB220FFF752FCFFF7EBFB200AAC
:10524000FFF74DFCFFF7E6FBE0B2FFF748FCFFF786
:10525000E1FBFFF7A4FBB320FFF741FCFFF7DAFB0C
:1052600000246E1E09E0B44201D0012000E00020BD
:10527000FFF762FC3855641CE4B2AC42F3D3BDE8DE
:10528000F041FFF7ABBB08B500218DF8001010B15D
:1052900080208DF80000012269464FF45060FFF72E
:1052A00099FF08BD38B56E4800258DF8005081691A
:1052B00041F0800181616B48016821F47F41016008
:1052C000016841F46051016066480830016841F4AA
:1052D00040610160FFF73BFB634CC4F8AC516420B4
:1052E00004F5D67402F059FC01202060642002F01D
:1052F00054FC0120FFF7C7FF012269464FF45060BC
:10530000FFF791FF9DF8001058A00EF0DDF89DF812
:105310000000802801D0012038BD002038BD2DE9D3
:10532000F14F554F00244FF00A08387882B0401CE6
:10533000C0B2B0FBF8F208FB1201504E254638709F
:1053400009B10A2871D2012202A90020FFF76BFFE0
:105350009DF80800C1066CD000F01F0040F0C000AE
:10536000DFF81CA1DFF81CB186F820004FF001091E
:1053700096F8201009FA04F0014249D0424804226C
:10538000694630F81400FFF74EFF96F830009DF89C
:105390000210C0079DF8030000EB01201ED025F08D
:1053A00072F852465B4625F0BDF825F03FF806EB53
:1053B0004405E8829DF801009DF8001000EB0120F3
:1053C00025F061F8314A324B25F0ACF80022314B20
:1053D00025F0DCF925F02AF8A88119E025F053F82A
:1053E00052465B4625F09EF825F020F806EB440572
:1053F000A8819DF801009DF8001000EB012025F028
:1054000042F8224A224B25F08DF825F00FF8E88269
:10541000641CE4B2052CABD30125B28900211AB972
:10542000F08A08B98DF8081039709DF80800C00698
:105430000ED196F82000010602D520F0800005E08C
:105440004FF6FF71B181F18200F0E00086F8200094
:105450003878F02801D987F800802846BDE8FE8F0B
:1054600000100240041C014000802342435450209D
:1054700049443A25780D0A001C0000202400002031
:105480007B14AE47E17AD43FAECA0208D881734696
:1054900094F6D23F000089402DE9F0470024FF4EEA
:1054A000FF4F0546A0464FF00109280601D54846A2
:1054B00000E04046C6F8A4016806050EC7F88481DE
:1054C000012002F04BFBC7F88491641CE4B2082C65
:1054D000EBD3BDE8F0872DE9F0470025F04F2C46CF
:1054E0002E46C7F88451DFF8B483C8F8A451C8F831
:1054F000AC5107F5C277FFF7CFFF062002F02EFB75
:105500003E60012002F02AFB4FF00109C7F800902D
:10551000484602F023FB3E60B2464E464FF6FF7906
:10552000A7F5C27709EA4404C7F884A1012002F074
:1055300015FBC7F88461D7F8080108B1641CA4B250
:105540006D1CEDB2102DEDD32009C8F8AC61C0E799
:10555000FEB5064600246D463046FFF7BCFF25F831
:105560001400641CA4B2052CF6D300214C1CA0B27C
:105570000BE035F8113035F81020934203D925F8A7
:10558000112025F81030401C80B20528F1D3A1B2BB
:105590000429EBD30021012035F81020401C1144D0
:1055A00080B289B20428F7D30320B1FBF0F0FEBD2E
:1055B0002DE9F041BB4F06460D463878FFF7C8FF8E
:1055C00004467878FFF7C4FF348028800120BDE8C6
:1055D000F08170B586B00C460546694604A8FFF711
:1055E000E7FF00282FD001A903A8FFF7E1FF00285B
:1055F00029D0BDF80C30BDF81020934203D803F138
:105600003200824205D39A421FD802F1320083420F
:105610001BD2BDF80410BDF80000814203D801F18F
:105620003206B04204D388420FD8323081420CD2C5
:10563000D01840082880BDF80000BDF804100844C8
:1056400040082080012006B070BD0020FBE72DE956
:10565000F041044694480D460B46028004F10D00CB
:1056600082B2193880B2FEF7BCFC05F10D0083B29E
:10567000193881B222461046FEF7B3FC6E1C04F1C5
:105680000108B1B21FFA88F0FBF7FCFAB1B2661E4E
:10569000B0B2FBF7F7FA6F1EB9B21FFA88F0FBF74A
:1056A000F1FAB9B2B0B2FBF7EDFA29462046BDE8EF
:1056B000F0410622FEF7FBBC70B506467A480C4660
:1056C00002803046FBF7DEFA751CA8B22146FBF7D4
:1056D000D9FA641CA1B23046FBF7D4FAA1B2A8B241
:1056E000BDE87040FBF7CEBA70B56C49D1F828110F
:1056F0006C4C241D41B194F82000010641D520F0E6
:10570000800084F8200043E00200664800F10400B5
:1057100000F1160100F10C0002D0FFF75AFF24E05F
:10572000FFF757FF08B3B4F92C0025F09DFB0546A1
:10573000A08925F0B1FB616A25F0C2FB294625F05E
:105740002DFA25F071FBA081B4F92E0025F08CFB19
:105750000546E08A25F0A0FBA16A25F0B1FB2946A9
:1057600025F01CFA25F060FBE08294F8200000068A
:105770000ED4C02084F82000A089A082E08AE083B3
:1057800006E00020A082E0834FF6FF70A081E08257
:1057900094F8200000F0800070BD424910B50E2240
:1057A00028312820FFF745F80A21BDE810403620AF
:1057B000FEF7D3BF10B53620FEF7AEFF0A2801D0A2
:1057C000002010BD37490E2228312820FFF720F88D
:1057D00034489022001D90F83030001FD02113B1C2
:1057E0000270417001E001704270012010BD2DE98E
:1057F000FF4F83B00E46DDE910A92B4907464FF451
:105800007840DDF85080088028A01024CDE90040C1
:10581000274D9346A0216B882A882820FEF78BFD10
:1058200024A0CDE900406B882A88A0217820FEF7CB
:1058300082FD21A0CDE900406B882A88B421282070
:10584000FEF779FD1DA0CDE900406B882A88B421C0
:105850007820FEF770FD1AA0CDE900406B882A88F9
:10586000C8212820FEF767FD16A0CDE900406B880F
:105870002A88C8217820FEF75EFD13A0CDE90040FC
:105880006B882A88DC212820FEF755FD0FA0CDE982
:105890000040DC216B882A88782019E000802342B0
:1058A00000802142200000201600002078313A00BC
:1058B000C043002079313A0078323A0079323A0018
:1058C00078333A0079333A0078343A0079343A0040
:1058D000FEF731FDFEA0CDE900406B882A88F0215B
:1058E0002820FEF728FD04233A46A02140200094FA
:1058F000FEF798FC04233246A02190200094FEF786
:1059000091FC04235A46B42140200094FEF78AFCFF
:1059100004230094B4219020069AFEF783FC04230C
:105920005246C82140200094FEF77CFC04234A46DE
:10593000C82190200094FEF775FC04230094DC211C
:105940004020129AFEF76EFC04230094DC21902084
:10595000139AFEF767FC03234246F021602000946F
:10596000FEF760FC07B0BDE8F08F2DE9F04FDA4E8E
:1059700089B01F203080D9484FF6FF770025078077
:105980002C463846FBF785FB4FF47848A6F8008094
:105990003846FBF77EFBD24800273780016810208D
:1059A000CDE9000128216423A0220846FEF7C3FCAC
:1059B000142142460846FFF74AFECA48DFF828830A
:1059C00080F820704762C74E01207168884796F8BA
:1059D00020000121B1EB901F4AD120F0400086F851
:1059E000200005A8B28920F8252000EB85006D1C59
:1059F0000024F18AEDB24180012D06D0022D12D093
:105A0000032D21D0042D33D13EE014214FF6FF7237
:105A10000846FFF71CFEB8F800004FF4784214382F
:105A200080B2142122E0B8F800004646143880B253
:105A30004FF6FF721421FFF70AFE70884FF4784288
:105A4000143881B2142011E0B8F802004646143828
:105A500081B24FF6FF721420FFF7F9FD70884FF402
:105A60007842143881B23088143880B2FFF7EFFDE5
:105A70000A2002F092F8641CA4B2B4F57A7FA2D98D
:105A8000FFF798FE09B06EE7BDF81400BDF81810D6
:105A9000411A00D54942BDF81600BDF81A20801AF7
:105AA00000D5404249434043084424F0ECFC24F034
:105AB000E2FB24F0BBFC85B2BDF81C00BDF8201051
:105AC000411A00D54942BDF81E00BDF82220801AB7
:105AD00000D5404249434043084424F0D4FC24F01C
