:020000040800F2
:1000000010BB0020010800080506000807060008CC
:100010000B0600080F060008130600080000000089
:1000200000000000000000000000000017060008AB
:1000300019060008000000001B0600081D06000845
:100040001B0800081B0800081B0800081B08000804
:100050001B0800081B0800081B0800081B080008F4
:100060001B0800081B0800081B0800081B080008E4
:100070001B0800081B0800081B0800081B080008D4
:100080001B0800081B0800081B0800081B080008C4
:100090001B0800081B0800081B080008CD5E0008AC
:1000A0001B0800081B0800081B0800081B080008A4
:1000B000D7890008A75700081B0800081B0800087C
:1000C0001B0800081B0800081B0800081B08000884
:1000D0001B080008CB0900081B0800081B080008C3
:1000E0001B0800081B0800081B0800081B08000864
:1000F0001B0800081B0800081B0800081B08000854
:100100001B0800081B0800081B0800081B08000843
:100110001B0800081B0800081B0800081B08000833
:100120001B0800081B0800081B0800081B08000823
:1001300000F002F800F06BF80AA090E8000C82448E
:100140008344AAF10107DA4501D100F060F8AFF26B
:10015000090EBAE80F0013F0010F18BFFB1A43F0A5
:10016000010318476C6C01008C6C01000A444FF0CD
:10017000000C10F8013B13F0070408BF10F8014B06
:100180001D1108BF10F8015B641E05D010F8016B4B
:10019000641E01F8016BF9D113F0080F1EBF10F8AF
:1001A000014BAD1C0C1B09D16D1E58BF01F801CBD2
:1001B000FAD505E014F8016B01F8016B6D1EF9D555
:1001C0009142D6D37047000000230024002500266A
:1001D000103A28BF78C1FBD8520728BF30C148BFAA
:1001E0000B607047642914F0C183752914F0BE8335
:1001F000782914F0F783632914F04186732914F0E9
:100200004686002070471FB51FBD10B510BD14F005
:100210008BFE1146FFF7F7FF00F0B7F814F0A9FEC8
:1002200003B4FFF7F2FF03BC00F074FB30B58BB0F2
:1002300004464FF478409F49088004F001000028EC
:1002400031D04FF6FF7000909B4802886E231E212C
:10025000084604F0FBFE99A010210B46C822CDE908
:1002600000101E21084605F08BF999A010210B46BD
:10027000C822CDE9001032211E2005F081F999A095
:1002800010210B46C822CDE9001046211E2005F0A2
:1002900077F998A010210B46C822CDE900105A2109
:1002A0001E2005F06DF904F0020000286BD04FF617
:1002B000FF7000908048438802886E211E2004F061
:1002C000C5FE8FA010210B46C822CDE900106E217B
:1002D0001E2005F055F98F48807D02280DD18D48EC
:1002E000407B8C49097BCDE900108A48C37A827A29
:1002F00089A103A814F0D6FA0CE08648407B854912
:10030000097BCDE900108348C37A827A87A103A8CC
:1003100014F0C8FA03A810210B46D222CDE9001030
:1003200082211E2005F02CF905F07FFA054605F024
:10033000020050B183A010210B46C822CDE9001065
:1003400096211E2005F01CF909E083A010210B4620
:10035000C822CDE9001096211E2005F011F983A0D6
:1003600010210B46C822CDE90010AA211E2005F05D
:1003700007F981A010210B46C822CDE90010AA215F
:100380001E2005F0FDF80BB030BD1CB500F058FA8A
:100390004FF4A06005F03AFE4FF4E13000F0C9FAE6
:1003A00005F022F901F09EFA00F054FB40F2CF2153
:1003B0004FF47A7005F0CAF97348416848208847BD
:1003C00005F038F9002007F0CCFE012007F0C9FE47
:1003D0004FF47840374908800120FFF727FF20E0DD
:1003E0006AA010211423C822CDE900106E211E201E
:1003F00005F0C6F84FF4966000F05FFA4FF6FF7014
:100400008223E6226E2100901E2004F01FFE64A0CD
:1004100010210B46C822CDE900106E211E2005F0E8
:10042000AFF809F0ACF80028DAD160A0102114234D
:10043000C822CDE900106E211E2005F0A1F860A0B1
:1004400010210B46C822CDE9001082211E2005F0A4
:1004500097F803E009F09DF909F0C5F82D48807D73
:10046000022803D02B48807DFF28F3D10220FFF71C
:10047000DDFE4FF4FA7000F020FA4FF4FA7000F04D
:100480001CFA09F0A6FC13E0002000F0FDFA044677
:10049000022C0AD15048007800F0200018B14FA07B
:1004A00014F0F4F901E009F094FC0A2000F005FAD8
:1004B000EAE70000200000202403002057415253A7
:1004C0004849502053544D333246313033000000F8
:1004D00045746865726E6574206C77495020546568
:1004E0007374000041544F4D40414C49454E5445B2
:1004F0004B000000323031352F332F3231000000F5
:100500006C77495020496E69742053756363657335
:100510007365640044AD0020444843502049503A7C
:1005200025642E25642E25642E2564005374617481
:1005300069632049503A25642E25642E25642E25B2
:100540006400000045746865726E657420537065C0
:1005500065643A31304D000045746865726E6574AB
:100560002053706565643A3130304D00504F52541D
:100570003A203830383700004B4559303A2053651F
:100580006E64206461746100B00000204C574950D3
:1005900020496E69742046616C6965642100000021
:1005A0005265747279696E672E2E2E004C57495031
:1005B00020496E697420537563636573732100006D
:1005C0004448435020495020636F6E666967696EE6
:1005D000672E2E2E00000000BC010020544350BFA7
:1005E000CDBBA7B6CBC1ACBDD3D2D1BEADBDA8C12A
:1005F000A22CB2BBC4DCD6D8B8B4C1ACBDD30D0AF2
:1006000000000000704700BFFEE700BFFEE700BF2C
:10061000FEE700BFFEE77047704770477047000075
:100620000CB50020019000906C48006840F48030C8
:100630006A49086000BF6948006800F40030009013
:100640000198401C0190009818B90198B0F5A06F6E
:10065000F1D16248006800F4003010B10120009030
:1006600001E0002000900098012843D15C48006818
:1006700040F010005A4908600846006820F0030066
:1006800008600846006840F002000860534840686F
:10069000524948600846406848600846406840F44F
:1006A000806048600846406820F47C104860084636
:1006B000406840F4E81048600846006840F08070E8
:1006C000086000BF4548006800F000700028F9D0BD
:1006D0004248406820F003004049486008464068AE
:1006E00040F00200486000BF3C48406800F00C0049
:1006F0000828F9D10CBD10B5FFF792FF10BD10B559
:100700003648006840F001003449086008464068F7
:100710003449084031494860084600683249084079
:100720002E4908600846006820F4802008600846CA
:10073000406820F4FE0048604FF41F008860FFF717
:10074000DAFF4FF000602949086010BD10B50021A4
:1007500000200022214B5B6803F00C0121B1042929
:1007600006D0082928D107E0214B224C236027E03E
:100770001F4B204C236023E0184B5B6803F4701080
:10078000164B5B6803F48032022303EB904022B9DE
:10079000194B4343174C23600DE0104B5B6803F487
:1007A000003323B1144B4343124C236003E0104B3E
:1007B0004343104C236003E00D4B0E4C236000BFFD
:1007C00000BF064B5B68C3F303130C4CE15C094BA1
:1007D0001B68CB40074C236010BD00000010024096
:1007E000002002400000FFF8FFFFF6FE08ED00E0E9
:1007F00000127A000000002000093D0004000020E3
:100800000948804709480047FEE7FEE7FEE7FEE7A4
:10081000FEE7FEE7FEE7FEE7FEE7FEE704480549E0
:10082000054A064B70470000FF060008310100082A
:1008300010B5002010BB002010B7002010B700201A
:1008400010B56FF0040005F030FC2E4800682E490A
:10085000B0FBF1F02D4908700846007800EB40012C
:10086000C1EBC0104FF6FF7101EAC00028490880B3
:1008700010BD0146254A12784A434FF0E0235A61E1
:1008800000229A611A46126942F001021A6100BF01
:100890004FF0E022106900F001021AB100F480323A
:1008A000002AF5D04FF0E022126922F001024FF049
:1008B000E0231A6100229A6170470146144A1288A7
:1008C0004A434FF0E0235A6100229A611A461269A6
:1008D00042F001021A6100BF4FF0E022106900F0FF
:1008E00001021AB100F48032002AF5D04FF0E02264
:1008F000126922F001024FF0E0231A6100229A618E
:10090000704700000000002000127A001400002050
:1009100016000020014600BF704700BF494A1288F8
:1009200002F04002002AF9D0C2B2464B1B1D1A80C9
:10093000704710B586B00446012144F2040006F069
:10094000F5F94FF40070ADF8140003208DF816008F
:1009500018208DF8170005A93B4805F02BFF4FF430
:100960008060ADF8140004208DF8170005A9364802
:1009700005F020FF25208DF8000003208DF80100F0
:100980008DF8020001208DF80300684605F043FB56
:1009900001940020ADF80800ADF80A00ADF80C0095
:1009A000ADF810000C20ADF80E0001A9254807F0A5
:1009B00072F9012240F22551224807F004FA012180
:1009C000204807F0F4F906B010BD10B540F22551EB
:1009D0001C4807F0DDFA10B31A4807F059FAC4B200
:1009E0001A48008800F40040C8B91848008800F48C
:1009F000804060B10A2C03D000201449088020E018
:100A00001248008840F400401049088019E00D2C7D
:100A100006D10E48008840F480400C49088010E060
:100A20000A480088C0F30D0009490C5407480088A3
:100A3000401C0649088008460088C72801DD0020C0
:100A4000088010BD00380140000801401C00002053
:100A50005C02002008B50121442006F067F91C2043
:100A6000ADF8000048208DF803006946354805F0D0
:100A7000A1FE0120ADF8000028208DF80300694692
:100A8000314805F097FE08BD10B5044614B10120A9
:100A90002E4908702D480078002837D010212948A9
:100AA00005F01BFF78B10821264805F016FF50B16C
:100AB0000421244805F011FF28B10121224805F046
:100AC0000CFF012822D10A20FFF7F7FE00201F4962
:100AD000087010211B4805F000FF08B9012010BD67
:100AE0000821184805F0F9FE08B90220F7E70421AB
:100AF000144805F0F2FE08B90320F0E7012112487E
:100B000005F0EBFE01281BD10420E8E710210D4879
:100B100005F0E3FE012813D108210A4805F0DDFEA7
:100B200001280DD10421074805F0D7FE012807D17F
:100B30000121054805F0D1FE10B9012003490870D4
:100B40000020CCE700180140000801401E000020F2
:100B500001B5BDF800000090BDF80000FB49088019
:100B600008BD01B5BDF800000090BDF80000F749D0
:100B7000891C088008BD08B5F448801C00880090D6
:100B8000BDF8000008BD03B5BDF80000EF490880BE
:100B9000BDF80400891C08800CBD01B5BDF800003B
:100BA000FFF7D6FF0520FFF764FEFFF7E4FF08BD5F
:100BB000E7480089E54908807047E449891C0880B6
:100BC000704730B5014601F01F04C1F34513CA0A4E
:100BD000E50205EB43151544A8B230BD00BF010086
:100BE000A0F10102D0B2FAD1704730B504460D46EB
:100BF000D748808849F24131884205D0D44880885E
:100C000045F21031884214D1D1494889FFF7A0FF3D
:100C10002012FFF7A6FFE0B2FFF7A3FFCC498889B7
:100C2000FFF796FF2812FFF79CFFE8B2FFF799FF46
:100C3000ABE0C748808846F6040188421DD1C4480D
:100C40008079012804D1C2480088401E001B84B26C
:100C5000BF494889FFF77CFF2012FFF782FFE0B20F
:100C6000FFF77FFFBA498889FFF772FF2812FFF765
:100C700078FFE8B2FFF775FF87E0B548808841F656
:100C80006311884247D1B2488079A8B9B04800883A
:100C9000401E001B84B2AE494889FFF759FF00206F
:100CA000FFF75FFF0020FFF75CFF2012FFF759FFFF
:100CB000E0B2FFF756FF16E0A5494889FFF748FF65
:100CC0002012FFF74EFFE0B2FFF74BFFA049098863
:100CD000491EC1F30F20FFF744FF9D490978491EC3
:100CE000C8B2FFF73EFF9A498889FFF731FF281203
:100CF000FFF737FFE8B2FFF734FF95494988491EEF
:100D0000C1F30F20FFF72DFF91498978491EC8B222
:100D1000FFF727FF39E08E48808845F2105188425E
:100D200020D18B494889FFF713FF2012FFF719FFE5
:100D300087494989491C88B2FFF70AFFE0B2FFF7EB
:100D400010FF83498889FFF703FF2812FFF709FF87
:100D50007F498989491C88B2FFF7FAFEE8B2FFF79C
:100D600000FF12E07A488079012804D17848008891
:100D7000401E001B84B2764948892146FFF703FFD5
:100D8000734988892946FFF7FEFE30BD3EB504460B
:100D90000D4600200290019000906D480088A0420E
:100DA00003DD6B484088A84201DC00203EBD294697
:100DB0002046FFF71AFF6648808849F24131884291
:100DC00011D06348808846F6040188420BD0604801
:100DD000808845F21031884205D05D48808841F610
:100DE0006311884203D12E20FFF7B2FE0DE0584870
:100DF000808845F21051884204D14FF43850FFF7F3
:100E0000A7FE02E02220FFF7A3FE5148808849F2A6
:100E10002031884202D10220FFF7E0FEFFF7ABFE4F
:100E200002904B48808841F66311884202D1BDF898
:100E30000800BBE70220FFF7D1FEFFF79CFE0290FF
:100E40004348808849F2413188420BD0404880882D
:100E500045F21031884205D03D48808845F2105156
:100E6000884210D10220FFF7B9FEFFF784FE009000
:100E7000BDF80800C0B20190BDF804004FF6FF7144
:100E800001EA002001903248808849F225318842E9
:100E900016D02F48808844F23551884210D02C4813
:100EA0008088091F88420BD0294880884BF2055161
:100EB000884205D0264880884CF20551884202D1EC
:100EC000BDF8080072E72248808849F24131884223
:100ED0000BD01F48808845F21031884205D01C484D
:100EE000808845F2105188420DD1BDF80800C0122B
:100EF000C002BDF80410891240EA4110BDF800108C
:100F000040EAE12052E7BDF80800FFF75AFE4DE73E
:100F100000B50F48808849F24131884211D00C4811
:100F2000808846F6040188420BD00948808845F243
:100F30001031884205D00648808841F66311884206
:100F400008D12920FFF704FE14E00000FE07006C22
:100F500024030020FE48808845F21051884204D1C5
:100F60004FF42450FFF7F4FD04E040F27311072022
:100F7000FFF709FE00BD00B5F548808849F2413110
:100F8000884211D0F248808846F6040188420BD08E
:100F9000EF48808845F21031884205D0EC488088BF
:100FA00041F66311884203D12820FFF7D1FD0EE0FE
:100FB000E748808845F21051884204D14FF4205010
:100FC000FFF7C6FD03E000210720FFF7DCFD00BDB1
:100FD000F0B5054600240027DD48807901280BD1B3
:100FE000DB48808846F60401884205D0D8488088CE
:100FF00041F66311884208D1D5488079F0B9D448C8
:10100000808841F66311884218D1082D15D2DFE897
:1010100005F00406080A0C0E101206250DE007253F
:101020000BE0042509E0052507E0012505E0002582
:1010300003E0032501E0022500BF00BFC44880880B
:1010400049F24131884217D0C148808846F60401F0
:10105000884211D0BE48808845F2103188420BD0BA
:10106000BB48808845F21051884205D0B848808836
:1010700041F6631188427DD1082D1CD2DFE805F0CE
:101080000406090C0F12151800BF14E044F0800488
:1010900011E044F040040EE044F0C0040BE044F0E2
:1010A000200408E044F0600405E044F0A00402E0FD
:1010B00044F0E00400BF00BFA548808845F210510D
:1010C000884202D14FF4585700E03627A048808864
:1010D00045F2103188420DD09D48808845F210516C
:1010E000884207D09A48808841F66311884201D02F
:1010F00044F008049648808846F60401884201D1ED
:1011000044F0020421463846FFF73DFD90488088B0
:1011100041F6631188421DD004F0200068B18C486C
:1011200000888B494988884214DA894806884088B3
:1011300087490880084646800CE085480088844935
:101140004988884206DD82480688408880490880B0
:10115000084646807E48808845F21051884254D126
:101160007B494889FFF7F4FC0020FFF7FAFC784937
:10117000498900E078E0491C88B2FFF7E9FC0020CB
:10118000FFF7EFFC72494989891C88B2FFF7E0FC40
:101190006F490988491EC1F30F20FFF7E2FC6C4933
:1011A0004989C91C88B2FFF7D3FC69490978491EEF
:1011B000C8B2FFF7D6FC66498889FFF7C9FC002052
:1011C000FFF7CFFC62498989491C88B2FFF7C0FC50
:1011D0000020FFF7C6FC5E498989891C88B2FFF7A9
:1011E000B7FC5B494988491EC1F30F20FFF7B9FCE2
:1011F00057498989C91C88B2FFF7AAFC54498978E4
:10120000491EC8B2FFF7ADFC55E051494889FFF7C8
:101210009FFC0020FFF7A5FC0020FFF7A2FC4C4933
:101220000988491EC1F30F20FFF79BFC4849097844
:10123000491EC8B2FFF795FC45498889FFF788FC2D
:101240000020FFF78EFC0020FFF78BFC4049498807
:10125000491EC1F30F20FFF784FC3D498978491EE0
:10126000C8B2FFF77EFC26E0082D1CD2DFE805F0AF
:1012700004070A0D0F12151844F0300413E044F06F
:10128000100410E044F020040DE000BF0BE044F037
:10129000380408E044F0280405E044F0180402E0B3
:1012A00044F0080400BF00BF032744F480542146E3
:1012B0003846FFF768FCF0BD30B504460D462946B8
:1012C0002046FFF792FCFFF773FC22480088224972
:1012D000088030BD70B504460D4616461C4880880F
:1012E00049F24131884205D01948808845F21031D1
:1012F000884214D116494889FFF72AFC2012FFF7CB
:1013000030FCE0B2FFF72DFC11498889FFF720FC83
:101310002812FFF726FCE8B2FFF723FC93E00C4805
:10132000808845F21051884227D109494889FFF742
:101330000FFC2012FFF715FC05494989491C88B2AA
:10134000FFF706FCE0B2FFF70CFC0149888905E0D5
:1013500024030020200000200008006CFFF7F8FBA9
:101360002812FFF7FEFBFE498989491C88B2FFF766
:10137000EFFBE8B2FFF7F5FB65E0F948808841F63E
:101380006311884228D1F648807920B9F448008852
:10139000401E001B84B2F2494889FFF7D9FB201296
:1013A000FFF7DFFBE0B2FFF7DCFB2012FFF7D9FB12
:1013B000E0B2FFF7D6FBEA498889FFF7C9FB28129C
:1013C000FFF7CFFBE8B2FFF7CCFB2812FFF7C9FB12
:1013D000E8B2FFF7C6FB36E0E148808846F6040134
:1013E00088421DD1DE488079012804D1DC4800887C
:1013F000401E001B84B2DA494889FFF7A9FB20127E
:10140000FFF7AFFBE0B2FFF7ACFBD5498889FFF7E8
:101410009FFB2812FFF7A5FBE8B2FFF7A2FB12E043
:10142000CF488079012804D1CD480088401E001B98
:1014300084B2CB4948892146FFF7A5FBC849888972
:101440002946FFF7A0FBC6480089C6490880881CCA
:10145000068070BD2DE9F0470446BE20FFF778FBFB
:101460000520FFF77EFB204613F0C3FD07464FF033
:101470006632BD4B13F0D0FD054613F08DFD1FFA0B
:1014800080F94846FFF76DFB0120FFF76AFBFF205C
:10149000FFF767FB0020FFF764FB0020FFF761FB0D
:1014A000BDE8F08710B50446002C66D1AC498871C0
:1014B000F02008804FF4A07048800846808849F2E8
:1014C000413188420BD0A648808846F60401884204
:1014D00005D0A348808845F2103188421AD12C20CB
:1014E0009F4908812A2048812B20888108468088CE
:1014F00046F60401884205D09948808845F21031AB
:10150000884206D14FF4A070954908804FF4F070DE
:101510004880A1E09248808845F21051884210D15D
:101520004FF430508E4908814FF4285048814FF4D1
:101530002C5088814FF4F07008804FF44870488038
:101540008AE08748808841F6631188420DD12C20BB
:10155000834908812B2048812A2088814FF4F0702C
:1015600008804FF44870488076E022207C4908814A
:1015700020204881212088816EE0012078498871EF
:101580004FF4A0700880F02048800846808849F217
:101590004131884205D07248808845F21031884236
:1015A00007D12C206E4908812A2048812B20888170
:1015B0003FE06B48808846F60401884207D12C2022
:1015C000674908812B2048812A20888131E06448BE
:1015D000808845F21051884210D14FF43050604954
:1015E00008814FF4285048814FF42C5088814FF4E3
:1015F000487008804FF4F07048801AE0584880889E
:1016000041F6631188420DD12C20554908812A20CA
:1016100048812B2088814FF4487008804FF4F07087
:10162000488006E022204E49088121204881202060
:1016300088814B48808846F60401884205D0484896
:10164000808845F21031884206D14FF4F070444949
:1016500008804FF4A07048800020FFF7B9FC10BD4F
:101660002DE9F04F86B004460D469046994604EBAE
:101670000800401E86B205EB0900401E87B23848BC
:10168000808849F24131884215D03548808845F23A
:10169000103188420FD03248808846F604018842D3
:1016A00009D02F488079012826D12D48808841F61D
:1016B0006311884220D12A494889FFF749FA20124C
:1016C000FFF74FFAE0B2FFF74CFA3012FFF749FA92
:1016D000F0B2FFF746FA22498889FFF739FA281253
:1016E000FFF73FFAE8B2FFF73CFA3812FFF739FA92
:1016F000F8B2FFF736FAC0E01948808841F6631166
:1017000088423CD116480088A0EB0800001B84B238
:1017100005EB0900401E1FFA80F911494889FFF7BF
:1017200017FA2012FFF71DFAE0B2FFF71AFA04EBDE
:101730000801491EC1F30F20FFF713FA04EB08015B
:10174000491EC8B2FFF70DFA05498889FFF700FA6C
:101750002812FFF706FAE8B2FFF703FA06E00000E6
:1017600024030020FE07006C666604404FEA29202F
:10177000FFF7F7F909F0FF00FFF7F3F97DE0FE4806
:10178000808845F21051884244D1FB494889FFF7CF
:10179000DFF92012FFF7E5F9F7494989491C88B2BA
:1017A000FFF7D6F9E0B2FFF7DCF9F3494989891C64
:1017B00088B2FFF7CDF93012FFF7D3F9EE49498926
:1017C000C91C88B2FFF7C4F9F0B2FFF7CAF9EA49B9
:1017D0008889FFF7BDF92812FFF7C3F9E64989891F
:1017E000491C88B2FFF7B4F9E8B2FFF7BAF9E24949
:1017F0008989891C88B2FFF7ABF93812FFF7B1F974
:10180000DD498989C91C88B2FFF7A2F9F8B2FFF750
:10181000A8F932E0D848807901280ED1AA46BB4603
:10182000D5480088801B401E80B20190D2480088B5
:10183000001B401E80B2009003E0A246B346019513
:10184000009750200590512004905220039053207F
:10185000029051460598FFF796F959460498FFF70C
:1018600092F901990398FFF78EF900990298FFF712
:101870008AF929462046FFF7B8F906B0BDE8F08F8F
:1018800070B504460026BC48058840884543BA48E0
:10189000808846F60401884216D1B748807901282D
:1018A00012D10020B44988712A2048812B208881D8
:1018B00000210846FFF799F90120AF4988712B20D4
:1018C00048812A20888103E000210846FFF78DF92E
:1018D000FFF76EF9002602E0A8480480761CAE42AD
:1018E000FAD370BD00B59FB00121080205F011FACE
:1018F00001214FF4B47005F019FA0120ADF8780019
:1019000010208DF87B0003208DF87A001EA99C48DA
:1019100004F050FF4CF23370ADF8780018208DF8C9
:101920007B0003208DF87A001EA9964804F042FF40
:101930004FF68070ADF8780018208DF87B000320FA
:101940008DF87A001EA9904804F034FF41F201009E
:10195000ADF8780018208DF87B0003208DF87A0010
:101960001EA98A4804F026FF012008900020099053
:101970000F200A9000200B900C900D900E9001907B
:101980000290032003900020049005900690079099
:1019900006200F900020109011901020129000202F
:1019A000139015901490169017904FF48050189043
:1019B000002019904FF480401A9000201B9008A836
:1019C0001C9001A81D900FA804F0DAFB012106204D
:1019D00004F03EFD3220FEF770FF0020FFF7DDF837
:1019E0006549888008468088FF280ADB0846808889
:1019F0004FF6FF71884204D05F488088B0F5134FDE
:101A00007ED1D320FFF7A4F8FFF7B5F85A498880B4
:101A1000FFF7B1F858498880FFF7ADF8564988803C
:101A2000084680884FF6FF7101EA002052498880FD
:101A3000FFF7A1F85049898808434F498880084634
:101A4000808849F2413188425AD0BF20FFF780F8A0
:101A5000FFF791F848498880FFF78DF8464988805C
:101A6000FFF789F844498880FFF785F84249888064
:101A7000084680884FF6FF7101EA00203E498880C1
:101A8000FFF779F83C49898808433B498880084634
:101A9000808846F60401884232D0D420FFF758F8F7
:101AA000FFF769F834498880FFF765F83249888084
:101AB000FFF761F830498880084680884FF6FF714B
:101AC00001EA00202C498880FFF755F82A498988C7
:101AD0000843294988800846808845F210318842A9
:101AE00063D04FF45A40FFF733F8FFF744F8224928
:101AF00088804FF45B40FFF72BF8FFF73CF800E0DD
:101B000053E01D498880084680884FF6FF7101EA3E
:101B10000020194988804FF45C40FFF719F8FFF75F
:101B20002AF815498988084313498880084680881F
:101B3000B0F5004F02D145F2105088800E488088E1
:101B400045F21051884230D0A120FFF701F8FFF78D
:101B500012F809498880FFF70EF80749888008467F
:101B600080884FF6FF7101EA002003498880FFF763
:101B700002F8014989880BE0240300200008006C6A
:101B8000000C0140001401400018014000200140F9
:101B90000843FE4988800846808845F26171884282
:101BA00003D141F66310F9498880F8488188F8A08C
:101BB00012F06CFEF548808849F2413188427CD1B0
:101BC000CF20FEF7C5FF0020FEF7CBFFC120FEF7B8
:101BD000C8FF3020FEF7C5FFED20FEF7B9FF6420F7
:101BE000FEF7BFFF0320FEF7BCFF1220FEF7B9FF90
:101BF0008120FEF7B6FFE820FEF7AAFF8520FEF75A
:101C0000B0FF1020FEF7ADFF7A20FEF7AAFFCB2031
:101C1000FEF79EFF3920FEF7A4FF2C20FEF7A1FF60
:101C20000020FEF79EFF3420FEF79BFF0220FEF708
:101C300098FFF720FEF78CFF2020FEF792FFEA20A6
:101C4000FEF786FF0020FEF78CFF0020FEF789FFDD
:101C5000C020FEF77DFF1B20FEF783FFC120FEF7AB
:101C600077FF0120FEF77DFFC520FEF771FF3020D2
:101C7000FEF777FF3020FEF774FFC720FEF768FFFE
:101C8000B720FEF76EFF3620FEF762FF4820FEF712
:101C900068FF3A20FEF75CFF5520FEF762FFB12097
:101CA000FEF756FF0020FEF75CFF1A20FEF759FFF3
:101CB000B620FEF74DFF0A2000E099E0FEF751FF45
:101CC000A220FEF74EFFF220FEF742FF0020FEF7B3
:101CD00048FF2620FEF73CFF0120FEF742FFE020F0
:101CE000FEF736FF0F20FEF73CFF2A20FEF739FFF4
:101CF0002820FEF736FF0820FEF733FF0E20FEF700
:101D000030FF0820FEF72DFF5420FEF72AFFA92000
:101D1000FEF727FF4320FEF724FF0A20FEF721FFEE
:101D20000F20FEF71EFF0020FEF71BFF0020FEF72E
:101D300018FF0020FEF715FF0020FEF712FFE1203C
:101D4000FEF706FF0020FEF70CFF1520FEF709FF47
:101D50001720FEF706FF0720FEF703FF1120FEF70E
:101D600000FF0620FEF7FDFE2B20FEF7FAFE5620B0
:101D7000FEF7F7FE3C20FEF7F4FE0520FEF7F1FE2D
:101D80001020FEF7EEFE0F20FEF7EBFE3F20FEF7E1
:101D9000E8FE3F20FEF7E5FE0F20FEF7E2FE2B20D7
:101DA000FEF7D6FE0020FEF7DCFE0020FEF7D9FE8F
:101DB0000120FEF7D6FE3F20FEF7D3FE2A20FEF7D5
:101DC000C7FE0020FEF7CDFE0020FEF7CAFE002071
:101DD000FEF7C7FEEF20FEF7C4FE1120FEF7B8FEA7
:101DE0007820FEF76AFD2920FEF7B2FE03F022B943
:101DF0006648808846F6040188427CD11120FEF7AF
:101E0000A7FE1420FEF759FDD020FEF7A1FE072003
:101E1000FEF7A7FE4220FEF7A4FE1D20FEF7A1FE5E
:101E2000D120FEF795FE0020FEF79BFE1A20FEF75C
:101E300098FE0920FEF795FED220FEF789FE0120CC
:101E4000FEF78FFE2220FEF78CFEC020FEF780FEFC
:101E50001020FEF786FE3B20FEF783FE0020FEF7F3
:101E600080FE0220FEF77DFE1120FEF77AFEC520DF
:101E7000FEF76EFE0320FEF774FEC820FEF768FE34
:101E80000020FEF76EFE2520FEF76BFE2120FEF7F8
:101E900068FE0520FEF765FE0020FEF762FE0A20C0
:101EA000FEF75FFE6520FEF75CFE2520FEF759FE7B
:101EB0007720FEF756FE5020FEF753FE0F20FEF768
:101EC00050FE0020FEF74DFEF820FEF741FE0120F7
:101ED000FEF747FEFE20FEF73BFE0020FEF741FE28
:101EE0000220FEF73EFE2020FEF732FE3620FEF7EF
:101EF0002FFE082000E02CE0FEF733FE3A20FEF72C
:101F000027FE5520FEF72DFE2B20FEF721FE002098
:101F1000FEF727FE0020FEF724FE0120FEF721FE3B
:101F20003F20FEF71EFE2A20FEF712FE0020FEF7DD
:101F300018FE0020FEF715FE0120FEF712FEDF203E
:101F4000FEF70FFE7820FEF7B8FC2920FEF700FE12
:101F50004CE70E48808845F21031884240F0848773
:101F6000ED20FEF7F5FD0120FEF7FBFDFE20FEF75C
:101F7000F8FDEE20FEF7ECFDDE20FEF7F2FD21205D
:101F8000FEF7EFFDF120FEF7E3FD09E0240300205A
:101F9000204C43442049443A25780D0A00000000B3
:101FA0000120FEF7DEFDDF20FEF7D2FD1020FEF758
:101FB000D8FDC420FEF7CCFD8F20FEF7D2FDC62051
:101FC000FEF7C6FD0020FEF7CCFDE220FEF7C9FDBE
:101FD000E220FEF7C6FDE220FEF7C3FDBF20FEF7BC
:101FE000B7FDAA20FEF7BDFDB020FEF7B1FD0D2024
:101FF000FEF7B7FD0020FEF7B4FD0D20FEF7B1FDA2
:102000000020FEF7AEFD1120FEF7ABFD0020FEF72D
:10201000A8FD1920FEF7A5FD0020FEF7A2FD212056
:10202000FEF79FFD0020FEF79CFD2D20FEF799FD99
:102030000020FEF796FD3D20FEF793FD0020FEF701
:1020400090FD5D20FEF78DFD0020FEF78AFD5D20EE
:10205000FEF787FD0020FEF784FDB120FEF778FD36
:102060008020FEF77EFD0020FEF77BFD8B20FEF733
:1020700078FD0020FEF775FD9620FEF772FD00202A
:10208000FEF76FFDB220FEF763FD0020FEF769FD4D
:102090000020FEF766FD0220FEF763FD0020FEF73C
:1020A00060FD0320FEF75DFD0020FEF75AFDB32022
:1020B000FEF74EFD0020FEF754FD0020FEF751FD17
:1020C0000020FEF74EFD0020FEF74BFD0020FEF73E
:1020D00048FD0020FEF745FD0020FEF742FD0020F0
:1020E000FEF73FFD0020FEF73CFD0020FEF739FD26
:1020F0000020FEF736FD0020FEF733FD0020FEF73E
:1021000030FD0020FEF72DFD0020FEF72AFD002007
:10211000FEF727FD0020FEF724FD0020FEF721FD3D
:102120000020FEF71EFD0020FEF71BFD0020FEF73D
:1021300018FD0020FEF715FD0020FEF712FD00201F
:10214000FEF70FFDB420FEF703FD8B20FEF709FD1F
:102150000020FEF706FD9620FEF703FD0020FEF7A7
:1021600000FDA120FEF7FDFC0020FEF7FAFCB520E3
:10217000FEF7EEFC0220FEF7F4FC0020FEF7F1FC77
:102180000320FEF7EEFC0020FEF7EBFC0420FEF738
:10219000E8FC0020FEF7E5FCB620FEF7D9FC0020A5
:1021A000FEF7DFFC0020FEF7DCFCB720FEF7D0FCDA
:1021B0000020FEF7D6FC0020FEF7D3FC3F20FEF700
:1021C000D0FC0020FEF7CDFC5E20FEF7CAFC00200C
:1021D000FEF7C7FC6420FEF7C4FC0020FEF7C1FC3C
:1021E0008C20FEF7BEFC0020FEF7BBFCAC20FEF707
:1021F000B8FC0020FEF7B5FCDC20FEF7B2FC0020A6
:10220000FEF7AFFC7020FEF7ACFC0020FEF7A9FC47
:102210009020FEF7A6FC0020FEF7A3FCEB20FEF7C3
:10222000A0FC0020FEF79DFCDC20FEF79AFC0020BD
:10223000FEF797FCB820FEF78BFC0020FEF791FC20
:102240000020FEF78EFC0020FEF78BFC0020FEF73E
:1022500088FC0020FEF785FC0020FEF782FC0020B1
:10226000FEF77FFC0020FEF77CFCBA20FEF770FC36
:102270002420FEF776FC0020FEF773FC0020FEF71A
:1022800070FC0020FEF76DFCC120FEF761FC2020F1
:10229000FEF767FC0020FEF764FC5420FEF761FCAB
:1022A0000020FEF75EFCFF20FEF75BFC0020FEF73F
:1022B00058FCC220FEF74CFC0A20FEF752FC00201E
:1022C000FEF74FFC0420FEF74CFC0020FEF749FC13
:1022D000C320FEF73DFC3C20FEF743FC0020FEF748
:1022E00040FC3A20FEF73DFC0020FEF73AFC392086
:1022F000FEF737FC0020FEF734FC3720FEF731FCF8
:102300000020FEF72EFC3C20FEF72BFC0020FEF701
:1023100028FC3620FEF725FC0020FEF722FC3220A8
:10232000FEF71FFC0020FEF71CFC2F20FEF719FC17
:102330000020FEF716FC2C20FEF713FC0020FEF711
:1023400010FC2920FEF70DFC0020FEF70AFC2620D9
:10235000FEF707FC0020FEF704FC2420FEF701FC3A
:102360000020FEF7FEFB2420FEF7FBFB0020FEF71B
:10237000F8FB2320FEF7F5FB0020FEF7F2FB3C20E4
:10238000FEF7EFFB0020FEF7ECFB3620FEF7E9FB43
:102390000020FEF7E6FB3220FEF7E3FB0020FEF70D
:1023A000E0FB2F20FEF7DDFB0020FEF7DAFB2C2000
:1023B000FEF7D7FB0020FEF7D4FB2920FEF7D1FB68
:1023C0000020FEF7CEFB2620FEF7CBFB0020FEF719
:1023D000C8FB2420FEF7C5FB0020FEF7C2FB24202B
:1023E000FEF7BFFB0020FEF7BCFB2320FEF7B9FB86
:1023F0000020FEF7B6FBC420FEF7AAFB6220FEF722
:10240000B0FB0020FEF7ADFB0520FEF7AAFB002085
:10241000FEF7A7FB8420FEF7A4FB0020FEF7A1FB3C
:10242000F020FEF79EFB0020FEF79BFB1820FEF736
:1024300098FB0020FEF795FBA420FEF792FB0020FE
:10244000FEF78FFB1820FEF78CFB0020FEF789FBC0
:102450005020FEF786FB0020FEF783FB0C20FEF7E2
:1024600080FB0020FEF77DFB1720FEF77AFB0020A3
:10247000FEF777FB9520FEF774FB0020FEF771FB5B
:10248000F320FEF76EFB0020FEF76BFBE620FEF765
:1024900068FB0020FEF765FBC520FEF759FB3220E4
:1024A000FEF75FFB0020FEF75CFB4420FEF759FBC4
:1024B0000020FEF756FB6520FEF753FB0020FEF7D9
:1024C00050FB7620FEF74DFB0020FEF74AFB8820EC
:1024D000FEF747FB0020FEF744FBC620FEF738FB63
:1024E0002020FEF73EFB0020FEF73BFB1720FEF707
:1024F00038FB0020FEF735FB0120FEF732FB002001
:10250000FEF72FFBC720FEF723FB0020FEF729FB79
:102510000020FEF726FB0020FEF723FB0020FEF73D
:1025200020FBC820FEF714FB0020FEF71AFB00205A
:10253000FEF717FB0020FEF714FB0020FEF711FB4F
:10254000C920FEF705FB0020FEF70BFB0020FEF77D
:1025500008FB0020FEF705FB0020FEF702FB002031
:10256000FEF7FFFA0020FEF7FCFA0020FEF7F9FA6A
:102570000020FEF7F6FA0020FEF7F3FA0020FEF73F
:10258000F0FA0020FEF7EDFA0020FEF7EAFA00204C
:10259000FEF7E7FA0020FEF7E4FA0020FEF7E1FA82
:1025A0000020FEF7DEFAE020FEF7D2FA1620FEF752
:1025B000D8FA0020FEF7D5FA1C20FEF7D2FA002048
:1025C000FEF7CFFA2120FEF7CCFA0020FEF7C9FA79
:1025D0003620FEF7C6FA0020FEF7C3FA4620FEF7C3
:1025E000C0FA0020FEF7BDFA5220FEF7BAFA00202A
:1025F000FEF7B7FA6420FEF7B4FA0020FEF7B1FA4E
:102600007A20FEF7AEFA0020FEF7ABFA8B20FEF739
:10261000A8FA0020FEF7A5FA9920FEF7A2FA0020FA
:10262000FEF79FFAA820FEF79CFA0020FEF799FA21
:10263000B920FEF796FA0020FEF793FAC420FEF7C1
:1026400090FA0020FEF78DFACA20FEF78AFA0020E1
:10265000FEF787FAD220FEF784FA0020FEF781FA0F
:10266000D920FEF77EFA0020FEF77BFAE020FEF785
:1026700078FA0020FEF775FAF320FEF772FA0020D0
:10268000FEF76FFAE120FEF763FA1620FEF769FA0B
:102690000020FEF766FA1C20FEF763FA0020FEF722
:1026A00060FA2220FEF75DFA0020FEF75AFA362083
:1026B000FEF757FA0020FEF754FA4520FEF751FACC
:1026C0000020FEF74EFA5220FEF74BFA0020FEF7EC
:1026D00048FA6420FEF745FA0020FEF742FA7A2015
:1026E000FEF73FFA0020FEF73CFA8B20FEF739FA9E
:1026F0000020FEF736FA9920FEF733FA0020FEF7A5
:1027000030FAA820FEF72DFA0020FEF72AFAB920A9
:10271000FEF727FA0020FEF724FAC420FEF721FA7C
:102720000020FEF71EFACA20FEF71BFA0020FEF773
:1027300018FAD220FEF715FA0020FEF712FAD82078
:10274000FEF70FFA0020FEF70CFAE020FEF709FA78
:102750000020FEF706FAF320FEF703FA0020FEF74A
:1027600000FAE220FEF7F4F90520FEF7FAF900205E
:10277000FEF7F7F90B20FEF7F4F90020FEF7F1F968
:102780001B20FEF7EEF90020FEF7EBF93420FEF7F0
:10279000E8F90020FEF7E5F94420FEF7E2F9002011
:1027A000FEF7DFF94F20FEF7DCF90020FEF7D9F93C
:1027B0006120FEF7D6F90020FEF7D3F97920FEF765
:1027C000D0F90020FEF7CDF98820FEF7CAF90020E5
:1027D000FEF7C7F99720FEF7C4F90020FEF7C1F90C
:1027E000A620FEF7BEF90020FEF7BBF9B720FEF7E2
:1027F000B8F90020FEF7B5F9C220FEF7B2F90020C3
:10280000FEF7AFF9C720FEF7ACF90020FEF7A9F9F3
:10281000D120FEF7A6F90020FEF7A3F9D620FEF797
:10282000A0F90020FEF79DF9DD20FEF79AF90020BF
:10283000FEF797F9F320FEF794F90020FEF791F9DF
:10284000E320FEF785F90520FEF78BF90020FEF75F
:1028500088F90A20FEF785F90020FEF782F91C208E
:10286000FEF77FF90020FEF77CF93320FEF779F9B7
:102870000020FEF776F94420FEF773F90020FEF7FA
:1028800070F95020FEF76DF90020FEF76AF962201A
:10289000FEF767F90020FEF764F97820FEF761F98A
:1028A0000020FEF75EF98820FEF75BF90020FEF7B6
:1028B00058F99720FEF755F90020FEF752F9A620A7
:1028C000FEF74FF90020FEF74CF9B720FEF749F963
:1028D0000020FEF746F9C220FEF743F90020FEF77C
:1028E00040F9C720FEF73DF90020FEF73AF9D12064
:1028F000FEF737F90020FEF734F9D520FEF731F95D
:102900000020FEF72EF9DD20FEF72BF90020FEF760
:1029100028F9F320FEF725F90020FEF722F9E4203C
:10292000FEF716F90120FEF71CF90020FEF719F951
:102930000120FEF716F90020FEF713F90220FEF73A
:1029400010F90020FEF70DF92A20FEF70AF9002001
:10295000FEF707F93C20FEF704F90020FEF701F925
:102960004B20FEF7FEF80020FEF7FBF85D20FEF797
:10297000F8F80020FEF7F5F87420FEF7F2F80020D2
:10298000FEF7EFF88420FEF7ECF80020FEF7E9F8F8
:102990009320FEF7E6F80020FEF7E3F8A220FEF70A
:1029A000E0F80020FEF7DDF8B320FEF7DAF80020AB
:1029B000FEF7D7F8BE20FEF7D4F80020FEF7D1F8D6
:1029C000C420FEF7CEF80020FEF7CBF8CD20FEF7AE
:1029D000C8F80020FEF7C5F8D320FEF7C2F80020A3
:1029E000FEF7BFF8DD20FEF7BCF80020FEF7B9F8CF
:1029F000F320FEF7B6F80020FEF7B3F8E520FEF767
:102A0000A7F80020FEF7ADF80020FEF7AAF8002096
:102A1000FEF7A7F80020FEF7A4F80220FEF7A1F8C1
:102A20000020FEF79EF82920FEF79BF80020FEF715
:102A300098F83C20FEF795F80020FEF792F84B201E
:102A4000FEF78FF80020FEF78CF85D20FEF789F87E
:102A50000020FEF786F87420FEF783F80020FEF7CA
:102A600080F88420FEF77DF80020FEF77AF89320A6
:102A7000FEF777F80020FEF774F8A220FEF771F851
:102A80000020FEF76EF8B320FEF76BF80020FEF78B
:102A900068F8BE20FEF765F80020FEF762F8C42053
:102AA000FEF75FF80020FEF75CF8CD20FEF759F83E
:102AB0000020FEF756F8D320FEF753F80020FEF76B
:102AC00050F8DC20FEF74DF80020FEF74AF8F3201E
:102AD000FEF747F80020FEF744F8E620FEF738F846
:102AE0001120FEF73EF80020FEF73BF83420FEF7F9
:102AF00038F80020FEF735F85620FEF732F80020AF
:102B0000FEF72FF87620FEF72CF80020FEF729F8C4
:102B10007720FEF726F80020FEF723F86620FEF760
:102B200020F80020FEF71DF88820FEF71AF8002094
:102B3000FEF717F89920FEF714F80020FEF711F8B9
:102B4000BB20FEF70EF80020FEF70BF89920FEF7E9
:102B500008F80020FEF705F86620FEF702F80020CE
:102B6000FDF7FFFF5520FDF7FCFF0020FDF7F9FF03
:102B70005520FDF7F6FF0020FDF7F3FF4520FDF798
:102B8000F0FF0020FDF7EDFF4320FDF7EAFF0020F6
:102B9000FDF7E7FF4420FDF7E4FF0020FDF7E1FF2C
:102BA000E720FDF7D5FF3220FDF7DBFF0020FDF722
:102BB000D8FF5520FDF7D5FF0020FDF7D2FF762086
:102BC000FDF7CFFF0020FDF7CCFF6620FDF7C9FF22
:102BD0000020FDF7C6FF6720FDF7C3FF0020FDF7CB
:102BE000C0FF6720FDF7BDFF0020FDF7BAFF87207B
:102BF000FDF7B7FF0020FDF7B4FF9920FDF7B1FF07
:102C00000020FDF7AEFFBB20FDF7ABFF0020FDF776
:102C1000A8FF9920FDF7A5FF0020FDF7A2FF772070
:102C2000FDF79FFF0020FDF79CFF4420FDF799FF73
:102C30000020FDF796FF5620FDF793FF0020FDF7DB
:102C400090FF2320FDF78DFF0020FDF78AFF332042
:102C5000FDF787FF0020FDF784FF4520FDF781FF8A
:102C60000020FDF77EFFE820FDF772FF0020FDF752
:102C700078FF0020FDF775FF9920FDF772FF002017
:102C8000FDF76FFF8720FDF76CFF0020FDF769FF60
:102C90008820FDF766FF0020FDF763FF7720FDF732
:102CA00060FF0020FDF75DFF6620FDF75AFF002062
:102CB000FDF757FF8820FDF754FF0020FDF751FF77
:102CC000AA20FDF74EFF0020FDF74BFFBB20FDF7CC
:102CD00048FF0020FDF745FF9920FDF742FF002047
:102CE000FDF73FFF6620FDF73CFF0020FDF739FFB1
:102CF0005520FDF736FF0020FDF733FF5520FDF787
:102D000030FF0020FDF72DFF4420FDF72AFF0020B3
:102D1000FDF727FF4420FDF724FF0020FDF721FFEA
:102D20005520FDF71EFF0020FDF71BFFE920FDF7F2
:102D30000FFFAA20FDF715FF0020FDF712FF00206E
:102D4000FDF70FFF0020FDF70CFF0020FDF700FF4F
:102D5000AA20FDF706FFCF20FDF7FAFE0020FDF7C1
:102D600000FF0020FDF7FDFE0020FDF7FAFE002029
:102D7000FDF7F7FE0020FDF7F4FE0020FDF7F1FE61
:102D80000020FDF7EEFE0020FDF7EBFE0020FDF732
:102D9000E8FE0020FDF7E5FE0020FDF7E2FE002042
:102DA000FDF7DFFE0020FDF7DCFE0020FDF7D9FE79
:102DB0000020FDF7D6FE0020FDF7D3FE0020FDF732
:102DC000D0FEF020FDF7C4FE0020FDF7CAFE502023
:102DD000FDF7C7FE0020FDF7C4FE0020FDF7C1FE91
:102DE0000020FDF7BEFEF320FDF7B2FE0020FDF748
:102DF000B8FEF920FDF7ACFE0620FDF7B2FE10206C
:102E0000FDF7AFFE2920FDF7ACFE0020FDF7A9FE7F
:102E10003A20FDF79DFE5520FDF7A3FE1120FDF79A
:102E200097FE6420FDF749FD2920FDF791FE35202E
:102E3000FDF78EFE0020FDF794FE5120FDF788FE81
:102E4000FF20FDF78EFE5320FDF782FE2C20FDF7BC
:102E500088FE5520FDF77CFE8220FDF782FE2C20A7
:102E6000FDF776FE02F0E6B8FE48808845F2105184
:102E700088427DD155214FF47040FDF784FEAA2190
:102E80004FF20100FDF77FFE52214FF20200FDF7E5
:102E90007AFE08214FF20300FDF775FE01214FF283
:102EA0000400FDF770FE0D214FF43040FDF76BFE7E
:102EB0000D214BF20100FDF766FE0D214BF20200E1
:102EC000FDF761FE34214FF43640FDF75CFE3421FE
:102ED0004BF20160FDF757FE34214BF20260FDF723
:102EE00052FE0D214FF43140FDF74DFE0D214BF206
:102EF0000110FDF748FE0D214BF20210FDF743FED5
:102F000034214FF43740FDF73EFE34214BF201707F
:102F1000FDF739FE34214BF20270FDF734FE00213B
:102F20004FF43240FDF72FFE00214BF20120FDF758
:102F30002AFE00214BF20220FDF725FE24214FF44A
:102F40003840FDF720FE24214BF60100FDF71BFE63
:102F500024214BF60200FDF716FE01214FF43F40FD
:102F6000FDF711FE0F214FF43340FDF70CFE00E09A
:102F7000FDE30F214BF20130FDF705FE0F214BF26F
:102F80000230FDF700FE34214FF43940FDF7FBFD20
:102F900034214BF60110FDF7F6FD34214BF60210FB
:102FA000FDF7F1FD08214FF43540FDF7ECFD082158
:102FB0004BF20150FDF7E7FD08214BF20250FDF7FF
:102FC000E2FD03214FF44240FDF7DDFD24214FF4E3
:102FD0003A40FDF7D8FD24214BF60120FDF7D3FD43
:102FE00024214BF60220FDF7CEFD00214FF43C409A
:102FF000FDF7C9FD78214BF60140FDF7C4FD002126
:103000004BF60240FDF7BFFD00214FF43D40FDF7B8
:10301000BAFD78214BF60150FDF7B5FD00214BF6C6
:103020000250FDF7B0FD00214FF43E40FDF7ABFD2F
:1030300064214BF60160FDF7A6FD00214FF45140DD
:10304000FDF7A1FD33214DF20110FDF79CFD00219C
:103050004DF20210FDF797FD34214DF20310FDF7FC
:1030600092FD00214DF20410FDF78DFD3A214DF245
:103070000510FDF788FD00214DF20610FDF783FDD8
:103080004A214DF20710FDF77EFD00214DF2081098
:10309000FDF779FD5C214DF20910FDF774FD00216B
:1030A0004DF20A10FDF76FFD81214DF20B10FDF777
:1030B0006AFD00214DF20C10FDF765FDA6214DF2D1
:1030C0000D10FDF760FD00214DF20E10FDF75BFDC8
:1030D000E5214DF20F10FDF756FD01214DF21010C4
:1030E000FDF751FD13214DF21110FDF74CFD0121AB
:1030F0004DF21210FDF747FD54214DF21310FDF76C
:1031000042FD01214DF21410FDF73DFD82214DF2EB
:103110001510FDF738FD01214DF21610FDF733FDB6
:10312000CA214DF21710FDF72EFD02214DF21810A5
:10313000FDF729FD00214DF21910FDF724FD0221B4
:103140004DF21A10FDF71FFD01214DF21B10FDF786
:103150001AFD02214DF21C10FDF715FD34214DF230
:103160001D10FDF710FD02214DF21E10FDF70BFDA5
:1031700067214DF21F10FDF706FD02214DF22010D0
:10318000FDF701FD84214DF22110FDF7FCFC022129
:103190004DF22210FDF7F7FCA4214DF22310FDF7AC
:1031A000F2FC02214DF22410FDF7EDFCB7214DF2A7
:1031B0002510FDF7E8FC02214DF22610FDF7E3FC97
:1031C000CF214DF22710FDF7DEFC02214DF2281031
:1031D000FDF7D9FCDE214DF22910FDF7D4FC0221C8
:1031E0004DF22A10FDF7CFFCF2214DF22B10FDF726
:1031F000CAFC02214DF22C10FDF7C5FCFE214DF258
:103200002D10FDF7C0FC03214DF22E10FDF7BBFC85
:1032100010214DF22F10FDF7B6FC03214DF23010B6
:10322000FDF7B1FC33214DF23110FDF7ACFC032169
:103230004DF23210FDF7A7FC6D214DF23310FDF772
:10324000A2FC00214FF45240FDF79DFC33214DF2CA
:103250000120FDF798FC00214DF20220FDF793FCC0
:10326000342101E0240300204DF20320FDF78BFC04
:1032700000214DF20420FDF786FC3A214DF2052095
:10328000FDF781FC00214DF20620FDF77CFC4A2170
:103290004DF20720FDF777FC00214DF20820FDF7E5
:1032A00072FC5C214DF20920FDF76DFC00214DF20E
:1032B0000A20FDF768FC81214DF20B20FDF763FC2D
:1032C00000214DF20C20FDF75EFCA6214DF20D20F1
:1032D000FDF759FC00214DF20E20FDF754FCE521CD
:1032E0004DF20F20FDF74FFC01214DF21020FDF7AC
:1032F0004AFC13214DF21120FDF745FC01214DF24E
:103300001220FDF740FC54214DF21320FDF73BFC49
:1033100001214DF21420FDF736FC82214DF21520DB
:10332000FDF731FC01214DF21620FDF72CFCCA21DE
:103330004DF21720FDF727FC02214DF21820FDF772
:1033400022FC00214DF21920FDF71DFC02214DF257
:103350001A20FDF718FC01214DF21B20FDF713FC8C
:1033600002214DF21C20FDF70EFC34214DF21D20F0
:10337000FDF709FC02214DF21E20FDF704FC672138
:103380004DF21F20FDF7FFFB02214DF22020FDF73B
:10339000FAFB84214DF22120FDF7F5FB02214DF2CD
:1033A0002220FDF7F0FBA4214DF22320FDF7EBFBDB
:1033B00002214DF22420FDF7E6FBB7214DF2252036
:1033C000FDF7E1FB02214DF22620FDF7DCFBCF21CA
:1033D0004DF22720FDF7D7FB02214DF22820FDF703
:1033E000D2FBDE214DF22920FDF7CDFB02214DF26B
:1033F0002A20FDF7C8FBF2214DF22B20FDF7C3FB7D
:1034000002214DF22C20FDF7BEFBFE214DF22D20B6
:10341000FDF7B9FB03214DF22E20FDF7B4FB10217F
:103420004DF22F20FDF7AFFB03214DF23020FDF7C9
:10343000AAFB33214DF23120FDF7A5FB03214DF20C
:103440003220FDF7A0FB6D214DF23320FDF79BFBF1
:1034500000214FF45340FDF796FB33214DF201302C
:10346000FDF791FB00214DF20230FDF78CFB34217A
:103470004DF20330FDF787FB00214DF20430FDF7DC
:1034800082FB3A214DF20530FDF77DFB00214DF224
:103490000630FDF778FB4A214DF20730FDF773FB4C
:1034A00000214DF20830FDF76EFB5C214DF2093032
:1034B000FDF769FB00214DF20A30FDF764FB812125
:1034C0004DF20B30FDF75FFB00214DF20C30FDF7A4
:1034D0005AFBA6214DF20D30FDF755FB00214DF2B0
:1034E0000E30FDF750FBE5214DF20F30FDF74BFBA1
:1034F00001214DF21030FDF746FB13214DF2113042
:10350000FDF741FB01214DF21230FDF73CFB542148
:103510004DF21330FDF737FB01214DF21430FDF76A
:1035200032FB82214DF21530FDF72DFB01214DF2CA
:103530001630FDF728FBCA214DF21730FDF723FBAB
:1035400002214DF21830FDF71EFB00214DF219301B
:10355000FDF719FB02214DF21A30FDF714FB012192
:103560004DF21B30FDF70FFB02214DF21C30FDF731
:103570000AFB34214DF21D30FDF705FB02214DF20F
:103580001E30FDF700FB67214DF21F30FDF7FBFAFF
:1035900002214DF22030FDF7F6FA84214DF2213060
:1035A000FDF7F1FA02214DF22230FDF7ECFAA421E9
:1035B0004DF22330FDF7E7FA02214DF22430FDF7FA
:1035C000E2FAB7214DF22530FDF7DDFA02214DF286
:1035D0002630FDF7D8FACF214DF22730FDF7D3FA88
:1035E00002214DF22830FDF7CEFADE214DF22930CE
:1035F000FDF7C9FA02214DF22A30FDF7C4FAF22193
:103600004DF22B30FDF7BFFA02214DF22C30FDF7C1
:10361000BAFAFE214DF22D30FDF7B5FA03214DF235
:103620002E30FDF7B0FA10214DF22F30FDF7ABFA36
:1036300003214DF23030FDF7A6FA33214DF231303F
:10364000FDF7A1FA03214DF23230FDF79CFA6D210E
:103650004DF23330FDF797FA00214FF45440FDF757
:1036600092FA33214DF20140FDF78DFA00214DF21F
:103670000240FDF788FA34214DF20340FDF783FA4A
:1036800000214DF20440FDF77EFA3A214DF205404B
:10369000FDF779FA00214DF20640FDF774FA4A2150
:1036A0004DF20740FDF76FFA00214DF20840FDF79B
:1036B0006AFA5C214DF20940FDF765FA00214DF2EE
:1036C0000A40FDF760FA81214DF20B40FDF75BFAED
:1036D00000214DF20C40FDF756FAA6214DF20D40A7
:1036E000FDF751FA00214DF20E40FDF74CFAE521AD
:1036F0004DF20F40FDF747FA01214DF21040FDF762
:1037000042FA13214DF21140FDF73DFA01214DF22D
:103710001240FDF738FA54214DF21340FDF733FA09
:1037200001214DF21440FDF72EFA82214DF2154091
:10373000FDF729FA01214DF21640FDF724FACA21BE
:103740004DF21740FDF71FFA02214DF21840FDF728
:103750001AFA00214DF21940FDF715FA02214DF237
:103760001A40FDF710FA01214DF21B4000E006E37C
:10377000FDF709FA02214DF21C40FDF704FA34214D
:103780004DF21D40FDF7FFF902214DF21E40FDF7FD
:10379000FAF967214DF21F40FDF7F5F902214DF2CC
:1037A0002040FDF7F0F984214DF22140FDF7EBF9BF
:1037B00002214DF22240FDF7E6F9A4214DF223400B
:1037C000FDF7E1F902214DF22440FDF7DCF9B721C4
:1037D0004DF22540FDF7D7F902214DF22640FDF7C5
:1037E000D2F9CF214DF22740FDF7CDF902214DF25C
:1037F0002840FDF7C8F9DE214DF22940FDF7C3F955
:1038000002214DF22A40FDF7BEF9F2214DF22B4084
:10381000FDF7B9F902214DF22C40FDF7B4F9FE2174
:103820004DF22D40FDF7AFF903214DF22E40FDF78B
:10383000AAF910214DF22F40FDF7A5F903214DF211
:103840003040FDF7A0F933214DF23140FDF79BF9EF
:1038500003214DF23240FDF796F96D214DF23340D0
:10386000FDF791F900214FF45540FDF78CF9332114
:103870004DF20150FDF787F900214DF20250FDF79E
:1038800082F934214DF20350FDF77DF900214DF20C
:103890000450FDF778F93A214DF20550FDF773F920
:1038A00000214DF20650FDF76EF94A214DF2075006
:1038B000FDF769F900214DF20850FDF764F95C212C
:1038C0004DF20950FDF75FF900214DF20A50FDF766
:1038D0005AF981214DF20B50FDF755F900214DF2B7
:1038E0000C50FDF750F9A6214DF20D50FDF74BF9A4
:1038F00000214DF20E50FDF746F9E5214DF20F5033
:10390000FDF741F901214DF21050FDF73CF913216B
:103910004DF21150FDF737F901214DF21250FDF72C
:1039200032F954214DF21350FDF72DF901214DF2DA
:103930001450FDF728F982214DF21550FDF723F9B7
:1039400001214DF21650FDF71EF9CA214DF2175014
:10395000FDF719F902214DF21850FDF714F9002175
:103960004DF21950FDF70FF902214DF21A50FDF7F3
:103970000AF901214DF21B50FDF705F902214DF224
:103980001C50FDF700F934214DF21D50FDF7FBF8F6
:1039900002214DF21E50FDF7F6F867214DF21F503F
:1039A000FDF7F1F802214DF22050FDF7ECF88421EB
:1039B0004DF22150FDF7E7F802214DF22250FDF7BC
:1039C000E2F8A4214DF22350FDF7DDF802214DF27B
:1039D0002450FDF7D8F8B7214DF22550FDF7D3F864
:1039E00002214DF22650FDF7CEF8CF214DF227509F
:1039F000FDF7C9F802214DF22850FDF7C4F8DE2189
:103A00004DF22950FDF7BFF802214DF22A50FDF783
:103A1000BAF8F2214DF22B50FDF7B5F802214DF224
:103A20002C50FDF7B0F8FE214DF22D50FDF7ABF80C
:103A300003214DF22E50FDF7A6F810214DF22F5024
:103A4000FDF7A1F803214DF23050FDF79CF833212A
:103A50004DF23150FDF797F803214DF23250FDF74A
:103A600092F86D214DF23350FDF78DF800214FF49F
:103A70005640FDF788F833214DF20160FDF783F8D9
:103A800000214DF20260FDF77EF834214DF2036013
:103A9000FDF779F800214DF20460FDF774F83A2142
:103AA0004DF20560FDF76FF800214DF20660FDF75D
:103AB0006AF84A214DF20760FDF765F800214DF2E2
:103AC0000860FDF760F85C214DF20960FDF75BF8D6
:103AD00000214DF20A60FDF756F881214DF20B608E
:103AE000FDF751F800214DF20C60FDF74CF8A621CE
:103AF0004DF20D60FDF747F800214DF20E60FDF725
:103B000042F8E5214DF20F60FDF73DF801214DF23D
:103B10001060FDF738F813214DF21160FDF733F80E
:103B200001214DF21260FDF72EF854214DF2136081
:103B3000FDF729F801214DF21460FDF724F88221E8
:103B40004DF21560FDF71FF801214DF21660FDF7EB
:103B50001AF8CA214DF21760FDF715F802214DF24F
:103B60001860FDF710F800214DF21960FDF70BF811
:103B700002214DF21A60FDF706F801214DF21B609B
:103B8000FDF701F802214DF21C60FCF7FCFF342127
:103B90004DF21D60FCF7F7FF02214DF21E60FCF7AD
:103BA000F2FF67214DF21F60FCF7EDFF02214DF29D
:103BB0002060FCF7E8FF84214DF22160FCF7E3FF71
:103BC00002214DF22260FCF7DEFFA4214DF22360BA
:103BD000FCF7D9FF02214DF22460FCF7D4FFB72196
:103BE0004DF22560FCF7CFFF02214DF22660FCF775
:103BF000CAFFCF214DF22760FCF7C5FF02214DF22D
:103C00002860FCF7C0FFDE214DF22960FCF7BBFF06
:103C100002214DF22A60FCF7B6FFF2214DF22B6033
:103C2000FCF7B1FF02214DF22C60FCF7ACFFFE2146
:103C30004DF22D60FCF7A7FF03214DF22E60FCF73B
:103C4000A2FF10214DF22F60FCF79DFF03214DF2E2
:103C50003060FCF798FF33214DF23160FCF793FFA1
:103C600003214DF23260FCF78EFF6D214DF233607F
:103C7000FCF789FF55214FF47040FCF784FFAA211F
:103C80004FF20100FCF77FFF52214FF20200FCF7D8
:103C90007AFF08214FF20300FCF775FF00214FF275
:103CA0000400FCF770FFCC214FF43140FCF76BFFB0
:103CB00000214BF20110FCF766FF05214FF436405E
:103CC000FCF761FF70214FF43740FCF75CFF702177
:103CD0004BF20170FCF757FF01214FF43840FCF71D
:103CE00052FF03214BF60100FCF74DFF03214BF679
:103CF0000200FCF748FF03214BF60300FCF743FFEB
:103D000002214FF43C40FCF73EFF00214BF60140FE
:103D1000FCF739FF00214BF60240FCF734FFD021BD
:103D20004FF44940FCF72FFF02214CF60110FCF73D
:103D30002AFF50214CF60210FCF725FF50214CF6CB
:103D40000310FCF720FF50214CF60410FCF71BFF7A
:103D500000214FF45450FCF716FF55214FF46850E2
:103D6000FCF711FF4FF48850FCF7F2FE7820FCF7C7
:103D700080FD4FF42450FCF7EBFE01F05BB9FE48E8
:103D8000808849F2253188427ED147F6F001E5204E
:103D9000FCF7F9FE4FF480710120FCF7F4FE4FF4BC
:103DA000E0610220FCF7EFFE41F230010320FCF756
:103DB000EAFE00210420FCF7E6FE40F20221082082
:103DC000FCF7E1FE00210920FCF7DDFE00210A20BE
:103DD000FCF7D9FE00210C20FCF7D5FE00210D20B8
:103DE000FCF7D1FE00210F20FCF7CDFE00211020B2
:103DF000FCF7C9FE07211120FCF7C5FE00211220A7
:103E0000FCF7C1FE00211320FCF7BDFE00210720B6
:103E1000FCF7B9FE41F290611020FCF7B4FE40F2CD
:103E200027211120FCF7AFFE9D211220FCF7ABFEED
:103E30004FF4C8511320FCF7A6FE25212920FCF7DA
:103E4000A2FE0D212B20FCF79EFE07213020FCF75F
:103E50009AFE40F203313120FCF795FE0321322017
:103E6000FCF791FE40F206213520FCF78CFE08217C
:103E70003620FCF788FE40F206413720FCF783FE2F
:103E80004FF44171382000E057E0FCF77CFE072139
:103E90003920FCF778FE40F202613C20FCF773FE0B
:103EA00008213D20FCF76FFE00215020FCF76BFE3F
:103EB000EF215120FCF767FE00215220FCF763FE42
:103EC00040F23F115320FCF75EFE4FF42741602083
:103ED000FCF759FE01216120FCF755FE00216A2004
:103EE000FCF751FE00218020FCF74DFE00218120CF
:103EF000FCF749FE00218220FCF745FE00218320CB
:103F0000FCF741FE00218420FCF73DFE00218520C6
:103F1000FCF739FE10219020FCF735FE4FF4C0610C
:103F20009220FCF730FE40F233110720FCF72BFE05
:103F300022210020FCF727FE1FE78F48808849F2E6
:103F4000283188427ED141F28F01EC20FCF71BFE24
:103F500041F23421EF20FCF716FE4FF4807101206E
:103F6000FCF711FE4FF4E0610220FCF70CFE41F279
:103F700030010320FCF707FE00210420FCF703FEBC
:103F800040F202210820FCF7FEFD00210920FCF789
:103F9000FAFD00210A20FCF7F6FD01210C20FCF7B8
:103FA000F2FD00210D20FCF7EEFD00210F20FCF7B3
:103FB000EAFD00211020FCF7E6FD07211120FCF7A7
:103FC000E2FD00211220FCF7DEFD00211320FCF7AA
:103FD000DAFD01210720FCF7D6FD3220FCF76DFC4D
:103FE00041F290411020FCF7CEFD40F22721112034
:103FF000FCF7C9FD3220FCF760FC8A211220FCF797
:10400000C2FD3220FCF759FC4FF4D0511320FCF7CD
:10401000BAFD06212920FCF7B6FD0D212B20FCF767
:10402000B2FD3220FCF749FC00212020FCF7ABFD5B
:1040300000212120FCF7A7FD3220FCF73EFC0021E7
:10404000302000E074E0FCF79EFD40F20461312076
:10405000FCF799FD40F205313220FCF794FD002178
:104060003520FCF790FD40F609413620FCF78BFD2A
:104070004FF401713720FCF786FD40F20131382002
:10408000FCF781FD40F207713920FCF77CFD00212F
:104090003C20FCF778FD40F60A213D20FCF773FD3B
:1040A0003220FCF70AFC00215020FCF76CFDEF21C8
:1040B0005120FCF768FD00215220FCF764FD40F21E
:1040C0003F115320FCF75FFD4FF427416020FCF7C0
:1040D0005AFD01216120FCF756FD00216A20FCF702
:1040E00052FD00218020FCF74EFD00218120FCF7CD
:1040F0004AFD00218220FCF746FD00218320FCF7C9
:1041000042FD00218420FCF73EFD00218520FCF7C4
:104110003AFD10219020FCF736FD4FF4C06192204B
:10412000FCF731FD40F233110720FCF72CFD24E6AB
:104130001148808849F2203188427DD1002108460B
:10414000FCF721FD4FF480710120FCF71CFD4FF4BA
:10415000E0610220FCF717FD41F230010320FCF77B
:1041600012FD00210420FCF70EFD40F20221082080
:10417000FCF709FD002101E0240300200920FCF7E1
:1041800002FD00210A20FCF7FEFC01210C20FCF7B7
:10419000FAFC00210D20FCF7F6FC00210F20FCF7B3
:1041A000F2FC3220FCF789FB40F201110720FCF7FA
:1041B000EAFC3220FCF781FB4FF486511020FCF71B
:1041C000E2FC07211120FCF7DEFC4FF4887112207D
:1041D000FCF7D9FC4FF430611320FCF7D4FC00212C
:1041E0002920FCF7D0FC44F210012B20FCF7CBFC7B
:1041F00000215020FCF7C7FCEF215120FCF7C3FC45
:1042000000215220FCF7BFFC40F23F115320FCF785
:10421000BAFC4FF41C516020FCF7B5FC0121612071
:10422000FCF7B1FC00216A20FCF7ADFC00218020E6
:10423000FCF7A9FC002100E031E08120FCF7A3FCA1
:1042400000218220FCF79FFC00218320FCF79BFCCF
:1042500000218420FCF797FC00218520FCF793FCCB
:1042600010219020FCF78FFC00219220FCF78BFCA2
:1042700001219320FCF787FC4FF488719520FCF70F
:1042800082FC00219720FCF77EFC00219820FCF79F
:104290007AFC40F273110720FCF775FC6DE5FE48CF
:1042A000808849F2313188427DD141F21401E72002
:1042B000FCF769FC4FF480710120FCF764FC4FF4BB
:1042C00000710220FCF75FFC41F238010320FCF78B
:1042D0005AFC40F202210820FCF755FC002109207D
:1042E000FCF751FC00210A20FCF74DFC00210C20BA
:1042F000FCF749FC00210D20FCF745FC00210F20B4
:10430000FCF741FC00211020FCF73DFC07211120A7
:10431000FCF739FC00211220FCF735FC00211320AA
:10432000FCF731FCC820FCF7C8FA41F2906110207C
:10433000FCF729FC40F227211120FCF724FC322055
:10434000FCF7BBFA0C211220FCF71DFC3220FCF715
:10435000B4FA4FF400611320FCF715FC1121292059
:10436000FCF711FC0B212B20FCF70DFC3220FCF795
:10437000A4FA00212020FCF706FC40F23F11212086
:10438000FCF701FC00213020FCF7FDFB4FF48371AA
:104390003120FCF7F8FB00213220FCF7F4FB4FF44E
:1043A0000171352000E064E0FCF7EDFB41F20A61A9
:1043B0003620FCF7E8FB40F207713720FCF7E3FBFF
:1043C0004FF483713820FCF7DEFB40F2077139208F
:1043D000FCF7D9FB40F202413C20FCF7D4FB40F64D
:1043E0000F413D20FCF7CFFB00215020FCF7CBFB19
:1043F000EF215120FCF7C7FB00215220FCF7C3FB43
:1044000040F23F115320FCF7BEFB4FF41C516020DB
:10441000FCF7B9FB01216120FCF7B5FB00216A2004
:10442000FCF7B1FB00218020FCF7ADFB00218120CF
:10443000FCF7A9FB00218220FCF7A5FB00218320CB
:10444000FCF7A1FB00218420FCF79DFB00218520C7
:10445000FCF799FB10219020FCF795FB4FF4C0610D
:104460009220FCF790FB40F233110720FCF78BFB06
:1044700083E48948808845F2084188427ED14FF420
:1044800080710120FCF77FFB4FF4E0610220FCF714
:104490007AFB41F230010320FCF775FB0021042078
:1044A000FCF771FB40F207210820FCF76CFB0021B0
:1044B0000920FCF768FB00210A20FCF764FB0021BF
:1044C0000C20FCF760FB00210D20FCF75CFB0021B9
:1044D0000F20FCF758FB1420FCF7EFF941F2B06114
:1044E0001020FCF750FB01211120FCF74CFB0121AF
:1044F0001720FCF748FB4FF49C711220FCF743FB9C
:104500004FF400611320FCF73EFB09212920FCF742
:104510003AFB09212A20FCF736FB0021A420FCF7F6
:1045200032FB00215020FCF72EFBEF215120FCF73D
:104530002AFB00215220FCF726FB40F23F115320BA
:10454000FCF721FB4FF41C516020FCF71CFB012100
:104550006120FCF718FB00216A20FCF714FB002106
:104560008020FCF710FB00218120FCF70CFB0021D0
:104570008220FCF708FB0021832000E023E0FCF709
:1045800002FB00218420FCF7FEFA00218520FCF7C5
:10459000FAFA13219020FCF7F6FA00219220FCF79A
:1045A000F2FA03219320FCF7EEFA4FF4887195207C
:1045B000FCF7E9FA40F273110720FCF7E4FA322025
:1045C000FCF77BF9B8E43448808841F20551884211
:1045D0007ED100210720FCF7D6FA3220FCF76DF9D6
:1045E0004FF48E711220FCF7CEFA0121A420FCF7C3
:1045F000CAFA0F210820FCF7C6FA08210A20FCF7A6
:10460000C2FA08210D20FCF7BEFA40F207713020F3
:10461000FCF7B9FA07213120FCF7B5FA40F2036143
:104620003220FCF7B0FA4FF4E0613320FCF7ABFA2C
:1046300040F202213420FCF7A6FA02213520FCF7D3
:10464000A2FA41F60F713620FCF79DFA40F207718D
:104650003720FCF798FA00213820FCF794FA002163
:104660003920FCF790FA40F207713A20FCF78BFAF8
:1046700000213B20FCF787FA07213C20FCF783FA56
:1046800000213D20FCF77FFA3220FCF716F90121CA
:104690000720FCF778FA01E024030020012117200D
:1046A000FCF771FA3220FCF708F94FF4BD511020E5
:1046B000FCF769FA40F217211120FCF764FA4FF475
:1046C0008F711220FCF75FFA4FF47061132000E045
:1046D00097E0FCF758FA00212A20FCF754FA0A2147
:1046E0002920FCF750FA4FF49F711220FCF74BFA87
:1046F00000215020FCF747FAEF215120FCF743FA44
:1047000000215220FCF73FFA40F23F115320FCF702
:104710003AFA4FF41C516020FCF735FA0121612070
:10472000FCF731FA00216A20FCF72DFA00218020E5
:10473000FCF729FA00218120FCF725FA00218220CC
:10474000FCF721FA00218320FCF71DFA00218420C8
:10475000FCF719FA00218520FCF715FA13219020A7
:10476000FCF711FA4FF440719220FCF70CFA052186
:104770009320FCF708FA00219520FCF704FA0021A9
:104780009720FCF700FA00219820FCF7FCF94FF481
:1047900080710120FCF7F7F94FF4E0610220FCF78B
:1047A000F2F941F238010320FCF7EDF90021042071
:1047B000FCF7E9F900210C20FCF7E5F900210F20B6
:1047C000FCF7E1F900212020FCF7DDF90021212090
:1047D000FCF7D9F921210720FCF7D5F91420FCF7C3
:1047E0006CF861210720FCF7CEF91420FCF765F87E
:1047F00040F273110720FCF7C6F91420FCF75DF8AE
:1048000095E4FE4880884BF2055188427ED1002114
:104810000846FCF7B8F900210846FCF7B4F9002176
:104820000846FCF7B0F900210846FCF7ACF9012175
:10483000A420FCF7A8F91420FCF73FF84FF41C5112
:104840006020FCF7A0F940F202210820FCF79BF958
:104850004FF405713020FCF796F943F215713120C1
:10486000FCF791F940F204613220FCF78CF940F634
:1048700016613320FCF787F942F211213420FCF74E
:1048800082F94FF4A8513520FCF77DF948F2075121
:104890003620FCF778F941F207413720FCF773F92D
:1048A00041F203413820FCF76EF920213920FCF752
:1048B0006AF91A219020FCF766F900211020FCF714
:1048C00062F907211120FCF75EF900211220FCF7A4
:1048D0005AF900211320FCF756F91420FBF7EDFFDD
:1048E0004FF4E6611020FCF74EF940F23711112029
:1048F000FCF749F91420FBF7E0FF4FF4DC711220BC
:10490000FCF741F91420FBF7D8FF00E083E04FF4F7
:1049100070611320FCF737F980212A20FCF733F966
:1049200048212920FCF72FF91420FBF7C6FF4FF48C
:1049300080710120FCF727F94FF4E0610220FCF7B9
:1049400022F941F238010320FCF71DF940F202215F
:104950000820FCF718F900210A20FCF714F90021BF
:104960000C20FCF710F900210D20FCF70CF9302188
:104970000E20FCF708F900215020FCF704F9EF2184
:104980005120FCF700F900215220FCF7FCF840F21E
:104990003F115320FCF7F7F84FF41C516020FCF74F
:1049A000F2F801216120FCF7EEF800216A20FCF703
:1049B000EAF811219020FCF7E6F84FF4C06192204C
:1049C000FCF7E1F840F202419320FCF7DCF8022109
:1049D0009420FCF7D8F81420FBF76FFF0121072083
:1049E000FCF7D1F81420FBF768FF61210720FCF7E2
:1049F000CAF840F273110720FCF7C5F80021202007
:104A0000FCF7C1F800212120FCF7BDF8222100208D
:104A1000FCF7B9F80EE3794880884CF205518842DA
:104A20007ED100210846FCF7AEF800210846FCF7CD
:104A3000AAF81420FBF741FF00210846FCF7A3F871
:104A400000210846FCF79FF800210846FCF79BF878
:104A500000210846FCF797F80121A420FCF793F801
:104A60001420FBF72AFF4FF41C516020FCF78BF851
:104A700040F606010820FCF786F840F2037130206A
:104A8000FCF781F801213120FCF77DF80421322068
:104A9000FCF779F84FF481713320FCF774F84FF488
:104AA00040713420FCF76FF840F203113520FCF719
:104AB0006AF81F213620FCF766F840F203713720B0
:104AC000FCF761F801213820FCF75DF8042139205A
:104AD000FCF759F815219020FCF755F84FF4826146
:104AE0001020FCF750F840F247211120FCF74BF85A
:104AF0004FF4DE711220FCF746F84FF4606113208A
:104B0000FCF741F87820FBF7D8FE4FF480710120C4
:104B1000FCF739F84FF400710220FCF734F800E09C
:104B200050E041F230010320FCF72DF808210A2063
:104B3000FCF729F800210C20FCF725F820210E2095
:104B4000FCF721F800210F20FCF71DF800212020A0
:104B5000FCF719F800212120FCF715F83D212A2047
:104B6000FCF711F81420FBF7A8FE2D212920FCF7F3
:104B70000AF800215020FCF706F84DF2EF01512011
:104B8000FCF701F800215220FBF7FDFF40F23F1136
:104B90005320FBF7F8FF00216120FBF7F4FF002111
:104BA0006A20FBF7F0FF4FF440719220FBF7EBFF18
:104BB00005219320FBF7E7FF4FF480710720FBF7F7
:104BC000E2FF37E20D48808844F2315188427CD1BF
:104BD00001210020FBF7D7FF0A20FBF76EFE41F210
:104BE00028611020FBF7CFFF0E211220FBF7CBFF2F
:104BF00040F639211320FBF7C6FF01E02403002013
:104C00000A20FBF75AFE40211120FBF7BCFF502180
:104C10001520FBF7B8FF0A20FBF74FFE1E211220DC
:104C2000FBF7B1FF0A20FBF748FE4FF4B15110200B
:104C3000FBF7A9FF42F639211320FBF7A4FF0A2056
:104C4000FBF73BFE4FF480710120FBF79CFF4FF414
:104C500040710220FBF797FF41F238010320FBF778
:104C600092FF40F202210820FBF78DFF08210A2065
:104C7000FBF789FF00213020FBF785FF40F202415E
:104C80003120FBF780FF4FF483713220FBF77BFF6D
:104C900040F203513320FBF776FF4FF4827134204A
:104CA000FBF771FF40F201313520FBF76CFF40F25A
:104CB00007713620FBF767FF40F205313720FBF71D
:104CC00062FF4FF40271382000E040E0FBF75BFF29
:104CD00040F60B713920FBF756FF02214120FBF70C
:104CE00052FF4FF41C516020FBF74DFF0121612062
:104CF000FBF749FF4FF404719020FBF744FF4FF49A
:104D000085719220FBF73FFF04219320FBF73BFFC7
:104D10004FF48071A020FBF736FF01210720FBF73D
:104D200032FF21210720FBF72EFF23210720FBF76D
:104D30002AFF33210720FBF726FF40F2331107201B
:104D4000FBF721FF0021A020FBF71DFF72E1FA48CD
:104D5000808844F2355188427ED130211520FBF7FE
:104D600012FF10219A20FBF70EFF20211120FBF7E4
:104D70000AFF43F228411020FBF705FF0221122011
:104D8000FBF701FF41F238011320FBF7FCFE28205E
:104D9000FBF793FD12210846FBF7F5FE2820FBF7F1
:104DA0008CFD43F220411020FBF7EDFE43F2380169
:104DB0001320FBF7E8FE4620FBF77FFD00213020A3
:104DC000FBF7E1FE40F202413120FBF7DCFE40F24E
:104DD00007313220FBF7D7FE4FF441713320FBF748
:104DE000D2FE04213420FBF7CEFE40F201413520F3
:104DF000FBF7C9FE40F207713620FBF7C4FE40F214
:104E000005313720FBF7BFFE4FF4C2613820FBF7B6
:104E1000BAFE4FF4C2613920FBF7B5FE4FF4807142
:104E20000120FBF7B0FE4FF440710220FBF7ABFE10
:104E300041F230010320FBF7A6FE40F608010820EE
:104E4000FBF7A1FE08210A20FBF79DFE4FF41C5141
:104E50006020FBF798FE00E031E001216120FBF7C4
:104E600092FE4FF49F719020FBF78DFE4FF48071FE
:104E70009220FBF788FE4FF480719320FBF783FEAE
:104E80004FF44051A020FBF77EFE1021A320FBF73A
:104E90007AFE01210720FBF776FE21210720FBF790
:104EA00072FE23210720FBF76EFE33210720FBF75C
:104EB0006AFE40F233110720FBF765FEBAE09E4818
:104EC000808841F663118842F8D1E220FBF740FE6A
:104ED0002320FBF746FE0220FBF743FE0420FBF7EE
:104EE00040FE6420FBF7C5FCE020FBF731FE01200B
:104EF000FBF737FE0A20FBF7E0FCE020FBF728FE7B
:104F00000320FBF72EFE0C20FBF7D7FC0120FBF75C
:104F10001FFE0A20FBF7D1FCE620FBF719FE032059
:104F2000FBF71FFEFF20FBF71CFEFF20FBF719FE1F
:104F3000B020FBF70DFE2020FBF713FE0020FBF74F
:104F400010FE0320FBF70DFE40F21F30FBF709FEB9
:104F50000120FBF706FE40F2DF10FBF702FE002007
:104F6000FBF7FFFDB420FBF7F3FD0420FBF7F9FD91
:104F700040F21F40FBF7F5FD0020FBF7F2FDD220C9
:104F8000FBF7EFFD0020FBF7ECFD0020FBF7E9FD50
:104F90000020FBF7E6FD0020FBF7E3FDB620FBF762
:104FA000D7FD0220FBF7DDFD4FF40370FBF7D9FDC1
:104FB0000020FBF7D6FD2220FBF7D3FD0920FBF7ED
:104FC000D0FD0020FBF7CDFD0020FBF7CAFDF0204F
:104FD000FBF7BEFD0320FBF7C4FD2920FBF7B8FD5E
:104FE000D020FBF7B5FD0020FBF7BBFDBE20FBF793
:104FF000AFFD0520FBF7B5FDFE20FBF7B2FD01205C
:10500000FBF7AFFDFF20FBF7ACFD0020FBF7A9FD90
:10501000B820FBF79DFD0F20FBF7A3FD0120FBF758
:10502000A0FDBA20FBF794FD0120FBF79AFD642058
:10503000FCF710FA0020FCF735FA01203F49086020
:105040004FF6FF70FCF71CFC1FB000BD2DE9FC4FB4
:1050500005460E4617469846DDF82C900020019034
:105060003548808846F60401884229D13248807943
:10507000012825D1AB4635462F480088C01B401E6D
:1050800086B247462C480088A0EB0B00401E1FFA52
:1050900080F80020284988712A2048812B208881A7
:1050A00043463A4631462846CDF80090FFF7CEFFFA
:1050B0000120214988712B2048812A2088811CE009
:1050C000781B401C80B20190344614E021462846EB
:1050D000FBF78BFDFBF76CFD4FF0000A06E018486C
:1050E000A0F800900AF101001FFA80FA01988245A9
:1050F000F5DB601C84B24445E8DDBDE8FC8F2DE99A
:10510000F84F07460D4690469946DDF828B0A8EBC3
:105110000700401C1FFA80FAA9EB0500401C80B272
:10512000009000241AE0281981B23846FBF75DFD93
:10513000FBF73EFD00260DE0240300208081214284
:105140000008006C04FB0A603BF81000F749088077
:10515000701C86B25645F5DB601C84B20098844210
:10516000E1DBBDE8F88F2DE9FF4F84B081468A4628
:105170000020039002900698A0EB09050798A0EB89
:105180000A06CDF80490CDF800A0002D01DD01271E
:1051900005E00DB9002702E04FF0FF376D42002E09
:1051A00002DD4FF0010806E016B94FF0000802E0FA
:1051B0004FF0FF387642B54201DD2C4600E0344620
:1051C0004FF0000B21E0009A91B2019A90B2FCF7E7
:1051D00073F803982844039002983044029003988F
:1051E000A04205DD0398001B03900198384401900C
:1051F0000298A04205DD0298001B029000984044EE
:1052000000900BF101001FFA80FB601C8345DADD82
:1052100008B0BDE8F08FF0B504460D4616461F46AF
:105220002B46324629462046FFF79DFF3B46224645
:1052300029462046FFF797FF3B463246394620462F
:10524000FFF791FF3B46324629463046FFF78BFF7A
:10525000F0BD2DE9F04306460F4690460024454632
:105260000320A0EB48093CE07A1B91B2321990B2BE
:10527000FCF722F83A1B91B2721990B2FCF71CF8B5
:105280003A1991B2721990B2FCF716F87A1991B2E4
:10529000321990B2FCF710F87A1991B2321B90B221
:1052A000FCF70AF83A1991B2721B90B2FCF704F8B5
:1052B0007A1B91B2321B90B2FBF7FEFF3A1B91B200
:1052C000721B90B2FBF7F8FF641CB9F1000F03DA10
:1052D000A000801D814404E0601B80000A308144EE
:1052E0006D1EAC42C0DDBDE8F0832DE9F84F80466D
:1052F0000E4617461C46B3462046E31704EB53738D
:10530000DB1021464FEAE47C04EB5C7C4FEAEC0CBA
:10531000A4EBCC0CBCF1000F02D04FF0010C01E06B
:105320004FF0000C6344224604EBD27C4FEA6C0C35
:1053300003FB0CF3DBB20093A7F12000C7B20025FA
:1053400056E00C2C07D107EB4700794901EB8000B0
:1053500010F8059013E0102C05D1764800EB0710EB
:1053600010F805900BE0182C07D107EBC700724925
:1053700001EB800010F8059001E0BDE8F88F4FF0D8
:10538000000A2FE009F0800030B16C4802883146F5
:105390004046FBF79FFF07E00A9828B96848028853
:1053A00031464046FBF796FF4FEA49604FEA1069E5
:1053B000701C86B263484088B04200DCDDE7A6EB93
:1053C0000B00A0420AD15E4608F101001FFA80F8E6
:1053D0005C480088404500DCCFE706E00AF10100A8
:1053E00000F0FF0ABAF1080FCCDB00BF681CC5B2A1
:1053F00000988542A5DB00BFBFE710B5024601203B
:1054000000E050430B00A1F10104E1B2F9D110BD5D
:105410002DE9FF4F81B0074691461E460E9D4FF085
:10542000000A002439E0301B401EC1B20A20FFF7F9
:10543000E4FFB9FBF0F00A21B0FBF1F201FB120826
:10544000BAF1000F16D1701EA04213DDB8F1000FA3
:105450000ED10020AB4605EBDB71491001FB047156
:10546000009088B22B4620220299FFF73EFF12E0FF
:105470004FF0010A0020AB4605EBDB71491001FB40
:105480000471009088B208F13001CAB22B4602992B
:10549000FFF72BFF00BF601CC4B2B442C3DB05B0F2
:1054A000BDE8F08F2DE9FF4F82B0064692461F46B9
:1054B000DDE90F480020019000255CE0781B401ECC
:1054C000C1B20A20FFF799FFBAFBF0F00A21B0FB46
:1054D000F1F201FB12090198B0BB781EA84236DD3B
:1054E000B9F1000F31D108F0800078B108F0010067
:1054F000A34604EBDB71491001FB0561009088B203
:10550000234630220399FFF7F0FE0EE008F0010079
:10551000A34604EBDB71491001FB0561009088B2E2
:10552000234620220399FFF7E0FE22E00008006CEA
:105530001452010888560108785C010820000020F8
:10554000220000202403002001E00120019008F047
:105550000100A34604EBDB71491001FB05610090DB
:1055600088B209F13001CAB223460399FFF7BDFEA4
:1055700000BF681CC5B2BD42A0DB06B0BDE8F08F1D
:105580002DE9F84704460D4690469946DDE909673E
:1055900004F0FF0A08EB04001FFA80F809EB05008D
:1055A0001FFA80F916E0444502DB5446A81985B27B
:1055B0004D4500DB14E0002000903A783346294640
:1055C0002046FFF792FE304606EBD07104EB6101F6
:1055D0008CB27F1C38787E2802DC38782028E2DA0A
:1055E00000BFBDE8F887000008B50121482001F0A0
:1055F0009DFB2020ADF8000010208DF80300032053
:105600008DF802006946094801F0D4F820210748C6
:1056100001F07DF92020ADF800006946044801F052
:10562000C9F82021024801F072F908BD000C0140C0
:105630000018014000B597B001214FF4F07001F05F
:1056400075FB0121080201F064FB4FF63370ADF8E1
:10565000000018208DF8030003208DF80200694631
:10566000364801F0A7F84FF68370ADF800006946A0
:10567000334801F09FF84FF23F00ADF80000694653
:10568000304801F097F840F23F40ADF8000069461D
:105690002D4801F08FF80020019002900320039024
:1056A00000200490059006900790042008900020A8
:1056B00009900A9010200B9000200C900E900D90F5
:1056C0000F9010904FF48050119000201290139082
:1056D000149001A81590169008A800F051FD012122
:1056E000042000F0B5FE17B000BD10B506E0047848
:1056F0004FF0D0435C54491C401C521E002AF6D186
:1057000010BD06E04FF0D0435B5C00F8013B491C44
:10571000521E002AF6D1704713B50C4601222146CD
:105720006846FFF7E2FF1CBD18B50446012221467A
:105730006846FFF7E6FF9DF8000018BD0014014021
:1057400000180140001C0140002001407FB50546C3
:105750000C460121022001F0F6FAADF80850ADF830
:1057600004400020ADF80A00ADF8060001A9164873
:1057700001F014FC01221146134801F086FF1D20A0
:105780008DF8000001208DF8010003208DF8020043
:1057900001208DF80300684600F03DFC01210A4815
:1057A00001F058FF7FBD10B50121074802F01BFA38
:1057B000012804D1054800680A3004490860012125
:1057C000014802F021FA10BD00040040AC010020A5
:1057D000FA4A10804FF0C842A2F800117047014603
:1057E000F64801804FF0C840B0F80001704770B52E
:1057F000044644F040010C20FFF7EAFF0C210B2087
:10580000FFF7E6FF0A20FBF758F800210B20FFF70F
:10581000DFFF0D20FFF7E3FF02460E20FFF7DFFF5B
:1058200042EA002085B2284670BD70B50024E448E5
:105830000078082811D108E06420FBF73EF8601CCE
:10584000C4B2642C01DDFF2070BD0120FFF7CFFF43
:1058500000F020000028EFD010E008E06420FBF703
:105860002CF8601CC4B2642C01DDFF20ECE70120A1
:10587000FFF7B5FF00F040000028EFD00120FFF750
:10588000AEFF022101EAA0150020FFF7A8FFC0F338
:10589000C00005432846D7E710B50446002306E0BC
:1058A000E15C03F11600FFF793FF581CC3B2082B0D
:1058B000F6DB10BD10B50446002306E0E15C03F101
:1058C0001000FFF785FF581CC3B2062BF6DB10BD96
:1058D00070B505460C4645F040010C20FFF778FFF7
:1058E000E1B20D20FFF774FF210A0E20FFF770FFD1
:1058F0000A210B20FFF76CFF3220FAF7DEFF0021B0
:105900000B20FFF765FF70BD70B50646092E1BD250
:10591000DFE806F0050C1A1A08101A1A1500002400
:10592000212511E04FF4807441250DE04FF400541F
:10593000812509E04FF4045440F2011504E04FF4CE
:10594000805440F2E11500BF00BF21460020FFF760
:10595000BFFF29460420FFF7BBFF00211F20FFF7F0
:1059600037FF70BD00B52820FFF739FF0246292018
:10597000FFF735FF42EA00222A20FFF730FF42EA14
:1059800000422B20FFF72BFF42EA0062104600BDC9
:1059900010B500208B4908600A20FAF78EFF01201D
:1059A0008949C1F89C016420FAF787FF01211E2074
:1059B000FFF70EFF00211F20FFF70AFF0321002041
:1059C000FFF706FF00BF1920FAF777FF0020FFF767
:1059D00006FF00F001000028F5D100210846FFF77E
:1059E000F7FE03210020FFF7F3FE00BF1920FAF7AE
:1059F00064FF0020FFF7F3FE00F001000028F5D15E
:105A000010BD10B59AB001214FF4F07001F08EF97D
:105A10000121080201F07DF90121084601F086F913
:105A20008020ADF8640003208DF8660010208DF80A
:105A3000670019A9654800F0BDFE4020ADF864007C
:105A400048208DF8670019A9614800F0B3FE4CF2B8
:105A50003370ADF8640003208DF8660018208DF8CF
:105A6000670019A9594800F0A5FE4FF68070ADF8FF
:105A7000640003208DF8660018208DF8670019A9CE
:105A8000544800F097FE4FF40050ADF86400032036
:105A90008DF8660018208DF8670019A94E4800F0AF
:105AA00089FE4FF40070ADF8640003208DF86600A5
:105AB00018208DF8670019A9454800F07BFE0621E3
:105AC000084600F08DFF4020179000208DF8600000
:105AD0000C208DF8610001208DF8620017A802F0FB
