:020000040800F2
:1000000088CA0020B9020008BD020008BF0200082B
:10001000C1020008C3020008C50200080000000079
:10002000000000000000000000000000C7020008FF
:10003000C902000800000000CB020008CD02000841
:10004000CF020008CF020008CF020008CF0200084C
:10005000CF020008CF020008CF020008CF0200083C
:10006000CF020008CF020008CF020008CF0200082C
:10007000CF020008CF020008CF020008CF0200081C
:10008000CF020008CF020008CF020008CF0200080C
:10009000CF020008CF020008CF020008CF020008FC
:1000A000CF020008CF020008CF020008CF020008EC
:1000B000CF020008FD9300082D940008CF0200082D
:1000C000CF020008CF020008CF020008CF020008CC
:1000D000CF02000885A50008CF02000809A6000885
:1000E000CF020008CF020008CF020008CF020008AC
:1000F000CF020008CF020008CF020008CF0200089C
:10010000CF020008717A000869940008CF02000845
:10011000CF020008CF020008CF0200082D9500088A
:10012000CF020008CF020008CF020008CF0200086B
:1001300000F002F800F0B0F80AA090E8000C824449
:100140008344AAF10107DA4501D100F0A5F8AFF226
:10015000090EBAE80F0013F0010F18BFFB1A43F0A5
:100160000103184734350100543501000A444FF0AB
:10017000000C10F8013B13F0070408BF10F8014B06
:100180001D1108BF10F8015B641E05D010F8016B4B
:10019000641E01F8016BF9D113F0080F1EBF10F8AF
:1001A000014BAD1C0C1B09D16D1E58BF01F801CBD2
:1001B000FAD505E014F8016B01F8016B6D1EF9D555
:1001C0009142D6D37047000000230024002500266A
:1001D000103A28BF78C1FBD8520728BF30C148BFAA
:1001E0000B6070476E2900F04C84702900F0A381E9
:1001F000662911F05E82652911F05B82672911F092
:1002000058826129AFF3008003681B0A28BF41F0C0
:100210008001692900F01481642900F01181752999
:1002200000F00E816F2900F04585782900F06F817C
:10023000E92900F0DF84E42900F0DC84F52900F0EE
:10024000D984EF2900F04285F82900F06E81036817
:10025000DB0928BF41F08001632900F04E84732937
:1002600000F05384E32900F0CD87F32900F0D28712
:10027000002070471FB501F027F80400002000217E
:1002800010F066FA401C60600020002110F04AFA6D
:10029000E0601FBD10B510BD00F0E8FF1146FFF78C
:1002A000E9FF0CF011F801F0C1F803B4FFF7F2FF19
:1002B00003BC0AF076FB000008480047FEE7FEE7B3
:1002C000FEE7FEE7FEE7FEE7FEE7FEE7FEE7FEE706
:1002D00003480449024A044B7047000031010008FA
:1002E00088C6002088CA002088C60020704710B544
:1002F0004C1084EA530404D54042C1F1000138BFD8
:10030000491E1B4204D55242C3F1000338BF5B1E95
:1003100000F0CAFA14F0804F04D04042C1F100014D
:1003200038BF491E14F0004F04D05242C3F10003FD
:1003300038BF5B1E10BD00001CB50C46064B7B444D
:1003400069460090204600F0B6FB0446002069464E
:1003500000F0C4FB20461CBD9B0700000FB40449FD
:1003600010B503AA029800F0D5FB10BC5DF814FB91
:10037000040000200FB41CB5084B06AA7B44694654
:100380000090059800F097FB04460020694600F0B5
:10039000A5FB20461CBC5DF814FB00005D070000B7
:1003A00070B5044685690068C10601D5302600E0B5
:1003B0002026C00707D070BDD4E901213046904700
:1003C000206A401C20626D1EF6D570BD70B50446D3
:1003D00085690078C00707D170BDD4E901212020CC
:1003E0009047206A401C20626D1EF6D570BD70B526
:1003F0000C460546012A05D02878800600D5EA6912
:10040000002302E0012305E05B1C934202D2E05C82
:100410000028F9D1A869E618C01AA861286A18440A
:1004200028622846FFF7BCFF04E0D5E9012114F853
:10043000010B9047B442F8D32846FFF7C7FF70BDC1
:100440002DE9F0410646002410687529314616A5AD
:1004500010D000F0ABFA002802DA404213A507E002
:1004600031688A0701D512A502E0490704D511A514
:10047000012401E000F0A3FA00210A2206F124077A
:1004800009E0B0FBF2FCB0FBF2F302FB1C003030E1
:1004900078541846491C0028F3D123462A46304692
:1004A000BDE8F04100F094BA000000002D0000000B
:1004B0002B00000020000000F0B40D460188090563
:1004C00002D5214C7C4402E01F4C7C440E340021B8
:1004D00000F1240608E002F00F071209E75D42EA86
:1004E00003721B097754491C52EA0307F3D10278BF
:1004F0000023120704D5702D06D009B10223113450
:100500002246F0BC00F064BA01231034F8E770B55D
:1005100004460D462146106800F051FA024629466D
:100520002046BDE870400023C6E7D21D22F0070335
:10053000D3E90023C0E70368126843F02003036097
:100540000823C3610023B7E7B82E01002DE9F05F4F
:10055000894604464FF0000ADFF874B1FB44C0F846
:1005600020A02046E1688847002874D0252806D0BE
:10057000D4E901219047206A401C2062F1E700265F
:100580005F462046E16888472028054607DB312D75
:1005900005D2781910F8200C08B10643F1E7B0072E
:1005A00001D526F00406C4F81CA00027C4F818A042
:1005B0002A2D09D028460AF0EDF938B304EB870854
:1005C000303DC8F8185019E059F8041B204604EBD8
:1005D00087029161E1688847012F054618D1E069DB
:1005E000002820DA26F020061DE0D8F8180000EBDD
:1005F000800005EB40003038C8F818002046E1685C
:10060000884705460AF0C6F90028EED1012F0AD026
:100610002E2D08D12046E16888477F1C0546022F11
:1006200046F02006C4DBA069002803DA404246F009
:100630000106A061F00701D026F010066C2D0BD04A
:10064000682D09D04C2D39D06A2D35D0742D35D078
:100650007A2D33D016E038E0E1682F4620468847EF
:10066000B842054609D16C2F26D04FF48060E1686E
:10067000064320468847054604E06C2F1AD04FF405
:10068000807006430DB3A5F14100192802D820352A
:1006900046F400664A462946204626604E46FFF745
:1006A000A1FD80B101280BD0F61D26F0070000F156
:1006B000080956E74020E4E78020D8E70020D6E785
:1006C00006F104094DE7284652E7206ABDE8F09F8D
:1006D000482E010030B505460B462A4613F8014B5B
:1006E00012F8010B08B1A042F8D01CB1002802D0CA
:1006F0006D1CF1E7284630BD40EA0103024630B5E3
:100700009B0710D14FF0013400E008C208C91D1B3F
:100710009D4315EAC41FF8D013F0FF0102F8011B36
:100720000DD01B0AF8E711F8013B002B02F8013B42
:1007300005D011F8013B002B02F8013BF3D130BD8D
:1007400010B5431C02E010F8011B71B18107FAD10A
:100750004FF0013202C88C1A8C4314EAC211F9D04E
:10076000C01A0A0603D0C01E10BDC01A10BD0A046C
:1007700001D0801E10BD0902FCD0401E10BD421EDB
:1007800012F8013F002BFBD111F8013B002B02F8BE
:10079000013BF9D17047032A40F2308010F0030C7E
:1007A00000F0158011F8013BBCF1020F624498BFC4
:1007B00011F801CB00F8013B38BF11F8013BA2F161
:1007C000040298BF00F801CB38BF00F8013B11F0DC
:1007D000030300F08582083AC0F0088051F8043B1A
:1007E000083A51F804CBA0E80810F5E7121D5CBFE9
:1007F00051F8043B40F8043BAFF30080D20724BF1C
:1008000011F8013B11F801CB48BF11F8012B24BFAF
:1008100000F8013B00F801CB48BF00F8012B7047FE
:100820004FF0013C50F8042B51F8043B9A4221D17F
:10083000A2EB0C03934313EACC1317D150F8042B0B
:1008400051F8043B9A4215D1A2EB0C03934313EAEF
:10085000CC130BD150F8042B51F8043B9A4209D128
:10086000A2EB0C03934313EACC13DBD04FF0000050
:10087000704700BFD01A01BAB1FA81F101F0180136
:1008800022FA01F0CB40C1F12001DBB2C0B2C01AA4
:100890002CFA01F3D11A914311EAC311E6D1704742
:1008A000704770477047704753EA020C00F0698048
:1008B0002DE9F04B4FF00006002B1FBFB3FA83F574
:1008C00003FA05F424FA05F65E4012BF1643B2FAA5
:1008D00082F502FA05F4C5F120051EBF22FA05FCD7
:1008E00044EA0C04203556EA044C4FEA144418BF7D
:1008F000641C4FF000084FF00009904271EB030CAC
:1009000039D3002919BFB1FA81F701FA07F6B0FA15
:1009100080F700FA07F6C7F120071EBF20FA07FC90
:1009200046EA0C062037B6FBF4FCA7EB0507103FA0
:1009300007F01F0BCBF120060CFA0BFB2CFA06F686
:1009400044BFB3460026202FA4BF5E464FF0000BE5
:100950005BEA060C08BF4FF0010B19EB0B09ABFB70
:10096000027C48EB0608C01B06FB02CC0BFB03CC49
:1009700071EB0C01C1E70B46024641464846BDE813
:10098000F08B13B54FF000004FF00001AFF3008083
:10099000BDE81C40704710B500F0D4F9006810BDE8
:1009A00010B5044600F0CEF9046010BD09684A0590
:1009B00001D540B27047C905FCD500B2704709683F
:1009C0004A0501D5C0B27047C905FCD580B2704751
:1009D0002DE9F0470D4699469246044600F1240859
:1009E0000168880604D5E06921F01001216000E06B
:1009F0000120A84201DD471B00E00027A1697A1908
:100A000002EB0900081AA0612078C00602D4204633
:100A1000FFF7C6FC002608E0D4E901211AF8060019
:100A20009047206A401C761C20624E45F4DB2078FB
:100A3000C0060AD52046FFF7B3FC06E0D4E9012141
:100A400030209047206A401C2062381EA7F1010721
:100A5000F4DC07E0D4E9012118F805009047206A8A
:100A6000401C2062281EA5F10105F3DC2046FFF79B
:100A7000ADFC2078000602D50220BDE8F0870120F9
:100A8000FBE711680268006A530501D508700AE0A7
:100A9000D30501D5088006E0130603D5C217C1E9C6
:100AA000000200E0086001207047000001694A1C54
:100AB00002610878704700B58FB0CDE9013100219F
:100AC000059105497944CDE9031011466846FFF7C1
:100AD0003DFD0FB000BD0000E5FFFFFF0A6802F812
:100AE000010B0A60704710B5436913B1AFF3008082
:100AF00001E0FFF77CFC012010BD127800F1240119
:100B00000A7000224A700122EDE711684FF0FF32AF
:100B1000E9E70000074B70B50D467B44FFF7CBFFBC
:100B20000446284600F07AFB10B14FF0FF3070BD4C
:100B3000204670BDD3B400002DE9FF5F15468A46FC
:100B40000446DFF8AC80F8440027D8E900103E46A0
:100B5000CDE9001010E03AF816106A4602A800F03D
:100B600061FB411C07D02178890603D5E269391859
:100B700091420DD80744761C2078800602D5E069A2
:100B8000B84205DDAE42E6DB3AF816000028E2D1B5
:100B9000A069C01BA0612046FFF702FCD8E9001045
:100BA000CDE90010002017E03AF818106A4602A8B4
:100BB00000F038FBB0F1FF3F81460BD000250DF16E
:100BC000080B05E0D4E901211BF8050090476D1CD6
:100BD0004D45F7D308F10100B0428046E4DB206ABE
:100BE000384420622046FFF7F1FBBDE8FF9F00007C
:100BF000722801002DE9F0418046D21D22F0070243
:100C00000025D2E90002F52915A614D0011E72F1C3
:100C1000000106DA0023D0EB030063EB020211A609
:100C200008E0D8F800108B0701D50FA602E04907AD
:100C300001D50EA601251146002408F1240704E081
:100C400000F084F830323A55641C50EA0102F7D1C2
:100C50002B46324621464046BDE8F041FFF7B8BE7C
:100C6000000000002D0000002B000000200000000C
:100C700030B4002100F1240408E002F00705D20896
:100C8000303542EA4372DB086554491C52EA0305D9
:100C9000F3D10468002310A2250708D504F020042E
:100CA0000C4304D0C46901230CA2641EC46130BC8F
:100CB000FFF78EBE10B5044621461068FFF77FFE91
:100CC00002462046BDE810400023D1E7D21D22F0A5
:100CD0000701D1E90023CBE700000000300000004D
:100CE00010B5203AC0F00B80B1E81850203AA0E8C7
:100CF0001850B1E81850A0E81850BFF4F5AF5FEAFB
:100D0000027C24BFB1E81850A0E8185044BF18C9AD
:100D100018C0BDE810405FEA827C24BF51F8043B54
:100D200040F8043B08BF7047D20728BF31F8023BA8
:100D300048BF11F8012B28BF20F8023B48BF00F83C
:100D4000012B70470048704724C6002030B5B0F131
:100D50000A024FEA900E71F100034EEA817EB0EB79
:100D60000E0061EB91014FEA101E4EEA017E10EB7E
:100D70000E0041EB11114FEA102E4EEA016E10EBFE
:100D80000E0041EB11214FEA104E4EEA014E10EBDE
:100D90000E0041EB1141401841F100014FEAD00033
:100DA00040EA41704FEAD10110EB80054FEA81041F
:100DB00044EA907444EB01046D1944EB0404521BA3
:100DC000A3414FF0000348BF0A3200D530BD401C9C
:100DD00041F1000130BD70472DE9FF4F0C461E4622
:100DE0004FF0FF378BB0D2E90001DDF860800A9048
:100DF0008A46C1F30A5505B93D46002108464FF021
:100E00000000BAF1000F00F4400005DA00EB8000AA
:100E10004FF4400101EA50004FEA9059B9F1010F37
:100E200000DDB9460A9850EA4A000ED044F6105048
:100E3000A5F2FF3545432F14B8F1000F1ED07542BF
:100E4000291E1EDDC9F100021CE0B8F1010F4FF0B0
:100E5000000001D0302103E0F24305E02154401CA2
:100E6000B042FBDB30460022002121540B99C1F82F
:100E70000880C1E900200FB0BDE8F08FBD1B6D1CDC
:100E8000DEE74A4600DA694206A800F061FA06ABDE
:100E900093E8070003AB83E8070050460A9900F087
:100EA000CBFA8DE80700A0F500501F38009003989A
:100EB000002D09DD42F21F014A46084403A90390B0
:100EC000684600F02AFD08E0A0F500504A461F38A9
:100ED00003A90390684600F034FD8DE80700000484
:100EE000000C03D04FF0FF30410800E01046B8F18D
:100EF000000F03D00022009215461EE0751E05D497
:100F0000FFF724FF303262556D1EF9D5B34601223A
:100F1000084302D000227F1C04E02078302801D151
:100F200000227F1E002A099786D01DE0112D07DAC6
:100F3000FFF70CFF303262556D1C50EA0102F5D10B
:100F4000084302D00098C8B10EE00021681E05E0F9
:100F5000235C625C63542254401E491C8142F7DBCF
:100F6000AB46A81B401E0990002004F80B000B980C
:100F7000099AC0F80880C0E9002B7CE711264FF0E1
:100F8000000859E72DE9F04F88460446D21D22F0AB
:100F9000070191B0D1E90001CDE90A0109F0E6FCB1
:100FA00002460B98C00F01D02D2007E02068810772
:100FB00001D52B2002E0202101EAC000032A09907C
:100FC00001D0072A05DB03464146204600F080F9A0
:100FD0000BE12078800601D5E06900E00620B8F139
:100FE000650F814606D0B8F1660F18D0B8F1670FCB
:100FF00070D131E00020B9F1110F009001DB112315
:1010000001E009F101030AAA01A90CA8FFF7E4FE17
:10101000DDE90C70002609F10105834647E0012057
:101020004B4600904FF000470AAA01A90CA8FFF711
:10103000D3FEDDE90DB00C995D46002610B909F12B
:1010400001000D18B9EB050003D4C0F1FF3609F11A
:101050000105A5EB09002BE0B9F1010F01DA4FF012
:1010600001090020B9F1110F0090484601DD11235C
:1010700000E003460AAA01A90CA8FFF7ADFEDDE9CE
:101080000C704D4600268346207800070AD4AB45F5
:1010900000DA5D4601A8012D04DD411911F8011C9B
:1010A000302907D04F4502DA17F1040F04DA012086
:1010B00082460FE06D1EEEE7002F02DCED1B3E4482
:1010C00003E0781CA84200DD7D1CB81B00F1010A7A
:1010D0004FF000472078000703D4AA4501DB4FF00A
:1010E000FF3A0021B7F1004F0DF143088DF843108E
:1010F00024D002202B23002F01DA7F422D230A2146
:10110000021EA0F1010000DC5FB197FBF1FC97FB30
:10111000F1F201FB1C7C17460CF1300C08F801CDF4
:10112000EEE7A8F1010003702188090501D54521EA
:1011300000E06521A0F1010800F8011C09980FA941
:10114000A1EB0807FF1D00B10120411901EBEA7076
:10115000A1693844081A401EA0612078C00602D454
:101160002046FFF71DF9099828B1D4E901219047DD
:10117000206A401C20622078C00622D52046FFF756
:101180000FF91EE0002E04DBB34502DD01A8805DEF
:1011900000E03020D4E901219047206A401C206201
:1011A000761CAAF101005FEA000A0AD100F08CF86F
:1011B000C0680168405CD4E901219047206A401C66
:1011C0002062281EA5F10105DCDC07E0D4E901213D
:1011D00018F8010B9047206A401C2062381EA7F1C6
:1011E0000107F3DC2046FFF7F1F8032011B043E6D6
:1011F00010B5436913B1AFF3008001E0FFF79CFC29
:10120000012010BD128800F1240182840022C284D2
:101210000122EDE711684FF0FF32E9E7007B00F0B3
:101220008000704770B516460C46054600F044F83D
:10123000036893F80101012806D0FF2C0FD8185D30
:1012400068B101202C7070BDD3F8070132462146E9
:1012500003F2071303442846BDE8704018474FF0D7
:10126000FF3070BD0048704724C600207546FFF768
:10127000F9FFAE4605006946534620F00700854653
:1012800018B020B5FFF724F8BDE820404FF0000665
:101290004FF000074FF000084FF0000B21F007015E
:1012A000AC46ACE8C009ACE8C009ACE8C009ACE8A1
:1012B000C0098D467047000010B500F005F8001D0C
:1012C00010BD00BF8DF400000048704744C60020E8
:1012D0002DE9F0411F46044603260168072A01F460
:1012E000006004DB08B116A505E016A503E008B10F
:1012F00015A500E015A521F010002060A069C01E12
:10130000A0610FB1401EA0612046FFF749F84FB120
:10131000D4E9012138469047206A401C2062C01C55
:10132000206206E0206AFAE7D4E9012115F8010BF2
:101330009047761EF8D22046FFF748F8BDE8F081C6
:101340004E414E006E616E00494E4600696E660069
:101350002DE9F047814616468AB0334878440DC8D7
:101360008DE80D0030487844801C03AC0DC884E83B
:101370000D0041F69B300844372190FBF1F290FBC1
:10138000F1F5A5F1800501FB12041B3C02D5644276
:10139000012000E00020DFF890A080460027FA44FA
:1013A000AAF1BE0A0DE0E00709D03246684607EB15
:1013B00047010AEB810100F0C4FA8DE807006410D0
:1013C0007F1C002CEFD1184F7F44AC3F18E0E8079A
:1013D00014D007EB04100DF1180A90E80E008AE80B
:1013E0000E00C068F04201D198190890324606A953
:1013F00003A800F0A6FA03AB83E807006D10641C95
:10140000002DE4D132466946B8F1000F03A802D09E
:1014100000F083FA01E000F094FAC9E90001C9F88C
:1014200008200AB0BDE8F087E02001000446AFF3D1
:1014300000802046FEF739FF5FEA400C08BF91F0BC
:10144000000F4FEA8C234FEAC12243EA51514FEA81
:101450001C5018BF00F5F0404FEA300018BF41F0B3
:1014600000415FEA6C5C00F02980BCF1FF3F08BFDF
:1014700040F080407047130C06BF12044FF0100C70
:101480004FF0000C130E04BF12020CF1080C130FE6
:1014900004BF12010CF1040C930F04BF92000CF175
:1014A000020CD30F04BF52000CF1010C11464FF097
:1014B0000002A0F11F00A0EB0C00704711F0004FDC
:1014C00008BF704731F000413FF4D5AF0B0C06BFA9
:1014D00009044FF0100C4FF0000C0B0E04BF090272
:1014E0000CF1080C0B0F04BF09010CF1040C8B0F5D
:1014F00004BF89000CF1020CCB0F04BF49000CF1B2
:10150000010CCCF12003A0EB0C0022FA03F302FA49
:101510000CF241EA030100F10100704720F07F4C1A
:1015200080EA030023F07F47ACEB070303F57C530D
:1015300000F0004003F1FF032DE980494FEA154B0D
:1015400009B44FEA144325EA0B4E24EA03480FF28C
:10155000042606EB132749083E785FEA320203FBB4
:101560000667C7F5000707FB06F64FEA54374FEA50
:10157000D64606F1020607FB066CCCF1005C4FEA8A
:101580001C472CEA074C07FB06F40CFB06F504EBA2
:1015900015464FEA961634BF00204FF000404FEA40
:1015A000D13706FB07FC4FEA1C4C0CFB0BF7D21B98
:1015B00003FB0CF761EB07010CFB0EF7B0EB0740E8
:1015C00072EB17420CFB08F734BFA2EB0742B2EBF9
:1015D000074261EB17414FEA0C444FEA910706FBC3
:1015E00007FC4FEA1C4C0CFB0BF7B0EBC74072EB4F
:1015F000573203FB0CF734BFA2EBC742B2EBC74232
:1016000061EB57310CFB0EF7B0EBC70072EB577272
:101610000CFB08F734BFA2EBC702B2EBC70261EBC9
:101620005771039F4FEA816141EA921104EBCC04A8
:101630004FEAD1374FEA826206FB07FC42EA90127A
:101640004FEA80604FEA1C4C0CFB0BF7D21B03FBEC
:101650000CF761EB07010CFB0EF7B0EB074072EBE8
:1016600017420CFB08F734BFA2EB0742B2EB07426C
:1016700061EB17414FEA8C554FEA910704EB9C242C
:1016800006FB07FC4FEA1C4C0CFB0BF7B0EBC7400A
:1016900072EB573203FB0CF734BFA2EBC742B2EB3D
:1016A000C74261EB57310CFB0EF7B0EBC70072EB92
:1016B00057720CFB08F734BFA2EBC702B2EBC702AC
:1016C00061EB577115EB4C254FEA816141EA9211AC
:1016D0004FEA82624FEAD13742EA901206FB07FCDA
:1016E00044F100044FEA80604FEA1C4C0CFB0BF7FE
:1016F000D21B03FB0CF761EB07010CFB0EF7B0EB01
:10170000074072EB17420CFB08F734BFA2EB07420D
:10171000B2EB074261EB174115EB1C154FEA813123
:1017200041EA92414FEA823242EA90424FEA8030E7
:101730004FEA0C7644F1000448EA03434EEA0B48B2
:101740004FF0000EB2EB080C71EB030724BF6246AA
:1017500039464EEB0E0E4FF0000B00185241494136
:101760004BEB0B0BB2EB080C71EB03077BF1000B9F
:1017700024BF624639464EEB0E0E4FF0000B0018A8
:10178000524149414BEB0B0BB2EB080C71EB0307D9
:101790007BF1000B24BF624639464EEB0E0E51EA38
:1017A000020718BF46F0010616EB0E7655F100024F
:1017B00054F1000103D5BDE88901BDE80088BDE80A
:1017C0008901BDE80048B619524141EB0101A3F17E
:1017D0000103704780807F7E7D7C7B7A7978777685
:1017E00076757473727171706F6E6E6D6C6C6B6AFE
:1017F0006A6968686766666564646363626161609C
:10180000605F5F5E5E5D5D5C5C5B5B5A5A59595818
:101810005857575656555555545453535252525182
:10182000515050504F4F4F4E4E4D4D4D4C4C4C4BD8
:101830004B4B4A4A4A49494948484847474747461F
:10184000464645454544444444434343434242425B
:1018500042414141002B26D4770021D01CB54FEAEC
:10186000370703B44FF010004FF010014FF00000A5
:101870000FBCBDE810400BF1010BBBF1010F08BF1D
:101880005FEA170722BF12F1010211F101014FF0C7
:10189000004143F1000300F0004043EA00007047BC
:1018A000F9D35708DAE746EA064613F1400F4FEA44
:1018B00016461FDD13F1200FDFBF16430A46002135
:1018C00020335B42C8D0C3F1200746EA064602FA3D
:1018D00007F74FEA164646EA0706C3F1200722FA41
:1018E00003F201FA07F721FA03F14FF0000342EA8D
:1018F0000702B1E746EA020646EA06464FEA1646FE
:1019000046EA0106BCBF46EA0646360C4FF0000325
:101910004FF000024FF000019EE72DE9C0489346CA
:1019200030B491E8380007C831EA400C48BF34EAC7
:10193000430C03D5FFF7F2FDFFF78CFFF0BCBDE8C9
:1019400000882DE9C048934630B491E8380007C8B4
:1019500010F0804F08BF13F0804F03D100F005F85E
:10196000FFF778FFF0BCBDE8008820F07F4780EAF1
:10197000030023F07F4C07EB0C03A3F57C5300F02E
:101980000040A3F1FE0392F0000F00F0B38095F049
:10199000000F00F077802DE901494FEA11404FEA2E
:1019A000144621EA004800FB06FC24EA064708FB2F
:1019B00006F607FB08F800FB07F718EB06484CEBA8
:1019C000164C4FEA124B18EB07484FEA15464CEB02
:1019D000174022EA0B4E0BFB06FC25EA06470EFBDE
:1019E00006F607FB0EFE0BFB07F71EEB064E4CEB55
:1019F000164C4FF000061EEB074E4CEB174B18EB46
:101A00000B0840F1000018EB0E0B58EB000840F1FA
:101A100000008F1A4FF000013CBFC943661B14BF82
:101A2000B5EB040C00213CBFC943F61B4FEA174439
:101A30004EEA8E0E27EA04454FEA1C4704FB076274
:101A40002CEA074C05FB07F70CFB05F604FB0CFC26
:101A500016EB074642EB174216EB0C4642EB1C42D4
:101A60001BEB060658EB0202414146EA9E0601D5F1
:101A7000BDE80189B619524141EB0101A3F101030F
:101A8000BDE801894FEA14454FEA114724EA0546AB
:101A900021EA074C05FB07F406FB07F70CFB06F1F0
:101AA00005FB0CFC11EB074144EB17444FEA1247CE
:101AB00011EB0C4144EB1C4422EA074C05FB07F2F6
:101AC00006FB07F70CFB06F605FB0CFC16EB0746BE
:101AD00042EB174216EB0C4642EB1C456A1854F1D8
:101AE000000148BF7047B619524141EB0101A3F113
:101AF0000103704795F0000F37D04FEA11424FEACB
:101B0000144721EA024624EA074C02FB07F106FBD0
:101B100007F70CFB06F402FB0CFC14EB074441EB4B
:101B200017414FEA154714EB0C4441EB1C4125EAE1
:101B3000074C02FB07F506FB07F70CFB06F602FB5A
:101B40000CFC16EB074645EB174516EB0C4645EB30
:101B50001C42121951F1000148BF7047B619524199
:101B600041EB0101A3F1010370474FEA14454FEA2D
:101B7000114724EA054621EA074C05FB07F106FB5D
:101B800007F70CFB06F24FF0000605FB0CFC12EB0E
:101B9000074241EB174112EB0C4251EB1C4148BF8D
:101BA0007047921841EB0101A3F10103704710B592
:101BB00000F0EAFF10BD70B506460C46154608E079
:101BC0003046721C96B200F007F804F8010B681E4C
:101BD00085B2002DF4D170BD70B50446002601F029
:101BE00085F82546E11704EB11610912A02202EBEA
:101BF0004101C8B201F046F801F0C4F8E11704EB66
:101C000011610912A4EB0121C8B201F03BF801F007
:101C1000B9F801F06BF8A12001F034F801F0B2F846
:101C2000002000F0F7FF064601F086F8304670BD50
:101C300070B505460C46164606E02178284600F0A9
:101C400009F8681C85B2641C3000A6F101018EB24F
:101C5000F3D170BD70B504460E4601F047F8254635
:101C6000E11704EB11610912A02202EB4101C8B295
:101C700001F008F801F086F8E11704EB1161091290
:101C8000A4EB0121C8B200F0FDFF01F07BF8304663
:101C900000F0F8FF01F076F801F04EF80A2009F0A4
:101CA0000FF970BD10B5052009F028F910BD00002E
:101CB00010B500200F4908600F48006820F0F000C0
:101CC0000D4908600846006840F030000860FFF7E2
:101CD000E9FF00200949C1F8A401FFF7E3FF012053
:101CE00004490860FFF7DEFF00200549C1F88401C0
:101CF00010BD000084812142041C01400080234269
:101D0000008021421848806940F008001649886127
:101D10000846806940F0800088611448006820F01F
:101D2000F000124908600846006840F03000086082
:101D30000F48006820F0F0000D4908600846006870
:101D400040F03000086009480C30006840F00200A4
:101D500006490C31086006480830006840F40070FD
:101D6000034908310860704700100240000C014030
:101D7000041C014010B500200F4908600F4800689E
:101D800020F0F0000D4908600846006840F030007F
:101D90000860FFF787FF01200949C1F8A401FFF798
:101DA00081FF012004490860FFF77CFF00200549FE
:101DB000C1F8840110BD000084812142041C01404F
:101DC000008023420080214270B505460024164859
:101DD000006820F0F000144908600846006840F0F0
:101DE000800008601E2009F089F8002611E000201C
:101DF0000E490860FFF756FF01200D49C1F8840124
:101E00006006040E0B48006808B1601CC4B2701C68
:101E1000C6B2082EEBDB15B9FFF7ACFF01E0FFF708
:101E200047FF204670BD0000041C01408481214210
:101E3000008021422481234270B504461348006883
:101E400020F0F000114908600846006840F03000BA
:101E5000086000200E490860FFF724FF002511E00C
:101E6000E0090C4908606006040E01200A49C1F827
:101E70008401FFF717FF002005490860FFF712FFF4
:101E8000681CC5B2082DEBDB70BD0000041C0140CE
:101E900084812142A48123420080214210B50F4851
:101EA000006820F0F0000D4908600846006840F026
:101EB0003000086001200A4908600A49C1F884011D
:101EC0001E2009F01BF8002005490860FFF7EAFE14
:101ED00000200449C1F8840110BD0000041C014029
:101EE000A48123420080214210B50D48006820F0F3
:101EF000F0000B4908600846006840F030000860B8
:101F00000120084908601E2008F0F8FF002006495B
:101F1000C1F8A401FFF7C6FE01200449086010BD06
:101F2000041C01408481214200802342A481234279
:101F300010B500241348006820F0F0001149086033
:101F40000846006840F08000086001200E490860E3
:101F50000E49C1F88401FFF7A5FE09E0601CC4B278
:101F6000FA2C03DDFFF7C0FF012010BDFFF79AFE3A
:101F70000548803800680028F0D10549086000BF96
:101F8000F3E70000041C0140A481234200802142A9
:101F90008481214200224FF4803105E00948406BE2
:101FA00000F0800000B103E00800A1F10101F5D1CB
:101FB00000BF09B90320704740F2FF50014B9863FE
:101FC0001046F8E700800140024605E01348416BE7
:101FD00001F0450000B100E0F8E700BF01F00400A7
:101FE00020B104200D4B98630320704701F00100DD
:101FF00018B10120094B9863F7E70848006990423F
:1020000001D01020F1E740F2FF50044B98631846CE
:10201000406908231840C0B2E7E700000080014093
:1020200010B500204FF4803205E0134B596B01F0DE
:10203000450303B103E01300A2F10102F5D100BF93
:1020400012B101F004033BB103200B4B9B6B43F037
:102050000403094CA36310BD01F0010333B1012057
:10206000054B9B6B43F00103034CA36340F2FF530A
:10207000014CA36300BFEEE70080014005E00C487F
:10208000416B01F0450000B100E0F8E700BF01F04E
:10209000040038B10648806B40F00400044A9063A5
:1020A0000320704740F2FF50014A90630020F8E798
:1020B0000080014070B503460C46002505E021482C
:1020C000426B02F0450000B100E0F8E700BF02F00B
:1020D000040038B11B48806B40F00400194EB06317
:1020E000032070BD02F0010038B11648806B40F04B
:1020F0000100144EB0630120F3E7124800699842D2
:1021000001D01020EDE740F2FF500E4EB063304694
:10211000416901F4604018B9080C20802846E0E7C6
:1021200001F4005008B11320DBE701F4804008B14E
:102130001020D6E701F4004008B10F20D1E728466F
:10214000CFE700000080014010B500204FF480323E
:1021500005E0114B596B01F0450303B103E0130097
:10216000A2F10102F5D100BF12B101F004033BB1AD
:102170000320094B9B6B43F00403074CA36310BD82
:1021800001F0400333B10020034B9B6B43F040034D
:10219000014CA36300BFF2E70080014008B52F485F
:1021A000806940F080002D4988612D48006820F446
:1021B0007F402B4908600846006840F46050086082
:1021C00027480830006840F440602549083108601D
:1021D000FFF798FD002023490860142008F070FEE6
:1021E00001202149C1F8AC01322008F069FE00202D
:1021F0008DF800000122694600F038F90122694695
:10220000A42000F033F916208DF800000122694661
:10221000802000F02BF90C208DF800000122694687
:10222000882000F023F902226946A12000F024F85A
:102230009DF8000030280ED19DF8010003280AD136
:102240009DF801009DF8002000EB022107A0FEF799
:1022500085F8002008BD0120FCE7000000100240C6
:10226000041C0140AC81234200802342435450208F
:1022700049443A25780D0A002DE9F04106460F46FB
:102280001546FFF70BFE7020FFF7D6FDFFF750FE57
:10229000F0B2FFF7D1FDFFF74BFEFFF7FFFD712016
:1022A000FFF7CAFDFFF744FE00240BE0691EA142C0
:1022B00001D0012100E000210846FFF785FD3855D7
:1022C000601CC4B2AC42F1DBFFF70EFEBDE8F0814A
:1022D00071B581B00024002661480078401C604937
:1022E0000870084600780A2190FBF1F201FB120009
:1022F00018B15B4800780A2867DA012201A9022098
:10230000FFF7BAFF9DF8040000F00F0000287ED010
:102310009DF8040000F00F00062878DA9DF804000C
:1023200000F00F01FF208840C5B2E843C0B240F082
:10233000C0004C4981F8200000245AE0494890F838
:1023400020000121A1400840F0B3474931F81400B2
:1023500004226946FFF790FF424890F8300000F0F1
:102360000100C0B19DF801009DF8001001F00F01BF
:1023700000EB01203B49163121F814009DF80300C1
:102380009DF8021001F00F0100EB012135480C30DF
:1023900020F814101DE09DF801009DF8001001F0D8
:1023A0000F0100EB0120C0F5F07081B22D480C3018
:1023B00020F814109DF803009DF8021001F00F01A1
:1023C00000EB0121274801E011E020E0163020F861
:1023D00014109DF8000000F0F000802807D00021C4
:1023E0002048163020F814100A3820F81410601C09
:1023F000C4B2052CA2DB01261A48808920B91948ED
:10240000C08A08B9002001900020154908709DF885
:10241000040000F01F00D0B9124890F8200000F02E
:10242000800040B10F4890F8200020F080000D4956
:1024300081F820000BE04FF6FF700A498881C882BE
:10244000084690F8200000F0E00081F820000448E1
:102450000078F02802DD0A200149087030467CBD72
:10246000280000202C000020762E01082DE9F041E4
:1024700005460E4617464FF00008FFF70FFD702087
:10248000FFF7DAFCFFF754FDE8B2FFF7D5FCFFF7E2
:102490004FFD00240BE0305DFFF7CEFCFFF748FD59
:1024A0008046B8F1000F00D003E0601CC4B2BC420B
:1024B000F1DB00BFFFF718FD4046BDE8F0810000EA
:1024C000FCB507460D460026002400200090019030
:1024D00008220121102005F0CFFA1020FFF774FD2B
:1024E00004460CB12046FCBD3A040121372005F01A
:1024F000C3FA3720FFF768FD04460CB12046F2E727
:10250000012303220821101F05F0CAFA002201212D
:10251000332005F0B1FA3320FFF756FD04460CB125
:102520002046E0E70DE03848406B00F4001040B171
:102530003548803000684DF82600761C022E00D306
:1025400006E03148406B40F22A6108400028EAD09A
:1025500000BF2D48406B00F0080038B12A48806B5E
:1025600040F00800284988630420BCE72648406BF7
:1025700000F0020038B12448806B40F0020022498C
:1025800088630220AFE72048406B00F0200038B19C
:102590001D48806B40F020001B4988630620A2E79D
:1025A0001948406B00F4007038B11748806B40F454
:1025B000007015498863072095E740F2FF501249E3
:1025C000886300980006009901F47F4140EA0120E9
:1025D000009901F47F0140EA1120009940EA11605E
:1025E000686001980006019901F47F4140EA0120EA
:1025F000019901F47F0140EA1120019940EA11603C
:10260000286020466FE70000008001401CB53D486F
:10261000806940F080003B4988613B48006820F4B5
:102620007F40394908600846006840F460500860FF
:1026300035480830006840F440603349083108608C
:10264000FFF760FB0020314908600A2008F038FCE1
:1026500001202F49C1F8AC010A2008F031FC2A48BA
:10266000006820F47060284908600846006840F45B
:102670000060086024480830006820F48060224927
:1026800008310860642008F01BFC0422694648F207
:10269000401000F053F800208DF8040069461DA09A
:1026A000FDF75CFE1EA16846FEF7BAF840BB0220AB
:1026B0008DF800000122694648F2400000F09EF9C2
:1026C0000122694648F2470000F038F89DF8000002
:1026D000602807DA9DF8001013A0FDF73FFE0120E7
:1026E00000F05EF90A2008F0EBFB00208DF80000F6
:1026F0000122694648F2400000F080F900201CBD2C
:102700000120FCE700100240041C0140AC81234280
:10271000008023424354502049443A25730D0A0057
:10272000393134370000000044656661756C7420EF
:102730005665723A25640D0A000000002DE9F0414B
:1027400005460F461646FFF7A9FB2820FFF774FB46
:10275000FFF7EEFB2812FFF76FFBFFF7E9FBE8B28C
:10276000FFF76AFBFFF7E4FBFFF798FB2920FFF771
:1027700063FBFFF7DDFB00240BE0711EA14201D0DB
:10278000012100E000210846FFF71EFB3855601CC0
:10279000C4B2B442F1DBFFF7A7FBBDE8F081000053
:1027A00071B583B00024002679480078401C784930
:1027B0000870084600780A2190FBF1F201FB120034
:1027C00018B1734800780A287EDA012203A948F27A
:1027D0004E10FFF7B3FF9DF80C0000F0800068B1C9
:1027E0009DF80C0000F00F00062807DA0020019089
:1027F000012201A948F24E1000F000F99DF80C00EA
:1028000000F00F0000285FD09DF80C0000F00F00D2
:102810000628D9DA9DF80C0000F00F01FF2088404F
:10282000C0B201905B4890F820509DF80400C0436E
:10283000C0B240F0C000574981F8200008468189A5
:102840008182C18AC183002446E0524890F820006A
:102850000121A140084020B34F4931F8140004225F
:1028600002A9FFF76BFF4B4890F8300000F0010021
:10287000C0B19DF808009DF8091000EB012081B25D
:102880004448163020F814109DF80A009DF80B10EB
:1028900000EB0120C0F5487081B23E480C3020F8B2
:1028A000141017E09DF808009DF8091000EB0120B6
:1028B00081B238480C3020F814109DF80A009DF8B9
:1028C0000B1000EB012000E036E081B231481630F9
:1028D00020F81410601CC4B2052CB6DB01262D486C
:1028E00080892E490988884205DC2A48C08A2B49FC
:1028F000498888421DDD9DF80C0000F00F0001287A
:102900000ADD2448C089234988810846008BC88293
:1029100000201F4908700FE01E48808A1D498881E9
:102920000846C08BC88280200390084680F820505B
:1029300002E00020164908709DF80C0000F08F009E
:1029400080281AD1134890F8200000F0800040B190
:10295000104890F8200020F080000E4981F82000F7
:102960000BE04FF6FF700B498881C882084690F84B
:10297000200000F0E00081F8200005480078F028F1
:1029800002DD0A2002490870304604B070BD000024
:10299000290000202C000020382F010820030020EF
:1029A00038B50546002400208DF800008DF8015050
:1029B00000BF09E09DF800000F49095D0844C0B25E
:1029C0008DF80000601CC4B2B82CF3D39DF8000051
:1029D000C043401CC0B28DF80000B822064948F23E
:1029E000470000F00BF80222694648F2FF0000F0B1
:1029F00005F8002038BD0000802E01082DE9F041C7
:102A000004460E4617464FF00008FFF747FA282005
:102A1000FFF712FAFFF78CFA2012FFF70DFAFFF713
:102A200087FAE0B2FFF708FAFFF782FA00250BE019
:102A3000705DFFF701FAFFF77BFA8046B8F1000FEF
:102A400000D003E0681CC5B2BD42F1DB00BFFFF758
:102A50004BFA4046BDE8F0812DE9F05F82460F4613
:102A600014462046E21704EB5272D2102146E317B7
:102A700004EB5373DB10A4EBC3030BB1012300E0A1
:102A800000231A44624302F0FF099AF800600AF139
:102A9000010082460578812E05DB402D03DBFF2DEA
:102AA00001D0FF2E0DD14FF0000B06E0002007F8FB
:102AB000010B0BF1010000F0FF0BCB45F6DBBDE88D
:102AC000F09F7F2D03DAA5F14000C5B202E0A5F129
:102AD0004100C5B2A6F18100C6B2BE2000FB06507F
:102AE00000FB09F80C2C04D0102C0CD0182C1ED193
:102AF00013E01048D0F8090000EB08014A463846B8
:102B000007F00EFE13E00B48D0F8110000EB0801AF
:102B10004A46384607F004FE09E00648D0F8190096
:102B200000EB08014A46384607F0FAFD00BF00BF37
:102B300000BFC4E700C6002010B500200F490860A0
:102B40000F48006820F070400D4908600846006892
:102B500040F04050086000200A49C1F89C01022062
:102B600008F0CCF9012005490860022008F0C6F9F8
:102B700000200449C1F8980110BD0000988121424D
:102B8000000C0140008021420C48806940F00800A0
:102B90000A4988610A48006820F07F4008490860B7
:102BA0000846006840F04C50086005480C3000684A
:102BB00040F0C00002490C3108607047001002402C
:102BC000000C014010B500200F4908600F48006854
:102BD00020F070400D4908600846006840F0405001
:102BE000086001200A49C1F89C01022008F086F91A
:102BF000012005490860022008F080F900200449FE
:102C0000C1F8980110BD000098812142000C0140DC
:102C10000080214270B5054600241748006820F066
:102C20007040154908600846006840F000400860A0
:102C3000002616E0002011490860022008F05EF925
:102C400001200F49C1F898016006040E0B487C383A
:102C5000006808B1601CC4B2012008F04FF9701C74
:102C6000C6B2082EE6DB15B9FFF7ACFF01E0FFF7AF
:102C700063FF204670BD0000000C01409881214296
:102C80000080214270B504461548006820F070406D
:102C9000134908600846006840F040500860002072
:102CA00010490860002517E0E0090E49091D086079
:102CB0006006040E022008F021F901200A49C1F83B
:102CC0009801022008F01AF9002006490860022045
:102CD00008F014F9681CC5B2082DE5DB70BD0000D2
:102CE000000C0140988121420080214210B50F481C
:102CF000006820F070400D4908600846006840F008
:102D00004050086001200A4908600A49C1F898014A
:102D1000042008F0F3F8002005490860042008F0BA
:102D2000EDF800200349C1F8980110BD000C0140E6
:102D30009C8121420080214210B50F48006820F09C
:102D400070400D4908600846006840F04050086037
:102D500000200A4908600A49C1F89C01042008F0D3
:102D6000CDF80120054908600549C1F89C010420FF
:102D700008F0C4F810BD0000000C01409881214209
:102D80000080214210B500241448006820F07040F3
:102D9000124908600846006840F0004008600120C1
:102DA0000F49086008F0AAF801200E49C1F89801FF
:102DB00008F0A4F807E0601CC4B2FA2C03DDFFF7AA
:102DC000BBFF012010BD0648803800680028F2D102
:102DD0000349091F086000BFF4E70000000C014030
:102DE0009C8121420080214272B6704762B67047D2
:102DF0001CB504460020019000901F480088020482
:102E000001210D2004F038FE1C48406B009002E0C8
:102E10001A48406B0090009800F045000028F7D059
:102E2000009800F0010038B11448806B40F00100B8
:102E30001249886301201CBD009800F0040038B1DD
:102E40000E48806B40F004000C4988630320F2E7D1
:102E50000A4800690D2801D01020ECE740F2FF502D
:102E6000064988630846406901900198C0F34320F1
:102E700020700020DFE700001400002000800140E7
:102E80001548806940F0040013498861084680694C
:102E900040F0400088611148006820F00F000F49A1
:102EA00008600846006840F0080008600C480068A8
:102EB0000C4908400A490860084600680A49084366
:102EC0000749086006480C30006840F01C000449BF
:102ED0000C310860704700000010024000080140FB
:102EE00000180140FF00F0FF0088080010B50446FC
:102EF00014B10120234908702248007858B32248B1
:102F0000006858B12048001F006838B11E480838D2
:102F1000006818B11D48006801281CD10A2007F07C
:102F2000CFFF0020174908701748006808B9012032
:102F300010BD1548001F006808B90220F8E71248C4
:102F40000838006808B90320F2E710480068012833
:102F500015D10420ECE70C48006801280FD10A487D
:102F6000001F006801280AD10748083800680128B6
:102F700005D10648006810B90120024908700020F8
:102F8000D6E700000E00002010012342000121427C
:102F900070B5044600261748058840884543154803
:102FA000808846F60401884216D1124880790128AB
:102FB00012D100200F4988712A2048812B20888156
:102FC0000021084604F092F801200A4988712B205C
:102FD00048812A20888103E00021084604F086F811
:102FE00004F076FA002602E003480480761CAE4224
:102FF000FAD370BD200300200008006C10B5044611
:10300000002C66D16C498871F02008804FF4A070C4
:1030100048800846808849F2413188420BD0664892
:10302000808846F60401884205D06348808845F2CE
:10303000103188421AD12C205F4908812A2048810A
:103040002B2088810846808846F60401884205D0F6
:103050005948808845F21031884206D14FF4A0705B
:10306000554908804FF4F0704880A1E052488088AC
:1030700045F21051884210D14FF430504E4908812A
:103080004FF4285048814FF42C5088814FF4F07051
:1030900008804FF4487048808AE04748808841F6AD
:1030A000631188420DD12C20434908812B2048818F
:1030B0002A2088814FF4F07008804FF448704880CF
:1030C00076E022203C490881202048812120888107
:1030D0006EE00120384988714FF4A0700880F0201C
:1030E00048800846808849F24131884205D03248FC
:1030F000808845F21031884207D12C202E49088162
:103100002A2048812B2088813FE02B48808846F682
:103110000401884207D12C20274908812B204881AF
:103120002A20888131E02448808845F21051884265
:1031300010D14FF43050204908814FF42850488175
:103140004FF42C5088814FF4487008804FF4F07091
:1031500048801AE01848808841F6631188420DD1F2
:103160002C20154908812A2048812B2088814FF482
:10317000487008804FF4F070488006E022200E4925
:10318000088121204881202088810B48808846F6CC
:103190000401884205D00848808845F210318842F1
:1031A00006D14FF4F070044908804FF4A0704880B5
:1031B000002003F025FE10BD200300202DE9FF4F65
:1031C00084B081468A460020039002900698A0EBC6
:1031D00009050798A0EB0A06CDF80490CDF800A0E9
:1031E000002D01DD012705E00DB9002702E04FF0B9
:1031F000FF376D42002E02DD4FF0010806E016B9E0
:103200004FF0000802E04FF0FF387642B54201DD92
:103210002C4600E034464FF0000B21E0009A91B2BA
:10322000019A90B200F022F8039828440390029883
:10323000304402900398A04205DD0398001B0390E0
:103240000198384401900298A04205DD0298001BC5
:1032500002900098404400900BF101001FFA80FB9F
:10326000601C8345DADD08B0BDE8F08F30B5044658
:103270000D462946204603F039FF04F029F902489B
:1032800000880249088030BD0A0000200008006C58
:10329000F0B504460D4616461F462B4632462946D3
:1032A0002046FFF78BFF3B46224629462046FFF784
:1032B00085FF3B46324639462046FFF77FFF3B46B7
:1032C000324629463046FFF779FFF0BD2DE9F0433D
:1032D00006460F469046002445460320A0EB4809C9
:1032E0003CE07A1B91B2321990B2FFF7BFFF3A1B54
:1032F00091B2721990B2FFF7B9FF3A1991B27219EF
:1033000090B2FFF7B3FF7A1991B2321990B2FFF77A
:10331000ADFF7A1991B2321B90B2FFF7A7FF3A19AD
:1033200091B2721B90B2FFF7A1FF7A1B91B2321BD0
:1033300090B2FFF79BFF3A1B91B2721B90B2FFF75E
:1033400095FF641CB9F1000F03DAA000801D8144D1
:1033500004E0601B80000A3081446D1EAC42C0DD79
:10336000BDE8F08330B503460C4615465A488088C0
:1033700049F24131884205D05748808845F21031E2
:10338000884214D15449488904F09CF8181204F07A
:1033900093F8D8B204F090F84F49888904F092F875
:1033A000201204F089F8E0B204F086F88CE04A4874
:1033B000808845F21051884220D14749488904F05D
:1033C00081F8181204F078F843494989491C88B2F9
:1033D00004F078F8D8B204F06FF83F49888904F017
:1033E00071F8201204F068F83B498989491C88B2B9
:1033F00004F068F8E0B204F05FF865E036488088D1
:1034000041F66311884228D13348807920B9324887
:103410000088401EC01A83B22F49488904F052F830
:10342000181204F049F8D8B204F046F8181204F063
:1034300043F8D8B204F040F82749888904F042F8EC
:10344000201204F039F8E0B204F036F8201204F04B
:1034500033F8E0B204F030F836E01F48808846F6D2
:10346000040188421DD11C488079012804D11A48E2
:103470000088401EC01A83B21749488904F022F818
:10348000181204F019F8D8B204F016F81249888915
:1034900004F018F8201204F00FF8E0B204F00CF871
:1034A00012E00D488079012804D10B480088401EA5
:1034B000C01A83B208494889194604F013F806492E
:1034C0008889214604F00EF80348008903490880E2
:1034D000881C058030BD000020030020FE07006C22
:1034E0002DE9FC4F05460E4617469846DDF82C9010
:1034F000002001902748808846F60401884229D19F
:1035000024488079012825D1AB46354621480088DA
:10351000C01B401E86B247461E480088A0EB0B0029
:10352000401E1FFA80F800201A4988712A2048811D
:103530002B20888143463A4631462846CDF80090F4
:10354000FFF7CEFF0120134988712B2048812A20E4
:1035500088811CE0781B401C80B20190344614E046
:103560002146284603F0C2FD03F0B2FF4FF0000AE7
:1035700006E00948A0F800900AF101001FFA80FA5D
:1035800001988245F5DB601C84B24445E8DDBDE866
:10359000FC8F0000200300200008006C10B5FD48DF
:1035A000406940F48070FB4948610846806940F0FA
:1035B000080088610846806940F02000886108465C
:1035C000806940F0400088610846806940F480705E
:1035D0008861F148006820F00F00EF490860084654
:1035E000006840F003000860EC480068EC490840BF
:1035F000EA49086008460068EA490843E749086064
:10360000081F006800F0FF20091F086008460068D6
:1036100040F0BB100860E44800680020E249086000
:103620000846006840F0BB300860081F006820F0C2
:103630007040091F08600846006840F0304008608C
:10364000DA48406820F47020D8494860084640684D
:1036500040F4302048600846006820F00F00086001
:103660000846006840F00B00086000204FF0204141
:103670008861C861CE4908604FF02040806940F4FD
:1036800080504FF0204188610846806940F48040B6
:1036900088610846806940F0100088610846C0696A
:1036A000C8610846C06940F00100C8610846C069A9
:1036B00040F47060C861BE480068C1F81C01BC4895
:1036C0000068C1F81C010846D0F81C0140F44070A5
:1036D000C1F81C010846806940F001008861322071
:1036E00007F0EEFB002003F055FBB2498880084646
:1036F0008088FF280ADB084680884FF6FF718842E1
:1037000004D0AC488088B0F5134F7CD1D32003F0AF
:10371000D9FE03F035FBA749888003F031FBA549AA
:10372000888003F02DFBA3498880084680884FF6E7
:10373000FF7101EA00209F49888003F021FB9D4929
:10374000898808439B4988800846808849F241312E
:10375000884258D0BF2003F0B5FE03F011FB954915
:10376000888003F00DFB9349888003F009FB9149A1
:10377000888003F005FB8F498880084680884FF6D3
:10378000FF7101EA00208B49888003F0F9FA89492A
:1037900089880843874988800846808846F604015E
:1037A00088427AD0D42003F08DFE03F0E9FA8149F3
:1037B000888003F0E5FA7F49888003F0E1FA7D49CB
:1037C0008880084680884FF6FF7101EA0020794919
:1037D000888003F0D5FA774989880843754988803D
:1037E0000846808845F21031884256D04FF45A403E
:1037F00003F068FE03F0C4FA6E4988804FF45B4022
:1038000003F060FE00E048E003F0BAFA69498880FE
:10381000084680884FF6FF7101EA002065498880DC
:103820004FF45C4003F04EFE03F0AAFA6149898828
:1038300008436049888008468088B0F5004F02D16F
:1038400045F2105088805B48808845F210518842CC
:1038500023D0A12003F036FE03F092FA5549888068
:1038600003F08EFA53498880084680884FF6FF712E
:1038700001EA00204F49888003F082FA4D49898887
:1038800008434C4988800846808845F26171884227
:1038900003D141F66310474988804648818846A095
:1038A000FCF75CFD4348808849F24131884270D181
:1038B000CF2003F007FE002003F0FEFDC12003F03F
:1038C000FBFD302003F0F8FDED2003F0FBFD64204C
:1038D00003F0F2FD032003F0EFFD122003F0ECFDF6
:1038E000812003F0E9FDE82003F0ECFD852003F0E2
:1038F000E3FD102003F0E0FD7A2003F0DDFDCB2096
:1039000003F0E0FD392003F0D7FD2C2003F0D4FDB7
:10391000002003F0D1FD342003F0CEFD022003F09F
:10392000CBFDF72003F0CEFD202003F0C5FDEA20FB
:1039300003F0C8FD002003F0BFFD002003F0BCFD34
:10394000C02003F0BFFD1B2003F0B6FDC12003F033
:10395000B9FD012003F0B0FDC52003F0B3FD302018
:1039600003F0AAFD302003F0A7FDC72003F0AAFD55
:10397000B72003F0A1FD362003F0A4FD482003F09A
:103980009BFD3A2003F09EFD552003F095FDB120EC
:103990001AE0BFE000100240000C01400414014096
:1039A00000F0FF00BB0B00BB0418014000200140E9
:1039B0001C0100A020030020204C43442049443A2D
:1039C00025780D0A0000000003F07CFD002003F0C4
:1039D00073FD1A2003F070FDB62003F073FD0A207A
:1039E00003F06AFDA22003F067FDF22003F06AFDF8
:1039F000002003F061FD262003F064FD012003F0A8
:103A00005BFDE02003F05EFD0F2003F055FD2A2052
:103A100003F052FD282003F04FFD082003F04CFD79
:103A20000E2003F049FD082003F046FD542003F06A
:103A300043FDA92003F040FD432003F03DFD0A2093
:103A400003F03AFD0F2003F037FD002003F034FDB2
:103A5000002003F031FD002003F02EFD002003F0D4
:103A60002BFDE12003F02EFD002003F025FD1520A5
:103A700003F022FD172003F01FFD072003F01CFDBB
:103A8000112003F019FD062003F016FD2B2003F092
:103A900013FD562003F010FD3C2003F00DFD052022
:103AA00003F00AFD102003F007FD0F2003F004FDD2
:103AB0003F2003F001FD3F2003F0FEFC0F2003F048
:103AC000FBFC2B2003F0FEFC002003F0F5FC0020A3
:103AD00003F0F2FC012003F0EFFC3F2003F0ECFCCC
:103AE0002A2003F0EFFC002003F0E6FC002003F0A6
:103AF000E3FC002003F0E0FCEF2003F0DDFC1120EC
:103B000003F0E0FC782007F0DBF9292003F0DAFC71
:103B100003F01AB9FE48808846F6040188427CD139
:103B2000112003F0CFFC142007F0CAF9D02003F0D5
:103B3000C9FC072003F0C0FC422003F0BDFC1D209F
:103B400003F0BAFCD12003F0BDFC002003F0B4FC6C
:103B50001A2003F0B1FC092003F0AEFCD22003F0E0
:103B6000B1FC012003F0A8FC222003F0A5FCC0203A
:103B700003F0A8FC102003F09FFC3B2003F09CFC0A
:103B8000002003F099FC022003F096FC112003F0C2
:103B900093FCC52003F096FC032003F08DFCC820A5
:103BA00003F090FC002003F087FC252003F084FC48
:103BB000212003F081FC052003F07EFC002003F0AF
:103BC0007BFC0A2003F078FC652003F075FC2520BF
:103BD00003F072FC772003F06FFC502003F06CFCC4
:103BE0000F2003F069FC002003F066FCF82003F0CE
:103BF00069FC012003F060FCFE2003F063FC002060
:103C000003F05AFC022003F057FC202003F05AFC7A
:103C1000362003F057FC082000E02CE003F04CFCB9
:103C20003A2003F04FFC552003F046FC2B2003F014
:103C300049FC002003F040FC002003F03DFC012083
:103C400003F03AFC3F2003F037FC2A2003F03AFC53
:103C5000002003F031FC002003F02EFC012003F0D3
:103C60002BFCDF2003F028FC782007F029F929201D
:103C700003F028FC4CE7A648808845F210318842C2
:103C800040F07C87ED2003F01DFC012003F014FCC4
:103C9000FE2003F011FCEE2003F014FCDE2003F004
:103CA0000BFC212003F008FCF12003F00BFC0120A9
:103CB00003F002FCDF2003F005FC102003F0FCFB06
:103CC000C42003F0FFFB8F2003F0F6FBC62003F0B7
:103CD000F9FB002003F0F0FBE22003F0EDFBE22013
:103CE00003F0EAFBE22003F0E7FBBF2003F0EAFB6E
:103CF000AA2003F0E1FBB02003F0E4FB0D2003F069
:103D0000DBFB002003F0D8FB0D2003F0D5FB0020E7
:103D100003F0D2FB112003F0CFFB002003F0CCFB1B
:103D2000192003F0C9FB002003F0C6FB212003F09B
:103D3000C3FB002003F0C0FB2D2003F0BDFB0020DF
:103D400003F0BAFB3D2003F0B7FB002003F0B4FB07
:103D50005D2003F0B1FB002003F0AEFB5D2003F01B
:103D6000ABFB002003F0A8FBB12003F0ABFB8020ED
:103D700003F0A2FB002003F09FFB8B2003F09CFBD1
:103D8000002003F099FB962003F096FB002003F03F
:103D900093FBB22003F096FB002003F08DFB002084
:103DA00003F08AFB022003F087FB002003F084FB72
:103DB000032003F081FB002003F07EFBB32003F01F
:103DC00081FB002003F078FB002003F075FB00204E
:103DD00003F072FB002003F06FFB002003F06CFB8C
:103DE000002003F069FB002003F066FB002003F0D5
:103DF00063FB002003F060FB002003F05DFB00206C
:103E000003F05AFB002003F057FB002003F054FBA3
:103E1000002003F051FB002003F04EFB002003F0D4
:103E20004BFB002003F048FB002003F045FB002083
:103E300003F042FB002003F03FFB002003F03CFBBB
:103E4000002003F039FB002003F036FB002003F0D4
:103E500033FBB42003F036FB8B2003F02DFB002056
:103E600003F02AFB962003F027FB002003F024FB3D
:103E7000A12003F021FB002003F01EFBB52003F07E
:103E800021FB022003F018FB002003F015FB0320A8
:103E900003F012FB002003F00FFB042003F00CFBE7
:103EA000002003F009FBB62003F00CFB002003F018
:103EB00003FB002003F000FBB72003F003FB00200E
:103EC00003F0FAFA002003F0F7FA3F2003F0F4FAC7
:103ED000002003F0F1FA5E2003F0EEFA002003F078
:103EE000EBFA642003F0E8FA002003F0E5FA8C20F6
:103EF00003F0E2FA002003F0DFFAAC2003F0DCFA72
:103F0000002003F0D9FADC2003F0D6FA002001E00B
:103F10002003002003F0D0FA702003F0CDFA002037
:103F200003F0CAFA902003F0C7FA002003F0C4FAA5
:103F3000EB2003F0C1FA002003F0BEFADC2003F00E
:103F4000BBFA002003F0B8FAB82003F0BBFA002057
:103F500003F0B2FA002003F0AFFA002003F0ACFA4D
:103F6000002003F0A9FA002003F0A6FA002003F0D5
:103F7000A3FA002003F0A0FA002003F09DFABA2073
:103F800003F0A0FA242003F097FA002003F094FA3B
:103F9000002003F091FA002003F08EFAC12003F014
:103FA00091FA202003F088FA002003F085FA5420CB
:103FB00003F082FA002003F07FFAFF2003F07CFA7E
:103FC000002003F079FAC22003F07CFA0A2003F003
:103FD00073FA002003F070FA042003F06DFA002059
:103FE00003F06AFAC32003F06DFA3C2003F064FA90
:103FF000002003F061FA3A2003F05EFA002003F09B
:104000005BFA392003F058FA002003F055FA372004
:1040100003F052FA002003F04FFA3C2003F04CFA70
:10402000002003F049FA362003F046FA002003F09E
:1040300043FA322003F040FA002003F03DFA2F202B
:1040400003F03AFA002003F037FA2C2003F034FA98
:10405000002003F031FA292003F02EFA002003F0AB
:104060002BFA262003F028FA002003F025FA24205A
:1040700003F022FA002003F01FFA242003F01CFAB8
:10408000002003F019FA232003F016FA002003F0B1
:1040900013FA3C2003F010FA002003F00DFA36204A
:1040A00003F00AFA002003F007FA322003F004FAC2
:1040B000002003F001FA2F2003F0FEF9002003F0A6
:1040C000FBF92C2003F0F8F9002003F0F5F9292082
:1040D00003F0F2F9002003F0EFF9262003F0ECF9E9
:1040E000002003F0E9F9242003F0E6F9002003F0B2
:1040F000E3F9242003F0E0F9002003F0DDF92320A8
:1041000003F0DAF9002003F0D7F9C42003F0DAF95C
:10411000622003F0D1F9002003F0CEF9052003F06E
:10412000CBF9002003F0C8F9842003F0C5F9002082
:1041300003F0C2F9F02003F0BFF9002003F0BCF94E
:10414000182003F0B9F9002003F0B6F9A42003F019
:10415000B3F9002003F0B0F9182003F0ADF9002006
:1041600003F0AAF9502003F0A7F9002003F0A4F906
:104170000C2003F0A1F9002003F09EF9172003F0B2
:104180009BF9002003F098F9952003F095F90020A1
:1041900003F092F9F32003F08FF9002003F08CF97B
:1041A000E62003F089F9002003F086F9C52003F02A
:1041B00089F9322003F080F9002003F07DF94420D2
:1041C00003F07AF9002003F077F9652003F074F921
:1041D000002003F071F9762003F06EF9002003F05F
:1041E0006BF9882003F068F9002003F065F9C62018
:1041F00003F068F9202003F05FF9002003F05CF978
:10420000172003F059F9002003F056F9012003F0BC
:1042100053F9002003F050F9C72003F053F90020B0
:1042200003F04AF9002003F047F9002003F044F9B5
:10423000002003F041F9C82003F044F9002003F006
:104240003BF9002003F038F9002003F035F9002095
:1042500003F032F9C92003F035F9002003F02CF9FE
:10426000002003F029F9002003F026F9002003F0D4
:1042700023F9002003F020F9002003F01DF90020AD
:1042800003F01AF9002003F017F9002003F014F9E5
:10429000002003F011F9002003F00EF9002003F0D4
:1042A0000BF9002003F008F9002003F005F90020C5
:1042B00003F002F9002003F0FFF8E02003F002F918
:1042C000162003F0F9F8002003F0F6F81C2003F0A4
:1042D000F3F8002003F0F0F8212003F0EDF80020BF
:1042E00003F0EAF8362003F0E7F8002003F0E4F8E2
:1042F000462003F0E1F8002003F0DEF8522003F03E
:10430000DBF8002003F0D8F8642003F0D5F8002093
:1043100003F0D2F87A2003F0CFF8002003F0CCF8B5
:104320008B2003F0C9F8002003F0C6F8992003F0B1
:10433000C3F8002003F0C0F8A82003F0BDF8002067
:1043400003F0BAF8B92003F0B7F8002003F0B4F88E
:10435000C42003F0B1F8002003F0AEF8CA2003F047
:10436000ABF8002003F0A8F8D22003F0A5F8002055
:1043700003F0A2F8D92003F09FF8002003F09CF886
:10438000E02003F099F8002003F096F8F32003F002
:1043900093F8002003F090F8E12003F093F8162042
:1043A00003F08AF8002003F087F81C2003F084F85B
:1043B000002003F081F8222003F07EF8002003F0B3
:1043C0007BF8362003F078F8002003F075F84520DC
:1043D00003F072F8002003F06FF8522003F06CF83D
:1043E000002003F069F8642003F066F8002003F071
:1043F00063F87A2003F060F8002003F05DF88B206A
:1044000003F05AF8002003F057F8992003F054F80D
:10441000002003F051F8A82003F04EF8002003F02C
:104420004BF8B92003F048F8002003F045F8C42009
:1044300003F042F8002003F03FF8CA2003F03CF8F4
:10444000002003F039F8D22003F036F8002003F002
:1044500033F8D82003F030F8002003F02DF8E020E6
:1044600003F02AF8002003F027F8F32003F024F8E3
:10447000002003F021F8E22003F024F8052003F0E7
:104480001BF8002003F018F80B2003F015F80020AB
:1044900003F012F81B2003F00FF8002003F00CF8D3
:1044A000342003F009F8002003F006F8442003F05C
:1044B00003F8002003F000F84F2002F0FDFF002079
:1044C00002F0FAFF612002F0F7FF002002F0F4FF93
:1044D000792002F0F1FF002002F0EEFF882002F0C8
:1044E000EBFF002002F0E8FF972002F0E5FF00203C
:1044F00002F0E2FFA62002F0DFFF002002F0DCFF66
:10450000B72002F0D9FF002002F0D6FFC22002F04F
:10451000D3FF002002F0D0FFC72002F0CDFF002023
:1045200002F0CAFFD12002F0C7FF002002F0C4FF52
:10453000D62002F0C1FF002002F0BEFFDD2002F015
:10454000BBFF002002F0B8FFF32002F0B5FF00200F
:1045500002F0B2FFE32002F0B5FF052002F0ACFF4D
:10456000002002F0A9FF0A2002F0A6FF002002F0BE
:10457000A3FF1C2002F0A0FF002002F09DFF3320CB
:1045800002F09AFF002002F097FF442002F094FF0F
:10459000002002F091FF502002F08EFF002002F078
:1045A0008BFF622002F088FF002002F085FF782058
:1045B00002F082FF002002F07FFF882002F07CFFE3
:1045C000002002F079FF972002F076FF002002F031
:1045D00073FFA62002F070FF002002F06DFFB720ED
:1045E00002F06AFF002002F067FFC22002F064FFC1
:1045F000002002F061FFC72002F05EFF002002F001
:104600005BFFD12002F058FF002002F055FFD520BB
:1046100002F052FF002002F04FFFDD2002F04CFFBD
:10462000002002F049FFF32002F046FF002002F0D4
:1046300043FFE42002F046FF012002F03DFF00208E
:1046400002F03AFF012002F037FF002002F034FFB1
:10465000022002F031FF002002F02EFF2A2002F09B
:104660002BFF002002F028FF3C2002F025FF002055
:1046700002F022FF4B2002F01FFF002002F01CFF7F
:104680005D2002F019FF002002F016FF742002F0F6
:1046900013FF002002F010FF842002F00DFF002025
:1046A00002F00AFF932002F007FF002002F004FF4F
:1046B000A22002F001FF002002F0FEFEB32002F073
:1046C000FBFE002002F0F8FEBE2002F0F5FE002006
:1046D00002F0F2FEC42002F0EFFE002002F0ECFE39
:1046E000CD2002F0E9FE002002F0E6FED32002F029
:1046F000E3FE002002F0E0FEDD2002F0DDFE0020FF
:1047000002F0DAFEF32002F0D7FE002002F0D4FE21
:10471000E52002F0D7FE002002F0CEFE002002F0DD
:10472000CBFE002002F0C8FE002002F0C5FE0220F1
:1047300002F0C2FE002002F0BFFE292002F0BCFE03
:10474000002002F0B9FE3C2002F0B6FE002002F08C
:10475000B3FE4B2002F0B0FE002002F0ADFE5D2063
:1047600002F0AAFE002002F0A7FE742002F0A4FED0
:10477000002002F0A1FE842002F09EFE002002F044
:104780009BFE932002F098FE002002F095FEA220EE
:1047900002F092FE002002F08FFEB32002F08CFEA9
:1047A000002002F089FEBE2002F086FE002002F00A
:1047B00083FEC42002F080FE002002F07DFECD20AA
:1047C00002F07AFE002002F077FED32002F074FEA1
:1047D000002002F071FEDC2002F06EFE002002F0EC
:1047E0006BFEF32002F068FE002002F065FEE6207A
:1047F00002F068FE112002F05FFE002002F05CFE75
:10480000342002F059FE002002F056FE562002F03D
:1048100053FE002002F050FE762002F04DFE0020F4
:1048200002F04AFE772002F047FE002002F044FE2C
:10483000662002F041FE002002F03EFE882002F0D9
:104840003BFE002002F038FE992002F035FE0020E9
:1048500002F032FEBB2002F02FFE002002F02CFE00
:10486000992002F029FE002002F026FE662002F0C8
:1048700023FE002002F020FE552002F01DFE002045
:1048800002F01AFE552002F017FE002002F014FE7E
:10489000452002F011FE002002F00EFE432002F03F
:1048A0000BFE002002F008FE442002F005FE00206E
:1048B00002F002FEE72002F005FE322002F0FCFDCD
:1048C000002002F0F9FD552002F0F6FD002002F074
:1048D000F3FD762002F0F0FD002002F0EDFD6620F1
:1048E00002F0EAFD002002F0E7FD672002F0E4FD9F
:1048F000002002F0E1FD672002F0DEFD002002F062
:10490000DBFD872002F0D8FD002002F0D5FD9920C4
:1049100002F0D2FD002002F0CFFDBB2002F0CCFD62
:10492000002002F0C9FD992002F0C6FD002002F02F
:10493000C3FD772002F0C0FD002002F0BDFD442041
:1049400002F0BAFD002002F0B7FD562002F0B4FDDF
:10495000002002F0B1FD232002F0AEFD002002F0A5
:10496000ABFD332002F0A8FD002002F0A5FD45209C
:1049700002F0A2FD002002F09FFDE82002F0A2FD5F
:10498000002002F099FD002002F096FD992002F02F
:1049900093FD002002F090FD872002F08DFD0020A5
:1049A00002F08AFD882002F087FD002002F084FDDD
:1049B000772002F081FD002002F07EFD662002F0EB
:1049C0007BFD002002F078FD882002F075FD0020BC
:1049D00002F072FDAA2002F06FFD002002F06CFDD3
:1049E000BB2002F069FD002002F066FD992002F074
:1049F00063FD002002F060FD662002F05DFD0020F6
:104A000002F05AFD552002F057FD002002F054FD3F
:104A1000552002F051FD002002F04EFD442002F02E
:104A20004BFD002002F048FD442002F045FD00202F
:104A300002F042FD552002F03FFD002002F03CFD57
:104A4000E92002F03FFDAA2002F036FD002002F02E
:104A500033FD002002F030FD002002F02DFD00208B
:104A600002F030FDAA2002F027FDCF2002F02AFD3F
:104A7000002002F021FD002002F01EFD002002F0C7
:104A80001BFD002002F018FD002002F015FD0020A3
:104A900002F012FD002002F00FFD002002F00CFDDC
:104AA000002002F009FD002002F006FD002002F0C7
:104AB00003FD002002F000FD002002F0FDFC0020BC
:104AC00002F0FAFC002002F0F7FC002002F0F4FCF7
:104AD000002002F0F1FCF02002F0F4FC002002F0D3
:104AE000EBFC502002F0E8FC002002F0E5FC002086
:104AF00002F0E2FC002002F0DFFCF32002F0E2FC16
:104B0000002002F0D9FCF92002F0DCFC062002F0C3
:104B1000D3FC102002F0D0FC292002F0CDFC0020B4
:104B200002F0CAFC3A2002F0CDFC552002F0C4FC91
:104B3000112002F0C7FC642006F0C2F9292002F01F
:104B4000C1FC352002F0BEFC002002F0B5FC512073
:104B500002F0B8FCFF2002F0AFFC532002F0B2FCE0
:104B60002C2002F0A9FC552002F0ACFC822002F0BF
:104B7000A3FC2C2002F0A6FC02F0E6B8FE488088D8
:104B800045F2105188427DD155214FF4704002F01A
:104B9000A9FCAA214FF2010002F0A4FC52214FF21D
:104BA000020002F09FFC08214FF2030002F09AFC81
:104BB00001214FF2040002F095FC0D214FF430402A
:104BC00002F090FC0D214BF2010002F08BFC0D2154
:104BD0004BF2020002F086FC34214FF4364002F022
:104BE00081FC34214BF2016002F07CFC34214BF259
:104BF000026002F077FC0D214FF4314002F072FCAC
:104C00000D214BF2011002F06DFC0D214BF2021050
:104C100002F068FC34214FF4374002F063FC342189
:104C20004BF2017002F05EFC34214BF2027002F094
:104C300059FC00214FF4324002F054FC00214BF2A9
:104C4000012002F04FFC00214BF2022002F04AFC4E
:104C500024214FF4384002F045FC24214BF601009A
:104C600002F040FC24214BF6020002F03BFC012143
:104C70004FF43F4002F036FC0F214FF4334002F076
:104C800031FC00E0FDE30F214BF2013002F02AFC81
:104C90000F214BF2023002F025FC34214FF4394051
:104CA00002F020FC34214BF6011002F01BFC3421F1
:104CB0004BF6021002F016FC08214FF4354002F0CA
:104CC00011FC08214BF2015002F00CFC08214BF2C0
:104CD000025002F007FC03214FF4424002F002FCB4
:104CE00024214FF43A4002F0FDFB24214BF6012031
:104CF00002F0F8FB24214BF6022002F0F3FB002126
:104D00004FF43C4002F0EEFB78214BF6014002F0FC
:104D1000E9FB00214BF6024002F0E4FB00214FF4D6
:104D20003D4002F0DFFB78214BF6015002F0DAFB48
:104D300000214BF6025002F0D5FB00214FF43E401B
:104D400002F0D0FB64214BF6016002F0CBFB0021A6
:104D50004FF4514002F0C6FB33214DF2011002F036
:104D6000C1FB00214DF2021002F0BCFB34214DF2D8
:104D7000031002F0B7FB00214DF2041002F0B2FB69
:104D80003A214DF2051002F0ADFB00214DF2061064
:104D900002F0A8FB4A214DF2071002F0A3FB00210C
:104DA0004DF2081002F09EFB5C214DF2091002F05A
:104DB00099FB00214DF20A1002F094FB81214DF283
:104DC0000B1002F08FFB00214DF20C1002F08AFB59
:104DD000A6214DF20D1002F085FB00214DF20E10C0
:104DE00002F080FBE5214DF20F1002F07BFB012168
:104DF0004DF2101002F076FB13214DF2111002F06B
:104E000071FB01214DF2121002F06CFB54214DF2A6
:104E1000131002F067FB01214DF2141002F062FB47
:104E200082214DF2151002F05DFB01214DF21610AA
:104E300002F058FBCA214DF2171002F053FB022179
:104E40004DF2181002F04EFB00214DF2191002F045
:104E500049FB02214DF21A1002F044FB01214DF2F0
:104E60001B1002F03FFB02214DF21C1002F03AFB36
:104E700034214DF21D1002F035FB02214DF21E10BF
:104E800002F030FB67214DF21F1002F02BFB0221D4
:104E90004DF2201002F026FB84214DF2211002F089
:104EA00021FB02214DF2221002F01CFBA4214DF245
:104EB000231002F017FB02214DF2241002F012FB26
:104EC000B7214DF2251002F00DFB02214DF2261004
:104ED00002F008FBCF214DF2271002F003FB022164
:104EE0004DF2281002F0FEFADE214DF2291002F0F8
:104EF000F9FA02214DF22A1002F0F4FAF2214DF2F1
:104F00002B1002F0EFFA02214DF22C1002F0EAFA17
:104F1000FE214DF22D1002F0E5FA03214DF22E1084
:104F200002F0E0FA10214DF22F1002F0DBFA03211B
:104F30004DF2301002F0D6FA33214DF2311002F06A
:104F4000D1FA03214DF2321002F0CCFA6D214DF26C
:104F5000331002F0C7FA00214FF4524002F0C2FAB7
:104F600033214DF2012002F0BDFA00214DF2022062
:104F700002F0B8FA342101E0200300204DF20320B2
:104F800002F0B0FA00214DF2042002F0ABFA3A210F
:104F90004DF2052002F0A6FA00214DF2062002F0A3
:104FA000A1FA4A214DF2072002F09CFA00214DF2AD
:104FB000082002F097FA5C214DF2092002F092FAE3
:104FC00000214DF20A2002F08DFA81214DF20B20D2
:104FD00002F088FA00214DF20C2002F083FAA6219B
:104FE0004DF20D2002F07EFA00214DF20E2002F06B
:104FF00079FAE5214DF20F2002F074FA01214DF209
:10500000102002F06FFA13214DF2112002F06AFA1B
:1050100001214DF2122002F065FA54214DF21320C5
:1050200002F060FA01214DF2142002F05BFA8221B5
:105030004DF2152002F056FA01214DF2162002F031
:1050400051FACA214DF2172002F04CFA02214DF21A
:10505000182002F047FA00214DF2192002F042FA1E
:1050600002214DF21A2002F03DFA01214DF21B20DF
:1050700002F038FA02214DF21C2002F033FA3421FA
:105080004DF21D2002F02EFA02214DF21E2002F0F8
:1050900029FA67214DF21F2002F024FA02214DF275
:1050A000202002F01FFA84214DF2212002F01AFA8A
:1050B00002214DF2222002F015FAA4214DF2232004
:1050C00002F010FA02214DF2242002F00BFAB7216F
:1050D0004DF2252002F006FA02214DF2262002F0C0
:1050E00001FACF214DF2272002F0FCF902214DF206
:1050F000282002F0F7F9DE214DF2292002F0F2F922
:1051000002214DF22A2002F0EDF9F2214DF22B207E
:1051100002F0E8F902214DF22C2002F0E3F9FE2121
:105120004DF22D2002F0DEF903214DF22E2002F087
:10513000D9F910214DF22F2002F0D4F903214DF2BC
:10514000302002F0CFF933214DF2312002F0CAF9BC
:1051500003214DF2322002F0C5F96D214DF23320CA
:1051600002F0C0F900214FF4534002F0BBF93321A3
:105170004DF2013002F0B6F900214DF2023002F09A
:10518000B1F934214DF2033002F0ACF900214DF2B7
:10519000043002F0A7F93A214DF2053002F0A2F9ED
:1051A00000214DF2063002F09DF94A214DF2073000
:1051B00002F098F900214DF2083002F093F95C21D9
:1051C0004DF2093002F08EF900214DF20A3002F062
:1051D00089F981214DF20B3002F084F900214DF262
:1051E0000C3002F07FF9A6214DF20D3002F07AF971
:1051F00000214DF20E3002F075F9E5214DF20F302D
:1052000002F070F901214DF2103002F06BF9132118
:105210004DF2113002F066F901214DF2123002F028
:1052200061F954214DF2133002F05CF901214DF285
:10523000143002F057F982214DF2153002F052F984
:1052400001214DF2163002F04DF9CA214DF217300E
:1052500002F048F902214DF2183002F043F9002122
:105260004DF2193002F03EF902214DF21A3002F0EF
:1052700039F901214DF21B3002F034F902214DF2CF
:105280001C3002F02FF934214DF21D3002F02AF9C2
:1052900002214DF21E3002F025F967214DF21F3038
:1052A00002F020F902214DF2203002F01BF9842196
:1052B0004DF2213002F016F902214DF2223002F0B7
:1052C00011F9A4214DF2233002F00CF902214DF224
:1052D000243002F007F9B7214DF2253002F002F92F
:1052E00002214DF2263002F0FDF8CF214DF2273099
:1052F00002F0F8F802214DF2283002F0F3F8DE2136
:105300004DF2293002F0EEF802214DF22A3002F07F
:10531000E9F8F2214DF22B3002F0E4F802214DF2CF
:105320002C3002F0DFF8FE214DF22D3002F0DAF8D9
:1053300003214DF22E3002F0D5F810214DF22F301E
:1053400002F0D0F803214DF2303002F0CBF83321D7
:105350004DF2313002F0C6F803214DF2323002F046
:10536000C1F86D214DF2333002F0BCF800214FF44A
:10537000544002F0B7F833214DF2014002F0B2F888
:1053800000214DF2024002F0ADF834214DF203400D
:1053900002F0A8F800214DF2044002F0A3F83A21EF
:1053A0004DF2054002F09EF800214DF2064002F059
:1053B00099F84A214DF2074002F094F800214DF28D
:1053C000084002F08FF85C214DF2094002F08AF8A3
:1053D00000214DF20A4002F085F881214DF20B4088
:1053E00002F080F800214DF20C4002F07BF8A6217B
:1053F0004DF20D4002F076F800214DF20E4002F021
:1054000071F8E5214DF20F4002F06CF801214DF2E8
:10541000104002F067F813214DF2114002F062F8DB
:1054200001214DF2124002F05DF854214DF213407B
:1054300002F058F801214DF2144002F053F8822195
:105440004DF2154002F04EF801214DF2164002F0E7
:1054500049F8CA214DF2174002F044F802214DF2FA
:10546000184002F03FF800214DF2194002F03AF8DE
:1054700002214DF21A4002F035F801214DF21B4095
:1054800000E006E302F02EF802214DF21C4002F08B
:1054900029F834214DF21D4002F024F802214DF28A
:1054A0001E4002F01FF867214DF21F4002F01AF86B
:1054B00002214DF2204002F015F884214DF22140E6
:1054C00002F010F802214DF2224002F00BF8A42164
:1054D0004DF2234002F006F802214DF2244002F082
:1054E00001F8B7214DF2254001F0FCFF02214DF2F9
:1054F000264001F0F7FFCF214DF2274001F0F2FFE7
:1055000002214DF2284001F0EDFFDE214DF229404D
:1055100001F0E8FF02214DF22A4001F0E3FFF22101
:105520004DF22B4001F0DEFF02214DF22C4001F044
:10553000D9FFFE214DF22D4001F0D4FF03214DF2A1
:105540002E4001F0CFFF10214DF22F4001F0CAFF95
:1055500003214DF2304001F0C5FF33214DF23140BF
:1055600001F0C0FF03214DF2324001F0BBFF6D217D
:105570004DF2334001F0B6FF00214FF4554001F0E9
:10558000B1FF33214DF2015001F0ACFF00214DF28B
:10559000025001F0A7FF34214DF2035001F0A2FFA9
:1055A00000214DF2045001F09DFF3A214DF20550CB
:1055B00001F098FF00214DF2065001F093FF4A21BF
:1055C0004DF2075001F08EFF00214DF2085001F01E
:1055D00089FF5C214DF2095001F084FF00214DF25A
:1055E0000A5001F07FFF81214DF20B5001F07AFF4C
:1055F00000214DF20C5001F075FFA6214DF20D5027
:1056000001F070FF00214DF20E5001F06BFFE5211B
:105610004DF20F5001F066FF01214DF2105001F0E4
:1056200061FF13214DF2115001F05CFF01214DF299
:10563000125001F057FF54214DF2135001F052FF68
:1056400001214DF2145001F04DFF82214DF2155011
:1056500001F048FF01214DF2165001F043FFCA212D
:105660004DF2175001F03EFF02214DF2185001F0AB
:1056700039FF00214DF2195001F034FF02214DF2A3
:105680001A5001F02FFF01214DF21B5001F02AFFAB
:1056900002214DF21C5001F025FF34214DF21D5026
:1056A00001F020FF02214DF21E5001F01BFF672187
:1056B0004DF21F5001F016FF02214DF2205001F073
:1056C00011FF84214DF2215001F00CFF02214DF217
:1056D000225001F007FFA4214DF2235001F002FFF8
:1056E00002214DF2245001F0FDFEB7214DF225506C
:1056F00001F0F8FE02214DF2265001F0F3FECF2119
:105700004DF2275001F0EEFE02214DF2285001F03B
:10571000E9FEDE214DF2295001F0E4FE02214DF2B6
:105720002A5001F0DFFEF2214DF22B5001F0DAFE9B
:1057300002214DF22C5001F0D5FEFE214DF22D50EC
:1057400001F0D0FE03214DF22E5001F0CBFE1021CE
:105750004DF22F5001F0C6FE03214DF2305001F002
:10576000C1FE33214DF2315001F0BCFE03214DF258
:10577000325001F0B7FE6D214DF2335001F0B2FE10
:1057800000214FF4564001F0ADFE33214DF201608F
:1057900001F0A8FE00214DF2026001F0A3FE3421C9
:1057A0004DF2036001F09EFE00214DF2046001F015
:1057B00099FE3A214DF2056001F094FE00214DF270
:1057C000066001F08FFE4A214DF2076001F08AFE6B
:1057D00000214DF2086001F085FE5C214DF2096068
:1057E00001F080FE00214DF20A6001F07BFE812174
:1057F0004DF20B6001F076FE00214DF20C6001F0DD
:1058000071FEA6214DF20D6001F06CFE00214DF2FB
:105810000E6001F067FEE5214DF20F6001F062FEBF
:1058200001214DF2106001F05DFE13214DF2116077
:1058300001F058FE01214DF2126001F053FE542197
:105840004DF2136001F04EFE01214DF2146001F0A3
:1058500049FE82214DF2156001F044FE01214DF216
:10586000166001F03FFECA214DF2176001F03AFECA
:1058700002214DF2186001F035FE00214DF2196051
:1058800001F030FE02214DF21A6001F02BFE0121E1
:105890004DF21B6001F026FE02214DF21C6001F06A
:1058A00021FE34214DF21D6001F01CFE02214DF25B
:1058B0001E6001F017FE67214DF21F6001F012FE1D
:1058C00002214DF2206001F00DFE84214DF2216095
:1058D00001F008FE02214DF2226001F003FEA42136
:1058E0004DF2236001F0FEFD02214DF2246001F033
:1058F000F9FDB7214DF2256001F0F4FD02214DF2D2
:10590000266001F0EFFDCF214DF2276001F0EAFDA6
:1059100002214DF2286001F0E5FDDE214DF2296003
:1059200001F0E0FD02214DF22A6001F0DBFDF221E1
:105930004DF22B6001F0D6FD02214DF22C6001F0FA
:10594000D1FDFE214DF22D6001F0CCFD03214DF281
:105950002E6001F0C7FD10214DF22F6001F0C2FD55
:1059600003214DF2306001F0BDFD33214DF2316075
:1059700001F0B8FD03214DF2326001F0B3FD6D215D
:105980004DF2336001F0AEFD55214FF4704001F04F
:10599000A9FDAA214FF2010001F0A4FD52214FF20E
:1059A000020001F09FFD08214FF2030001F09AFD73
:1059B00000214FF2040001F095FDCC214FF431405D
:1059C00001F090FD00214BF2011001F08BFD05214B
:1059D0004FF4364001F086FD70214FF4374001F05E
:1059E00081FD70214BF2017001F07CFD01214FF42B
:1059F000384001F077FD03214BF6010001F072FD04
:105A000003214BF6020001F06DFD03214BF603006C
:105A100001F068FD02214FF43C4001F063FD0021DC
:105A20004BF6014001F05EFD00214BF6024001F013
:105A300059FDD0214FF4494001F054FD02214CF6AC
:105A4000011001F04FFD50214CF6021001F04AFD0B
:105A500050214CF6031001F045FD50214CF6041086
:105A600001F040FD00214FF4545001F03BFD552161
:105A70004FF4685001F036FD4FF4885001F022FDDC
:105A8000782005F03BFA4FF4245001F01BFD01F0A3
:105A90005BB9FE48808849F2253188427ED147F6BD
:105AA000F001E52001F01EFD4FF48071012001F0AE
:105AB00019FD4FF4E061022001F014FD41F23001C4
:105AC000032001F00FFD0021042001F00BFD40F246
:105AD0000221082001F006FD0021092001F002FD4D
