:020000040800F2
:10000000E8DA0020A9500008D1050008D30500084F
:10001000D5050008D7050008D90500080000000034
:10002000000000000000000000000000DB050008E8
:10003000DD0500080000000003BE0008994E00081E
:10004000C3500008C3500008C3500008C350000844
:10005000C3500008C3500008C3500008C350000834
:10006000C3500008C3500008C3500008C350000824
:10007000C3500008C3500008C3500008C350000814
:10008000C3500008C3500008C3500008C350000804
:10009000C3500008C3500008C3500008C3500008F4
:1000A000C3500008C3500008C3500008C3500008E4
:1000B000C3500008C3500008C3500008C3500008D4
:1000C000C3500008C3500008C3500008C3500008C4
:1000D000C350000841500008C3500008C350000836
:1000E000C3500008C3500008C3500008C3500008A4
:1000F000C3500008C3500008C3500008C350000894
:10010000C3500008C3500008C3500008C350000883
:10011000C3500008C3500008C3500008C350000873
:10012000C3500008C3500008C3500008C350000863
:1001300000F002F800F062F80AA090E8000C824497
:100140008344AAF10107DA4501D100F057F8AFF274
:10015000090EBAE80F0013F0010F18BFFB1A43F0A5
:1001600001031847A4D90000C4D900000A444FF085
:10017000000C10F8013B13F0070408BF10F8014B06
:100180001D1108BF10F8015B641E05D010F8016B4B
:10019000641E01F8016BF9D113F0080F1EBF10F8AF
:1001A000014BAD1C0C1B09D16D1E58BF01F801CBD2
:1001B000FAD505E014F8016B01F8016B6D1EF9D555
:1001C0009142D6D37047000000230024002500266A
:1001D000103A28BF78C1FBD8520728BF30C148BFAA
:1001E0000B60704764290BF0CD8478290BF00685ED
:1001F000002070471FB51FBD10B510BD0BF0B6FD38
:100200001146FFF7F7FF00F022F90BF0D4FD03B41D
:10021000FFF7F2FF03BC04F0BBFE00007CB5B64D57
:100220004FF4784010242880B4A0CDE90040234644
:10023000C8220A211E2004F0AAFCB5A0CDE9004086
:100240001E211023C822084604F0A1FCB5A0CDE968
:1002500000401023C82232211E2004F098FCB4A0D4
:10026000CDE900401023C82246211E2004F08FFC57
:10027000B3A0CDE900401023C8225A211E2004F06B
:1002800086FC002028804FF49D73EA2282210520FD
:1002900004F01DFB1F202880ACA0CDE900401023F6
:1002A000DC226E211E2004F072FC7CBD0EB5AC4D2C
:1002B000AC4FDFF8B4A200260DF108094FF00E088C
:1002C0004FF0100BCDE900694FF482730022032137
:1002D000A34807F0DAFB641CD7F89401E4B2C043EA
:1002E000C7F89401B4FBF8F108FB114140F239134F
:1002F0003AF82100E92280B200908321062004F020
:100300002FFA9AA0296A0BF0FDFBCDE900B6012374
:100310006E21AE202A6A04F0EBFBD3E70EB5002570
:1003200010260DF108084FF00809002004F072FCB7
:10033000012802D0022804D016E0002202AB0121DD
:1003400002E0002202AB0221854807F0EFFDCDE973
:1003500000650746024601236E21AE2004F0C8FB6B
:10036000394682A00BF0CEFB641CE4B2322C06D1DD
:1003700086480024D0F89411C943C0F89411002293
:10038000CDE900980A23114610460AF018FECCE782
:100390002DE9F0438BB005F040FC09A809F0CDFA37
:1003A000012109AA084606F092FE05F00BFD784DE2
:1003B0002978491C297005F009FD09AB002259A1D3
:1003C000674807F05AFA00240327CDE9064709AE2B
:1003D0004FF00C096F4A0896059404208DE8050239
:1003E0004FF080082346AFF2CB026A48CDE9038480
:1003F00069A1C43809F037FDCDE906470520694AEF
:10040000089605948DE805020023AFF25F12654857
:10041000CDE9038464A1C43809F025FD05F0D2FCC0
:100420002978491E11F0FF01297007D16349098815
:1004300021B105F0CBFC07F0BFF901E005F0C6FCE7
:1004400009A9002009F0F0FD0BB0BDE8F08330B53C
:100450008BB004F02FFD4FF4A06004F045FE4FF484
:10046000E13004F09FFD00F067F900F0B8FE04F001
:10047000B7FB04F0E5FC04F033FC002005F0BCFA07
:10048000FFF7CCFE09A806F0B8FC05F09BFC404C39
:100490002178491C217005F099FC002006AB09AABF
:1004A0000321059083E8070080220C23CDE9023266
:1004B000434D04900346AFF22712CDE9001541A148
:1004C000A5F1C40009F0CFFC05F07CFC2178491EA1
:1004D00011F0FF01217007D13849098821B105F0D9
:1004E00075FC07F069F901E005F070FC09A806F059
:1004F000AAFE0BB0002030BD4C000020414C494505
:100500004E54454B2053544D3332463100000000C9
:1005100055434F53494949204578616D7020313129
:100520002D3100004576656E7420466C616773005E
:1005300041544F4D40414C49454E54454B000000FD
:10054000323031352F332F31390000004576656E5A
:100550007420466C6167732056616C75653A300093
:10056000B40900200000234200000020CAC2BCFEE3
:10057000B1EAD6BED7E94576656E74466C6167739D
:10058000B5C4D6B53A25640D0A00000000802142AA
:1005900004010020F00400204D61696E2074617335
:1005A0006B000000B4070020466C61677370726FC7
:1005B00063657373207461736B000000C8000020D2
:1005C0002C0200207374617274207461736B0000DC
:1005D0007047FEE7FEE7FEE7FEE770477047000062
:1005E0000CB500224C4800920192016841F4803120
:1005F00001604FF4A063016801F40031019100999A
:10060000491C0091019911B900999942F3D10168EF
:10061000890333D50121019140490A6842F0100253
:100620000A600A6822F003020A600A6842F00202C5
:100630000A604168416041684160416841F48061FD
:100640004160416821F47C114160416841F4E81146
:100650004160016841F08071016001688901FCD549
:10066000416821F003014160416841F002014160AD
:100670004168C1F381010229FAD10CBD01920CBD80
:10068000254810B5016841F0010101604168244A24
:10069000114041600168234A11400160016821F462
:1006A00080210160416821F4FE0141604FF41F0187
:1006B0008160FFF795FF1C494FF00060086010BD96
:1006C000154A10B55068194B10F00C01184803D0AA
:1006D000042901D0082901D0036012E05168536851
:1006E00001F470114FF0020413F4803F04EB9141C8
:1006F00002D053689B0301D50E4B00E00B4B5943CE
:10070000016051680A4AC1F30311121D515C02686D
:10071000CA40026010BD00000010024000200240EC
:100720000000FFF8FFFFF6FE08ED00E000127A007F
:100730003800002000093D0038B50121482005F0AF
:10074000FEF82024ADF8004010208DF803000320AF
:100750000B4D8DF802006946284604F074FD2021F7
:10076000284604F0DAFDADF80040064C6946204604
:1007700004F069FD2021204604F0CFFD38BD0000C3
:10078000000C01400018014001B5BDF80000ADF8B3
:100790000000BDF80000F849088008BD01B5BDF8AB
:1007A0000000ADF80000BDF80000F349891C088086
:1007B00008BDF14808B5801C0088ADF80000BDF800
:1007C000000008BD03B5BDF80000EB490880BDF886
:1007D0000400891C08800CBD01B5BDF80000FFF7BE
:1007E000D3FF052004F08CFBBDE80840E1E7E348B7
:1007F000E149008908807047DF49891C08807047FB
:10080000C0F34511C20AC00200EB4110104480B28F
:100810007047401EC0B2FCD27047F0B5D74E0C46B0
:100820000246050AB1883046A1F5134340894FEAD4
:10083000142C413B1AD0A1F5A643103B16D0B64666
:10084000B3793688A1F5D047B61A761E043F17D083
:100850007746A1F5C85EBEF1630E25D0A1F5A04E86
:10086000BEF5A26E57D0012B6ED06EE0FFF78CFF65
:100870002846FFF793FFD0B2FFF790FFB0890CE056
:100880007546012B00D1B2B2FFF77EFF100AFFF7C9
:1008900085FFD0B2FFF782FFA889FFF775FF60469A
:1008A000FFF77CFFE0B225E03BB3FFF76DFF284682
:1008B000FFF774FFD0B2FFF771FF3888401EC0F316
:1008C0000F20FFF76BFF3878401EC0B2FFF766FFBE
:1008D000B889FFF759FF6046FFF760FFE0B2FFF706
:1008E0005DFF7888401EC0F30F20FFF757FFB878F0
:1008F000401EC0B2BDE8F04050E7B2B2FFF744FF7F
:100900000020FFF74BFF0020FFF748FF100AFFF71A
:1009100045FFD0B2DAE7FFF737FF2846FFF73EFF83
:100920007889401C80B2FFF72FFFD0B2FFF736FF67
:10093000B889FFF729FF6046FFF730FFB889401CF0
:1009400080B2FFF721FFADE7B2B21146FFF73AFFE1
:10095000B8892146BDE8F04034E7FEB50022ADF885
:100960000020ADF80420ADF80820844D2A8882428A
:1009700002D96A888A4201D80020FEBDFFF74DFFE8
:10098000A88849F2413641F6631745F2103245F224
:100990001054B04207D0A0F5D041043903D09042A2
:1009A00001D0B84201D12E2005E0A04202D14FF47F
:1009B000385000E02220FFF7E7FEA888A0F5134199
:1009C000203903D10220401EC0B2FCD2FFF7F1FE55
:1009D000ADF80000A888B84249D00220401EC0B23D
:1009E000FCD2FFF7E6FEADF80000A888B04203D0C5
:1009F000904201D0A04214D10220401EC0B2FCD2CD
:100A0000FFF7D7FEADF80800BDF80000C0B2ADF8A2
:100A10000400BDF804004FF6FF7101EA0020ADF8B4
:100A20000400A888A0F51341253920D0A0F58A41FB
:100A300035391CD0091D1AD0A0F53541053916D01D
:100A4000B1F5805113D0B04203D0904201D0A04202
:100A500010D1BDF80000BDF804106FF30A00890A38
:100A600040EA4110BDF8081040EAD120FEBDBDF8B3
:100A70000000FEBDBDF80000BDE8FE40C0E63F48F6
:100A80008088A0F51341413913D0A0F5D041043935
:100A90000FD0A0F5A64110390BD0A0F5C85163398D
:100AA00007D0A0F5AA41103905D040F273110720F4
:100AB00088E6292001E04FF4245065E62F4880881D
:100AC000A0F51341413912D0A0F5D04104390ED020
:100AD000A0F5A64110390AD0A0F5C851633906D057
:100AE000A0F5AA41103904D0002107206AE6282089
:100AF00001E04FF4205047E6F0B5204F002439467E
:100B0000BA79898846F6040341F66315012A01D0B3
:100B10002AB11DE099421BD0A94202D118E0A94296
:100B200016D1082814D2DFE800F00406080A0C0EDB
:100B3000101206200CE007200AE0042008E005203F
:100B400006E0012004E0002002E0032000E0022093
:100B5000A1F5134C45F2103245F21056BCF1410C90
:100B600007D0994205D0914203D0B14201D0A942A9
:100B70007ED1082817D203E0FE07006CDC090020B4
:100B8000DFE800F0110406080A0C0E1080240AE0C9
:100B9000402408E0C02406E0202404E0602402E0B1
:100BA000A02400E0E024B14202D14FF4585000E00C
:100BB0003620914205D0B14203D0A94201D044F081
:100BC0000804994201D144F002042146FFF7FAFDDE
:100BD000BA88AA420AD0A0063888798802D5884205
:100BE00002D303E0884201D9398078807889B24203
:100BF00042D1FFF7C9FD0020FFF7D0FD7889401CE6
:100C000080B2FFF7C1FD0020FFF7C8FD7889801C86
:100C100080B2FFF7B9FD3888401EC0F30F20FFF700
:100C2000BDFD7889C01C80B2FFF7AEFD3878401E4C
:100C3000C0B2FFF7B3FDB889FFF7A6FD0020FFF7AC
:100C4000ADFDB889401C80B2FFF79EFD0020FFF784
:100C5000A5FDB889801C80B2FFF796FD7888401EFC
:100C6000C0F30F20FFF79AFDB889C01C80B200E0E6
:100C70002AE0FFF789FD21E0FFF786FD0020FFF75E
:100C80008DFD0020FFF78AFD3888401EC0F30F203D
:100C9000FFF784FD3878401EC0B2FFF77FFDB889AA
:100CA000FFF772FD0020FFF779FD0020FFF776FDCA
:100CB0007888401EC0F30F20FFF770FDB878BDE8BC
:100CC000F040401EC0B269E5082812D2DFE800F00B
:100CD000040608110A0C0E1030240AE0102408E063
:100CE000202406E0382404E0282402E0182400E050
:100CF000082444F48051BDE8F040032062E500B5CB
:100D0000FFF78BFDFFF773FDFE48FF490088088061
:100D100000BD2DE9F041FD4D90460C460246060A05
:100D2000A9882846A1F5134340894FEA142C413B7A
:100D300016D0A1F5A643103B12D0B3F5007313D023
:100D40002E46A1F5C857B3793688B61A761E633F8A
:100D500023D0A1F5D047043F3AD0012B4DD04DE030
:100D6000FFF712FD304639E0FFF70EFD3046FFF782
:100D700015FD6889401C80B2FFF706FDD0B2FFF771
:100D80000DFDA889FFF700FD6046FFF707FDA88964
:100D9000401C80B2FFF7F8FC2BE003B9B2B2FFF7BA
:100DA000F3FC160A3046FFF7F9FCD0B2FFF7F6FC69
:100DB0003046FFF7F3FCD0B2FFF7F0FCA889FFF74D
:100DC000E3FC6046FFF7EAFCE0B2FFF7E7FC0DE06A
:100DD000012B00D1B2B2FFF7D7FC100AFFF7DEFCFF
:100DE000D0B2FFF7DBFCA889FFF7CEFC6046FFF727
:100DF000D5FCE0B2FFF7D2FC07E0B2B21146FFF734
:100E0000E1FCA8892146FFF7DDFCBF492889891E3E
:100E10000880891CA1F80080BDE8F08110B5024669
:100E2000BE20FFF7B1FC0520FFF7B8FC10460BF021
:100E300046F84FF06632B64B0BF054F80BF012F850
:100E400080B2FFF7ABFC0120FFF7A8FCFF20FFF703
:100E5000A5FC0020FFF7A2FCBDE8104000209DE4A7
:100E60002DE9F04FA9492A232B24898845F2105AED
:100E70004FF4305B4FF4285E4FF448754FF0F00CA0
:100E800049F241394FF4A07745F210364FF4F07231
:100E900080B19E484FF00108494580F806800780E0
:100EA000A0F802C001D0B1423ED12C25058143817A
:100EB000848157E095484FF00008494580F8068046
:100EC000A0F800C0478006D0A1F5D04CBCF1040CBE
:100ED00001D0B1420CD12C2505814381A1F5D0432D
:100EE0008481043B01D0B14244D10780428041E07B
:100EF000514507D1A0F808B0A0F80AE04FF42C51F2
:100F000081810EE0A1F5C856633E06D02221018101
:100F100020214181212181812CE02C2101814481EA
:100F200083810280458025E0A1F5D04CBCF1040C02
:100F300009D051450BD1A0F808B0A0F80AE04FF451
:100F40002C53838120E02C250581448109E0A1F503
:100F5000C85CBCF1630C11D022230381212343819F
:100F600020238381A1F5D043043B01D0B14201D1BC
:100F700002804780BDE8F04F0020BDE54FF02C0C0B
:100F8000A0F808C04381848105804280EAE72DE90A
:100F9000FE4F0446104401EB0308DFF87091401E39
:100FA000A8F1010887B2B9F80400C8F30723029337
:100FB0000B0A0093A3185B1EC3F3072301934B4650
:100FC0000D465B89A0F513411FFA88F64FEA142BF2
:100FD000413910D0A0F5A64110390CD0A0F5D04170
:100FE000043908D099F806A041F6631CBAF1010F44
:100FF0001ED160451CD14A461846FFF7C5FB58462E
:10100000FFF7CCFBE0B2FFF7C9FB0198FFF7C6FB87
:10101000F8B2FFF7C3FB9089FFF7B6FB0098FFF724
:10102000BDFBE8B2FFF7BAFB0298FFF7B7FB96E00B
:1010300036496045098825D1881A001B84B24E467E
:101040001FFA88F71846FFF79FFB200AFFF7A6FB59
:10105000E0B2FFF7A3FB2244521EC2F30F20FFF7BA
:101060009DFBD0B2FFF79AFBB089FFF78DFB00988C
:10107000FFF794FBE8B2FFF791FB380AFFF78EFB0E
:10108000F8B26DE0A0F5A04C4A46BCF5A26C23D0A6
:10109000BAF1010F68D0BC4620462F4650220146C7
:1010A0004FF0510A4FF052094FF053081046FFF726
:1010B00089FB61465046FFF785FB39464846FFF7F6
:1010C00081FB31464046FFF77DFB03B029462046B1
:1010D000BDE8F04FFFF7A1BB1846FFF755FB584698
:1010E000FFF75CFB5089401C80B2FFF74DFBE0B27C
:1010F000FFF754FB5089801C80B2FFF745FB019835
:1011000008E000004C0000200008006CDC09002012
:1011100066660440FFF742FB5089C01C80B2FFF7AF
:1011200033FBF8B2FFF73AFB9089FFF72DFB0098ED
:10113000FFF734FB9089401C80B2FFF725FBE8B233
:10114000FFF72CFB9089801C80B2FFF71DFB0298F3
:10115000FFF724FB9089C01C80B2FFF715FBF0B2AB
:10116000BDE8FE4FFFF71ABBCA1B521E091BB4464F
:10117000491E284697B28EB290E72DE9F043FF4F03
:101180000646002438887D884543B888A0F5D041BC
:10119000043902D1B879012807D000210846FFF7A9
:1011A0003CFBFFF724FBF64815E00020B8714FF038
:1011B0002A09A7F80A904FF02B08A7F80C800146DF
:1011C000FFF72BFB0120B871A7F80A80A7F80C9055
:1011D000E7E70680641CAC42FBD3BDE8F0832DE951
:1011E000F05FE8484069E74940F4807048618869E9
:1011F00040F008008861886940F0200088618869B3
:1012000040F040008861886940F480708861DE4861
:10121000016821F00F010160016841F003010160E4
:10122000DA480168DA4A114001600168D94A11437D
:101230000160001F016801F0FF210160016841F0B9
:10124000BB110160D448016800210160026842F0CE
:10125000BB320260001F026822F070420260026826
:1012600042F030420260CD48426822F4702242606F
:10127000426842F430224260026822F00F020260AB
:10128000026842F00B0202604FF020408161C161B0
:10129000C0F81C11816941F480518161816941F478
:1012A00080418161816941F010018161C169C16141
:1012B000C16941F00101C161C16941F47061C1615D
:1012C000D0F81C11C0F81C11D0F81C11C0F81C116A
:1012D000D0F81C1141F44071C0F81C11816941F033
:1012E00001018161322003F02AFE0020FFF774FA29
:1012F000A24F49F2413546F60408B88045F210394C
:1013000045F210544FF6FF76FF2804D3B04202D0C6
:10131000B0F5134F76D1D320FFF736FAFFF749FA2D
:10132000B880FFF746FAB880FFF743FA06EA0020D4
:10133000B880FFF73EFAB9880843B880A84261D068
:10134000BF20FFF721FAFFF734FAB880FFF731FA30
:10135000B880FFF72EFAB880FFF72BFA06EA0020D4
:10136000B880FFF726FAB9880843B880404549D0CD
:10137000D420FFF709FAFFF71CFAB880FFF719FA33
:10138000B880FFF716FA06EA0020B880FFF711FAD6
:10139000B9880843B880484534D04FF45A40FFF725
:1013A000F3F9FFF706FAB8804FF45B40FFF7ECF96A
:1013B000FFF7FFF906EA0020B8804FF45C40FFF722
:1013C000E3F9FFF7F6F9B9880843B880B0F5004FA4
:1013D0007ED0A04216D0A120FFF7D6F9FFF7E9F999
:1013E000B880FFF7E6F906EA0020B880FFF7E1F9D8
:1013F000B9880843A0F5AE41B880613902D141F601
:101400006310B880B98866A00AF07CFBB888A8424F
:101410007ED1CF20FFF7B8F90020FFF7BFF9C12038
:10142000FFF7BCF93020FFF7B9F9ED20FFF7ACF971
:101430006420FFF7B3F90320FFF7B0F91220FFF79C
:10144000ADF98120FFF7AAF9E820FFF79DF9852083
:10145000FFF7A4F91020FFF7A1F97A20FFF79EF912
:10146000CB20FFF791F93920FFF798F92C20FFF7EF
:1014700095F90020FFF792F93420FFF78FF9022049
:10148000FFF78CF9F720FFF77FF92020FFF786F9A7
:10149000EA20FFF779F90020FFF780F90020FFF735
:1014A0007DF9C020FFF770F91B20FFF777F9C12005
:1014B000FFF76AF90120FFF771F9C520FFF764F91A
:1014C0003020FFF76BF93020FFF768F9C72000E004
:1014D000CEE0FFF759F9B720FFF760F93620FFF7A4
:1014E00053F94820FFF75AF93A20FFF74DF95520F4
:1014F000FFF754F9B120FFF747F90020FFF74EF945
:101500001A20FFF74BF9B620FFF73EF90A2000E05A
:10151000B0E0FFF743F9A220FFF740F9F220FFF710
:1015200033F90020FFF73AF92620FFF72DF90120C3
:10153000FFF734F9E020FFF727F90F20FFF72EF926
:101540002A20FFF72BF92820FFF728F90820FFF7BA
:1015500025F90E20FFF722F90820FFF71FF9542084
:10156000FFF71CF9A920FFF719F94320FFF716F937
:101570000A20FFF713F90F201AE00000DC09002011
:101580000008006C00100240000C014004140140EF
:1015900000F0FF00BB0B00BB04180140002001401D
:1015A000204C43442049443A25780D0A00000000AD
:1015B000FFF7F4F80020FFF7F1F80020FFF7EEF84E
:1015C0000020FFF7EBF80020FFF7E8F8E120FFF735
:1015D000DBF80020FFF7E2F81520FFF7DFF817200F
:1015E000FFF7DCF80720FFF7D9F81120FFF7D6F84E
:1015F0000620FFF7D3F82B20FFF7D0F85620FFF78F
:10160000CDF83C20FFF7CAF80520FFF7C7F81020F7
:10161000FFF7C4F80F20FFF7C1F83F20FFF7BEF82F
:101620003F20FFF7BBF80F20FFF7B8F82B20FFF79C
:10163000ABF80020FFF7B2F80020FFF7AFF8012069
:10164000FFF7ACF83F20FFF7A9F82A20FFF79CF836
:101650000020FFF7A3F80020FFF7A0F80020FFF715
:101660009DF8EF20FFF79AF81120FFF78DF8A7E01B
:10167000BC80C7E640457CD11120FFF785F81420D7
:1016800003F05DFCD020FFF77FF80720FFF786F816
:101690004220FFF783F81D20FFF780F8D120FFF7E5
:1016A00073F80020FFF77AF81A20FFF777F809207F
:1016B000FFF774F8D220FFF767F80120FFF76EF804
:1016C0002220FFF76BF8C020FFF75EF81020FFF72D
:1016D00065F83B20FFF762F80020FFF75FF8022073
:1016E000FFF75CF81120FFF759F8C520FFF74CF819
:1016F0000320FFF753F8C820FFF746F80020FFF754
:101700004DF82520FFF74AF82120FFF747F805207C
:10171000FFF744F80020FFF741F80A20FFF73EF8F2
:101720006520FFF73BF82520FFF738F87720FFF713
:1017300035F85020FFF732F80F20FFF72FF8002080
:10174000FFF72CF8F820FFF71FF80120FFF726F825
:10175000FE20FFF719F80020FFF720F80220FFF71E
:101760001DF82020FFF710F83620FFF70DF80820AD
:1017700000E02BE0FFF712F83A20FFF705F85520BC
:10178000FFF70CF82B20FEF7FFFF0020FFF706F80D
:101790000020FFF703F80120FFF700F83F20FEF7D5
:1017A000FDFF2A20FEF7F0FF0020FEF7F7FF0020E4
:1017B000FEF7F4FF0120FEF7F1FFDF20FEF7EEFF5A
:1017C000782003F0BCFB292001F0FCBE48457CD109
:1017D000ED20FEF7D9FF0120FEF7E0FFFE20FEF727
:1017E000DDFFEE20FEF7D0FFDE20FEF7D7FF212041
:1017F000FEF7D4FFF120FEF7C7FF0120FEF7CEFF72
:10180000DF20FEF7C1FF1020FEF7C8FFC420FEF75F
:10181000BBFF8F20FEF7C2FFC620FEF7B5FF0020FA
:10182000FEF7BCFFE220FEF7B9FFE220FEF7B6FFAD
:10183000E220FEF7B3FFBF20FEF7A6FFAA20FEF7C7
:10184000ADFFB020FEF7A0FF0D20FEF7A7FF0020A0
:10185000FEF7A4FF0D20FEF7A1FF0020FEF79EFF7C
:101860001120FEF79BFF0020FEF798FF1920FEF7DE
:1018700095FF0020FEF792FF2120FEF78FFF00204A
:10188000FEF78CFF2D20FEF789FF0020FEF786FF74
:101890003D20FEF783FF0020FEF780FF5D20FEF76E
:1018A0007DFF0020FEF77AFF5D20FEF777FF002026
:1018B000FEF774FFB120FEF767FF8020FEF76EFF92
:1018C0000020FEF76BFF8B2000E0FCE3FEF766FFD5
:1018D0000020FEF763FF9620FEF760FF0020FEF772
:1018E0005DFFB220FEF750FF0020FEF757FF0020FB
:1018F000FEF754FF0220FEF751FF0020FEF74EFFD7
:101900000320FEF74BFF0020FEF748FFB320FEF751
:101910003BFF0020FEF742FF0020FEF73FFF0020C4
:10192000FEF73CFF0020FEF739FF0020FEF736FFF0
:101930000020FEF733FF0020FEF730FF0020FEF707
:101940002DFF0020FEF72AFF0020FEF727FF0020D2
:10195000FEF724FF0020FEF721FF0020FEF71EFF08
:101960000020FEF71BFF0020FEF718FF0020FEF707
:1019700015FF0020FEF712FF0020FEF70FFF0020EA
:10198000FEF70CFF0020FEF709FF0020FEF706FF20
:101990000020FEF703FF0020FEF700FF0020FEF707
:1019A000FDFEB420FEF7F0FE8B20FEF7F7FE0020D0
:1019B000FEF7F4FE9620FEF7F1FE0020FEF7EEFEA5
:1019C000A120FEF7EBFE0020FEF7E8FEB520FEF7B3
:1019D000DBFE0220FEF7E2FE0020FEF7DFFE032022
:1019E000FEF7DCFE0020FEF7D9FE0420FEF7D6FE4F
:1019F0000020FEF7D3FEB620FEF7C6FE0020FEF75D
:101A0000CDFE0020FEF7CAFEB720FEF7BDFE002087
:101A1000FEF7C4FE0020FEF7C1FE3F20FEF7BEFE2B
:101A20000020FEF7BBFE5E20FEF7B8FE0020FEF7AA
:101A3000B5FE6420FEF7B2FE0020FEF7AFFE8C205C
:101A4000FEF7ACFE0020FEF7A9FEAC20FEF7A6FED6
:101A50000020FEF7A3FEDC20FEF7A0FE0020FEF72C
:101A60009DFE7020FEF79AFE0020FEF797FE902064
:101A7000FEF794FE0020FEF791FEEB20FEF78EFEAF
:101A80000020FEF78BFEDC20FEF788FE0020FEF72C
:101A900085FEB820FEF778FE0020FEF77FFE0020CE
:101AA000FEF77CFE0020FEF779FE0020FEF776FEB2
:101AB0000020FEF773FE0020FEF770FE0020FEF708
:101AC0006DFE0020FEF76AFEBA20FEF75DFE2420C0
:101AD000FEF764FE0020FEF761FE0020FEF75EFECA
:101AE0000020FEF75BFEC120FEF74EFE2020FEF731
:101AF00055FE0020FEF752FE5420FEF74FFE002058
:101B0000FEF74CFEFF20FEF749FE0020FEF746FEE2
:101B1000C220FEF739FE0A20FEF740FE0020FEF745
:101B20003DFE0420FEF73AFE0020FEF737FEC320FC
:101B3000FEF72AFE3C20FEF731FE0020FEF72EFEC7
:101B40003A20FEF72BFE0020FEF728FE3920FEF794
:101B500025FE0020FEF722FE3720FEF71FFE0020A4
:101B6000FEF71CFE3C20FEF719FE0020FEF716FED5
:101B70003620FEF713FE0020FEF710FE3220FEF79F
:101B80000DFE0020FEF70AFE2F20FEF707FE0020C4
:101B9000FEF704FE2C20FEF701FE0020FEF7FEFDFE
:101BA0002920FEF7FBFD0020FEF7F8FD2620FEF7BA
:101BB000F5FD0020FEF7F2FD2420FEF7EFFD0020EA
:101BC000FEF7ECFD2420FEF7E9FD0020FEF7E6FD20
:101BD0002320FEF7E3FD0020FEF7E0FD3C20FEF7AA
:101BE000DDFD0020FEF7DAFD3620FEF7D7FD0020F0
:101BF000FEF7D4FD3220FEF7D1FD0020FEF7CEFD2A
:101C00002F20FEF7CBFD0020FEF7C8FD2C20FEF7AD
:101C1000C5FD0020FEF7C2FD2920FEF7BFFD002014
:101C2000FEF7BCFD2620FEF7B9FD0020FEF7B6FD4D
:101C30002420FEF7B3FD0020FEF7B0FD2420FEF7C0
:101C4000ADFD0020FEF7AAFD2320FEF7A7FD002032
:101C5000FEF7A4FDC420FEF797FD6220FEF79EFD6F
:101C60000020FEF79BFD0520FEF798FD0020FEF703
:101C700095FD8420FEF792FD0020FEF78FFDF020F9
:101C8000FEF78CFD0020FEF789FD1820FEF786FD8B
:101C90000020FEF783FDA420FEF780FD0020FEF764
:101CA0007DFD1820FEF77AFD0020FEF777FD50201D
:101CB000FEF774FD0020FEF771FD0C20FEF76EFDAF
:101CC0000020FEF76BFD1720FEF768FD0020FEF7F1
:101CD00065FD9520FEF762FD0020FEF75FFDF32015
:101CE000FEF75CFD0020FEF759FDE620FEF756FDED
:101CF0000020FEF753FDC520FEF746FD3220FEF71B
:101D00004DFD0020FEF74AFD4420FEF747FD002070
:101D1000FEF744FD6520FEF741FD0020FEF73EFD85
:101D20007620FEF73BFD0020FEF738FD8820FEF709
:101D300035FD0020FEF732FDC620FEF725FD2020F0
:101D4000FEF72CFD0020FEF729FD1720FEF726FDEB
:101D50000020FEF723FD0120FEF720FD0020FEF706
:101D60001DFDC720FEF710FD0020FEF717FD002027
:101D7000FEF714FD0020FEF711FD0020FEF70EFD1A
:101D8000C820FEF701FD0020FEF708FD0020FEF749
:101D900005FD0020FEF702FD0020FEF7FFFCC92034
:101DA000FEF7F2FC0020FEF7F9FC0020FEF7F6FC3F
:101DB0000020FEF7F3FC0020FEF7F0FC0020FEF709
:101DC000EDFC0020FEF7EAFC0020FEF7E7FC002017
:101DD000FEF7E4FC0020FEF7E1FC0020FEF7DEFC4D
:101DE0000020FEF7DBFC0020FEF7D8FC0020FEF709
:101DF000D5FC0020FEF7D2FC0020FEF7CFFC00202F
:101E0000FEF7CCFCE020FEF7BFFC1620FEF7C6FC78
:101E10000020FEF7C3FC1C20FEF7C0FC0020FEF7EC
:101E2000BDFC2120FEF7BAFC0020FEF7B7FC3620EF
:101E3000FEF7B4FC0020FEF7B1FC4620FEF7AEFC36
:101E40000020FEF7ABFC5220FEF7A8FC0020FEF7B6
:101E5000A5FC6420FEF7A2FC0020FEF79FFC7A2080
:101E6000FEF79CFC0020FEF799FC8B20FEF796FC09
:101E70000020FEF793FC9920FEF790FC0020FEF76F
:101E80008DFCA820FEF78AFC0020FEF787FCB92015
:101E9000FEF784FC0020FEF781FCC420FEF77EFCE8
:101EA0000020FEF77BFCCA20FEF778FC0020FEF73E
:101EB00075FCD220FEF772FC0020FEF76FFCD920E3
:101EC000FEF76CFC0020FEF769FCE020FEF766FCE4
:101ED0000020FEF763FCF320FEF760FC0020FEF715
:101EE0005DFCE120FEF750FC1620FEF757FC0020B9
:101EF000FEF754FC1C20FEF751FC0020FEF74EFCC0
:101F00002220FEF74BFC0020FEF748FC3620FEF7AF
:101F100045FC0020FEF742FC4520FEF73FFC002078
:101F2000FEF73CFC5220FEF739FC0020FEF736FCA1
:101F30006420FEF733FC0020FEF730FC7A20FEF729
:101F40002DFC0020FEF72AFC8B20FEF727FC00204A
:101F5000FEF724FC9920FEF721FC0020FEF71EFC72
:101F6000A820FEF71BFC0020FEF718FCB920FEF7A6
:101F700015FC0020FEF712FCC420FEF70FFC002029
:101F8000FEF70CFCCA20FEF709FC0020FEF706FC59
:101F9000D220FEF703FC0020FEF700FCD820FEF75D
:101FA000FDFB0020FEF7FAFBE020FEF7F7FB002028
:101FB000FEF7F4FBF320FEF7F1FB0020FEF7EEFB4B
:101FC000E220FEF7E1FB0520FEF7E8FB0020FEF72C
:101FD000E5FB0B20FEF7E2FB0020FEF7DFFB1B20FA
:101FE000FEF7DCFB0020FEF7D9FB3420FEF7D6FB22
:101FF0000020FEF7D3FB4420FEF7D0FB0020FEF7C5
:10200000CDFB4F20FEF7CAFB0020FEF7C7FB612087
:10201000FEF7C4FB0020FEF7C1FB7920FEF7BEFBF4
:102020000020FEF7BBFB8820FEF7B8FB0020FEF780
:10203000B5FB9720FEF7B2FB0020FEF7AFFBA62012
:10204000FEF7ACFB0020FEF7A9FBB720FEF7A6FBCE
:102050000020FEF7A3FBC220FEF7A0FB0020FEF746
:102060009DFBC720FEF79AFB0020FEF797FBD120CF
:10207000FEF794FB0020FEF791FBD620FEF78EFBC7
:102080000020FEF78BFBDD20FEF788FB0020FEF72B
:1020900085FBF320FEF782FB0020FEF77FFBE320A9
:1020A000FEF772FB0520FEF779FB0020FEF776FBBA
:1020B0000A20FEF773FB0020FEF770FB1C20FEF7E2
:1020C0006DFB002000E0FDE2FEF768FB3320FEF729
:1020D00065FB0020FEF762FB4420FEF75FFB00205B
:1020E000FEF75CFB5020FEF759FB0020FEF756FB85
:1020F0006220FEF753FB0020FEF750FB7820FEF72E
:102100004DFB0020FEF74AFB8820FEF747FB00202E
:10211000FEF744FB9720FEF741FB0020FEF73EFB55
:10212000A620FEF73BFB0020FEF738FBB720FEF7AA
:1021300035FB0020FEF732FBC220FEF72FFB00200C
:10214000FEF72CFBC720FEF729FB0020FEF726FB3D
:10215000D120FEF723FB0020FEF720FBD520FEF761
:102160001DFB0020FEF71AFBDD20FEF717FB002009
:10217000FEF714FBF320FEF711FB0020FEF70EFB29
:10218000E420FEF701FB0120FEF708FB0020FEF72C
:1021900005FB0120FEF702FB0020FEF7FFFA0220FC
:1021A000FEF7FCFA0020FEF7F9FA2A20FEF7F6FA0D
:1021B0000020FEF7F3FA3C20FEF7F0FA0020FEF7CD
:1021C000EDFA4B20FEF7EAFA0020FEF7E7FA5D2071
:1021D000FEF7E4FA0020FEF7E1FA7420FEF7DEFADB
:1021E0000020FEF7DBFA8420FEF7D8FA0020FEF785
:1021F000D5FA9320FEF7D2FA0020FEF7CFFAA220FC
:10220000FEF7CCFA0020FEF7C9FAB320FEF7C6FAB3
:102210000020FEF7C3FABE20FEF7C0FA0020FEF74A
:10222000BDFAC420FEF7BAFA0020FEF7B7FACD20B7
:10223000FEF7B4FA0020FEF7B1FAD320FEF7AEFAAB
:102240000020FEF7ABFADD20FEF7A8FA0020FEF72B
:10225000A5FAF320FEF7A2FA0020FEF79FFAE52088
:10226000FEF792FA0020FEF799FA0020FEF796FAA0
:102270000020FEF793FA0020FEF790FA0220FEF706
:102280008DFA0020FEF78AFA2920FEF787FA00204F
:10229000FEF784FA3C20FEF781FA0020FEF77EFA72
:1022A0004B20FEF77BFA0020FEF778FA5D20FEF760
:1022B00075FA0020FEF772FA7420FEF76FFA00201C
:1022C000FEF76CFA8420FEF769FA0020FEF766FA42
:1022D0009320FEF763FA0020FEF760FAA220FEF7D3
:1022E0005DFA0020FEF75AFAB320FEF757FA0020F5
:1022F000FEF754FABE20FEF751FA0020FEF74EFA20
:10230000C420FEF74BFA0020FEF748FACD20FEF776
:1023100045FA0020FEF742FAD320FEF73FFA0020EC
:10232000FEF73CFADC20FEF739FA0020FEF736FA19
:10233000F320FEF733FA0020FEF730FAE620FEF72E
:1023400023FA1120FEF72AFA0020FEF727FA34209C
:10235000FEF724FA0020FEF721FA5620FEF71EFAB7
:102360000020FEF71BFA7620FEF718FA0020FEF791
:1023700015FA7720FEF712FA0020FEF70FFA662012
:10238000FEF70CFA0020FEF709FA8820FEF706FA9D
:102390000020FEF703FA9920FEF700FA0020FEF76E
:1023A000FDF9BB20FEF7FAF90020FEF7F7F99920B6
:1023B000FEF7F4F90020FEF7F1F96620FEF7EEF9DA
:1023C0000020FEF7EBF95520FEF7E8F90020FEF7B4
:1023D000E5F95520FEF7E2F90020FEF7DFF9452088
:1023E000FEF7DCF90020FEF7D9F94320FEF7D6F915
:1023F0000020FEF7D3F94420FEF7D0F90020FEF7C5
:10240000CDF9E720FEF7C0F93220FEF7C7F900202A
:10241000FEF7C4F95520FEF7C1F90020FEF7BEF91A
:102420007620FEF7BBF90020FEF7B8F96620FEF72C
:10243000B5F90020FEF7B2F96720FEF7AFF90020EA
:10244000FEF7ACF96720FEF7A9F90020FEF7A6F920
:102450008720FEF7A3F90020FEF7A0F99920FEF7E8
:102460009DF90020FEF79AF9BB20FEF797F90020AE
:10247000FEF794F99920FEF791F90020FEF78EF906
:102480007720FEF78BF90020FEF788F94420FEF74D
:1024900085F90020FEF782F95620FEF77FF900202B
:1024A000FEF77CF92320FEF779F90020FEF776F994
:1024B0003320FEF773F90020FEF770F94520FEF790
:1024C0006DF90020FEF76AF9E820FEF75DF90020BB
:1024D000FEF764F90020FEF761F99920FEF75EF936
:1024E0000020FEF75BF98720FEF758F90020FEF781
:1024F00055F98820FEF752F90020FEF74FF97720B2
:10250000FEF74CF90020FEF749F96620FEF746F980
:102510000020FEF743F98820FEF740F90020FEF77F
:102520003DF9AA20FEF73AF90020FEF737F9BB2063
:10253000FEF734F90020FEF731F99920FEF72EF965
:102540000020FEF72BF96620FEF728F90020FEF7A1
:1025500025F95520FEF722F90020FEF71FF9552036
:10256000FEF71CF90020FEF719F94420FEF716F9D2
:102570000020FEF713F94420FEF710F90020FEF7C3
:102580000DF95520FEF70AF90020FEF707F9E920BA
:10259000FEF7FAF8AA20FEF701F90020FEF7FEF890
:1025A0000020FEF7FBF80020FEF7F8F80020FEF709
:1025B000EBF8AA20FEF7F2F8CF20FEF7E5F80020AE
:1025C000FEF7ECF80020FEF7E9F80020FEF7E6F849
:1025D0000020FEF7E3F80020FEF7E0F80020FEF709
:1025E000DDF80020FEF7DAF80020FEF7D7F800202B
:1025F000FEF7D4F80020FEF7D1F80020FEF7CEF861
:102600000020FEF7CBF80020FEF7C8F80020FEF708
:10261000C5F80020FEF7C2F80020FEF7BFF8002042
:10262000FEF7BCF8F020FEF7AFF80020FEF7B6F892
:102630005020FEF7B3F80020FEF7B0F80020FEF7B8
:10264000ADF80020FEF7AAF8F320FEF79DF8002071
:10265000FEF7A4F8F920FEF797F80620FEF79EF89B
:102660001020FEF79BF82920FEF798F80020FEF7CF
:1026700095F83A20FEF788F85520FEF78FF81120DC
:10268000FEF782F8642002F05AFC2920FEF77CF85D
:102690003520FEF779F80020FEF780F85120FEF78C
:1026A00073F8FF20FEF77AF85320FEF76DF82C2020
:1026B000FEF774F85520FEF767F88220FEF76EF8F3
:1026C0002C20FDE3A0427CD14FF4704455212046DC
:1026D000FEF778F8651CAA212846FEF773F8A71CB8
:1026E00052213846FEF76EF84FF2030C082160467F
:1026F000FEF768F84FF2040801214046FEF762F841
:102700000D214FF43040FEF75DF80D214BF2010032
:10271000FEF758F80D214BF20200FEF753F84FF484
:10272000364934214846FEF74DF834214BF201601A
:10273000FEF748F834214BF20260FEF743F84FF4FD
:10274000314A0D215046FEF73DF84BF2011B0D2199
:102750005846FEF737F80D214BF20210FEF732F81B
:1027600034214FF43740FEF72DF834214BF201703D
:10277000FEF728F834214BF20270FEF723F800210F
:102780004FF43240FEF71EF800214BF20120FEF715
:1027900019F800214BF20220FEF714F824214FF41F
:1027A0003840FEF70FF824214BF60100FEF70AF837
:1027B00024214BF60200FEF705F801214FF43F40BB
:1027C00000E0FCE3FDF7FEFF0F214FF43340FDF77F
:1027D000F9FF0F214BF20130FDF7F4FF0F214BF20F
:1027E0000230FDF7EFFF34214FF43940FDF7EAFFE7
:1027F00034214BF60110FDF7E5FF34214BF60210B2
:10280000FDF7E0FF08214FF43540FDF7DBFF08211D
:102810004BF20150FDF7D6FF08214BF20250FDF7B5
:10282000D1FF03214FF44240FDF7CCFF24214FF4A8
:102830003A40FDF7C7FF24214BF60120FDF7C2FF08
:1028400024214BF60220FDF7BDFF00214FF43C4050
:10285000FDF7B8FF78214BF60140FDF7B3FF0021EB
:102860004BF60240FDF7AEFF00214FF43D40FDF76F
:10287000A9FF78214BF60150FDF7A4FF00214BF68C
:102880000250FDF79FFF00214FF43E40FDF79AFFF5
:1028900064214BF60160FDF795FF00214FF4514094
:1028A000FDF790FF33214DF20110FDF78BFF002162
:1028B0004DF20210FDF786FF34214DF20310FDF7B3
:1028C00081FF00214DF20410FDF77CFF3A214DF20B
:1028D0000510FDF777FF00214DF20610FDF772FF9E
:1028E0004A214DF20710FDF76DFF00214DF208104F
:1028F000FDF768FF5C214DF20910FDF763FF002131
:102900004DF20A10FDF75EFF81214DF20B10FDF72D
:1029100059FF00214DF20C10FDF754FFA6214DF296
:102920000D10FDF74FFF00214DF20E10FDF74AFF8D
:10293000E5214DF20F10FDF745FF01214DF210107A
:10294000FDF740FF13214DF21110FDF73BFF012170
:102950004DF21210FDF736FF54214DF21310FDF722
:1029600031FF01214DF21410FDF72CFF82214DF2B1
:102970001510FDF727FF01214DF21610FDF722FF7C
:10298000CA214DF21710FDF71DFF02214DF218105C
:10299000FDF718FF00214DF21910FDF713FF02217A
:1029A0004DF21A10FDF70EFF01214DF21B10FDF73D
:1029B00009FF02214DF21C10FDF704FF34214DF2F6
:1029C0001D10FDF7FFFE02214DF21E10FDF7FAFE6D
:1029D00067214DF21F10FDF7F5FE02214DF2201088
:1029E000FDF7F0FE84214DF22110FDF7EBFE0221F0
:1029F0004DF22210FDF7E6FEA4214DF22310FDF763
:102A0000E1FE02214DF22410FDF7DCFEB7214DF26C
:102A10002510FDF7D7FE02214DF22610FDF7D2FE5C
:102A2000CF214DF22710FDF7CDFE02214DF22810E7
:102A3000FDF7C8FEDE214DF22910FDF7C3FE02218D
:102A40004DF22A10FDF7BEFEF2214DF22B10FDF7DC
:102A5000B9FE02214DF22C10FDF7B4FEFE214DF21D
:102A60002D10FDF7AFFE03214DF22E10FDF7AAFE4B
:102A700010214DF22F10FDF7A5FE03214DF230106D
:102A8000FDF7A0FE33214DF23110FDF79BFE03212F
:102A90004DF23210FDF796FE6D214DF23310FDF729
:102AA00091FE00214FF45240FDF78CFE33214DF290
:102AB0000120FDF787FE00214DF20220FDF782FE86
:102AC00034214DF20320FDF77DFE00214DF204205C
:102AD000FDF778FE3A214DF20520FDF773FE002147
:102AE0004DF20620FDF76EFE4A214DF20720FDF75C
:102AF00069FE00214DF20820FDF764FE5C214DF2D5
:102B00000920FDF75FFE00214DF20A20FDF75AFE75
:102B100081214DF20B20FDF755FE00214DF20C20D6
:102B2000FDF750FEA6214DF20D20FDF74BFE0021D2
:102B30004DF20E20FDF746FEE5214DF20F20FDF788
:102B400041FE01214DF21020FDF73CFE13214DF214
:102B50001120FDF737FE01214DF21220FDF732FE64
:102B600054214DF21320FDF72DFE01214DF21420CA
:102B7000FDF728FE82214DF21520FDF723FE0121ED
:102B80004DF21620FDF71EFECA214DF21720FDF76B
:102B900019FE02214DF21820FDF714FE00214DF21E
:102BA0001920FDF70FFE02214DF21A20FDF70AFE53
:102BB00001214DF21B20FDF705FE02214DF21C20E4
:102BC000FDF700FE34214DF21D20FDF7FBFD022133
:102BD0004DF21E20FDF7F6FD67214DF21F20FDF797
:102BE000F1FD02214DF22020FDF7ECFD84214DF294
:102BF0002120FDF7E7FD02214DF22220FDF7E2FD45
:102C0000A4214DF22320FDF7DDFD02214DF2242009
:102C1000FDF7D8FDB7214DF22520FDF7D3FD0221A8
:102C20004DF22620FDF7CEFDCF214DF22720FDF7F6
:102C3000C9FD02214DF22820FDF7C4FDDE214DF231
:102C40002920FDF7BFFD02214DF22A20FDF7BAFD34
:102C5000F2214DF22B20FDF7B5FD02214DF22C2083
:102C6000FDF7B0FDFE214DF22D20FDF7ABFD032158
:102C70004DF22E20FDF7A6FD10214DF22F20FDF77D
:102C8000A1FD03214DF23020FDF79CFD33214DF2D3
:102C90003120FDF797FD03214DF23220FDF792FD23
:102CA0006D214DF23320FDF78DFD00214FF453408F
:102CB000FDF788FD33214DF20130FDF783FD002142
:102CC0004DF20230FDF77EFD34214DF20330FDF769
:102CD00079FD00214DF20430FDF774FD3A214DF2EB
:102CE0000530FDF76FFD00214DF20630FDF76AFD5E
:102CF0004A214DF20730FDF765FD00214DF2083005
:102D0000FDF760FD5C214DF20930FDF75BFD002110
:102D10004DF20A30FDF756FD81214DF20B30FDF7E3
:102D200051FD00214DF20C30FDF74CFDA6214DF276
:102D30000D30FDF747FD00214DF20E30FDF742FD4D
:102D4000E5214DF20F30FDF73DFD01214DF2103030
:102D5000FDF738FD13214DF21130FDF733FD012150
:102D60004DF21230FDF72EFD54214DF21330FDF7D8
:102D700029FD01214DF21430FDF724FD82214DF291
:102D80001530FDF71FFD01214DF21630FDF71AFD3C
:102D9000CA214DF21730FDF715FD02214DF2183012
:102DA000FDF710FD00214DF21930FDF70BFD02215A
:102DB0004DF21A30FDF706FD01214DF21B30FDF7F3
:102DC00001FD02214DF21C30FDF7FCFC34214DF2D7
:102DD0001D30FDF7F7FC02214DF21E30FDF7F2FC2D
:102DE00067214DF21F30FDF7EDFC02214DF220303E
:102DF000FDF7E8FC84214DF22130FDF7E3FC0221D0
:102E00004DF22230FDF7DEFCA4214DF22330FDF718
:102E1000D9FC02214DF22430FDF7D4FCB7214DF24C
:102E20002530FDF7CFFC02214DF22630FDF7CAFC1C
:102E3000CF214DF22730FDF7C5FC02214DF228309D
:102E4000FDF7C0FCDE214DF22930FDF7BBFC02216D
:102E50004DF22A30FDF7B6FCF2214DF22B30FDF792
:102E6000B1FC02214DF22C30FDF7ACFCFE214DF2FD
:102E70002D30FDF7A7FC03214DF22E30FDF7A2FC0B
:102E800010214DF22F30FDF79DFC03214DF2303023
:102E9000FDF798FC33214DF23130FDF793FC03210F
:102EA0004DF23230FDF78EFC6D214DF23330FDF7DF
:102EB00089FC00214FF45440FDF784FC332100E0ED
:102EC00080E34DF20140FDF77DFC00214DF2024010
:102ED000FDF778FC34214DF20340FDF773FC00212F
:102EE0004DF20440FDF76EFC3A214DF20540FDF72E
:102EF00069FC00214DF20640FDF764FC4A214DF2C9
:102F00000740FDF75FFC00214DF20840FDF75AFC39
:102F10005C214DF20940FDF755FC00214DF20A40BD
:102F2000FDF750FC81214DF20B40FDF74BFC0021D9
:102F30004DF20C40FDF746FCA6214DF20D40FDF789
:102F400041FC00214DF20E40FDF73CFCE5214DF225
:102F50000F40FDF737FC01214DF21040FDF732FC28
:102F600013214DF21140FDF72DFC01214DF21240CD
:102F7000FDF728FC54214DF21340FDF723FC0121FD
:102F80004DF21440FDF71EFC82214DF21540FDF775
:102F900019FC01214DF21640FDF714FCCA214DF237
:102FA0001740FDF70FFC02214DF21840FDF70AFC17
:102FB00000214DF21940FDF705FC022100E004E379
:102FC0004DF21A40FDF7FEFB01214DF21B40FDF7CB
:102FD000F9FB02214DF21C40FDF7F4FB34214DF2C8
:102FE0001D40FDF7EFFB02214DF21E40FDF7EAFB0D
:102FF00067214DF21F40FDF7E5FB02214DF2204015
:10300000FDF7E0FB84214DF22140FDF7DBFB0221BF
:103010004DF22240FDF7D6FBA4214DF22340FDF7EF
:10302000D1FB02214DF22440FDF7CCFBB7214DF23C
:103030002540FDF7C7FB02214DF22640FDF7C2FBFC
:10304000CF214DF22740FDF7BDFB02214DF2284074
:10305000FDF7B8FBDE214DF22940FDF7B3FB02215D
:103060004DF22A40FDF7AEFBF2214DF22B40FDF769
:10307000A9FB02214DF22C40FDF7A4FBFE214DF2ED
:103080002D40FDF79FFB03214DF22E40FDF79AFBEB
:1030900010214DF22F40FDF795FB03214DF23040FA
:1030A000FDF790FB33214DF23140FDF78BFB0321FF
:1030B0004DF23240FDF786FB6D214DF23340FDF7B6
:1030C00081FB00214FF45540FDF77CFB33214DF28D
:1030D0000150FDF777FB00214DF20250FDF772FB26
:1030E00034214DF20350FDF76DFB00214DF20450E9
:1030F000FDF768FB3A214DF20550FDF763FB002117
:103100004DF20650FDF75EFB4A214DF20750FDF7E8
:1031100059FB00214DF20850FDF754FB5C214DF2A4
:103120000950FDF74FFB00214DF20A50FDF74AFB15
:1031300081214DF20B50FDF745FB00214DF20C5063
:10314000FDF740FBA6214DF20D50FDF73BFB0021A2
:103150004DF20E50FDF736FBE5214DF20F50FDF715
:1031600031FB01214DF21050FDF72CFB13214DF2E4
:103170001150FDF727FB01214DF21250FDF722FB04
:1031800054214DF21350FDF71DFB01214DF2145057
:10319000FDF718FB82214DF21550FDF713FB0121BD
:1031A0004DF21650FDF70EFBCA214DF21750FDF7F8
:1031B00009FB02214DF21850FDF704FB00214DF2EE
:1031C0001950FDF7FFFA02214DF21A50FDF7FAFAF5
:1031D00001214DF21B50FDF7F5FA02214DF21C5072
:1031E000FDF7F0FA34214DF21D50FDF7EBFA022104
:1031F0004DF21E50FDF7E6FA67214DF21F50FDF724
:10320000E1FA02214DF22050FDF7DCFA84214DF263
:103210002150FDF7D7FA02214DF22250FDF7D2FAE4
:10322000A4214DF22350FDF7CDFA02214DF2245096
:10323000FDF7C8FAB7214DF22550FDF7C3FA022178
:103240004DF22650FDF7BEFACF214DF22750FDF783
:10325000B9FA02214DF22850FDF7B4FADE214DF201
:103260002950FDF7AFFA02214DF22A50FDF7AAFAD4
:10327000F2214DF22B50FDF7A5FA02214DF22C5010
:10328000FDF7A0FAFE214DF22D50FDF79BFA032128
:103290004DF22E50FDF796FA10214DF22F50FDF70A
:1032A00091FA03214DF23050FDF78CFA33214DF2A3
:1032B0003150FDF787FA03214DF23250FDF782FAC3
:1032C0006D214DF23350FDF77DFA00214FF4564049
:1032D000FDF778FA33214DF20160FDF773FA002112
:1032E0004DF20260FDF76EFA34214DF20360FDF7F6
:1032F00069FA00214DF20460FDF764FA3A214DF2BB
:103300000560FDF75FFA00214DF20660FDF75AFAFD
:103310004A214DF20760FDF755FA00214DF2086091
:10332000FDF750FA5C214DF20960FDF74BFA0021E0
:103330004DF20A60FDF746FA81214DF20B60FDF770
:1033400041FA00214DF20C60FDF73CFAA6214DF246
:103350000D60FDF737FA00214DF20E60FDF732FAED
:10336000E5214DF20F60FDF72DFA01214DF21060BD
:10337000FDF728FA13214DF21160FDF723FA012120
:103380004DF21260FDF71EFA54214DF21360FDF765
:1033900019FA01214DF21460FDF714FA82214DF261
:1033A0001560FDF70FFA01214DF21660FDF70AFADC
:1033B000CA214DF21760FDF705FA02214DF218609F
:1033C000FDF700FA00214DF21960FDF7FBF902212B
:1033D0004DF21A60FDF7F6F901214DF21B60FDF781
:1033E000F1F902214DF21C60FDF7ECF934214DF2A8
:1033F0001D60FDF7E7F902214DF21E60FDF7E2F9CD
:1034000067214DF21F60FDF7DDF902214DF22060CA
:10341000FDF7D8F984214DF22160FDF7D3F902219F
:103420004DF22260FDF7CEF9A4214DF22360FDF7A5
:10343000C9F902214DF22460FDF7C4F9B7214DF21C
:103440002560FDF7BFF902214DF22660FDF7BAF9BC
:10345000CF214DF22760FDF7B5F902214DF228602A
:10346000FDF7B0F9DE214DF22960FDF7ABF902213D
:103470004DF22A60FDF7A6F9F2214DF22B60FDF71F
:10348000A1F902214DF22C60FDF79CF9FE214DF2CD
:103490002D60FDF797F903214DF22E60FDF792F9AB
:1034A00010214DF22F60FDF78DF903214DF23060B0
:1034B000FDF788F933214DF23160FDF783F90321DF
:1034C0004DF23260FDF77EF96D214DF23360FDF76C
:1034D00079F955212046FDF775F9AA212846FDF70F
:1034E00071F952213846FDF76DF908216046FDF764
:1034F00069F900214046FDF765F9CC215046FDF7FA
:1035000061F900215846FDF75DF905214846FDF7B0
:1035100059F970214FF43740FDF754F970214BF2FF
:103520000170FDF74FF901214FF43840FDF74AF9DA
:1035300003214BF60100FDF745F903214BF602008C
:10354000FDF740F903214BF60300FDF73BF902219B
:103550004FF43C40FDF736F900214BF60140FDF7F2
:1035600031F900214BF60240FDF72CF9D0214FF440
:103570004940FDF727F902214CF60110FDF722F929
:1035800050214CF60210FDF71DF950214CF60310A6
:10359000FDF718F950214CF60410FDF713F900213E
:1035A0004FF45450FDF70EF955214FF46850FDF7D4
:1035B00009F94FF48850FDF7E7F8782001F0A0FCF6
:1035C0004FF42450FDF7E0F8FEE3A0F513414FF46B
:1035D00080744FF4E06740F2022840F23F194FF444
:1035E000274A253925D0FD1DC91E7DD04FF4887B83
:1035F0004FF41C5A083178D0113977D0A0F5A84182
:10360000083974D0A0F5A8514FF4407B05396FD02C
:10361000B1F520416DD0B1F580516BD0A0F58A4154
:10362000313968D0091F67D0A0F5C85163397CD003
:10363000CAE747F6F001E520FDF7C4F8214601206E
:10364000FDF7C0F839460220FDF7BCF841F2300121
:103650000320FDF7B7F800210420FDF7B3F8414639
:103660000820FDF7AFF800210920FDF7ABF8002195
:103670000A20FDF7A7F800210C20FDF7A3F8002190
:103680000D20FDF79FF800210F20FDF79BF800218A
:103690001020FDF797F807211120FDF793F800217E
:1036A0001220FDF78FF800211320FDF78BF8002181
:1036B0000720FDF787F841F290611020FDF782F8AE
:1036C00040F227211120FDF77DF89D211220FDF702
:1036D00079F84FF4C8511320FDF774F825212920FB
:1036E000FDF770F80D2108E07AE031E1D4E1A8E2BD
:1036F00042E3FDE3FDE3FDE3FDE32B20FDF762F88C
:1037000007213020FDF75EF840F203313120FDF74C
:1037100059F803213220FDF755F840F206213520F3
:10372000FDF750F80821362000E0FCE3FDF74AF8E9
:1037300040F206413720FDF745F84FF4417138203B
:10374000FDF740F807213920FDF73CF840F202610F
:103750003C20FDF737F808213D20FDF733F8002124
:103760005020FDF72FF8EF215120FDF72BF8002115
:103770005220FDF727F849465320FDF723F851461C
:103780006020FDF71FF801216120FDF71BF80021E3
:103790006A20FDF717F800218020FDF713F80021BB
:1037A0008120FDF70FF800218220FDF70BF80021A2
:1037B0008320FDF707F800218420FDF703F800219E
:1037C0008520FCF7FFFF10219020FCF7FBFF4FF452
:1037D000C0619220FCF7F6FF40F233110720FCE3B2
:1037E00041F28F01EC20FCF7EDFF41F23421EF2094
:1037F000FCF7E8FF21460120FCF7E4FF39460220F0
:10380000FCF7E0FF41F230010320FCF7DBFF002171
:103810000420FCF7D7FF41460820FCF7D3FF002126
:103820000920FCF7CFFF00210A20FCF7CBFF012184
:103830000C20FCF7C7FF00210D20FCF7C3FF00217F
:103840000F20FCF7BFFF00211020FCF7BBFF072172
:103850001120FCF7B7FF00211220FCF7B3FF002175
:103860001320FCF7AFFF01210720FCF7ABFF32204C
:1038700001F065FB41F290411020FCF7A3FF40F2FC
:1038800027211120FCF79EFF322001F058FB8A21EE
:103890001220FCF797FF322001F051FB4FF4D0517A
:1038A0001320FCF78FFF06212920FCF78BFF0D2149
:1038B0002B20FCF787FF322001F041FB0021202064
:1038C000FCF780FF00212120FCF77CFF322001F073
:1038D00036FB00213020FCF775FF40F204613120F7
:1038E000FCF770FF40F205313220FCF76BFF00213E
:1038F0003520FCF767FF40F609413620FCF762FFF0
:103900004FF401713720FCF75DFF40F201313820A0
:10391000FCF758FF29463920FCF754FF00213C20D2
:10392000FCF750FF40F60A213D20FCF74BFF322008
:1039300001F005FB00215020FCF744FFEF2151204E
:10394000FCF740FF00215220FCF73CFF494649E1CB
:1039500000210846FCF736FF21460120FCF732FF24
:1039600039460220FCF72EFF41F230010320FCF71C
:1039700029FF00210420FCF725FF41460820FCF721
:1039800021FF00210920FCF71DFF00210A20FCF780
:1039900019FF01210C20FCF715FF00210D20FCF779
:1039A00011FF00210F20FCF70DFF322001F0C7FAB4
:1039B00040F201110720FCF705FF322001F0BFFAA9
:1039C0004FF486511020FCF7FDFE07211120FCF773
:1039D000F9FE5C4659461220FCF7F4FE4FF43061C4
:1039E0001320FCF7EFFE00212920FCF7EBFE44F248
:1039F00010012B20FCF7E6FE00215020FCF7E2FE30
:103A0000EF215120FCF7DEFE00215220FCF7DAFE08
:103A100049465320FCF7D6FE51466020FCF7D2FE03
:103A200001216120FCF7CEFE00216A20FCF7CAFECE
:103A300000218020FCF7C6FE00218120FCF7C2FE99
:103A400000218220FCF7BEFE00218320FCF7BAFE95
:103A500000218420FCF7B6FE00218520FCF7B2FE91
:103A600010219020FCF7AEFE00219220FCF7AAFE68
:103A700001219320FCF7A6FE21469520FCF7A2FE2B
:103A800000219720FCF79EFE00219820FCF79AFE6B
:103A900040F2731107207CE341F21401E720FCF7A8
:103AA00091FE21460120FCF78DFE4FF400710220AB
:103AB000FCF788FE41F238010320FCF783FE414603
:103AC0000820FCF77FFE00210920FCF77BFE002187
:103AD0000A20FCF777FE00210C20FCF773FE002182
:103AE0000D20FCF76FFE00210F20FCF76BFE00217C
:103AF0001020FCF767FE07211120FCF763FE002170
:103B00001220FCF75FFE00211320FCF75BFEC820AB
:103B100001F015FA41F290611020FCF753FE40F2DB
:103B200027211120FCF74EFE322001F008FA0C216B
:103B30001220FCF747FE322001F001FA4FF4006139
:103B40001320FCF73FFE11212920FCF73BFE0B213F
:103B50002B20FCF737FE322001F0F1F90021202064
:103B6000FCF730FE4F4649462120FCF72BFE002192
:103B70003020FCF727FE4FF4837421463120FCF7F8
:103B800021FE00213220FCF71DFE4FF4017135208B
:103B9000FCF718FE41F20A613620FCF713FE2946B5
:103BA0003720FCF70FFE21463820FCF70BFE294694
:103BB0003920FCF707FE40F202413C20FCF702FEF0
:103BC00040F60F413D20FCF7FDFD00215020FCF7A1
:103BD000F9FDEF215120FCF7F5FD00215220FCF703
:103BE000F1FD39465320FCF7EDFD51466020FCF70E
:103BF000E9FD01216120FCF7E5FD00216A20FCF7C9
:103C0000E1FD00218020FCF7DDFD00218120FCF793
:103C1000D9FD00218220FCF7D5FD00218320FCF78F
:103C2000D1FD00218420FCF7CDFD00218520FCF78B
:103C3000C9FD10219020FCF7C5FD4FF4C061922012
:103C4000FEE321460120FCF7BDFD39460220FCF7CA
:103C5000B9FD41F230010320FCF7B4FD002104203E
:103C6000FCF7B0FD40F207210820FCF7ABFD002176
:103C70000920FCF7A7FD00210A20FCF7A3FD002185
:103C80000C20FCF79FFD00210D20FCF79BFD00217F
:103C90000F20FCF797FD142001F051F941F2B061BB
:103CA0001020FCF78FFD01211120FCF78BFD012175
:103CB0001720FCF787FD4FF49C711220FCF782FD62
:103CC0004FF400611320FCF77DFD09212920FCF74A
:103CD00079FD09212A20FCF775FD0021A420FCF7BD
:103CE00071FD00215020FCF76DFDEF215120FCF704
:103CF00069FD00215220FCF765FD49465320FCF781
:103D000061FD51466020FCF75DFD01216120FCF75B
:103D100059FD00216A20FCF755FD00218020FCF7A9
:103D200051FD00218120FCF74DFD00218220FCF790
:103D300049FD00218320FCF745FD00218420FCF78C
:103D400041FD00218520FCF73DFD13219020FCF76B
:103D500039FD00219220FCF735FD03219320FCF76B
:103D600031FD59469520FCF72DFD40F273110720D7
:103D7000FCF728FD32200EE100210720FCF722FD90
:103D8000322001F0DCF84FF48E711220FCF71AFD9E
:103D90000121A420FCF716FD0F210820FCF712FDDD
:103DA00008210A20FCF70EFD08210D20FCF70AFD72
:103DB00029463020FCF706FD07213120FCF702FDE3
:103DC00040F20361322000E061E3FCF7FBFC39467E
:103DD0003320FCF7F7FC41463420FCF7F3FC0221CA
:103DE0003520FCF7EFFC41F60F713620FCF7EAFCBA
:103DF00029463720FCF7E6FC00213820FCF7E2FCDE
:103E000000213920FCF7DEFC29463A20FCF7DAFCD9
:103E100000213B20FCF7D6FC07213C20FCF7D2FC1C
:103E200000213D20FCF7CEFC322001F088F8012172
:103E30000720FCF7C7FC01211720FCF7C3FC322048
:103E400001F07DF84FF4BD511020FCF7BBFC40F2AF
:103E500017211120FCF7B6FC4FF48F711220FCF7EC
:103E6000B1FC4FF470611320FCF7ACFC00212A2058
:103E7000FCF7A8FC0A212920FCF7A4FC4FF49F7151
:103E80001220FCF79FFC00215020FCF79BFCEF2147
:103E90005120FCF797FC00215220FCF793FC494687
:103EA0005320FCF78FFC51466020FCF78BFC01216E
:103EB0006120FCF787FC00216A20FCF783FC0021CD
:103EC0008020FCF77FFC00218120FCF77BFC002197
:103ED0008220FCF777FC00218320FCF773FC002193
:103EE0008420FCF76FFC00218520FCF76BFC03E0CD
:103EF00054E04FE116E2CBE213219020FCF762FC84
:103F000059469220FCF75EFC05219320FCF75AFCF1
:103F100000219520FCF756FC00219720FCF752FC6D
:103F20000021982000E05AE3FCF74CFC21460120D8
:103F3000FCF748FC39460220FCF744FC41F238010A
:103F40000320FCF73FFC00210420FCF73BFC002190
:103F50000C20FCF737FC00210F20FCF733FC00217C
:103F60002020FCF72FFC00212120FCF72BFC212135
:103F70000720FCF727FC142000F0E1FF6121072057
:103F8000FCF720FC142000F0DAFF40F27311072048
:103F9000FCF718FC142000F0D2FFD5E300210846FE
:103FA000FCF710FC00210846FCF70CFC0021084639
:103FB000FCF708FC00210846FCF704FC0121A420C2
:103FC000FCF700FC142000F0BAFF51466020FCF71B
:103FD000F9FB45464146082000E0D6E0FCF7F2FB3D
:103FE0004FF405713020FCF7EDFB43F215713120E1
:103FF000FCF7E8FB40F204613220FCF7E3FB40F6FB
:1040000016613320FCF7DEFB42F211213420FCF76D
:10401000D9FB4FF4A8513520FCF7D4FB48F20751E7
:104020003620FCF7CFFB41F207413720FCF7CAFBF3
:1040300041F203413820FCF7C5FB20213920FCF771
:10404000C1FB1A219020FCF7BDFB00211020FCF7DA
:10405000B9FB07211120FCF7B5FB00211220FCF76A
:10406000B1FB00211320FCF7ADFB142000F067FF2B
:104070004FF4E6611020FCF7A5FB40F23711112048
:10408000FCF7A0FB142000F05AFF4FF4DC71122063
:10409000FCF798FB142000F052FF4FF470611320DE
:1040A000FCF790FB80212A20FCF78CFB482129207B
:1040B000FCF788FB142000F042FF21460120FCF7AA
:1040C00081FB39460220FCF77DFB41F238010320D9
:1040D000FCF778FB29460820FCF774FB00210A2036
:1040E000FCF770FB00210C20FCF76CFB00210D207D
:1040F000FCF768FB30210E20FCF764FB0021502008
:10410000FCF760FBEF215120FCF75CFB0021522003
:10411000FCF758FB49465320FCF754FB51466020FE
:10412000FCF750FB01216120FCF74CFB00216A20C9
:10413000FCF748FB11219020FCF744FB4FF4C061D1
:104140009220FCF73FFB40F202419320FCF73AFB40
:1041500002219420FCF736FB142000F0F0FE012130
:104160000720FCF72FFB142000F0E9FE6121072057
:10417000FCF728FB40F273110720FCF723FB00211A
:104180002020FCF71FFB00212120FCF71BFB222134
:1041900000207AE100210846FCF714FB00210846C4
:1041A000FCF710FB142000F0CAFE00210846FCF7C3
:1041B00009FB00210846FCF705FB00210846FCF737
:1041C00001FB00210846FCF7FDFA0121A420FCF7C1
:1041D000F9FA142000F0B3FE51466020FCF7F2FA21
:1041E00040F606010820FCF7EDFA40F20377394665
:1041F0003020FCF7E7FA01213120FCF7E3FA042133
:104200003220FCF7DFFA4FF481713320FCF7DAFA41
:104210005D4659463420FCF7D5FA40F203113520AB
:10422000FCF7D0FA1F213620FCF7CCFA39463720AC
:10423000FCF7C8FA01213820FCF7C4FA0421392020
:10424000FCF7C0FA15219020FCF7BCFA4FF482610C
:104250001020FCF7B7FA40F247211120FCF7B2FA20
:104260004FF4DE711220FCF7ADFA4FF460611320B9
:10427000FCF7A8FA782000F062FE21460120FCF746
:10428000A1FA4FF400710220FCF79CFA41F23001D0
:104290000320FCF797FA08210A20FCF793FA002183
:1042A0000C20FCF78FFA20210E20FCF78BFA00215E
:1042B0000F20FCF787FA00212020FCF783FA002169
:1042C0002120FCF77FFA3D212A20FCF77BFA1420FD
:1042D00000F035FE2D212920FCF774FA0021502032
:1042E000FCF770FA4DF2EF015120FCF76BFA002158
:1042F0005220FCF767FA49465320FCF763FA002185
:104300006120FCF75FFA00216A20FCF75BFA29467E
:104310009220FCF757FA05219320FCF753FA214627
:10432000FFF7B8BB01210020FCF74CFA0A2000F08F
:1043300006FE41F228611020FCF744FA0E211220FB
:10434000FCF740FA40F639211320FCF73BFA0A202B
:1043500000F0F5FD40211120FCF734FA5021152022
:10436000FCF730FA0A2000F0EAFD1E211220FCF7CB
:1043700029FA0A2000F0E3FD4FF4B1511020FCF7B8
:1043800021FA42F639211320FCF71CFA0A2000F02A
:10439000D6FD21460120FCF715FA59460220FCF70C
:1043A00011FA41F238010320FCF70CFA41460820CB
:1043B000FCF708FA08210A20FCF704FA0021302053
:1043C000FCF700FA40F202413120FCF7FBF94FF410
:1043D00083713220FCF7F6F940F203513320FCF7E9
:1043E000F1F94FF482713420FCF7ECF940F201311D
:1043F0003520FCF7E7F929463620FCF7E3F940F2CF
:1044000005313720FCF7DEF94FF402713820FCF754
:10441000D9F940F60B713920FCF7D4F9022141207B
:10442000FCF7D0F951466020FCF7CCF9012161205E
:10443000FCF7C8F94FF404719020FCF7C3F900E0D1
:10444000C8E04FF485719220FCF7BCF90421932059
:10445000FCF7B8F92146A020FCF7B4F901210720A8
:10446000FCF7B0F921210720FCF7ACF92321072044
:10447000FCF7A8F933210720FCF7A4F940F2331127
:104480000720FCF79FF90021A020FCF79BF95BE1D6
:1044900030211520FCF796F910219A20FCF792F9AB
:1044A00020211120FCF78EF943F228411020FCF75F
:1044B00089F902211220FCF785F941F23801132015
:1044C000FCF780F9282000F03AFD12210846FCF79D
:1044D00079F9282000F033FD43F220411020FCF749
:1044E00071F943F238011320FCF76CF9462000F013
:1044F00026FD00213020FCF765F940F20241312011
:10450000FCF760F940F207313220FCF75BF94FF419
:1045100041713320FCF756F904213420FCF752F99D
:1045200040F201413520FCF74DF929463620FCF7D1
:1045300049F940F205313720FCF744F94FF4C265E0
:1045400029463820FCF73EF929463920FCF73AF98C
:1045500021460120FCF736F959460220FCF732F9D2
:1045600041F230010320FCF72DF940F60801082044
:10457000FCF728F908210A20FCF724F951466020AD
:10458000FCF720F901216120FCF71CF94FF49F7121
:104590009020FCF717F921469220FCF713F92146E9
:1045A0009320FCF70FF94FF44051A020FCF70AF9D3
:1045B0001021A320FCF706F901210720FCF702F9DE
:1045C00021210720FCF7FEF823210720FCF7FAF849
:1045D00033210720FCF7F6F840F23311A0E6E22081
:1045E000FCF7D2F82320FCF7D9F80220FCF7D6F824
:1045F0000420FCF7D3F8642000F082FCE020FCF7F4
:10460000C3F80120FCF7CAF80A2000F098FCE0206B
:10461000FCF7BAF80320FCF7C1F80C2000F08FFC7F
:104620000120FCF7B1F80A2000F089FCE620FCF735
:10463000ABF80320FCF7B2F8FF20FCF7AFF8FF203F
:10464000FCF7ACF8B020FCF79FF82020FCF7A6F8A8
:104650000020FCF7A3F80320FCF7A0F840F21F307D
:10466000FCF79CF80120FCF799F840F2DF10FCF70A
:1046700095F80020FCF792F8B420FCF785F80420A8
:10468000FCF78CF840F21F40FCF788F80020FCF79C
:1046900085F8D220FCF782F80020FCF77FF8002094
:1046A000FCF77CF80020FCF779F80020FCF776F89E
:1046B000B620FCF769F80220FCF770F84FF403709D
:1046C000FCF76CF80020FCF769F82220FCF766F88C
:1046D0000920FCF763F80020FCF760F80020FCF7E5
:1046E0005DF8F020FCF750F80320FCF757F829207C
:1046F000FCF74AF8D020FCF747F80020FCF74EF80A
:10470000BE20FCF741F80520FCF748F8FE20FCF736
:1047100045F80120FCF742F8FF20FCF73FF80020A5
:10472000FCF73CF8B820FCF72FF80F20FCF736F820
:104730000120FCF733F8BA20FCF726F80120FCF73B
:104740002DF86420FCF76AFB0020FCF789FBFF4989
:104750000120C1F880013046BDE8F05FFCF70DBDD7
:104760002DE9F843FA4D1F468046AB88089EA3F515
:10477000D040043802D1A879012807D0A2EB080064
:10478000401C85B20C46DFF8CC9328E02B88084605
:10479000991A0024AC713A462A24A3EB08036C81D1
:1047A0002B27491E5B1EAF8189B29BB20096FFF793
:1047B000D7FF0120A8716F81AC81BDE8F883214645
:1047C0004046FCF72AF8FCF712F80020494602E0C0
:1047D000401C0E8080B2A842FAD3641CA4B2BC4232
:1047E000EDD9EAE72DE9F0478246A2EB0A00401C2A
:1047F0000E4685B2981B401C87B20024DFF8549304
:10480000DDF8208014E0301981B25046FCF705F83D
:10481000FBF7EDFF0020494606E004FB0503401CC2
:1048200038F813200A8080B2A842F6D3641CA4B2E0
:10483000BC42E8D3BDE8F0872DE9FE4F0026A2EB8D
:10484000000882465F1A701E35468946B8F1000F8F
:1048500002DD4FF0010102E003D14FF000010191B0
:1048600002E0C8F100080190002F02DD4FF00100C6
:1048700002E003D14FF00000009002E0C7F1000712
:1048800000904046B84501DD044600E03C46601C0F
:104890004FF0000B029015E01FFA89F11FFA8AF021
:1048A000FCF72DFA46443D44A64202DD0199361B31
:1048B0008A44A54202DD00992D1B89440BF10100B9
:1048C0001FFA80FB02998B45E6DDBDE8FE8FF0B54F
:1048D0001C4615460E4607460B46FFF7ADFF3A4607
:1048E000234631461046FFF7A7FF23462A461946BE
:1048F0003846FFF7A1FF2A4623463146BDE8F0407F
:10490000104699E72DE9FC4F804600241546032008
:104910000F46A0EB450649E0781B81B208EB040A7C
:1049200001901FFA8AF0FCF7EAF9381B81B208EB14
:10493000050900901FFA89F0FCF7E1F907EB040B79
:104940001FFA8BF11FFA89F0FCF7D9F907EB05097B
:104950001FFA89F11FFA8AF0FCF7D1F9A8EB040AD3
:104960001FFA89F11FFA8AF0FCF7C9F9A8EB0509CB
:104970001FFA8BF11FFA89F0FCF7C1F9019881B297
:104980001FFA8AF0FCF7BBF9009881B21FFA89F090
:10499000FCF7B5F9641C002E03DA06EB8406B61D9D
:1049A00004E0601B06EB80066D1E0A36AC42B3DDE8
:1049B000BDE8FC8F2DE9F84F82461F460C468B461A
:1049C000580700D0012000EBD70079084843203A6F
:1049D000C0B202F0FF090026009041E00C2F10D079
:1049E000102F12D0182F3ED15B4909EBC90001EB03
:1049F00080004FF00008855D28060AD557480288D8
:104A00000BE009EB49005649F1E7564901EB091063
:104A1000EFE70A9828B95148428821465046FCF7EA
:104A200078F96806050E4A48641CA4B24088A04282
:104A300019D9A4EB0B00B84209D10AF101001FFA01
:104A400080FA43485C46018851450CD906E008F1DC
:104A5000010000F0FF08B8F1080FCDD3761CF6B2C4
:104A600000988642BAD3BDE8F88F0346012000E0E3
:104A70005843491EC9B2FBD270472DE9FF4F81B0A0
:104A80000027DDF838B01D46924680463C46B946C0
:104A90004FEA5B0627E0281B401EC1B20A20FFF741
:104AA000E4FFBAFBF0F00A21B0FBF1F201FB1200C7
:104AB00027B9691E8C4201DA48B101273030C2B2F1
:104AC00006FB048080B25B46CDF8009006E006FB52
:104AD000048080B25B462022CDF800900299FFF757
:104AE00069FF641CE4B2AC42D5D305B0BDE8F08FD9
:104AF0002DE9FF4F81B08046DDF83CA00E984FF0C5
:104B000000091F4693464C460AF00105460839E065
:104B1000381B401EC1B20A20FFF7A7FFBBFBF0F015
:104B20000A21B0FBF1F201FB1200B9F1000F05D12F
:104B3000791E8C4202DAB8B14FF001093030C2B2AE
:104B400006FB048080B200950E9B16E00080214297
:104B5000DC0900200008006C44CB00084C00002059
:104B6000E0C0000854C500085FEA0A6006FB048044
:104B70000E9B80B2009508D530220299FFF71AFFEC
:104B8000641CE4B2BC42C3D3AFE72022F5E72DE9B1
:104B9000F84F044600F0FF0810190D46DDE90A76CB
:104BA0001FFA80FA58191FFA80F94FF0000B11E034
:104BB000544502D3E819444685B24D450FD23B46D1
:104BC00029462046CDF800B0FFF7F4FE04EB57006D
:104BD00084B2761C3278A2F120005E28E8D942E740
:104BE00008B50121442000F0AAFE1C20ADF8000009
:104BF00048208DF803006946364800F024FB012068
:104C0000ADF8000028208DF803006946324800F016
:104C10001AFB08BD2DE9F041304C2F4F2D4D0126D8
:104C200008B1267001E02078A0B11021284600F0DC
:104C300060FBB0B10821284600F05BFB88B104217D
:104C4000284600F056FB60B10121384600F051FBC8
:104C5000012806D01021284600F04BFB012824D063
:104C600035E00A2000F06BF9002020701021284662
:104C700000F03FFB80B10821284600F03AFB70B1FC
:104C80000421284600F035FB58B10121384600F0D8
:104C900030FB012807D01AE00120BDE8F081022096
:104CA000FBE70320F9E70420F7E70821284600F096
:104CB00020FB01280BD10421284600F01AFB012813
:104CC00005D10121384600F014FB00B92670002000
:104CD000E3E70000001801400008014050000020F8
:104CE0004E48416941F480714161816941F0200180
:104CF0008161816941F040018161816941F08001F8
:104D00008161816941F480718161454801680021B8
:104D10000160026842F0BB320260001F026802F0CC
:104D2000FF220260026842F0BB1202603D48026846
:104D30000160026842F0BB320260001F02683A4B19
:104D40001A4002600268394B1A4302603848026810
:104D500092B202600268374B1A430260001F026879
:104D600002F07F4202600368334A13430360334812
:104D7000436823F470634360436843F430634360E3
:104D8000036803F07F4303600368134303604FF03D
:104D9000204001614161C0F81411016941F4805162
:104DA0000161016941F010010161416941F4407103
:104DB000416141694161416941616FF07041C0F8F1
:104DC0001411016941F001010161704710B5002A19
:104DD00007D04FF0D04310F8014B5C54491C521ED1
:104DE000F7D110BD002A07D04FF0D0435B5C491CBF
:104DF00000F8013B521EF7D1704703B5014601226E
:104E000001A8FFF7E3FF0CBD08B501460122684683
:104E1000FFF7E8FF9DF8000008BD00000010024009
:104E2000041401400418014000FFFF0FBB0000B054
:104E3000041C01400000BBBBBBBBBB000020014009
:104E400038B50121082000F07AFD4FF48074ADF8E8
:104E5000004010208DF803000320064D8DF802005D
:104E60006946284600F0EFF92146284600F057FA37
:104E700038BD0000000C014008B5684602F0C0F8DB
:104E800008BD08B5684602F0F4F808BD08B56A46E2
:104E9000082106F045F808BD364810B5007801280D
:104EA00007D102F03BF806F098F9BDE8104002F097
:104EB00040B810BD10B56FF0040000F05AF92E484C
:104EC0002E492F4B0068304CB0FBF1F2B0FBF1F0F3
:104ED0001A702C4A1168B4FBF1F1414310684FF489
:104EE0007A72B2FBF0F058804FF0E020026942F095
:104EF000020202614161016941F00101016110BDDD
:104F0000F8B54FF0E02700247E691D49097800FBC1
:104F100001F5684602F074F8B969B8698842FCD0B6
:104F200002D2A1EB000102E0A6EB000211440C4406
:104F30000146AC42F1D3684602F09BF8F8BD70B56B
:104F400004460C48007878B11048007860B90C4DE0
:104F50006888844203D3B4FBF0F0FFF797FF6888BA
:104F6000B4FBF0F100FB11444FF47A706043BDE8EC
:104F70007040C5E7BD0000203800002000127A0014
:104F800052000020ACDA000840420F00BC000020B4
:104F9000704741490A885206FCD53F4AC1B2121DEA
:104FA00011807047F0B5064687B0012144F2040035
:104FB00000F0C5FC384D284600F020FA6815ADF821
:104FC000100003248DF812401820344F8DF8130080
:104FD00004A9384600F037F92815ADF81000042070
:104FE0008DF8130004A9384600F02DF925208DF81E
:104FF00014008DF815408DF8164001208DF817002B
:1050000005A800F076F80021ADF80810ADF80410FE
:105010000C20ADF80610ADF80C10ADF80A000096A3
:105020006946284600F01AFA012240F22551284626
:1050300000F091FA0121284600F083FA07B0F0BD94
:1050400070B5154C40F22551204600F03BFB00287E
:105050000ED0204600F0CFFA114AC1B210880304E6
:1050600006D444044FF0000306D50A2901D013806A
:1050700070BD40F400400DE00D2909D0C0F30D04CF
:10508000084D401C80B229551080C728EFD870BD4C
:1050900040F48040108070BD00380140000801409D
:1050A00056000020EA0900200948804709480047C7
:1050B000FEE7FEE7FEE7FEE7FEE7FEE7FEE7FEE7C8
:1050C000FEE7FEE704480549054A064B7047000025
:1050D0008106000831010008E8D40020E8DA002049
:1050E000E8D60020E8D6002028490843284908606F
:1050F000704730B50F23C27801780125F2B1244AF8
:10510000126801F1E02102F4E062C2F5E062120AE5
:10511000C2F10404D3404278A24084781C40144376
:10512000220181F80024007800F01F018D40400921
:10513000800000F1E020C0F8005130BD01F01F00F8
:1051400085404809800000F1E020C0F8805130BD62
:10515000104A114001430E48001F016070470C4A7D
:10516000121D0029116801D0014300E08143116044
:1051700070474FF0E0210428086903D020F00400B4
:105180000861704740F00400FAE700000000FA05EB
:105190000CED00E080FFFF1F8F4910B5884206D15B
:1051A0000121042000F0DDFB002104203BE08B49BD
:1051B000884206D10121082000F0D3FB00210820FD
:1051C00031E08749884206D10121102000F0C9FB57
:1051D0000021102027E08349884206D101212020A8
:1051E00000F0BFFB002120201DE07F49884206D14E
:1051F0000121402000F0B5FB0021402013E07B4955
:10520000884206D10121802000F0ABFB00218020E4
:1052100009E0774988420AD184150121204600F02F
:10522000A0FB00212046BDE8104000F09ABB10BD55
:1052300010B50121084600F094FB0021BDE81040A4
:10524000012000F08EBBF0B5CC78002204F00F03F3
:10525000E40601D58C7823430C784FF00F0C14F042
:10526000FF0F4FF0010E1BD005680E880EFA02F4F6
:105270002640A64210D196000CFA06F725EA070749
:1052800003FA06F5CE783D43282E02D0482E02D0F0
:1052900002E0446100E00461521C082AE5D3056085
:1052A0000A88FF2A1CD94468002202F108060EFA77
:1052B00006F50E882E40AE420ED196000CFA06F787
:1052C000BC4303FA06F7CE783C43282E00D1456153
:1052D000CE78482E00D10561521C082AE5D34460DF
:1052E000F0BD4FF6FF710180022181700421C17071
:1052F00070470246002092680A4200D001207047A1
:10530000806880B2704702460020D2680A4200D00E
:1053100001207047C06880B27047016170474161E9
:1053200070470AB10161704741617047C1607047C1
:1053300041F4803282618161826181698069704754
:105340002C4B10B51A684FF68074224042EA0010C8
:105350000843186010BD2849C8617047F0B5254C56
:10536000002801DAE36900E06368450D2E0185B28B
:10537000C0F30157B540C0F30342032F05D0C60266
:105380000AD503269640B34307E023F070626368B2
:1053900023F07063636002E0AB4343F0706201B1DD
:1053A0002A43002801DAE261F0BD6260F0BD10B569
:1053B0008A0721F003040F49120F21440F238C6840
:1053C00093409C438C608B68904003438B6010BD7E
:1053D0000949C1F8DC00704700080140000C014099
:1053E000001001400014014000180140001C014061
:1053F000002001400000014000002042C44910B5D7
:1054000088420AD101218C03204600F0AAFA2046E6
:10541000BDE81040002100F0A4BABE49884202D184
:1054200001214C0410E0BC49884202D101218C04C6
:105430000AE0BA49884202D10121CC0404E0B8490B
:1054400088420AD101210C05204600F093FA20463B
:10545000BDE81040002100F08DBA10BD30B5044603
:10546000008A85B00D464CF6FF710840E98801437B
:105470002182A0894EF6F3110840A9882A89114398
:105480006A8902431143A181A08A4FF6FF41084077
:10549000A9890143A182684600F006FA9C4884422B
:1054A00001D1039800E00298A189090400EBC00132
:1054B00001EB0010296801D5490000E08900B0FB2C
:1054C000F1F06422B0FBF2F109010B096FF018054D
:1054D0006B4300EB8300A3891D044FF0320306D514
:1054E00003EBC000B0FBF2F000F0070005E003EBB7
:1054F0000010B0FBF2F000F00F000843208105B06F
:1055000030BD4FF41651016000218180C1800181BE
:105510000C2242818181704710B5028A4FF2FF034D
:105520001A400B884C8823438C88C9880C4323433A
:105530001343038210BD0021018041808180C1801E
:1055400070470029818902D041F4005101E021F423
:1055500000518181704710B5C1F3421301F01F045F
:105560000121A140012B07D0022B07D01430002AC3
:10557000026805D00A4304E00C30F8E71030F6E783
:105580008A43026010BD002A828A01D00A4300E0EB
:105590008A4382827047028A22F00F020282028AC4
:1055A0000A4302827047828922F4006282818289E2
:1055B0000A43828170470029818902D041F00201AB
:1055C00001E021F0020181817047028A22F020026D
:1055D0000282028A0A43028270470029018A02D0AD
:1055E00041F4804101E021F4804101827047C1F320
:1055F0000801818070478088C0F308007047818966
:1056000041F0010181817047028BD2B20283028B8B
:1056100042EA012101837047028B02F47F42028338
:10562000028B0A43028370470029818A02D041F02D
:10563000200101E021F02001818270470029818A48
:1056400002D041F0100101E021F010018182704789
:105650000029818A02D041F0080101E021F008010F
:10566000818270470029818902D041F4004101E024
:10567000C1F30E01818170470029818A02D041F473
:10568000006101E021F4006181827047828A22F08A
:1056900004028282828A0A43828270470029818AB8
:1056A00002D041F0020101E021F002018182704745
:1056B0000246002012880A4200D001207047C943E8
:1056C0000180704770B501F01F0501260024C1F369
:1056D000421306FA05F2012B0FD0022B0FD0838A5A
:1056E0004FEA11210088134206FA01F600EA06008B
:1056F00001D000B10124204670BD8389F0E7038A00
:10570000EEE70A0A01219140C94301807047000079
:10571000003801400044004000480040004C004078
:1057200000500040A548016841F001010160416856
:10573000A34A114041600168A24A1140016001681A
:1057400021F480210160416821F4FE0141604FF4A1
:105750001F018160704799490A6822F480320A600B
:105760000A6822F480220A60B0F5803F07D0B0F5C5
:10577000802F03D1086840F4A020086070470868B3
:1057800040F48030F9E70346002059098B4A01298B
:105790000AD002290AD0516A03F01F020123934064
:1057A0000B4200D0012070471168F5E7116AF3E75A
:1057B00018B500204FF4A06400903120FFF7E3FFFC
:1057C0000099491C0091A14201D00028F5D0312058
:1057D000FFF7D9FF002800D0012018BD774A1168D3
:1057E00021F0F80141EAC000106070477649086076
:1057F0007047724B5A68084322F47C121043586079
:1058000070477149086670476C4A516821F003017E
:105810000143516070476948406800F00C007047D0
:10582000664A516821F0F001014351607047634AB4
:10583000516821F4E0610143516070475F4A51684B
:1058400021F4605141EAC000506070475B4A002972
:10585000517A01D0014300E08143517270475A49A7
:10586000C1F8D8007047554A516821F440410143BE
:10587000516070475149002281F8202081F8202092
:10588000012802D0042802D1052081F820007047A9
:105890004E490860704749490A6A02430A627047E4
:1058A0004A4944390860704730B5444A5168484B0A
:1058B00011F00C0103D0042901D0082901D00360A4
:1058C00012E05168536801F470114FF0020413F4B0
:1058D000803F04EB914102D053689B0301D53D4BBF
:1058E00000E03B4B5943016051680F2303EA11115B
:1058F000394B5C5C0168E14041605468072505EA6A
:1059000014241C5D21FA04F48460546805EAD4244C
:105910001B5DD940C1605268032303EA92322E4BCB
:105920001B1F9A5CB1FBF2F1016130BD234A0029D3
:10593000516901D0014300E08143516170471F4A22
:105940000029916901D0014300E0814391617047D2
:105950001A4A0029D16901D0014300E08143D16195
:105960007047164A0029D16801D0014300E0814305
:10597000D1607047114A0029116901D0014300E04C
:1059800081431161704711494039086070470E49E1
:10599000C86470470949C87170470848416A41F0B6
:1059A000807141627047054A0146002092680A42B0
:1059B00000D00120704701498872704700100240F2
:1059C0000000FFF8FFFFF6FE000042428004424262
:1059D00000127A0000093D006000002003E011F889
:1059E000013B00F8013B521EF9D2704701E000F87C
:1059F000011B521EFBD2704770B504466448654EC9
:105A0000002150F8240006EB840542002869FFF7C6
:105A1000EDFF5F480021103050F82420A868FFF700
:105A2000E5FF01203119087670BD10B5584B594C6F
:105A3000002253F82030114604EB800005E0046991
:105A400034F8114004B1521C491C8B42F7D8642031
:105A50004243B2FBF3F0C0B210BD2DE9F0414D4E10
:105A60000546002470190F46007E10B9316828469B
:105A700088474FF0FF327FB3454B083353F825106A
:105A8000B7FBF1F0B7FBF1FC01FB1C7101B1401C4D
:105A90003F4951F82510491E1ED406EB850637698B
:105AA00037F811C0BCF1000F05D00024844211D199
:105AB000002284B207E0641CF8E7376901EB020CAE
:105AC000521C27F81C408242F7D353F82500484364
:105AD000BDE8F081491EE3D51046F9E770B52D4ABF
